:020000040800F2
:1000000000500020698F0008518F0008538F0008AE
:10001000558F0008578F0008598F00080000000016
:100020000000000000000000000000005B8F0008DE
:100030005D8F0008000000005F8F0008618F0008DE
:10004000B18F0008B18F0008B18F0008B18F000890
:10005000B18F0008B18F0008B18F0008B18F000880
:10006000B18F0008B18F0008B18F0008B18F000870
:10007000B18F0008B18F0008B18F0008B18F000860
:10008000B18F0008B18F0008B18F0008B18F000850
:10009000B18F0008B18F0008B18F0008717000089F
:1000A000B18F0008B18F0008B18F0008B18F000830
:1000B00029290008B18F0008B18F0008B18F00080E
:1000C000B18F0008B18F0008B18F0008B18F000810
:1000D000B18F0008B18F00080924000849420008C8
:1000E000F96F0008B18F0008B18F00080000000010
:1000F0000000000000000000000000000000000000
:0C01000000000000000000005FF808F1A3
:1001100010B5054C237833B9044B13B10448AFF341
:1001200000800123237010BD480000200000000063
:10013000F4A5000808B5034B1BB103490348AFF30E
:10014000008008BD000000004C000020F4A500085D
:10015000034613F8012B002AFBD1181A0138704707
:1001600080F0004002E000BF81F0004142001FBF6C
:100170005FEA410392EA030F7FEA226C7FEA236C75
:100180006AD04FEA1262D2EB1363C1BFD21841406A
:1001900048404140B8BF5B42192B88BF704710F000
:1001A000004F40F4000020F07F4018BF404211F0A3
:1001B000004F41F4000121F07F4118BF494292EA0B
:1001C000030F3FD0A2F1010241FA03FC10EB0C0037
:1001D000C3F1200301FA03F100F0004302D54942C4
:1001E00060EB4000B0F5000F13D3B0F1807F06D371
:1001F00040084FEA310102F10102FE2A51D2B1F169
:10020000004F40EBC25008BF20F0010040EA03005D
:100210007047490040EB0000013A28BFB0F5000FDD
:10022000EDD2B0FA80FCACF1080CB2EB0C0200FA93
:100230000CF0AABF00EBC25052421843BCBFD040E2
:100240001843704792F0000F81F4000106BF80F45C
:1002500000000132013BB5E74FEA41037FEA226C1F
:1002600018BF7FEA236C21D092EA030F04D092F0EA
:10027000000F08BF0846704790EA010F1CBF00201E
:10028000704712F07F4F04D1400028BF40F000407B
:10029000704712F100723CBF00F50000704700F09B
:1002A000004343F0FE4040F4000070477FEA2262C2
:1002B00016BF08467FEA23630146420206BF5FEA93
:1002C000412390EA010F40F4800070474FF0000393
:1002D00004E000BF10F0004348BF40425FEA000C5A
:1002E00008BF704743F0964301464FF000001CE002
:1002F00050EA010208BF70474FF000030AE000BF58
:1003000050EA010208BF704711F0004302D5404295
:1003100061EB41015FEA010C02BF84460146002007
:1003200043F0B64308BFA3F18053A3F50003BCFA22
:100330008CF2083AA3EBC25310DB01FA02FC6344CF
:1003400000FA02FCC2F12002BCF1004F20FA02F2D6
:1003500043EB020008BF20F00100704702F12002C9
:1003600001FA02FCC2F1200250EA4C0021FA02F22A
:1003700043EB020008BF20EADC7070474FF0FF0C2F
:100380001CEAD0521EBF1CEAD15392EA0C0F93EA2A
:100390000C0F6FD01A4480EA010C400218BF5FEACC
:1003A00041211ED04FF0006343EA501043EA51113F
:1003B000A0FB01310CF00040B1F5000F3EBF490039
:1003C00041EAD3715B0040EA010062F17F02FD2A3D
:1003D0001DD8B3F1004F40EBC25008BF20F0010020
:1003E000704790F0000F0CF0004C08BF49024CEA37
:1003F000502040EA51207F3AC2BFD2F1FF0340EAC9
:10040000C250704740F400004FF00003013A5DDC39
:1004100012F1190FDCBF00F000407047C2F100027A
:10042000410021FA02F1C2F1200200FA02FC5FEA67
:10043000310040F1000053EA4C0308BF20EADC70B1
:10044000704792F0000F00F0004C02BF400010F423
:10045000000F013AF9D040EA0C0093F0000F01F0D0
:10046000004C02BF490011F4000F013BF9D041EAF2
:100470000C018FE70CEAD15392EA0C0F18BF93EAF4
:100480000C0F0AD030F0004C18BF31F0004CD8D11E
:1004900080EA010000F00040704790F0000F17BFA5
:1004A00090F0004F084691F0000F91F0004F14D0EB
:1004B00092EA0C0F01D142020FD193EA0C0F03D143
:1004C0004B0218BF084608D180EA010000F0004046
:1004D00040F0FE4040F40000704740F0FE4040F421
:1004E000400070474FF0FF0C1CEAD0521EBF1CEAC0
:1004F000D15392EA0C0F93EA0C0F69D0A2EB0302DE
:1005000080EA010C49024FEA402037D04FF0805377
:1005100043EA111143EA10130CF000408B4238BF3C
:100520005B0042F17D024FF4000C8B4224BF5B1A4A
:1005300040EA0C00B3EB510F24BFA3EB510340EA98
:100540005C00B3EB910F24BFA3EB910340EA9C0046
:10055000B3EBD10F24BFA3EBD10340EADC001B01B6
:1005600018BF5FEA1C1CE0D1FD2A3FF650AF8B425A
:1005700040EBC25008BF20F0010070470CF0004C67
:100580004CEA50207F32C2BFD2F1FF0340EAC25092
:10059000704740F400004FF00003013A37E792F053
:1005A000000F00F0004C02BF400010F4000F013AB1
:1005B000F9D040EA0C0093F0000F01F0004C02BFAC
:1005C000490011F4000F013BF9D041EA0C0195E715
:1005D0000CEAD15392EA0C0F08D142027FF47DAFAE
:1005E00093EA0C0F7FF470AF084676E793EA0C0F9E
:1005F00004D14B023FF44CAF08466EE730F0004C9C
:1006000018BF31F0004CCAD130F000427FF45CAF2B
:1006100031F000437FF43CAF5FE700BF4FF0FF3C99
:1006200006E000BF4FF0010C02E000BF4FF0010CEC
:100630004DF804CD4FEA40024FEA41037FEA226CB5
:1006400018BF7FEA236C11D001B052EA530C18BFD7
:1006500090EA010F58BFB2EB030088BFC81738BF3C
:100660006FEAE17018BF40F0010070477FEA226C2A
:1006700002D15FEA402C05D17FEA236CE4D15FEA26
:10068000412CE1D05DF8040B704700BF844608465A
:100690006146FFE70FB5FFF7C9FF002848BF10F11B
:1006A000000F0FBD4DF808EDFFF7F4FF0CBF012060
:1006B00000205DF808FB00BF4DF808EDFFF7EAFFEA
:1006C00034BF012000205DF808FB00BF4DF808EDA5
:1006D000FFF7E0FF94BF012000205DF808FB00BF9A
:1006E0004DF808EDFFF7D2FF94BF012000205DF820
:1006F00008FB00BF4DF808EDFFF7C8FF34BF01202D
:1007000000205DF808FB00BF4FEA4002B2F1FE4F47
:100710000FD34FF09E03B3EB12620DD94FEA0023C3
:1007200043F0004310F0004F23FA02F018BF40429C
:1007300070474FF00000704712F1610F01D1420283
:1007400005D110F0004008BF6FF0004070474FF037
:100750000000704742000ED2B2F1FE4F0BD34FF0B3
:100760009E03B3EB126209D44FEA002343F0004327
:1007700023FA02F070474FF00000704712F1610F4A
:1007800001D1420202D14FF0FF3070474FF000001C
:10079000704700BF0022427082700122C2700222A4
:1007A000B1FA81F102710322490901704271704767
:1007B00043788B421FD0012941700AD0022910D002
:1007C000C1B90123C37002238170037103234371F4
:1007D0007047037843B1012383700223C370002361
:1007E000F3E70378002BF6D0022383700023C37055
:1007F0000123EAE7FEE770470B8882B0ADF80030CE
:100800004B880239ADF80230CB88ADF804300B8943
:10081000ADF80630831C063013F8012B0DF1080CDF
:100820000CEB420232F8082C834221F8022FF3D15C
:1008300002B0704708448078704700004FF07F3264
:10084000074B10B5C0E928234FF6FF730446A0F804
:10085000A830AC3000F006FD002384F8B83010BD9D
:10086000FFFF7F0070B5154604461E46114600F096
:10087000A0FC294604F1140000F09BFC294604F179
:10088000280000F096FC294604F13C0000F091FCA1
:10089000294604F1500000F08CFC294604F1640064
:1008A00000F087FC294604F1780000F082FC29461C
:1008B00004F18C0000F07DFC04F1AC0032464FF4F2
:1008C000FA734FF4FA6100F0B3FC2046BDE87040C3
:1008D000FFF7B4BF704700F073BC143000F070BC79
:1008E000283000F06DBC90F8A43013B990F9A00046
:1008F000704790F9A100704790F8A43013B990F9AF
:10090000A200704790F9A300704710B5044606F0A6
:100910003FFD38B104F1140000F056FC012838BF47
:100920000120C0B210BD10B5044606F031FD38B14B
:1009300004F1500000F048FC012838BF0120C0B28B
:1009400010BD4FF47A71AC3000F093BC0021AC3094
:1009500000F08FBC08B5AC3000F09CFCB0F57A7F9D
:10096000A8BF4FF47A7020EAE07008BD10B50446C5
:1009700000F000FC04F1140000F0FCFB04F128007E
:1009800000F0F8FB04F13C0000F0F4FB04F150002F
:1009900000F0F0FB04F1640000F0F8FB04F17800D3
:1009A000BDE8104000F0F2BB7F2807D0002807DA2E
:1009B00010F1800F06D04042C0B27047002070474F
:1009C000012070477F20704710B1404240B270470D
:1009D0007F2070477F280FD010F1310F0EDA10F111
:1009E000780F0DDBFE23783040B258434623233086
:1009F000B0FBF3F0C0B27047FF207047FE20704795
:100A0000002070477F2805D031B1002806DA404227
:100A1000C0B27047FF207047FE207047002070472B
:100A20007F2811D010F1310F10DA10F1780F10DBA0
:100A300040F2A963783040B2584346232330B0FBDC
:100A4000F3F0AC3080B270470020704740F2557030
:100A50007047AC20704763289FBF40F2A96358439A
:100A6000642332309DBFB0FBF3F0AC3080B240F273
:100A7000557070474FF4F063A0F58060584340F222
:100A8000FF7390FBF3F000F5787080B27047FFF7CA
:100A9000F1BF4FF49663A0F58060584340F2FF73B6
:100AA00090FBF3F000F2DC5080B27047A0F580605C
:100AB000D0EB001048BF033040F38F00704703288D
:100AC00012DD0C2812DD0F2812DD122812DD162887
:100AD00012DD192812DD1C2812DD1F2812DD212845
:100AE000CCBFFF20062070470020704701207047D0
:100AF0000220704708207047032070470720704786
:100B00000420704705207047022809D0012809D029
:100B100050B103280AD004280CBF0120FF207047E1
:100B2000132070471F207047012070476F207047C7
:100B30007F281ABF4042C0B20020704752B110B4A3
:100B4000054C0A4411F8013B58408A42205CF9D117
:100B500010BC7047704700BF1CA60008A0F16103DD
:100B6000192B0FD95F280DD02338C3B2162B97BF8E
:100B700005480120D840C04398BF00F0010080F034
:100B8000010070470120704701EC7F00F8B5024674
:100B900000245F27451E461D15F8010FFF2804BFDE
:100BA0000134E4B2FFF7DAFF00B92F70AE42F3D19F
:100BB000062C04D119B10B6813608B889380002335
:100BC0009371F8BD2DE9F843012500264FF0280860
:100BD000DFF82C90471E441D17F8011F084809F044
:100BE000E0FC10B1A0EB0900C0B2A0FB0503861920
:100BF000A742A5FB0853EFD13046BDE8F88300BFFC
:100C00001CA7000810B54179A1F13000C3B2092B2F
:100C100007D80523B0FBF3F303EB8303C01AC0B27C
:100C200010BD044C204609F0BCFC0028F1D0001B8C
:100C3000C0B2EEE71CA7000870B50446FFF788FABB
:100C4000002382B2561E98B2B04204EB000103DAD0
:100C5000255C0133302DF6D0121A01322046BDE852
:100C6000704009F06DBC00002DE9F04F0D4699B0C1
:100C7000164600211A461F46804609F07BFC0021DB
:100C80002A2201A8009109F075FCDFF8CC90DFF86A
:100C9000CCA0DFF8CCB005EB4606AE424AD047F612
:100CA000FF7335F9020B984244D0002812DC5946F4
:100CB0000CA809F083FC6846FFF74AFA04460CA822
:100CC000FFF746FA0444A742E7D368460CA909F0A7
:100CD00059FCE2E7B0F57A7F0BDA0CA980B209F093
:100CE0007FF80CA8FFF7A8FF51460CA809F04AFCB2
:100CF000E1E764243230B0FBF4F00CA980B209F0D3
:100D00006FF80CA8FFF798FF0CA8FFF721FA00F185
:100D10005F036B4413F8302C00F160010DEB010010
:100D200000F8302C2E2203F8302C0023494600F81E
:100D30002F3CDAE76846FFF70BFA30B100F16003A9
:100D40000DEB0300002300F8613C6946404609F0C2
:100D500035FC19B0BDE8F08F16A6000811A60008F2
:100D60000CA60008F0B589B06D4600242F468E1CF5
:100D7000E1B28A4205D936F82410013425F8021B65
:100D8000F6E73946FFF770FF09B0F0BD42F2107385
:100D9000B0FBF3F2642103FB1200B0FBF1F301FBA3
:100DA000130000EB023000EB831080B2704770B587
:100DB0000D4600210446164609F0DCFB00239AB2DA
:100DC000964204D9EA5C12B1E2540133F7E770BDF0
:100DD00070B50E46144600210132054609F0CAFBE3
:100DE00000239AB2944204D9F25C12B1EA5401335E
:100DF000F7E770BD914206D19DF900008342CCBF58
:100E000000200120704703290DD0032A09D00229B0
:100E100009D0022A05D0012905D0531E5842584155
:100E2000704701207047002070477D23438043F2C4
:100E30003903C360002309B201808180C38003723B
:100E400070470000C2680449044B01FB023323F0E1
:100E50000043C360980F7047FD430300C39E260004
:100E600010B50129044680790ED8042801D8013034
:100E7000A071012AE0790BD8042801D80130E07173
:100E8000032925D14B2319E00028F2D00138EFE7E0
:100E900008B10138E07103290AD1032A18D19DF95C
:100EA0000820934208DC39DA23885B421BB205E054
:100EB00002290DD1022AF1E7B4F9003062881A4400
:100EC00012B27C2A2FDD7D226280002222722EE067
:100ED0009142D7D824D3012910D1012A0ED1A27969
:100EE000E3799A4208D302D96FF07C03E6E7204603
:100EF000FFF7A8FF0028F7D07D23DFE7B4F904004F
:100F0000B4F9003000282288B4F9021003DB7C29F0
:100F1000D4DD5342CAE77C31D0DBFAE70023CDE7CA
:100F20006FF04A03CAE712F17C0F02DB6280A380F4
:100F300010BD4FF6837262800122C7E70268044940
:100F4000044B01FB023323F000430360180C70478D
:100F5000FD430300C39E2600F0B5002597B0016055
:100F60008580044656222946684609F003FB01267F
:100F7000E27DAA424BD92046FFF7E0FFE779002146
:100F80007B1B90FBF3F2EC4602FB13000A46C0B257
:100F9000CBB29F420AD91CF801EBBEF1000F03D17E
:100FA000824204D00132D2B20131F1E700230022A3
:100FB0001146277BD0B2874206D92069805C013276
:100FC000984208BF0121F5E70029D1D1A279611922
:100FD000033A012A05D925B191F9172082B9012BCD
:100FE000C6D90B76A26852F82310583305F10E02C9
:100FF0006B44013544F8221003F8586CEDB2B7E7A2
:10100000501E8342EDDB01329342EADCB0E700235D
:10101000802104F1B800A37517B0BDE8F04009F0D5
:10102000A9BA00002DE9F04F154697B0013D0160C7
:10103000027104464371EDB256220021684609F060
:1010400099FA022D98BF4FF003094FF0000794F86A
:1010500007808ABF4FF00109B8FBF9F800253E462A
:10106000DFF8FCA0DFF8FCB0E27DB2426DD920468B
:10107000FFF764FFA8EB060390FBF3F2002102FBED
:101080001300EC460A46C0B2CBB243450AD21CF864
:1010900001EBBEF1000F03D1824203D00132D2B284
:1010A0000131F1E70021434528BF4346084609FBCB
:1010B000035C94F80CE05FFA8CFCCAB2964506D942
:1010C0002269525C0131624508BF0120F5E7002822
:1010D000CAD16079A168013851F82C20032808D8BA
:1010E000DFE800F0021E22241F4810441F4A9042ED
:1010F000BAD916B10FBB012BB6D9A21982F818C004
:1011000051F82C1006F10E0244F82210012103F1CF
:1011100058026A440E441F4602F8581CF6B2A3E770
:101120005A4412488242E3E75244FAE7A2F53D02EC
:10113000A2F59D420E48443AF4E77A1E9342DCDB66
:101140007A1CD2B29342D8DC8EE70023802104F1CE
:10115000B800A37517B0BDE8F04F09F00BBA00BF97
:10116000287643FF776245FFC54E47FF3BB101003C
:101170003CB101006421D0E90123D31AC3604B4381
:10118000418A8260B3FBF1F303747047D0E9012315
:10119000D31AC0E90223704743682BB16421C268A7
:1011A0004A43B2FBF3F3DBB203740023C360436032
:1011B000704700234182C0E90233436003747047E3
:1011C0004368013343607047007C704743680B44B9
:1011D000436070470023C0E90133C3600374704764
:1011E000F0B5047C0360012C11D94FF47A77446880
:1011F0008568141B7C43C6684D1B05FB16442B44B5
:1012000094FBF3F33344C360C0E90121F0BD1CB982
:101210000123C4600374F7E74FF47A744368D31A68
:10122000634384680C1B93FBF4F3C3600223F1E770
:101230002DE9F041044610461D4616468846FFF744
:1012400045F8074606EB0800FFF740F80146384628
:10125000FFF748F9656020602846FFF73BF8A0607B
:10126000BDE8F08110B504464068FFF733F8A06090
:1012700010BD38B5044685680846FFF72BF82946A7
:10128000FEF772FF2168FFF779F82946FEF76EFF37
:10129000A06038BD08B54FF07C518068FEF766FF4E
:1012A000FFF732FA08BD704770477047704700205B
:1012B000704700207047704700207047002070473B
:1012C000054B82B0DA690243DA61DB6918400190AC
:1012D000019B02B0704700BF00100240054B82B076
:1012E0009A6902439A619B6918400190019B02B080
:1012F000704700BF0010024000F10C0353E8003FAC
:1013000023F0800300F10C0141E80032002AF3D100
:10131000704770470288044B5140C9B233F811300E
:1013200083EA12230380704788BD00089AB110B485
:10133000B0F800C0084C0A4411F8013B83EA0C03E2
:10134000DBB234F81330914283EA1C2CA0F800C0C1
:10135000F2D110BC7047704788BD00084FF6FF738C
:1013600037B50446ADF806304518AC4206D014F83F
:10137000011B0DF10600FFF7CDFFF6E7BDF80600F3
:1013800003B030BD044B1888044B80B21B889BB25D
:10139000C01A18BF01207047701A00206E1A002072
:1013A00000207047704700001E2208B50021034846
:1013B00009F0E0F80022024B1A7008BD6805002011
:1013C000140300202DE9F04113781546037092F8BC
:1013D0000180FD2B04460F46826880F8018052D1BF
:1013E0000A26AB788370EB78C3702B7903716B7925
:1013F0004371AB7983716B7A297A1B0403EB012368
:10140000E9790B4463F3170282604246A91904F19B
:101410000C0009F087F87A7B904507D208F10C00A0
:101420000021A2EB0802204409F0A4F863781E44CE
:10143000731C9BB2EA5CAB5D03EB0223A4F80C3196
:10144000A378DB070ED50236B6B2354404F58873AF
:1014500005F10C0255F8041B954243F8041BF9D121
:101460002A781A70BB7A84F82131FB7A84F8223109
:101470003B7B84F823317B7B84F824313B7884F8F0
:101480002031BDE8F08100234380AB78062603714C
:10149000EB7843712B798371697961F3170282606C
:1014A000B3E770B50B78054603704B780C46437074
:1014B0000B78FD2B38D10A268B788370CB78C370DC
:1014C0000B7903714B7943718B7983718B68C3718D
:1014D0008B68C3F30F2303728B7A4372627804F133
:1014E0000C01A81909F01EF86378B4F80C213344F4
:1014F000EA54B4F80C115A1C92B2090AA954A27801
:10150000981CD20780B20ED504F58872054404F504
:101510008E7452F8041BA24245F8041BF9D11278CC
:101520000F332A7098B270BD00238B700B7906269A
:1015300083704B79C3708B7903718B684371CDE7EE
:1015400070B50D4C0D4E0546062204F10A0106F554
:101550008970FFF73DFC237CC3F3031386F81A312F
:10156000637CC3F3030386F81B31637ADB0744BF54
:1015700002232B7370BD00BF59100020C000002053
:101580004FF0320C0A4B0B491A680B4BA1FB0212AD
:10159000920C0CFB02F202F5FA72A3FB023207492D
:1015A000920948684B681B1A9A42FBD8704700BFE3
:1015B0003C00002083DE1B43D34D6210001000E08E
:1015C00008B5FFF7DDFF4FF48052014B1A6108BDEB
:1015D000000C01404FF48052014B5A61FFF7D0BF1D
:1015E000000C014008B5FFF7CBFF1022014B1A6138
:1015F00008BD00BF000801401022024B5A61FFF7EE
:10160000BFBF00BF000801406FF02002064B1A6008
:101610005B68064A52E8003F43F0200342E800318D
:101620000029F7D1704700BF004400400C4400403F
:101630002DE9F74F0C4651880546B1F58C7F11D343
:1016400000211170D91CC9B2012995BF01210023C5
:10165000518053809CBF2370117000232B7003B006
:10166000BDE8F08F10780E2800F2BA8001A656F877
:1016700020F000BF45160008B1160008D916000872
:10168000F5160008E1170008E1170008E117000847
:10169000E1170008E1170008E1170008E11700084A
:1016A000E1170008E1170008E11700080517000816
:1016B000481C5080635421789BB2FD2906D10C331D
:1016C0000A21D380022391801370C6E706210833D4
:1016D000D38091800E23F7E7481C50806354D807CD
:1016E00042BFD1880D31D1800321012B1170B4D9B3
:1016F0000023E9E7481C508063540E211170002B31
:10170000F6D1AAE7481C508063545388D1888B4295
:1017100060D3002353801370022369802B702378D9
:10172000FD2B63D163792B72A3796B72637A227A72
:101730001B0403EB0223E27913446B60637803F12B
:101740000C026A80A278D10701D519336B8000237F
:1017500040F26B121E460C206968DFF8EC806B814A
:10176000B31801335B0800FB03F758F80770B94260
:1017700045D25A1EB242F3D80C27774358F80730A7
:1017800099423FD123782046FD2B0CBF4FF00A0928
:101790004FF0060910F801BF4744CB440BF1FF316D
:1017A00089B2FFF7DBFD97F804A0ADF806005146BB
:1017B0000DF10600FFF7AEFD0BF10103E25C14F83A
:1017C0000B3003EB0223BDF806209BB29A421BD0DC
:1017D000052343E792889A423FF63FAF01233DE756
:1017E0000023137053809380D38037E7E3782B7204
:1017F00023796B7263796B6063780833A6E71E46C2
:10180000BAD9B7E7032329E7BB79DA0707D56178A7
:10181000FA79914282BF04EB09018A5CAA729B07A4
:1018200009D50C2303FB068362781B7A9A4282BF98
:101830004C44E35CEB720C2303FB06835B7985F875
:101840000CA06B73022309E738AB00087FB5FD23BA
:101850000646044606F80C3B8DF8043090F8243117
:1018600003F10C020244012B05D912F8010D10B945
:10187000013BDBB2F7E70025637065808DF805302A
:101880008B7A0DF1050023718DF808308B7A8DF875
:10189000065001338B72637909218DF80930A379E1
:1018A0008DF807508DF80A30A368C3F317031A1296
:1018B0008DF80B301B148DF80D308DF80C20FFF7D0
:1018C0004DFD62783146ADF802000DF10200FFF7E0
:1018D0002DFD94F82311FFF71DFDBDF8023094F89B
:1018E0002421A4F80C316378934209D2294603F1EC
:1018F0000C00D21A204404B0BDE8704008F03ABE93
:1019000004B070BD0023044A1380044A1380044AC3
:101910001380044A138070476E1A0020701A00204A
:10192000721E0020741E002007B503688DF8071092
:101930000122DB680DF10701984703B05DF804FB55
:1019400070B5044608460D46FEF702FC236829469A
:1019500082B2DB682046BDE8704018470120FFF7DF
:10196000BDBC00000D4B984202D10420FFF7B6BC6D
:101970000B4B984205D003F58063984203D11020A9
:10198000F4E70820F2E7074B984201D12020EDE769
:10199000054B984200D070474020E7E7000801401F
:1019A000000C014000140140001801400B4B98420C
:1019B00003D14FF40060FFF791BCB0F1804F04D029
:1019C000074B984204D1022000E00120FFF778BCC9
:1019D000044B984201D10420F8E77047002C0140E5
:1019E00000040040000800402DE9F0410C46154677
:1019F00086B007461022002102A81E469DF83480BA
:101A000008F0B8FD01940B2D07D8DFE805F00E0EA5
:101A1000070A1414141616161B1DFEE7082302935A
:101A200003E00823029301230593032E0ED8DFE879
:101A300006F00E1E200E0123F1E70123029304237A
:101A40000493F2E70923EAE70923F7E7FEE7032314
:101A50000393B8F1000F02D03846FFF783FF053D2E
:101A6000042D0BD8DFE805F007110A071100022347
:101A7000EEE70123ECE7C4F30F247C61384601A9AB
:101A800007F0BEFE06B0BDE8F081C4F30F243C6150
:101A9000F4E713B54FF0010C0024CDE9004CFFF73B
:101AA000A3FF02B010BD000070B50446164686B014
:101AB0000D461422002101A808F05CFD2046FFF726
:101AC00075FF042E04D8DFE806F02A2E04323B000E
:101AD000FEE71C4B1C4A1B68B3FBF2F39BB20022CF
:101AE000013B204601A9ADF80430CDE9022504925E
:101AF000059207F0BDFF236823F080032360A368ED
:101B000023F4804323F00703A360636823F070038A
:101B10006360A36823F08003A36006B070BD094B27
:101B20000A4A1B68D8E7074B094A1B68D4E7054BEC
:101B3000064A1B68B3FBF2F303EB83035B00CDE7BC
:101B40000123CCE73C00002080A8120140420F0096
:101B500000127A0010B50446FFF7A6FF236843F091
:101B60000103236010BD00224FF0FF31FFF7F2BFE9
:101B70001A4B10B55B681A4C236007F01BFA194822
:101B800007F0EEFD184807F0EBFD184807F0E8FDF8
:101B9000174808F06DF8174808F06AF807F0B4FE27
:101BA0004FF0E022002313615361936172B64FF04E
:101BB000FF319A0002F16042013302F56142082BC5
:101BC000C2F88010C2F88011F3D162B6034B1B68D3
:101BD00083F3088823689847FEE700BF00F0FF1FE3
:101BE0001003002000080140000C014000100140DB
:101BF0000038014000440040064B0748C01AEFF38C
:101C00000883C2431A44013B984288BF0022AA219C
:101C100008F0B0BC000400000050002010B5124CC9
:101C20000323204606221149FFF733FF20460323F2
:101C300002220F49FFF72DFF032320461A4604F521
:101C400080640C49FFF725FF20460323052240F25C
:101C50000221FFF71EFF2046BDE8104003230522A6
:101C600040F20111FFF715BF000801408000800419
:101C70000800080410001004024B9868C0F30030FC
:101C8000704700BF0008014008B5FFF7F5FF08B135
:101C900000BFFAE708BD00000122024B5A61022290
:101CA0001A617047000C01400222024B5A61012266
:101CB0001A617047000C0140104A4FF470411369DB
:101CC00023F4704391FAA1F113610D4B5A6822F489
:101CD00000625A601A6822F400621A60DA6822F41C
:101CE0000062DA609A6842F400629A60D022054B82
:101CF00083F828234FF480725A6070470000014037
:101D00000004014000E100E04FF40062034B5A611F
:101D10001A6842F400621A60704700BF0004014074
:101D200010B5124C03232046062240F60801FFF7A7
:101D3000B0FE2046032302220D49FFF7AAFE03232B
:101D400020461A460B49FFF7A4FE2046032305222E
:101D500042F22001FFF79DFE2046BDE8104003231C
:101D6000052241F21001FFF794BE00BF000C0140B4
:101D70000100010402000204024B9868C0F34020F5
:101D8000704700BF000C014008B5FFF7F5FF08B130
:101D900000BFFAE708BD00001022024B5A61202262
:101DA0001A617047000C01402022024B5A61102238
:101DB0001A617047000C014012480F23016921F09D
:101DC0000F0193FAA3F3B3FA83F2012393400B4379
:101DD00003610D4B5A6822F480725A601A6822F42B
:101DE00080721A60DA6822F48072DA609A6842F4CB
:101DF00080729A60D022054B83F817234FF40002BB
:101E00001A607047000001400004014000E100E05A
:101E10004FF48072034B5A611A6842F480721A6060
:101E2000704700BF0004014010B5054C0323052294
:101E300040F202212046FFF72CFE0223636110BD11
:101E4000000801400023032240F201110148FFF77E
:101E500020BE00BF00080140024B9868C04300F05C
:101E6000010070470008014010B50A4C002305220C
:101E700020460949FFF70DFE0023052220460749A9
:101E8000FFF707FE4FF4004363614FF48043636143
:101E900010BD00BF001001408000800440004004DD
:101EA0000549CB681A04DB4302F0004203F4004307
:101EB00013430B61704700BF001001400549CB6818
:101EC0001A04DB4302F0804203F4804313430B61A6
:101ED000704700BF001001400C4BD3F8FC2022F0EB
:101EE0008072C3F8FC20D3F8FC2042F08072C3F863
:101EF000FC20A3F55D431A6822F001021A601A68FB
:101F000042F001021A6000225A60704700ED00E0C2
:101F1000064B074A1B680749B3FBF2F3434310B56E
:101F20004C684A68121B9A42FBD310BD3C0000204B
:101F300040420F00001000E02DE9F04180464CF2D5
:101F400050300D4616461C4607F01CF968BBB8F128
:101F5000010F06D0B8F1020F0CBF4FF002084FF08E
:101F600004080027124A136943F001031361380182
:101F7000C0F12002A0F1200304FA02F226FA00F0D8
:101F8000104324FA03F3184380B225F817004CF2EB
:101F9000503007F0F7F818B90137FBB24345E6D3E4
:101FA000034A136923F001031361BDE8F08100BF08
:101FB000002002407FB501230022CDE9040301A9DE
:101FC00002A8CDE9022307F019F900280CBF04206C
:101FD000052007B05DF804FB0A4608B5014600235A
:101FE0000220FFF7A9FF00280CBF0420052008BD30
:101FF00008B5FFF7DFFF031F5842584108BD08B579
:10200000FFF7EAFF031F5842584108BD2DE9F0478A
:10201000254B264D01280FBF7D267C26AA461D464E
:102020000F4614462249234A06BF89469A469146DE
:1020300007F08CF831462846FFF7DAFF10B3002F7F
:1020400008BF4FF478744FF000080334A40805F17A
:102050001006AAEB050A1FFA88F39C4218D93FB96B
:102060005AF806104B1C06D108F101080436F2E7B5
:1020700057F82810F6E74E4513D23046FFF7BFFF5A
:102080000028F1D1002407F073F82046BDE8F0875E
:102090004FF011312846FFF7B2FF0028F2D0042498
:1020A000F1E70324EFE700BF00F0010800F40108A6
:1020B000FFF70108FFF3010810B507F047F87C218E
:1020C0000748FFF795FF20B17D210648FFF790FFF5
:1020D00020B9002407F04CF8204610BD0424F9E78D
:1020E00000F0010800F40108002330B5074A084D4C
:1020F0009CB2A14206D99C18AC4205D09C5CC45449
:102100000133F5E7042030BD0320FCE710F001089F
:10211000FFF3010838B504460D4672B60A4601467B
:102120000020FFF773FF62B6042806D172B60120C3
:102130002A462146FFF76AFF62B638BD38B5124B12
:102140001C68D3F80054B4F1113F09D1B5F1113F27
:1021500017D0002201201146BDE83840FFF756BFD6
:10216000B5F1113F03D1002211461046F4E7FFF705
:10217000A3FF042804D12C4001340CBF022001200D
:1021800038BD0420FCE700BF00F00108034B1873C2
:102190009A68D207FCD5187B704700BF0030014019
:1021A00038B5441E8D18A94206D014F8010FFFF768
:1021B000EDFF01F8010BF6E738BD084611461A4657
:1021C000FFF7EEBF38B50446054D0144A14205D0E6
:1021D0002878FFF7DBFF04F8010BF7E738BD00BFF5
:1021E0003400002008461146FFF7ECBF10B5044646
:1021F00001448C4204D014F8010BFFF7C7FFF8E745
:1022000010BD08461146FFF7F1BF0000F0B50625E6
:10221000012610278DB0294C2822002102A808F0A1
:10222000A9F9FFF79BFB4FF48050FFF757F841F2F5
:102230001001204603230622FFF72BFC20462761CE
:1022400003230A2242F22001CDE90056FFF7CCFB1E
:10225000204603230A2248F28001CDE90056FFF709
:10226000C3FB032320461A4644F24001CDE9005641
:10227000FFF7BAFB00234FF48272CDE90533CDE9B5
:1022800009330293039204934FF40072072304F579
:102290002054204602A90B930897079207F0BCFB35
:1022A000236843F040032360A3689B07FCD5FF220B
:1022B000237B034B1A700DB0F0BD00BF0008014036
:1022C00034000020034B18739A68D207FCD5187BA2
:1022D000704700BF0038004038B5441E8D18A94231
:1022E00006D014F8010FFFF7EDFF01F8010BF6E738
:1022F00038BD084611461A46FFF7EEBF38B504460A
:10230000054D0144A14205D02878FFF7DBFF04F812
:10231000010BF7E738BD00BF350000200846114625
:10232000FFF7ECBF10B5044601448C4204D014F80A
:10233000010BFFF7C7FFF8E710BD08461146FFF78E
:10234000F1BF000070B58CB0294C2822002102A8F2
:1023500008F010F9FFF702FB4FF48040FEF7B0FFE2
:102360002449204603230622FFF793FB0625012676
:102370004FF48053204623610A2203231E49CDE9EE
:102380000056FFF731FB204603230A221B49CDE903
:102390000056FFF729FB032320461A461849CDE9CA
:1023A0000056FFF721FB0822002308924FF48272A7
:1023B000CDE90533CDE909330293039204934FF439
:1023C00000720723A4F55444204602A90B930792F8
:1023D00007F022FB236843F040032360A3689B07B8
:1023E000FCD5FF22237B074B1A700CB070BD00BFD9
:1023F000000C014010001004200020048000800424
:1024000040004004350000201C4B10B41A689406AC
:1024100011D5D96888060ED5194C1A4859682388F1
:1024200000880133C3F30A0380B298421FBF1648E5
:10243000C9B2C1542380110744BF104B5B68120618
:1024400016D50E48C3681B0612D5104B104A1988C2
:10245000138889B29BB299420CD013880133C3F31D
:102460000903138013880B4A9BB2D35CDBB2436031
:1024700010BC704710BCFEF73FBF00BF00440040D7
:10248000701A00206E1A00206E120020741E0020A8
:10249000721E0020721A00200C490D4A0B88128807
:1024A0000133C3F3090392B29A420DD0094AD054C2
:1024B000094A0B8052E8003F43F0800342E80031B4
:1024C0000029F7D10120704700207047741E0020BA
:1024D000721E0020721A00200C44004038B50446D9
:1024E0004518AC4204D014F8010BFFF7D5FFF8E70C
:1024F00038BD08461146FFF7F1BF0000054B064AFC
:102500001B8812889B1A98B21B0444BF00F5006018
:1025100080B27047701A00206E1A0020FFF7EEBFDD
:102520000848094A0188138889B29BB29942F9D0B8
:1025300013880133C3F30A0313801388034A9BB241
:10254000D05C7047701A00206E1A00206E120020B6
:10255000FFF7E6BF002300B5002989B0CDE90633B7
:1025600018BF4FF48053CDE902320C23019004913F
:10257000034801A9059307F0ADFB09B05DF804FB22
:102580000044004010B5064CE36823F40053E360B8
:10259000FFF7E0FFE36843F40053E36010BD00BFC2
:1025A00000440040002208461146FFF7EBBF000040
:1025B00073B508250126354C40F20441E36823F445
:1025C0000053E360FFF7CAF94FF40030FEF778FEDE
:1025D00003230A22CDE900562D48FFF705FA03230D
:1025E00040F608011A46CDE900562948FFF7FCF9E4
:1025F00000224FF461401146FFF7ACFFB02223697F
:1026000023F490432361636923F02A036361214B20
:1026100083F8262340225A602046FEF76DFE1E4AAC
:1026200052E8003F23F0400342E800310029F7D18F
:102630006FF040032360194B1980194B198052E841
:10264000003F23F0200342E800310029F7D16FF06A
:1026500020020E4B1A60134A1180134A11801A6926
:1026600022F400621A615A6922F008025A611A695A
:1026700022F480421A615A6922F022025A61DA6811
:1026800042F40052DA6002B070BD00BF0044004066
:102690000008014000E100E00C440040721E0020F0
:1026A000741E00206E1A0020701A002008B5FFF773
:1026B0007FFFBDE80840FEF7A7BFFFF7F7BF0000A8
:1026C000054A064B11681B780B441360044A1368D3
:1026D00001331360704700BF781E002040000020C7
:1026E000540300200148FFF73EBA00BF0004004039
:1026F000014B586A80B27047000400400022024B30
:102700001A60FFF7EFBF00BF540300202DE9F0412E
:10271000164605468846002706F018FDB6B2BBB23D
:102720009E4212D958F827102B688B4202D10435EB
:102730000137F4E72846FFF762FC04460028F6D18B
:1027400006F016FD2046BDE8F0810424F8E70000FD
:10275000012337B5304A03800446304B3048D3E973
:102760000051914208BF85424FF0000202D1227011
:1027700003B030BD26A1D1E90001C3E90001294B16
:10278000294862601A4652F8041B4D1C03D0B1F16F
:10279000AA3F00D0B9B91268511C11D163606068BA
:1027A0000368009342685D1C019218D101322AD15E
:1027B0004FF0AA33009302226946FFF7A7FFD7E73D
:1027C000B2F1AA3FEAD008338342DBD172B6154D8D
:1027D0007E212846FFF70CFC62B66560DFE7B3F1A7
:1027E000AA3F08D1511C01D10193E4E7B2F1AA3FFD
:1027F00009D10023DEE733B9B2F1AA3F03D14FF488
:1028000080722280F0E7002323700093ECE700BF82
:1028100012345678FEDCBA90FEDCBA90200000201C
:102820001234567800F8010800FC0108037807B557
:102830006BB1084B1B68B3F5FA6F08D30023022273
:10284000037069464068CDE90033FFF75FFF03B0CE
:102850005DF804FB781E00200A490B8803B9FEE7E7
:1028600072B64FF0804309885A6A11446432596342
:10287000DA636FF002021A616FF008021A6162B641
:10288000704700BF6400002000B5032289B04FF0FC
:10289000FF314FF08040FFF75DF9202200216846AC
:1028A00007F068FE64236A4601214FF080400393DD
:1028B00007F016F9C8236A464FF480714FF0804044
:1028C000039307F00DF9A022044B83F81C234FF06B
:1028D00080521A6009B05DF804FB00BF00E100E01F
:1028E0004FF08043DA6842F00202DA60DA6842F0C0
:1028F0000802DA607047000010B50022044601EBC0
:102900008101074B01EB810189001980054B1A7089
:10291000FFF7BAFF2046BDE81040FFF7E1BF00BF58
:10292000640000204F0300204FF080431A69910794
:102930000AD56FF002021A615A6B6432DA63084AF0
:10294000596B12880A445A634FF080431A69120780
:1029500005D56FF008021A610122024B1A70704708
:10296000640000204F03002070B51A4C9022002113
:10297000201D07F0FFFD012323800F23164E0522A3
:1029800031466380A380A01D2C23FEF7EBF94FF4A2
:1029900080330025114A3146C4E90D2304F13E007D
:1029A0002C230522A587FEF7DDF90D4B0D4904F117
:1029B0007A00E366A4F8705084F872506567A4F852
:1029C000785007F0FBFD7F2384F88F30052384F8CF
:1029D000903070BD7C020020F8A900081F000100A3
:1029E0001F000700BFA7000870B5094E05460C463A
:1029F000415C304607F0D5FD034628B1831B013307
:102A0000DBB2282B28BF0023F35C2B5570BD00BF21
:102A10000CAA000870B50D4611460446164607F08C
:102A2000CDFD2DB3013D082D08D8DFE805F00511D7
:102A3000131517191B1D1F003523637162797379F4
:102A40009A4215D12046BDE870400521FFF7CCBF62
:102A50006123F2E76623F0E76B23EEE77023ECE7F0
:102A60007523EAE77A23E8E73123E6E73223E4E750
:102A700070BD000073B5054605F111061B4C0146FB
:102A80001B4A68463601FFF7C5FFB01C6946204463
:102A900007F094FD14200023012100FB054004EB06
:102AA000051226447372A2F81A310222C16404216D
:102AB000A0F84A2080F85010A0F852304FF48071EE
:102AC00080F8543084F83030C4F83A30C4F83E30DE
:102AD000C4F8423040F20113E284064AA4F84630BA
:102AE000C4E90A12A4F8483002B070BDC00000204A
:102AF00080A7000803020100F7B5054605F111069D
:102B00000146A94AA94C68463701FFF783FFB81C64
:102B1000694620442744FEF739F87B7A04EB061017
:102B2000052B84BF00237B72A14B427A198841FA9E
:102B300002F212F001020DD1427259B111F00102FC
:102B400008D141FA02F7FF07D0B240F1DE8104EB71
:102B50000612507204EB051191F81A012A0104289B
:102B600002D9002081F81A01A718588897F81A117D
:102B700040FA01F1C90711D4022187F81A1168B18E
:102B80004707C0F3800109D440FA01FC1CF0010F93
:102B9000CFB200F0BF81A11881F81A71A11891F885
:102BA0001B01032802D9002081F81B01A71898886F
:102BB00097F81B1140FA01F111F001010FD187F8CC
:102BC0001B1160B110F0010109D140FA01FC1CF0A9
:102BD000010FCFB200F0A381A11881F81B7104EBA3
:102BE0000616717A012905D904291EBF0021121980
:102BF00082F81B11142202FB054191F84A000428B7
:102C000002D9022081F84A0002FB054292F84B10DB
:102C1000042902D9002182F84B10142202FB05423C
:102C2000998E92F84B0041FA00F0C00712D40120AF
:102C300082F84B0071B18F07C1F340020AD441FA08
:102C400002F6F607D0B240F16F81142202FB054272
:102C500082F84B00142202FB054292F84C10032923
:102C600002D9012182F84C10142000FB0540D98EB6
:102C700090F84C2041FA02F212F0010210D180F8D3
:102C80004C2069B111F001020AD141FA02F6F707AE
:102C9000D0B240F14E81142202FB054282F84C0072
:102CA000142202FB054292F84E10012902D900219C
:102CB00082F84E10142000FB0540198F90F84E202A
:102CC00041FA02F212F0010210D180F84E2069B1EF
:102CD00011F001020AD141FA02F6F607D0B240F132
:102CE0002D81142202FB054282F84E00142202FBC1
:102CF000054292F84F10022902D9002182F84F10A4
:102D0000142000FB0540598F90F84F2041FA02F241
:102D100012F0010210D180F84F2069B111F00102C8
:102D20000AD141FA02F6F707D0B240F10C81142221
:102D300002FB054282F84F00142202FB054191F884
:102D40004D00022802D9002081F84D0002FB054207
:102D500092F85010052902D9042182F8501014224B
:102D600002FB054191F85200012802D9002081F8A8
:102D7000520002FB054292F85310022902D90021A9
:102D800082F85310142000FB0540998F90F85320CF
:102D900041FA02F212F0010217D180F85320A1B1DA
:102DA00011F0010211D105E080A70008C000002049
:102DB0007C02002041FA02F6F607D0B240F1C8804A
:102DC000142202FB054282F85300142202FB054143
:102DD00091F85400022802D9002081F8540002FB27
:102DE000054292F84C10012906D192F84F100229A1
:102DF00004BF002182F84F1094F82620042A02D93B
:102E0000022284F8262094F82720042A02D90022DE
:102E100084F82720B3F86C1094F8272041FA02F2C6
:102E2000D6070FD4012284F8272059B18807C1F3AF
:102E3000400207D441FA02F6F707D0B240F18D8084
:102E400084F8270094F82820022A02D9002284F866
:102E5000282094F82920022A02D9012284F8292066
:102E6000B3F86E1094F8293041FA03F313F001021D
:102E7000674B0CD184F8292049B111F0010206D129
:102E800041FA02F6F607D0B26CD583F8290094F81F
:102E90002A200C2A02D9002284F82A2094F8322011
:102EA0000C2A02D9002284F8322093F82B20042A1D
:102EB00002D9002283F82B2093F82F20012A02D96F
:102EC000002283F82F20534AB2F8701093F82F2075
:102ED00041FA02F212F001020CD183F82F2049B11D
:102EE00011F0010206D141FA02F4E707D0B23DD554
:102EF00083F82F0000221046474911F9014B14F1C5
:102F0000780F37DA01F8010C36E00132102A7FF42D
:102F100018AE1FE6013110297FF436AE3EE60131CE
:102F200010297FF452AE5AE60132102A7FF487AEA0
:102F300090E60132102A7FF4A8AEB1E60132102AE1
:102F40007FF4C9AED2E60132102A7FF4EAAEF3E68E
:102F50000132102A7FF42EAF37E70132102A7FF4B6
:102F600069AF6FE70132102A8AD190E70132102A47
:102F7000B9D1BFE7782CC5DC0132D2B20C2ABCD162
:102F800000220120254911F8014B0132022CD2B256
:102F900088BF01F8010C042AF5D193F82C20052AEA
:102FA00002D9032283F82C2093F82D20022A02D97B
:102FB000022283F82D2093F82E20022A02D9012222
:102FC00083F82E2093F83020022A02D9002283F8B9
:102FD00030201421FF226943581883F8312080F8EB
:102FE00051204FF6FF744FF0FF32553103EB0515BA
:102FF00058181A629A84C5F81C21A5F820415A5025
:103000004260047283F833205A631A8703B0F0BD1C
:10301000C00000207C020020FA00002006010020F1
:10302000154B9870042804D8DFE800F004141A2027
:103030000400FEE7114A9A6400221A710A2203383A
:10304000012894BF002001201A771A7998731A7406
:10305000987670470A4A9A6401221A710F22EEE7A5
:10306000084A9A6402221A711922E8E7064A9A6409
:1030700000221A710722E2E76800002014003200E3
:1030800020001F003500130009006F002DE9F341F7
:10309000684E00F1110806EB08170237054638465E
:1030A000FDF790FD042101900DEB0100FEF756F9AC
:1030B000614C019B96F82620A36063615F4BE0831F
:1030C00013F922302373237696F82730042B04D883
:1030D000DFE803F004084A4C4E00FEE7584B236536
:1030E000012302E0574B2365002306EB081884F800
:1030F000543098F809304FEA051806EB051595F895
:103100001A016370FFF78CFF4F4A6378128863736C
:10311000A285E28B63766262002284F8283084F80C
:103120002A2023B93846FDF76DFD84F82A00B04403
:1031300098F81B2184F829206AB1E18B02EB021375
:1031400003EB03230B444FF01131E383A36801FB2E
:103150000232A260626194F82830052B0AD8DFE8B9
:1031600003F00A404244464C384BB8E7384BBAE7C4
:10317000384BB4E7FEE7A378032B03D8DFE803F06E
:10318000032D2F03FEE71823334D84F8203015E973
:103190000F0085E80F0040F2E24394F82000A4F805
:1031A0004C30FDF797F84FF07F51FDF7E7F8FDF74A
:1031B000D1FA4FF47A73B4F84820C0B2B3FBF2F3FB
:1031C000A4F8403096F82C30A4F84E00052B27D8F0
:1031D000DFE803F015202326292C1223D4E70C2343
:1031E000D2E71923D0E70623CEE70223CCE7A37862
:1031F000012BF2D0022BF2D0FEE70323C4E74FF4F9
:1032000016536364002384F85530A4F8563002B096
:10321000BDE8F0814FF49643F3E74FF41643F0E72F
:103220004FF46143EDE74FF4E133EAE74FF46133E4
:10323000E7E700BFC000002068000020F8A90008F0
:1032400000010101010100017C02002002000100D7
:103250000301010104010100980000204FF4DE7217
:10326000FF21014807F086B9C00000204FF4DE714D
:103270000148FEF74FBF00BFC00000204FF4DE71D1
:103280000148FEF731BF00BFC000002008B5FFF7BE
:10329000F5FF034B1878BDE80840FFF72DBC00BFD1
:1032A0006800002070B5FFF7D9FFFEF747FF04283C
:1032B0000CD0FFF7D3FFFEF741FF042803D1FFF73F
:1032C000DDFF042806D0FFF7C9FF03E0FFF7D6FFB4
:1032D0000428EED110224349434807F077F908B19A
:1032E000FFF7BCFF40F24F123F4CA38A934267D0D6
:1032F000B3F5A47F36D80125062204F1160104F5A2
:103300008970FDF765FD637F84F81931A37F84F828
:103310001A3128460135EDB2FFF7ACFB0A2DF8D182
:103320000023E37740F24F130125A38242F2DD73BD
:1033300022692C499A422C484FF010021CBF0125EB
:10334000236107F043F900283CD010222549264884
:10335000FDF72DFD082225492548FDF728FDFFF73B
:1033600085FF31E0B3F5A77F22D82346002203254D
:103370000121022693F84C0001280DD003280ED01D
:1033800093F84F0001280DD002280ED001320A2AEE
:1033900003F11403EED1C5E783F84C50F0E783F84E
:1033A0004C10EDE783F84F60F0E783F84F10EDE73E
:1033B0000025E8B20135FFF75DFB0A2DF9D1AFE733
:1033C0000025B3E7002DCAD10023E377094C237011
:1033D000FFF7CAFA2078FFF78FFB2078BDE870402E
:1033E000FFF754BE87A70008C000002098A7000878
:1033F000720200206800002010B5C01A9DF8084035
:10340000123080F30500A042C8BF20B2C0B2123B08
:1034100008701844107010BD07B5084611461A46CA
:10342000122300931B23FFF7E7FF03B05DF804FBB3
:1034300007B5084611461A46122300931B23FFF7CF
:10344000DBFF03B05DF804FB0229F7B5054600D9A0
:10345000FEE70B4E0F0106EB0114A3786278F15DD5
:10346000846006F059FEE37928460193A379227916
:103470000093E178637906F078FE03B0F0BD00BFF9
:103480009CBF000810B50446002106F004FE4FF46E
:103490007A70FEF73DFD2046012106F013FE2369F8
:1034A00020461978FFF7D0FF10BD024638B5044614
:1034B00052F8143BDD6900F11503A8472046217D31
:1034C0002022BDE8384006F0B4BE00007FB58D7AFA
:1034D0000446016175B3012106F0F4FD0121204687
:1034E00006F00DFF0121204606F023FF2369204648
:1034F00093F90810FFF7D9FF236920461978FFF7E1
:10350000A3FF00222046114606F0F9FD002344F2F5
:103510000302204600934FF6FF7106F042FE20465C
:103520004FF6FF7106F06BFE204604B0BDE8704018
:1035300006F0F1BE032106F0C5FD2046012106F08C
:10354000DEFE2046012106F0F4FE2369204693F9B1
:103550000810FFF7AAFF23692A465E680C4B204635
:10356000E3608621102306F009FF46F6E823CDE943
:1035700002535B232046CDE900530422102370211F
:1035800006F00BFF2A463146204606F032FFB8E728
:1035900088BF000873B504460D4616460DF10701B5
:1035A0000DF1060206F09BFE33462A4620469DF8A2
:1035B000061006F04AFD02B070BD38B505461C463F
:1035C00013460A46002106F019FD28464FF6FF7102
:1035D00006F015FE22012846BDE83840012192B2CE
:1035E00006F037BE10B5044606F095FE2046BDE84D
:1035F00010404FF6FF7106F002BE73B503690C462A
:103600009E7A15460DF1060176B106F04CFEBDF925
:103610000630002B0CDB4FF6FF73ADF80630BDF81B
:103620000630237002B070BD06F023FF2E70EEE767
:103630007F33F4DA4FF68173EFE7000038B50446C4
:1036400003680169DD6900F1140200F1150391F9C5
:103650000810A84723699A7A42B11A78022A00D939
:10366000FEE7044B03EB0213A36038BD024BE3609B
:10367000FBE700BF9CBF000888BF0008836810B547
:1036800004461BB9C3680BB9FFF7D8FF94F91500BE
:1036900010BD000090F8D8305BB190F8D930074ADF
:1036A000180102EB03139B681978135853F8210093
:1036B0007047837D0E3350F82300704798A90008A7
:1036C00037B5194B0288DB8B05469A4227D184789F
:1036D00014F0D00425D18379812B22D84FF6FF73C3
:1036E0000D2201460DF10600ADF80630FDF71EFE75
:1036F000B5F80D20BDF806309A420ED14C2205F1E6
:103700000D01FDF713FEB5F85920BDF806309A42B9
:1037100018BF0424204603B030BD0324FAE7012477
:10372000F8E70224F6E700BF680000200A7ACB79A8
:1037300002F0070243EA022303804B7A0A7A03F07D
:103740003F035B0143EAD20343808B7A4A7A9B00B2
:1037500043EA9213CA7A02F0010243EA8223838089
:103760000B7BCA7A03F00F03DB0143EA5203C380E9
:103770000B7BC3F30112012A11D813F0300F0CBFD9
:1037800000234FF4806303830B7B7F2B0AD813F055
:10379000C00F0CBF00234FF480634383704740F297
:1037A000FF73F0E740F2FF73F7E70A7ACB7902F094
:1037B000070243EA022303804B7A0A7A03F03F03AD
:1037C0005B0143EAD20343808B7A4A7A9B0043EA47
:1037D0009213CA7A02F0010243EA822383800B7BB0
:1037E000CA7A03F00F03DB0143EA5203C3800A7C69
:1037F000CB7B02F0070243EA022303814B7C0A7C65
:1038000003F03F035B0143EAD20343818B7C4A7C94
:103810009B0043EA9213CA7C02F0010243EA82232E
:1038200083810B7DCA7C03F00F03DB0143EA520363
:10383000C3814B7DDB0003828B7DDB004382CB7D2C
:10384000DB0083820B7EDB00C3820B7BC3F30112A0
:10385000012A2BD813F0300F0CBF00234FF48063E4
:1038600003830B7B7F2B24D813F0C00F0CBF0023E6
:103870004FF4806343830B7DC3F30112012A1BD8ED
:1038800013F0300F0CBF00234FF4806383830B7D54
:103890007F2B14D813F0C00F0CBF00234FF48063AC
:1038A000C3834FF4806303844384704740F2FF7303
:1038B000D6E740F2FF73DDE740F2FF73E6E740F240
:1038C000FF73EDE737B5214B0446DB8B0D460380D4
:1038D0004A78837862F3C30383704A79C37862F3CA
:1038E0000003C3708A79437962F38613437191F9B7
:1038F0000200FDF759F8E378214660F34703E370CF
:10390000EA7823790DF1060062F3060323712B791F
:1039100003F00102237903F07F0343EAC21323710A
:103920002B79C3F34502637923F03F03134363719B
:103930004FF6FF735922ADF80630FDF7F7FCBDF8DE
:103940000630A4F8593003B030BD00BF6800002035
:103950002DE9F3410446154688469DF820605B2218
:10396000522E4FF000011F4628BF522606F002FEDD
:103970002C4BDB8B23802A78A37862F30203A3709D
:103980006A78DBB2D20002F0080242EA081103F0C2
:1039900007031943A1706A79E37862F30003E370C7
:1039A000AA79637962F38613637195F90200FCF7D3
:1039B000FBFFE37860F34703E370EA78237962F36F
:1039C000060323712B7903F00102237903F07F03AF
:1039D00043EAC21323712B79C3F34502637923F0C1
:1039E0003F0313436371A379E21D66F34703A37199
:1039F0003B463E44B34204D013F8011B02F8011BBE
:103A0000F8E74FF6FF73592221460DF10600ADF895
:103A10000630FDF78BFCBDF80630A4F8593002B033
:103A2000BDE8F0816800002007B5009313460A4600
:103A30000121FFF78DFF03B05DF804FB30B5334B78
:103A4000027893F8261000F1170461F30302027064
:103A500093F8271061F30712027093F82810427848
:103A600061F30302427093F8291061F30712427068
:103A700093F82A10827861F30302827093F832106F
:103A8000827961F30302827193F82B10827861F3DB
:103A90000712827093F82C10C27861F30302C2708F
:103AA00093F82D1061F30712C27093F82E1002796B
:103AB00061F30302027193F82F1061F30712027190
:103AC00093F83010427961F30302427103F13A0135
:103AD00000F10B0211F9015B02F8015BA242F9D17E
:103AE00093F84610C27D61F30102C27593F8471046
:103AF00061F38302C27593F8481061F30512C27531
:103B000093F8493063F38712C27530BDC0000020BE
:103B100002782F4BC2F3030230B583F826200278D7
:103B200003F13A01C2F3031283F82720427800F12F
:103B30001704C2F3030283F828204278C2F3031269
:103B400083F829208278C2F3030283F82A2082793D
:103B5000C2F3030283F832208278C2F3031283F89F
:103B60002B20C278C2F3030283F82C20C278C2F360
:103B7000031283F82D200279C2F3030283F82E206A
:103B80000279C2F3031283F82F204279C2F30302B1
:103B900083F8302000F10B0212F9015BA24201F818
:103BA000015BF9D1C27DC2F3010283F84620C27DD8
:103BB000C2F3810283F84720C27DC2F3011283F869
:103BC0004820C27DC2F3811283F8492030BD00BF76
:103BD000C000002070B5522698B0324604460D460B
:103BE00003A8002106F0C6FC212342F2DD708DF807
:103BF0000C30FDF7CBF840F24F1314222249ADF8F8
:103C00000E000DF11200ADF81030FDF7D0F81F488E
:103C1000FFF734FD1E4B8DF8260093F850300AA8AC
:103C20008DF82730FFF70AFF4FF68073ADF8463066
:103C30000A23ADF848306423ADF84A30FA23ADF8D2
:103C40004C304FF4FA73ADF84E3047F6FF73ADF8D1
:103C50005030ADF85230ADF854300E4B0221B3F86D
:103C60006C2020468DF85620B3F86E20B3F87030E3
:103C70008DF857208DF858302A46009603ABFFF791
:103C800067FE18B070BD00BF9EA700080C10002092
:103C9000680000207C02002038B504460F4D00F17A
:103CA0001B01062205F58970FDF792F894F8213082
:103CB00004F12500C3F3030385F8193194F821308A
:103CC000C3F3031385F81A3194F82230C3F30303C6
:103CD00085F81B31BDE83840FFF71ABFC00000204F
:103CE00000230A4A8380126883718260084A8381B4
:103CF0000384136803615368064A43611368836150
:103D00005368C3614EF6602303607047781E00203D
:103D1000AEA70008B7A7000838B5114D114C022016
:103D2000FFF77EF92846FFF75DFC2046FFF75AFCB7
:103D300028466FF07F01FFF7B8FB6FF07F01204648
:103D4000FFF7B3FB2846FFF79DFB2046FFF79AFBE2
:103D50002846FFF747FC2046FFF744FC38BD00BF6C
:103D60000C1000202410002008B51E4B02461968D4
:103D700090F8203013BBFEF76FF828B982F82100C5
:103D800092F820305BB30AE092F8213001335BB245
:103D9000032B82F82130F3DD012382F82030936871
:103DA000CB1AB3F57A6F01D901235371137923B973
:103DB000537913B101231371137308BDFEF74CF847
:103DC00018B1042382F82130DAE792F82130013B60
:103DD0005BB2002B82F82130D2DC82F820009160A7
:103DE000E4E700BF781E00200346007B821E012A04
:103DF0004FF0000202D893F8201009B91A737047E7
:103E0000104670470A4A38B51388044601339BB2FE
:103E1000502B0D4601D8138038BD0023054913806F
:103E2000FDF78EFD29462046FDF78AFDF4E700BF29
:103E300058030020C0A700082DE9F74F1646054695
:103E4000884600277049FDF77BFD31462846FDF77F
:103E500077FD6E4BB8F1010F6D4C1F8011D14FF4FF
:103E600000434FF48047636146F2A8102761FEF7D4
:103E70004FF86761FEF74CF831462846FFF7C2FF5E
:103E8000F2E7B8F1020F11D14FF480434FF400472D
:103E9000636146F2A8102761FEF73AF86761FEF702
:103EA00037F831462846FFF7ADFFF2E7B8F1030FC8
:103EB00011D14FF400434FF48047236146F2A8101C
:103EC0002761FEF725F86761FEF722F8314628469C
:103ED000FFF798FFF2E7B8F1040F11D14FF48043D8
:103EE0004FF40047236146F2A8102761FEF710F84F
:103EF0006761FEF70DF831462846FFF783FFF2E7CA
:103F0000B8F1050F14D14FF480484FF4004746F242
:103F1000A810C4F810802761FDF7FAFFC4F81480D8
:103F20006761FDF7F5FF31462846FFF76BFFEEE7C7
:103F3000B8F1060F14D14FF480484FF4004746F211
:103F4000A810C4F810806761FDF7E2FFC4F8148080
:103F50002761FDF7DDFF31462846FFF753FFEEE707
:103F6000A8F10A03042B40D84FF4004B4FF48049CA
:103F7000A8F1090A5FFA8AFA0423574538BFC4F842
:103F800010B0019346F2A810C4F81090FDF7C0FFDE
:103F9000C4F81490FDF7BCFF31462846FFF732FF06
:103FA000019B013B13F0FF03EBD10423C4F814B0D1
:103FB000019346F2A810C4F81090FDF7A9FFC4F8C9
:103FC0001490FDF7A5FF31462846FFF71BFF019B24
:103FD000013B13F0FF03EBD10137A8F10803FFB257
:103FE000DBB2BB4238BF0027C6E74FF480432361F2
:103FF0004FF4004323614CF25030FDF789FF314606
:104000002846FFF7FFFEF6E7C0A700085803002088
:104010000010014010B514461A4618B90348FFF7BE
:10402000B9FA10BD21460248F9E700BF0C10002084
:104030002410002038B514461D4668B9FDF72CFE43
:104040000B482B462246FFF7B8FA7D20FDF760FFAC
:104050000848FFF7C7FA38BDFDF79EFE05482B4616
:104060002246FFF7AAFA7D20FDF752FF0048F0E74D
:104070000C100020241000202DE9F0415B2705469C
:10408000184C0E463A460021204606F073FAAB69FA
:1040900004F10E002360EB6913496360134B1B7836
:1040A0009A1E53425341627A63F3000262726FF0C8
:1040B0002202A27227220023E27214222373637366
:1040C000FCF775FE59212046FDF748F9084BA4F886
:1040D00059003A4621463046BDE8F0411B7FFFF7C4
:1040E000A9BF00BF960E00209EA700084A0300202B
:1040F0006800002008B530B9054801F1A202A031DE
:10410000FFF77BFA08BD01F1A3020248A131F7E7EE
:104110000C100020241000200A4608B50146014872
:10412000FFF78AFE2C000020164600B591B0044629
:1041300068461D4606F042FA1849684606F022FA1B
:10414000304605F089FE0146684606F01BFA144920
:10415000684606F017FA134B684653F8251006F028
:1041600011FA1149684606F00DFA104D9DF84830D5
:10417000684655F8231006F005FA0D49684606F022
:1041800001FA9DF84C30684655F8231006F0FAF90C
:104190006A4621460748FFF74FFE00BFC2A7000846
:1041A000C9A7000800000020CEA7000810000020CA
:1041B000D5A700082C0000200246002108B50148C0
:1041C000FFF73AFE2C0000200023FF22037043700B
:1041D0008370C27003717047C17829B98378017107
:1041E00001338370012070470378012B1DD0022B0F
:1041F00005D08BB98278013282700371F2E7827840
:1042000043785340DB0703D4013200238270F4E784
:10421000FF2903D100230371002070470379013384
:10422000DBB299420371EFD3F6E7FF29F2D00279AE
:104230000132D2B291420271EED2827801328270A2
:1042400000220271CEE700000E4803681A0617D557
:10425000C3681B0614D50C4B0C4A1988138889B205
:104260009BB299420AD013880133DBB213801388C2
:10427000074A9BB2D35CDBB243607047FDF73CB8A2
:10428000704700BF004800406C1200206A120020F6
:104290006A1100200C490D4A0B8812880133DBB2E9
:1042A00092B29A420DD00A4AD0540A4A0B8052E880
:1042B000003F43F0800342E800310029F7D101209C
:1042C00070470020704700BF6C1200206A12002067
:1042D0006A1100200C48004038B504464518AC422D
:1042E00004D014F8010BFFF7D5FFF8E738BD0846F6
:1042F0001146FFF7F1BF0000002300B5002989B087
:10430000CDE9063318BF4FF48053CDE902320C23B8
:1043100001900491034801A9059305F0DBFC09B065
:104320005DF804FB0048004010B5064CE36823F438
:104330000053E360FFF7E0FFE36843F40053E360FA
:1043400010BD00BF0048004008B549B14FF400520D
:104350004FF480610348FFF7E7FF0222024B5A61E6
:10436000012008BDA08601000008014008B539B150
:10437000002204481146FFF7D7FF0222024B5A6180
:10438000012008BD9A5B06000008014008B549B14C
:104390004FF400524FF480610348FFF7C5FF02223B
:1043A000024B1A61012008BDA086010000080140EF
:1043B00013B5284C2849E36823F40053E360FDF764
:1043C000CDFA4FF48020FCF77BFF0823012223481D
:1043D000CDE9003203230A22FDF706FB0022204824
:1043E0001146FFF789FFC022236923F4904323611C
:1043F000636923F02A0363611A4B83F82723802221
:104400005A602046FCF778FF174951E8003F23F037
:10441000400341E80032002AF7D16FF040032360E7
:10442000124B1A80124B1A80236923F40063236114
:10443000636923F008036361236923F480432361E4
:10444000636923F022036361E36843F40053E3608C
:1044500002B010BD0048004004000404000C0140FC
:10446000A086010000E100E00C4800406A12002034
:104470006C12002030B5274C85B00E220021054675
:10448000684606F077F894F8A03020468DF80030A2
:1044900094F8A1308DF80130FCF737FA8DF802005E
:1044A0002046FCF729FA94F8A4308DF803008DF823
:1044B000043094F8A53018488DF80530FFF7DEF881
:1044C00094F8A6308DF806008DF8073094F8A730E0
:1044D0008DF8083094F8A8308DF80A3094F8A93097
:1044E0008DF80B300D4B9A788DF80C2093F85120F5
:1044F00093F852304AB15BB10323694628468DF8E0
:104500000D3004F086F805B030BD0BB10223F4E79E
:104510000123F2E7500F00200C100020680000205B
:104520000148FEF799B900BF4C0F0020F8B50E46C0
:104530000746144D5B232946304614462A46FFF7AA
:1045400069FDD7E9041328686A689A4208BF88425F
:1045500009D0002430460C49FFF7CCFD002C0CBFDD
:1045600001200320F8BD59212846FCF7F7FEB5F8D5
:1045700059308342EDD114B1FFF7D2FFEAE70124AD
:10458000E8E700BF59100020500F002013B50121AB
:1045900004460844FCF7E2FEA178ADF806000DF1F0
:1045A0000600FCF7B7FEE178FCF7B4FE2179FCF7D2
:1045B000B1FE6179FCF7AEFEA179FCF7ABFE04F128
:1045C00008010322FCF7B2FE627804F10C01FCF74B
:1045D000ADFE94F82311FCF79DFEBDF80630A4F85B
:1045E0000C3102B010BD0000003818BF0120014B93
:1045F000187070471403002030B5002A40F0128173
:10460000042B00F2E981002B00F0098191F800C031
:10461000834C10F80C2094F81BE022EA0E0200F8FC
:104620000C20E27E5208E27652B90A784FF0FF0C75
:1046300001320A708022E2760A7800F802C0E27E37
:1046400091F800E010F80EC02CEA020200F80E20EB
:10465000E27E5208E27652B90A784FF0FF0C01323E
:104660000A708022E2760A7800F802C0E27E91F8B1
:1046700000E010F80EC02CEA020200F80E20E27EE4
:104680005208E276002A00F0AF82012B00F0C780CA
:1046900091F800C094F81BE010F80C2022EA0E02FA
:1046A00000F80C20E27E5208E27652B90A784FF008
:1046B000FF0C01320A708022E2760A7800F802C00C
:1046C000E27E91F800E010F80EC02CEA020200F839
:1046D0000E20E27E5208E27652B90A784FF0FF0CC3
:1046E00001320A708022E2760A7800F802C0E27E87
:1046F00091F800E010F80EC02CEA020200F80E203B
:10470000E27E5208E2764AB90A784FF0FF0C013295
:104710000A708022E2760A7800F802C0022B7ED06E
:1047200091F800C094F81BE010F80C2022EA0E0269
:1047300000F80C20E27E5208E27642B90A78FF25A2
:1047400001320A708022E2760A788554E27E91F87E
:1047500000E010F80EC02CEA020200F80E20E27E03
:104760005208E27642B90A78FF2501320A708022A7
:10477000E2760A788554E27E91F800E010F80EC0E7
:104780002CEA020200F80E20E27E5208E2763AB9E4
:104790000A78FF2501320A708022E2760A78855471
:1047A000032B3CD00A7894F81BC0835C23EA0C03EB
:1047B0008354E37E5B08E37643B98025FF220B78C0
:1047C00001330B70E5760B78C254E37E91F800C09C
:1047D00010F80C2022EA030300F80C30E37E5B089B
:1047E000E37643B98025FF220B7801330B70E57621
:1047F0000B78C254E37E91F800C010F80C2022EA36
:10480000030300F80C30E37E5B08E3763BB98025B8
:10481000FF220B7801330B70E5760B78C25430BD64
:1048200068050020FF2AFAD1032B00F2EB81002B50
:10483000F5D091F800E0674C10F80EC0E57E2CEA48
:10484000050C00F80EC094F81BC04FEA5C05E57635
:104850004DB94FF0800C0D7801350D7084F81BC0F8
:104860000D784255E57E91F800E010F80E2022EA1E
:10487000050C00F80EC0E27E5208E27642B90A78D2
:10488000FF2501320A708022E2760A788554E27EA2
:104890005208E27642B90A78FF2501320A70802276
:1048A000E2760A788554E27E91F800E010F80EC0B6
:1048B0002CEA020200F80E20E27E5208E276002A7C
:1048C00000F07B82012BAAD091F800C0E57E10F8A1
:1048D0000C2022EA050200F80C20E27E5208E27663
:1048E00042B90A78FF2501320A708022E2760A78FE
:1048F0008554E27E91F800E010F80EC02CEA020226
:1049000000F80E20E27E5208E27642B90A78FF25CE
:1049100001320A708022E2760A788554E27E5208DB
:10492000E27642B90A78FF2501320A708022E276E7
:104930000A788554E27E91F800E010F80EC02CEA67
:10494000020200F80E20E27E5208E2763AB90A78B6
:10495000FF2501320A708022E2760A788554022B04
:104960003FF45DAF0A78E57E835C23EA0503835458
:10497000E37E5B08E37643B98025FF220B780133A1
:104980000B70E5760B78C254E37E0D78425D22EA27
:1049900003034355E37E5B08E37643B98025FF229A
:1049A0000B7801330B70E5760B78C254E37E5B081D
:1049B000E37643B98025FF220B7801330B70E5764F
:1049C0000B78C254E37E0D78425D22EA030343551F
:1049D00019E700BF6805002091F800C0884C10F866
:1049E0000C2094F81BE003F5C06322EA0E0200F8E5
:1049F0000C20E27E5208E2763AB90A78FF250132AD
:104A00000A708022E2760A78855491F800C094F802
:104A10001BE010F80C2022EA0E0200F80C20E27EC7
:104A20005208E2763AB90A78FF2501320A708022EC
:104A3000E2760A788554E27E5208E2763AB90A783C
:104A4000FF2501320A708022E2760A788554E27EE0
:104A50005208E2763AB90A78FF2501320A708022BC
:104A6000E2760A78855491F800C094F81BE010F8BB
:104A70000C2022EA0E0200F80C20E27E5208E276B8
:104A80003AB90A78FF2501320A708022E2760A7864
:104A900085541D0608D491F800C0E57E10F80C205E
:104AA00022EA050200F80C20E27E5208E2763AB9CA
:104AB0000A78FF2501320A708022E2760A7885544E
:104AC0005A0608D491F800C0E57E10F80C2022EABE
:104AD000050200F80C20E27E5208E2763AB90A7824
:104AE000FF2501320A708022E2760A7885549D06FD
:104AF00008D491F800C0E57E10F80C2022EA0502E7
:104B000000F80C20E27E5208E2763AB90A78FF25D6
:104B100001320A708022E2760A788554DA0608D4D7
:104B200091F800C0E57E10F80C2022EA050200F89A
:104B30000C20E27E5208E2763AB90A78FF2501326B
:104B40000A708022E2760A7885541D0708D491F80D
:104B500000C0E57E10F80C2022EA050200F80C20C7
:104B6000E27E5208E2763AB90A78FF2501320A70ED
:104B70008022E2760A7885545A0708D491F800C05A
:104B8000E57E10F80C2022EA050200F80C20E27EF7
:104B90005208E2763AB90A78FF2501320A7080227B
:104BA000E2760A7885549D0708D491F800C0E57E26
:104BB00010F80C2022EA050200F80C20E27E5208D0
:104BC000E2763AB90A78FF2501320A708022E2764D
:104BD0000A788554DB073FF516AE0A78E57E835CDC
:104BE00023EA050383540EE60A784FF0FF0C0132E6
:104BF0000A708022E2760A7800F802C045E500BF1C
:104C0000680500200D78714C10F805C094F81BE081
:104C100003F5E0632CEA0E0C00F805C094F81BC005
:104C20004FEA5C05E57645B94FF0800C0D7801350B
:104C30000D7084F81BC00D7842550D7894F81BC098
:104C4000425D22EA0C024255E27E5208E2763AB90F
:104C50000A78FF2501320A708022E2760A788554AC
:104C6000E27E5208E2763AB90A78FF2501320A70EC
:104C70008022E2760A788554E27E5208E2763AB9DA
:104C80000A78FF2501320A708022E2760A7885547C
:104C9000E27E5208E2763AB90A78FF2501320A70BC
:104CA0008022E2760A7885541A0606D40D7894F8A4
:104CB0001BC0425D22EA0C024255E27E5208E276B7
:104CC0003AB90A78FF2501320A708022E2760A7822
:104CD00085545D0606D40D7894F81BC0425D22EA27
:104CE0000C024255E27E5208E2763AB90A78FF2574
:104CF00001320A708022E2760A7885549A0606D438
:104D00000D7894F81BC0425D22EA0C024255E27E07
:104D10005208E2763AB90A78FF2501320A708022F9
:104D2000E2760A788554DD0606D40D7894F81BC027
:104D3000425D22EA0C024255E27E5208E2763AB91E
:104D40000A78FF2501320A708022E2760A788554BB
:104D50001A0706D40D7894F81BC0425D22EA0C02B3
:104D60004255E27E5208E2763AB90A78FF250132CE
:104D70000A708022E2760A7885545D0706D40D78A1
:104D800094F81BC0425D22EA0C024255E27E5208B2
:104D9000E2763AB90A78FF2501320A708022E2767B
:104DA0000A7885549A073FF509AF0D7894F81BC02F
:104DB000425D22EA0C02425500E70A78FF250132E3
:104DC0000A708022E2760A7885547BE56805002027
:104DD0002DE9F0474FF000088026FF25A84C81F808
:104DE00000801F46E6760570002B00F0468107F133
:104DF000FF395FFA89F9C24643469144561E0DE0D9
:104E0000454540F0D1800AF1010A5FFA8AFA0A7832
:104E1000BA4280F0C1804E4500F01E8116F8015F55
:104E2000002BEDD16B1EDBB2FD2B00F2B8803F2BC7
:104E300040F2F48005F14103DBB23F2B00F2BB806E
:104E4000E37E01355B08EDB2E376002B00F0F980DC
:104E50005B08E37653B94FF0800CFF220B780133E7
:104E60000B7084F81BC00B78C254E37EAA0608D4EA
:104E700091F800C010F80C2022EA030300F80C306F
:104E8000E37E5B08E37653B94FF0800CFF220B788A
:104E900001330B7084F81BC00B78C254E37EEA0622
:104EA00008D491F800C010F80C2022EA030300F89F
:104EB0000C30E37E5B08E37653B94FF0800CFF22A1
:104EC0000B7801330B7084F81BC00B78C254E37E5F
:104ED0002A0708D491F800C010F80C2022EA030336
:104EE00000F80C30E37E5B08E37653B94FF0800C9A
:104EF000FF220B7801330B7084F81BC00B78C2546F
:104F0000E37E6A0708D491F800C010F80C2022EA6A
:104F1000030300F80C30E37E5B08E37653B94FF0EF
:104F2000800CFF220B7801330B7084F81BC00B78C8
:104F3000C254E37EAA0708D491F800C010F80C20F0
:104F400022EA030300F80C30E37E5B08E37653B9F2
:104F50004FF0800CFF220B7801330B7084F81BC0DC
:104F60000B78C254E37EEA0705D40D78425D22EA4D
:104F700003034355E37E5B08E376D3B94FF0800C1F
:104F8000FF250A7801320A7084F81BC00A7885541C
:104F90000A78BA42FFF43FAF0020BDE8F0874FF037
:104FA000010AA846534632E753464246FFF724FB20
:104FB00038E700232BE70A7894F81BC0835C3F3561
:104FC00023EA0C038354E37EEDB25B08E37653B926
:104FD0004FF0800CFF220B7801330B7084F81BC05C
:104FE0000B78C254E37E5B08E37653B94FF0800C34
:104FF000FF220B7801330B7084F81BC00B78C2546E
:10500000E37E6A063FF524AF91F800C010F80C204B
:1050100022EA030300F80C30E37E19E7E37E7F35D4
:105020005B08EDB2E376002BEED14FF0800CFF224F
:105030000B7801330B7084F81BC00B78C254E37EED
:10504000E2E74FF0800CFF220B7801330B7084F8FD
:105050001BC00B78C254DFE75BB9E37E802B1EBF19
:105060000132D2B20A70974294BF00200120BDE8FD
:10507000F08753464246FFF7BFFA0A78EDE700BFD4
:10508000680500202DE9F04F6F227723002602707B
:10509000867043700B780D46A3F1FE03B3FA83F3D9
:1050A0005B0983708A78044612F001011CBF43F04B
:1050B00080038370D5F8202185B022F07F4222F052
:1050C000FF0212B143F008038370AA68C2F317020B
:1050D000FF2A1AD9B2F5803F14D34FF0020A63F0C9
:1050E0007F03A37041EA0A01E1700B220A2109261D
:1050F0004FF0080807204FF0060C4FF0050E4FF058
:10510000040913E043F00203A3701E0600F1EB80D4
:105110000A22092108264FF0000A4FF0070806204E
:105120004FF0050C4FF0040E4FF0030995F801B055
:10513000374604F809B095F804B0434604F80EB0B9
:1051400095F805E0019104F80CE095F806C0A1443B
:1051500004F800C0A078000709D595F82101884619
:10516000E0540B4695F822111646E1551746AA68F9
:10517000E254A378990708D5AB6808F10202C3F39B
:105180000F23E35597B2B0463E46BAF1000F05D063
:10519000AB7AB046E355771CBFB23E46A378DA0639
:1051A00006D595F82331B046E355771CBFB23E468D
:1051B0004E4B01361B781FFA86FAA24405F10C0B00
:1051C00043B15A4650466B780DF10F01FFF700FED0
:1051D00000286CD1594650466A7805F0A3F96B78DF
:1051E00001932278424BD243D2B294F801B09A5C38
:1051F00094F8029082EA0B029A5C94F803E089EA40
:10520000020913F8092094F804C08EEA020E13F87C
:105210000E2060798CEA020C13F80C20A179504022
:105220001A5C94F807A051405A5C5146B8F1070F38
:1052300082EA01029A5C25D0217AB8F1080F82EA4D
:1052400001029A5C1ED0617AB8F1090F82EA01026C
:105250009A5C17D0A17AB8F10A0F82EA01029A5C2F
:1052600010D0E17AB8F10B0F82EA01029A5C09D002
:10527000217BB8F10C0F82EA01029A5C1EBF617BB0
:105280004A409A5CE255019AB5F80C311644B6B220
:10529000A355B5F80C21731C9BB2120AE254AB78EB
:1052A000B01CDB0780B20CD405B0BDE8F08FA3784A
:1052B00043F04003A3709DF80F30019389F800304C
:1052C0008FE7D5F81821D5F81071D5F814112318E7
:1052D000275059609A6095F81C210F36B0B21A73A6
:1052E00005B0BDE8F08F4FF0000AFDE61403002082
:1052F00038AA00082DE9F84F0746A94D0C46284664
:105300003946164605F00EF900234FF40041A54A30
:1053100023709183002E00F0B7804FF0400A4FF0C9
:10532000800E4FF0FF09984695F800C082F81DA046
:105330004FEADC1C517F15F803B04FEA4C0C1BEA16
:10534000010F4FEA510018BF4CF0010C50770028B4
:1053500040F09C800133DBB2BCF1020F137782F87E
:105360001DE000F0FD81BCF1030F00F05F828020A2
:10537000BCF1010F40F0E8809E4240F2858015F8B4
:1053800003C010EA0C0F14BF01210021400840F0B7
:10539000B0830133DBB29E42137782F81DE073D9EC
:1053A000E85615F803C000284FEA410180F29184C5
:1053B0008020400841F0010140F0A4830133DBB2BA
:1053C0009E42137782F81DE05ED9E8564900002816
:1053D00015F803C0C9B201DA41F0010149001CF01F
:1053E000400F18BF2020C9B200F0188541F001011C
:1053F000002840F014850133DBB29E42137782F817
:105400001DE041D9E8564900002815F803C0C9B28B
:1054100001DA41F0010149001CF0400F18BF2020C3
:10542000C9B200F0058541F00101002840F0018576
:105430000133DBB29E42137782F81DE024D9EB568C
:105440004900002BC9B201DA41F0010182F81DA028
:1054500041312378581C2070F954137F9E4213D990
:10546000517FE85C01424FEA510114BF4FF0010C3B
:105470004FF0000C517721B90133DBB2137782F87A
:105480001DE09E423FF656AFBDE8F88FBCF1020F1B
:1054900000F0BB81BCF1030F7FF46AAF15F803C0C5
:1054A0001CEA000F14BF01200020890840F0C681CB
:1054B0000133DBB29E42137782F81DE0E4D9E9564E
:1054C00015F803C000294FEA400001DA40F001005E
:1054D0001CF0400F18BF20214FEA400000F0448428
:1054E00040F00100002940F040840133DBB29E42CD
:1054F000137782F81DE0C7D94000C1B2E85615F80D
:1055000003C0002801DA41F0010149001CF0400FFE
:1055100018BF2020C9B200F0778441F001010028B3
:1055200040F073840133DBB29E42137782F81DE0B2
:10553000AAD9EB564900002BC9B201DA41F00101AA
:1055400082F81DA0413984E79E429DD915F803C019
:10555000410851770CEA000BC1B90133DBB2137774
:1055600082F81DE0BBF1000F13D09E428CD9E956A2
:1055700015F803C00029B8BF402082F81DA04EDBFB
:105580002378591C217007F8039066E7BBF1000FE0
:105590000AD12378591C217007F803805DE700BF0A
:1055A0003C0400206805002080080CEA01015077C7
:1055B00098BB0133DBB2137782F81DE00029DFD0FE
:1055C0009E427FF661AFE95615F803C0002982F8C4
:1055D0001DA080F2AC834FF0400BB342BFF454AF38
:1055E000E85C1BEA000F14BF012100215FEA5B0C9D
:1055F00040F082830133DBB29E42137782F81DE0D4
:105600007FF642AFE8564900002801DA41F0010177
:105610004FF0400B82F81DA02DE00029B0D04FEADA
:10562000500B82F81DB00CEA0001BBF1000F40F0F6
:10563000F0810133DBB2137782F81DE0002900F01E
:1056400051819E427FF620AFE85CC10940064FEAD7
:10565000410140F193834FF0200B41F0010182F8AA
:105660001DB0BBF1000F06D14FF0800B0133DBB250
:10567000137782F81DE09E427FF606AFE85C490092
:105680001BEA000FC9B218BF41F001015FEA5B0CD1
:1056900040F0D4820133DBB29E42137782F81DE0E2
:1056A0007FF6F2AEE85649000028C9B201DA41F0AF
:1056B00001014FF0400B82F81DA09E427FF6E4AE40
:1056C000E85C49001BEA000FC9B218BF41F00101B4
:1056D0005FEA5B0B40F0C9820133DBB29E42137775
:1056E00082F81DE07FF6D0AEE85649000028C9B226
:1056F00080F2F6824FF0800B5FEA5B0B41F0010114
:1057000040F0BE820133DBB29E42137782F81DE087
:105710007FF6BAAEE85649000028C9B2C0F2F58259
:105720004FF0400B4900C8B2E95C1BEA010F00F0E2
:10573000C2824FEA5B0140F00100517719B9013391
:10574000137782F81DE000212378013103F1010C69
:1057500084F800C007F80390CBB29842F4D87CE6F6
:105760009E427FF691AE15F803B04FEADB101BF0B6
:10577000400F18BF20214FEA400000F0058340F0A1
:105780000100002940F001830133DBB29E42137710
:1057900082F81DE07FF678AE4000C1B2E85615F8F9
:1057A00003B0002801DA41F0010149001BF0400F6D
:1057B00018BF2020C9B200F0F18241F00101002899
:1057C00040F0ED820133DBB29E42137782F81DE098
:1057D0007FF65AAE15F903C04900BCF1000FE85C32
:1057E000C9B201DA41F001014900400648BF20205A
:1057F000C9B240F1DD8241F00101507718B901339F
:10580000137782F81DE0013123E61BEA000F14BF75
:10581000012000205FEA910C00F019811BEA0C0FB7
:105820004FEAD1014FEA4000A9D1AAE79E427FF694
:105830002BAE402115F803C04FEADC101CEA010F23
:105840004FEA40004FEA510B01D040F00100BBF19C
:10585000000F40F0FC820133DBB29E42137782F8E6
:105860001DE07FF611AE4000C1B2E85615F803C046
:10587000002801DA41F0010149001CF0400F18BF77
:105880004FF0200BC8B200F0A38240F00100BBF142
:10589000000F40F09F820133DBB29E42137782F803
:1058A0001DE07FF6F1AD15F903C04100BCF1000F1A
:1058B000E85CC9B201DA41F001014900400648BF85
:1058C0004FF0200BC9B240F18F8241F0010182F804
:1058D0001DB0BBF1000F7FF435AE0133137782F8B2
:1058E0001DE02FE69E427FF6CFADE85CC109400681
:1058F00048BF4FF0200B4FEA410140F1248241F0B4
:10590000010182F81DB0BBF1000F06D14FF0800BF2
:105910000133DBB2137782F81DE09E427FF6B4AD0F
:10592000E85C49001BEA000FC9B218BF41F0010151
:105930005FEA5B0B40F03A810133DBB29E421377A2
:1059400082F81DE07FF6A0ADE85649000028C9B2F4
:1059500080F2C1814FF0800B5FEA5B0B41F00101E7
:1059600040F02F810133DBB29E42137782F81DE0B5
:105970007FF68AADE85649000028C9B280F2AE81B0
:105980004FF0800B5FEA5B0041F0010140F02481A1
:105990000133DBB29E42137782F81DE07FF674ADCF
:1059A000E85649000028C9B280F29D818020400855
:1059B00041F0010140F01B810133DBB29E421377BD
:1059C00082F81DE07FF660ADE85649000028C9B2B4
:1059D000C0F29081402015F803C0490010EA0C0F76
:1059E000C9B200F01E81400841F00101507718B99A
:1059F0000133137782F81DE000232078013300F192
:105A0000010C84F800C007F80080D8B28842F4D3B3
:105A100023E500297FF4E1AD1BEA0C0F14BF01213F
:105A20000021800840F086810133DBB29E4213776B
:105A300082F81DE07FF628ADE8564900002801DA1B
:105A400041F001014FF0400B82F81DA065E70133E2
:105A5000DBB29E42137782F81DE07FF615ADE95662
:105A600015F803B000294FEA400001DA40F00100C8
:105A700040001BF0400F18BF4FF0200CC0B200F0E8
:105A8000688140F00100BCF1000F40F064810133F7
:105A9000DBB29E42137782F81DE07FF6F5AC410041
:105AA000E85615F803B00028C9B201DA41F0010147
:105AB00049001BF0400F18BF4FF0200CC9B200F096
:105AC000988141F00101BCF1000F40F09481013355
:105AD000DBB29E42137782F81DE07FF6D5ACEB5621
