:020000040800F2
:1000000000000120A18E00088B8E00088D8E000854
:100010008F8E0008918E0008938E0008000000006B
:10002000000000000000000000000000958E0008A5
:10003000978E000800000000998E00089B8E000833
:10004000F18E0008F18E0008F18E0008F18E000894
:10005000F18E0008F18E0008F18E0008F18E000884
:10006000F18E0008F18E0008F18E0008F18E000874
:10007000F18E0008F18E0008F18E0008F18E000864
:10008000F18E0008F18E0008F18E0008F18E000854
:1000900000000000F18E0008F18E0008F18E0008CB
:1000A000F18E0008F18E0008F18E0008812D000805
:1000B000F18E0008F18E0008F18E0008F18E000824
:1000C000F18E0008F18E0008F18E0008F18E000814
:1000D000E1270008E5450008F18E0008F18E0008D0
:1000E000F18E0008F18E0008F18E0008F18E0008F4
:1000F000F18E00080000000000000000F18E0008F2
:10010000F18E0008F18E00083D720008F18E0008A3
:10011000F18E0008F18E0008F18E0008F18E0008C3
:10012000F18E0008F18E0008F18E0008F18E0008B3
:08013000F18E0008F18E0008B9
:1001380010B5054C237833B9044B13B10448AFF319
:1001480000800123237010BD48000020000000003B
:1001580070AE000808B5034B1BB103490348AFF361
:10016800008008BD000000004C00002070AE0008B0
:10017800034613F8012B002AFBD1181A01387047DF
:1001880081F0004102E000BF83F0004330B54FEA40
:1001980041044FEA430594EA050F08BF90EA020FAD
:1001A8001FBF54EA000C55EA020C7FEA645C7FEA40
:1001B800655C00F0E2804FEA5454D4EB5555B8BF63
:1001C8006D420CDD2C4480EA020281EA030382EAD4
:1001D800000083EA010180EA020281EA0303362D66
:1001E80088BF30BD11F0004F4FEA01314FF4801C39
:1001F8004CEA113102D0404261EB410113F0004F4B
:100208004FEA03334CEA133302D0524263EB430301
:1002180094EA050F00F0A780A4F10104D5F1200E9F
:100228000DDB02FA0EFC22FA05F2801841F10001FA
:1002380003FA0EF2801843FA05F359410EE0A5F1CE
:1002480020050EF1200E012A03FA0EFC28BF4CF0FF
:10025800020C43FA05F3C01851EBE37101F00045B5
:1002680007D54FF0000EDCF1000C7EEB00006EEBC2
:100278000101B1F5801F1BD3B1F5001F0CD349084C
:100288005FEA30004FEA3C0C04F101044FEA4452A3
:1002980012F5800F80F09A80BCF1004F08BF5FEA2A
:1002A800500C50F1000041EB045141EA050130BD0A
:1002B8005FEA4C0C404141EB0101013C28BFB1F51C
:1002C800801FE9D291F0000F04BF01460020B1FA67
:1002D80081F308BF2033A3F10B03B3F120020CDA3A
:1002E8000C3208DD02F1140CC2F10C0201FA0CF018
:1002F80021FA02F10CE002F11402D8BFC2F1200C7D
:1003080001FA02F120FA0CFCDCBF41EA0C01904032
:10031800E41AA2BF01EB0451294330BD6FEA04047B
:100328001F3C1CDA0C340EDC04F11404C4F1200266
:1003380020FA04F001FA02F340EA030021FA04F378
:1003480045EA030130BDC4F10C04C4F1200220FACF
:1003580002F001FA04F340EA0300294630BD21FA0D
:1003680004F0294630BD94F0000F83F4801306BFD3
:1003780081F480110134013D4EE77FEA645C18BFC7
:100388007FEA655C29D094EA050F08BF90EA020F5E
:1003980005D054EA000C04BF1946104630BD91EA56
:1003A800030F1EBF0021002030BD5FEA545C05D159
:1003B8004000494128BF41F0004130BD14F5800498
:1003C8003CBF01F5801130BD01F0004545F0FE410C
:1003D80041F470014FF0000030BD7FEA645C1ABF41
:1003E800194610467FEA655C1CBF0B46024650EA78
:1003F800013406BF52EA033591EA030F41F40021A4
:1004080030BD00BF90F0000F04BF0021704730B529
:100418004FF4806404F132044FF000054FF00001FE
:1004280050E700BF90F0000F04BF0021704730B5BF
:100438004FF4806404F1320410F0004548BF404294
:100448004FF000013EE700BF42004FEAE2014FEAE9
:1004580031014FEA02701FBF12F07F4393F07F4FC4
:1004680081F06051704732F07F4208BF704793F0C7
:100478007F4F04BF41F40021704730B54FF46074DA
:1004880001F0004521F000411CE700BF50EA0102DD
:1004980008BF704730B54FF000050AE050EA010286
:1004A80008BF704730B511F0004502D5404261EBF6
:1004B80041014FF4806404F132045FEA915C3FF437
:1004C800D8AE4FF003025FEADC0C18BF03325FEAD4
:1004D800DC0C18BF033202EBDC02C2F1200300FA85
:1004E80003FC20FA02F001FA03FE40EA0E0021FAAA
:1004F80002F11444BDE600BF70B54FF0FF0C4CF498
:10050800E06C1CEA11541DBF1CEA135594EA0C0F49
:1005180095EA0C0F00F0DEF82C4481EA030621EA84
:100528004C5123EA4C5350EA013518BF52EA0335BF
:1005380041F4801143F4801338D0A0FB02CE4FF071
:100548000005E1FB02E506F00042E0FB03E54FF0A1
:100558000006E1FB03569CF0000F18BF4EF0010E99
:10056800A4F1FF04B6F5007F64F5407404D25FEA95
:100578004E0E6D4146EB060642EAC62141EA555148
:100588004FEAC52040EA5E504FEACE2EB4F1FD0C8A
:1005980088BFBCF5E06F1ED8BEF1004F08BF5FEA08
:1005A800500E50F1000041EB045170BD06F00046BA
:1005B80046EA010140EA020081EA0301B4EB5C0467
:1005C800C2BFD4EB0C0541EA045170BD41F480115F
:1005D8004FF0000E013C00F3AB8014F1360FDEBF84
:1005E800002001F0004170BDC4F10004203C35DA60
:1005F8000C341BDC04F11404C4F1200500FA05F3E3
:1006080020FA04F001FA05F240EA020001F0004283
:1006180021F0004110EBD37021FA04F642EB0601F9
:100628005EEA430E08BF20EAD37070BDC4F10C0423
:10063800C4F1200500FA04F320FA05F001FA04F2E7
:1006480040EA020001F0004110EBD37041F10001D3
:100658005EEA430E08BF20EAD37070BDC4F12005DE
:1006680000FA05F24EEA020E20FA04F301FA05F246
:1006780043EA020321FA04F001F0004121FA04F2EE
:1006880020EA020000EBD3705EEA430E08BF20EABE
:10069800D37070BD94F0000F0FD101F000464000F8
:1006A80041EB010111F4801F08BF013CF7D041EA7A
:1006B800060195F0000F18BF704703F0004652007E
:1006C80043EB030313F4801F08BF013DF7D043EA4F
:1006D8000603704794EA0C0F0CEA135518BF95EA05
:1006E8000C0F0CD050EA410618BF52EA4306D1D18C
:1006F80081EA030101F000414FF0000070BD50EAAB
:10070800410606BF1046194652EA430619D094EA34
:100718000C0F02D150EA013613D195EA0C0F05D11E
:1007280052EA03361CBF104619460AD181EA030172
:1007380001F0004141F0FE4141F470014FF000002A
:1007480070BD41F0FE4141F4780170BD70B54FF0C5
:10075800FF0C4CF4E06C1CEA11541DBF1CEA135545
:1007680094EA0C0F95EA0C0F00F0A7F8A4EB050427
:1007780081EA030E52EA03354FEA013100F088801E
:100788004FEA03334FF0805545EA131343EA1263E7
:100798004FEA022245EA111545EA10654FEA00269C
:1007A8000EF000419D4208BF964244F1FD0404F555
:1007B800407402D25B084FEA3202B61A65EB0305B1
:1007C8005B084FEA32024FF480104FF4002CB6EB6E
:1007D800020E75EB030E22BFB61A754640EA0C00EE
:1007E8005B084FEA3202B6EB020E75EB030E22BF2E
:1007F800B61A754640EA5C005B084FEA3202B6EB6F
:10080800020E75EB030E22BFB61A754640EA9C002D
:100818005B084FEA3202B6EB020E75EB030E22BFFD
:10082800B61A754640EADC0055EA060E18D04FEABB
:10083800051545EA16754FEA06164FEAC30343EA5B
:1008480052734FEAC2025FEA1C1CC0D111F4801F28
:100858000BD141EA00014FF000004FF0004CB6E721
:1008680011F4801F04BF01430020B4F1FD0C88BFC0
:10087800BCF5E06F3FF6AFAEB5EB030C04BFB6EBCB
:10088800020C5FEA500C50F1000041EB045170BDBE
:100898000EF0004E4EEA113114EB5C04C2BFD4EBEB
:1008A8000C0541EA045170BD41F480114FF0000E6F
:1008B800013C90E645EA060E8DE60CEA135594EAEB
:1008C8000C0F08BF95EA0C0F3FF43BAF94EA0C0FEE
:1008D8000AD150EA01347FF434AF95EA0C0F7FF463
:1008E80025AF104619462CE795EA0C0F06D152EAB7
:1008F80003353FF4FDAE1046194622E750EA41069B
:1009080018BF52EA43067FF4C5AE50EA41047FF4AB
:100918000DAF52EA43057FF4EBAE12E74A0011D25D
:1009280012F5001211D20DD56FF47873B3EB625241
:100938000ED44FEAC12343F0004343EA505323FA4D
:1009480002F070474FF00000704750EA013002D1C2
:100958004FF0FF3070474FF00000704780F00040C4
:1009680002E000BF81F0004142001FBF5FEA41037F
:1009780092EA030F7FEA226C7FEA236C6AD04FEA7F
:100988001262D2EB1363C1BFD218414048404140C4
:10099800B8BF5B42192B88BF704710F0004F40F476
:1009A800000020F07F4018BF404211F0004F41F492
:1009B800000121F07F4118BF494292EA030F3FD05E
:1009C800A2F1010241FA03FC10EB0C00C3F1200371
:1009D80001FA03F100F0004302D5494260EB400000
:1009E800B0F5000F13D3B0F1807F06D340084FEA6B
:1009F800310102F10102FE2A51D2B1F1004F40EB60
:100A0800C25008BF20F0010040EA030070474900C7
:100A180040EB0000013A28BFB0F5000FEDD2B0FA64
:100A280080FCACF1080CB2EB0C0200FA0CF0AABF87
:100A380000EBC25052421843BCBFD0401843704725
:100A480092F0000F81F4000106BF80F4000001322B
:100A5800013BB5E74FEA41037FEA226C18BF7FEA02
:100A6800236C21D092EA030F04D092F0000F08BF44
:100A78000846704790EA010F1CBF0020704712F02B
:100A88007F4F04D1400028BF40F00040704712F16A
:100A980000723CBF00F50000704700F0004343F0CF
:100AA800FE4040F4000070477FEA226216BF084605
:100AB8007FEA23630146420206BF5FEA412390EAC8
:100AC800010F40F4800070474FF0000304E000BFBE
:100AD80010F0004348BF40425FEA000C08BF70476F
:100AE80043F0964301464FF000001CE050EA010233
:100AF80008BF70474FF000030AE000BF50EA010248
:100B080008BF704711F0004302D5404261EB410134
:100B18005FEA010C02BF84460146002043F0B64359
:100B280008BFA3F18053A3F50003BCFA8CF2083A7E
:100B3800A3EBC25310DB01FA02FC634400FA02FC87
:100B4800C2F12002BCF1004F20FA02F243EB02008E
:100B580008BF20F00100704702F1200201FA02FCF0
:100B6800C2F1200250EA4C0021FA02F243EB0200E3
:100B780008BF20EADC7070474FF0FF0C1CEAD05227
:100B88001EBF1CEAD15392EA0C0F93EA0C0F6FD0E8
:100B98001A4480EA010C400218BF5FEA41211ED0C6
:100BA8004FF0006343EA501043EA5111A0FB0131B2
:100BB8000CF00040B1F5000F3EBF490041EAD37187
:100BC8005B0040EA010062F17F02FD2A1DD8B3F103
:100BD800004F40EBC25008BF20F00100704790F072
:100BE800000F0CF0004C08BF49024CEA502040EAC4
:100BF80051207F3AC2BFD2F1FF0340EAC25070478A
:100C080040F400004FF00003013A5DDC12F1190FC7
:100C1800DCBF00F000407047C2F10002410021FA39
:100C280002F1C2F1200200FA02FC5FEA310040F151
:100C3800000053EA4C0308BF20EADC70704792F0CA
:100C4800000F00F0004C02BF400010F4000F013A02
:100C5800F9D040EA0C0093F0000F01F0004C02BFFD
:100C6800490011F4000F013BF9D041EA0C018FE76C
:100C78000CEAD15392EA0C0F18BF93EA0C0F0AD072
:100C880030F0004C18BF31F0004CD8D180EA010098
:100C980000F00040704790F0000F17BF90F0004F31
:100CA800084691F0000F91F0004F14D092EA0C0F13
:100CB80001D142020FD193EA0C0F03D14B0218BFA6
:100CC800084608D180EA010000F0004040F0FE40EC
:100CD80040F40000704740F0FE4040F44000704788
:100CE8004FF0FF0C1CEAD0521EBF1CEAD15392EA07
:100CF8000C0F93EA0C0F69D0A2EB030280EA010CF7
:100D080049024FEA402037D04FF0805343EA11118F
:100D180043EA10130CF000408B4238BF5B0042F1ED
:100D28007D024FF4000C8B4224BF5B1A40EA0C0092
:100D3800B3EB510F24BFA3EB510340EA5C00B3EBC4
:100D4800910F24BFA3EB910340EA9C00B3EBD10FB2
:100D580024BFA3EBD10340EADC001B0118BF5FEA04
:100D68001C1CE0D1FD2A3FF650AF8B4240EBC2502D
:100D780008BF20F0010070470CF0004C4CEA5020EE
:100D88007F32C2BFD2F1FF0340EAC250704740F43D
:100D980000004FF00003013A37E792F0000F00F02F
:100DA800004C02BF400010F4000F013AF9D040EAAD
:100DB8000C0093F0000F01F0004C02BF490011F441
:100DC800000F013BF9D041EA0C0195E70CEAD15339
:100DD80092EA0C0F08D142027FF47DAF93EA0C0F20
:100DE8007FF470AF084676E793EA0C0F04D14B0204
:100DF8003FF44CAF08466EE730F0004C18BF31F0B6
:100E0800004CCAD130F000427FF45CAF31F00043AF
:100E18007FF43CAF5FE700BF4FF0FF3C06E000BF48
:100E28004FF0010C02E000BF4FF0010C4DF804CD6B
:100E38004FEA40024FEA41037FEA226C18BF7FEA7B
:100E4800236C11D001B052EA530C18BF90EA010F7D
:100E580058BFB2EB030088BFC81738BF6FEAE1700C
:100E680018BF40F0010070477FEA226C02D15FEAA8
:100E7800402C05D17FEA236CE4D15FEA412CE1D014
:100E88005DF8040B704700BF844608466146FFE7DB
:100E98000FB5FFF7C9FF002848BF10F1000F0FBDBD
:100EA8004DF808EDFFF7F4FF0CBF012000205DF8B6
:100EB80008FB00BF4DF808EDFFF7EAFF34BF01203B
:100EC80000205DF808FB00BF4DF808EDFFF7E0FFD4
:100ED80094BF012000205DF808FB00BF4DF808ED25
:100EE800FFF7D2FF94BF012000205DF808FB00BF88
:100EF8004DF808EDFFF7C8FF34BF012000205DF86A
:100F080008FB00BF4FEA4002B2F1FE4F0FD34FF08B
:100F18009E03B3EB12620DD94FEA002343F000435E
:100F280010F0004F23FA02F018BF404270474FF00C
:100F38000000704712F1610F01D1420205D110F093
:100F4800004008BF6FF0004070474FF00000704746
:100F580042000ED2B2F1FE4F0BD34FF09E03B3EB1B
:100F6800126209D44FEA002343F0004323FA02F047
:100F780070474FF00000704712F1610F01D1420233
:100F880002D14FF0FF3070474FF00000704700BFAC
:100F98000022427082700122C270B1FA81F10222ED
:100FA80049090271032201704271704743788B42EC
:100FB8001FD0012941700AD0022910D0C1B90123DC
:100FC800C370817002230371032343717047037850
:100FD80043B1012383700223C3700023F3E703782E
:100FE800002BF6D0022383700023C3700123EAE7A5
:100FF800FEE7704782B00B88ADF800304B88ADF83B
:1010080002308B88ADF80430CB88ADF80630023951
:10101800831C063013F8012B0DF1080C0CEB42026F
:10102800834232F8082C21F8022FF3D102B070471E
:10103800084480787047000010B5084B4FF07F32A5
:10104800C0E928234FF6FF73A0F8A8300446AC3057
:1010580000F044FC002384F8B83010BDFFFF7F0087
:1010680070B51146154604461E4600F0DEFB2946BB
:1010780004F1140000F0D9FB294604F1280000F01F
:10108800D4FB294604F13C0000F0CFFB294604F1CB
:10109800500000F0CAFB294604F1640000F0C5FBCB
:1010A800294604F1780000F0C0FB294604F18C00C1
:1010B80000F0BBFB04F1AC0032464FF4FA734FF476
:1010C800FA6100F0F1FB2046BDE87040FFF7B4BFBD
:1010D800704700F0B1BB143000F0AEBB283000F010
:1010E800ABBB90F8A43013B990F9A000704790F901
:1010F800A100704790F8A43013B990F9A200704786
:1011080090F9A300704710B5044606F01DFA38B1EF
:1011180004F1140000F094FB012838BF0120C0B28C
:1011280010BD10B5044606F00FFA38B104F15000AE
:1011380000F086FB012838BF0120C0B210BD4FF473
:101148007A71AC3000F0D1BB0021AC3000F0CDBBDF
:1011580008B5AC3000F0DAFBB0F57A7FA8BF4FF4E1
:101168007A7020EAE07008BD10B5044600F03EFB36
:1011780004F1140000F03AFB04F1280000F036FBFB
:1011880004F13C0000F032FB04F1500000F02EFBAB
:1011980004F1640000F036FB04F17800BDE810406B
:1011A80000F030BB7F2807D0002807DA10F1800F45
:1011B80006D04042C0B270470020704701207047F7
:1011C8007F20704710B1404240B270477F2070477F
:1011D8007F280FD010F1310F0EDA10F1780F0DDBE8
:1011E8007830FE2340B2584323304623B0FBF3F057
:1011F800C0B27047FF207047FE207047002070473C
:101208007F2805D031B1002806DA4042C0B27047C5
:10121800FF207047FE207047002070477F2811D0BC
:1012280010F1310F10DA10F1780F10DB783040F23E
:10123800A96340B2584323304623B0FBF3F0AC30E7
:1012480080B270470020704740F255707047AC205C
:10125800704763289FBF40F2A96358433230642324
:101268009DBFB0FBF3F0AC3080B240F255707047D0
:101278004FF4F063A0F58060584340F2FF7390FB91
:10128800F3F000F5787080B27047FFF7F1BF4FF4C4
:101298009663A0F58060584340F2FF7390FBF3F02B
:1012A80000F2DC5080B27047A0F58060D0EB0010EF
:1012B80048BF033040F38F007047032812DD0C2825
:1012C80012DD0F2812DD122812DD162812DD19286A
:1012D80012DD1C2812DD1F2812DD2128CCBFFF20BB
:1012E8000620704700207047012070470220704791
:1012F8000820704703207047072070470420704774
:1013080005207047022809D0012809D050B10328C8
:101318000AD004280CBF0120FF2070471320704713
:101328001F207047012070476F2070477F281ABF21
:101338004042C0B20020704752B110B4054C0A4474
:1013480011F8013B58408A42205CF9D110BC704723
:10135800704700BFA4AE0008A0F16103192B0FD994
:101368005F280DD02338C3B2162B9FBF0548D8403D
:10137800C04300F0010088BF012080F001007047E1
:101388000120704701EC7F00F8B50246451E461D56
:1013980000245F2715F8010FFF2804BF0134E4B2C9
:1013A800FFF7DAFF00B92F70AE42F3D1062C04D153
:1013B80019B10B6813608B88938000239371F8BD73
:1013C8002DE9F843DFF83490471E441D0125002617
:1013D8004FF0280817F8011F084809F01CFD10B144
:1013E800A0EB0900C0B2A0FB05038619A742A5FB24
:1013F8000853EFD13046BDE8F88300BFA4AF00081A
:1014080010B54179A1F13000C3B2092B07D80523E3
:10141800B0FBF3F303EB8303C01AC0B210BD044C56
:10142800204609F0F8FC0028F1D0001BC0B2EEE716
:10143800A4AF000870B50446FEF79AFE82B20023F6
:10144800561E98B2B04214FA83F104DA255C302DA6
:1014580003F10103F5D0121A01322046BDE87040AD
:1014680009F0A8BC2DE9F04F0D4699B016460021A9
:101478001A461F46804609F0B7FC00212A2201A817
:10148800009109F0B1FCDFF8CC90DFF8CCA0DFF8D0
:10149800CCB005EB4606AE424AD035F9020B47F60A
:1014A800FF73984244D0002812DC59460CA809F072
:1014B800BFFC6846FEF75CFE04460CA8FEF758FE23
:1014C8000444A742E7D30CA9684609F095FCE2E773
:1014D800B0F57A7F0BDA0CA980B209F013F80CA8E2
:1014E800FFF7A8FF51460CA809F086FCE1E70CA914
:1014F80032306424B0FBF4F080B209F003F80CA891
:10150800FFF798FF0CA8FEF733FE00F15F036B446A
:1015180000F160010DEB010013F8302C00F8302CBD
:101528002E2203F8302C002300F82F3C4946DAE736
:101538006846FEF71DFE30B100F160030DEB0300B5
:10154800002300F8613C6946404609F071FC19B077
:10155800BDE8F08F9EAE000899AE000894AE000872
:10156800F0B589B06D4600242F468E1CE1B28A4240
:1015780005D936F8241025F8021B0134F6E7394658
:10158800FFF770FF09B0F0BD42F210736421B0FBA1
:10159800F3F203FB1200B0FBF1F301FB130000EBC5
:1015A800023000EB831080B2704770B50D46002101
:1015B8000446164609F018FC00239AB2964204D94C
:1015C800EA5C12B1E2540133F7E770BD70B50E461C
:1015D800144600210132054609F006FC00239AB2A0
:1015E800944204D9F25C12B1EA540133F7E770BDB2
:1015F8007D23438043F2390309B2C360002301808D
:101608008180C3800372704702680449044B01FB60
:10161800023323F000430360180C7047FD430300B6
:10162800C39E2600F0B5002597B00160858004466A
:1016380056222946684609F0D7FB0126E27DAA42D0
:101648004CD92046FFF7E0FFE7797B1B002190FB90
:10165800F3F202FB1300C0B2EC460A46CBB29F423B
:101668000AD91CF801EBBEF1000F03D1824204D065
:101678000132D2B20131F1E700230022277B114663
:10168800D0B2874206D92069805C0132984208BFEF
:101698000121F5E70029D1D1A279033A012A04EB07
:1016A800050105D925B191F9172082B9012BC5D9B2
:1016B8000B76A26852F82310583305F10E026B44DA
:1016C800013544F8221003F8586CEDB2B6E7501E05
:1016D8008342EDDB01329342EADCAFE7002380214D
:1016E80004F1B800A37517B0BDE8F04009F07CBB61
:1016F8002DE9F047154696B0013D01600271044698
:101708004371EDB256220021684609F06DFB0027AF
:10171800022D84BF4FF0010900253E464FF0010A13
:1017280094F807809CBF4FF00309B8FBF9F8E27DF5
:10173800B24251D92046FFF767FFA8EB0603002104
:1017480090FBF3F202FB1300C0B2EC460A46CBB2A0
:1017580043450AD21CF801EBBEF1000F03D18242C7
:1017680003D00132D2B20131F1E7434528BF4346E5
:1017780003FB0951002094F80CE001F0FF018446B6
:10178800C2B2964507D92269125C01308A4208BF65
:101798004FF0010CF4E7BCF1000FC8D116B19FB9A6
:1017A800012BC4D9A2191F461176A26852F821103C
:1017B80006F10E02013644F8221003F158026A4479
:1017C800F6B202F858ACB2E77A1E9342EADB7A1C0A
:1017D800D2B29342E6DCAAE70023802104F1B800E4
:1017E800A37516B0BDE8F04709F0FEBAD0E90123A9
:1017F8006421D31AC36082604B43418AB3FBF1F37F
:1018080003747047D0E90123D31AC0E90223704753
:1018180043682BB1C26864214A43B2FBF3F3DBB2DD
:1018280003740023C360436070470023C0E9023398
:1018380041824360037470474368013343607047D3
:10184800007C704743680B44436070470023C0E93D
:101858000133C36003747047F0B5047C0360012C46
:1018680011D944688568C668141B4FF47A774D1BF4
:101878007C4305FB16442B4494FBF3F33344C360C9
:10188800C0E90121F0BD1CB9C46001230374F7E766
:1018980043684FF47A74D31A634384680C1B93FB30
:1018A800F4F3C3600223F1E72DE9F0410446104642
:1018B8001D4616468846FFF707F9074606EB080057
:1018C800FFF702F901463846FFF70AFA656020601B
:1018D8002846FFF7FDF8A060BDE8F08110B5044682
:1018E8004068FFF7F5F8A06010BD38B58568044674
:1018F8000846FFF7EDF82946FFF734F82168FFF7A7
:101908003BF92946FFF730F8A06038BD08B54FF01D
:101918007C518068FFF728F8FFF7F4FA08BD704794
:101928007047704770470020704700207047704725
:1019380000207047002070474FF0B04382B0DA6C47
:101948000243DA64DB6C18400190019B02B07047D7
:101958004FF0B04382B09A6D02439A659B6D184070
:101968000190019B02B070474FF0B04382B01A6EED
:1019780002431A661B6E18400190019B02B0704723
:1019880050E8003F23F0800340E80032002AF7D1F6
:10199800704770470288044B5140C9B233F8113080
:1019A80083EA12230380704740C500089AB110B437
:1019B800B0F800C0084C0A4411F8013B83EA0C0354
:1019C800DBB2914234F8133083EA1C2CA0F800C033
:1019D800F2D110BC7047704740C5000837B54FF6C4
:1019E800FF730446ADF806304518AC4206D014F82B
:1019F800011B0DF10600FFF7CDFFF6E7BDF8060065
:101A080003B030BD044B1888044B1B8880B29BB2CE
:101A1800C01A18BF01207047541A0020521A00201B
:101A2800012070477047000008B51E2203480021B6
:101A380009F0DAF9024B00221A7008BD6805002087
:101A4800140300202DE9F0411378037092F8018007
:101A580080F80180FD2B1546044682680F4652D156
:101A6800AB788370EB78C3702B7903716B79437112
:101A7800AB7983716B7A297A1B0403EB0123E9792B
:101A88000B4463F3170282600A264246A91904F13F
:101A98000C0009F081F97A7B904507D208F10C0017
:101AA800A2EB08020021204409F09EF963781E4445
:101AB800731C9BB2EA5CAB5D03EB0223A4F80C3108
:101AC800A378DB070ED5023615FA86F504F5887378
:101AD80005F10C0255F8041B43F8041B9542F9D193
:101AE8002A781A70BB7A84F82131FB7A84F822317B
:101AF8003B7B84F823317B7B84F824313B7884F862
:101B08002031BDE8F08100234380AB780371EB7886
:101B180043712B798371697961F317028260062614
:101B2800B3E770B50B7803704B7843700B78FD2BD7
:101B380005460C4638D18B788370CB78C3700B7907
:101B480003714B7943718B7983718B68C3718B688F
:101B5800C3F30F2303728B7A43720A26627804F167
:101B68000C01A81909F018F96378B4F80C2133446A
:101B7800981CEA545A1CB4F80C1192B2090AA954D8
:101B8800A278D20780B20ED504F58872054404F510
:101B98008E7452F8041B45F8041BA242F9D112783E
:101BA8002A700F3398B270BD00238B700B79837045
:101BB8004B79C3708B7903718B6843710626CDE727
:101BC80070B50D4C0D4E0546062204F10A0106F5C6
:101BD8008970FFF7FBFC237CC3F3031386F81A31E3
:101BE800637CC3F3030386F81B31637ADB0744BFC6
:101BF80002232B7370BD00BF3D100020C0000020E1
:101C08000A4B0B491A68A1FB02123223920C03FB00
:101C180002F20849084B486802F5FA72A3FB02323F
:101C280092094B681B1A9A42FBD870473C00002067
:101C380083DE1B43001000E0D34D6210054A536A4F
:101C480052E8003F43F0200342E800310029F7D171
:101C5800704700BF003801402DE9F74F0C46518806
:101C6800B1F58C7F054611D300211170D91CC9B27A
:101C7800012995BF01210023518053809CBF237007
:101C8800117000232B7003B0BDE8F08F10780E2878
:101C980000F2BA8001A656F820F000BF751C0008B3
:101CA800E11C0008091D0008251D0008111E000878
:101CB800111E0008111E0008111E0008111E000840
:101CC800111E0008111E0008111E0008111E000830
:101CD800111E0008351D0008481C508063542178E7
:101CE800FD299BB206D10C330A21D38091800223AF
:101CF8001370C6E708330621D38091800E23F7E7D7
:101D0800481C50806354D80742BFD1880D31D18018
:101D18000321012B1170B4D90023E9E7481C508036
:101D280063540E211170002BF6D1AAE7481C50808D
:101D380063545388D1888B4260D300235380137037
:101D480002232B7069802378FD2B63D163792B7272
:101D5800A3796B72637A227A1B0403EB0223E2797C
:101D680013446B60637803F10C026A80A278D10790
:101D780001D519336B8000236968DFF8F4806B8123
:101D880040F26B121E460C20B31801335B0800FBAF
:101D980003F758F80770B94245D25A1EB242F3D831
:101DA8000C27774358F8073099423FD123782046CB
:101DB800FD2B10F801BF0CBF4FF00A094FF00609C0
:101DC800CB440BF1FF3189B24744FFF707FE97F880
:101DD80004A0ADF8060051460DF10600FFF7DAFD44
:101DE8000BF10103E25C14F80B3003EB0223BDF89E
:101DF80006209BB29A421BD0052343E792889A4259
:101E08003FF63FAF01233DE70023137053809380D3
:101E1800D38037E7E3782B7223796B7263796B6031
:101E280063780833A6E71E46BAD9B7E7032329E73C
:101E3800BB79DA0707D56178FA79914282BF04EB5A
:101E480009018A5CAA729B0709D50C2303FB068348
:101E580062781B7A9A4282BF4C44E35CEB720C2393
:101E680003FB068385F80CA05B796B73022309E7F3
:101E78005CB300087FB50646FD2306F80C3B8DF8D9
:101E8800043090F8243103F10C0204460244012B7B
:101E980005D912F8010D10B9013BDBB2F7E70025AF
:101EA800637065808DF805308B7A23718DF8083062
:101EB8008B7A8DF8065001338B7263798DF809306F
:101EC800A3798DF80A30A3688DF80750C3F3170378
:101ED8001A128DF80B3009211B140DF105008DF82D
:101EE8000D308DF80C20FFF779FD6278ADF802000F
:101EF80031460DF10200FFF759FD94F82311FFF761
:101F080049FDBDF8023094F82421A4F80C31637817
:101F1800934209D203F10C00D21A2946204404B096
:101F2800BDE8704008F060BF04B070BD044A0023EB
:101F38001380044A1380044A1380044A13807047AC
:101F4800521A0020541A0020561E0020581E002045
:101F580008B5FFF755FE044AD2F8903043F4004321
:101F6800C2F8903008BD00BF00040058044AD2F8F7
:101F7800903023F40043C2F89030FFF741BE00BF11
:101F88000004005807B503688DF80710DB680122C4
:101F98000DF10701984703B05DF804FB70B50446DE
:101FA80008460D46FEF7E4F8236882B22946204623
:101FB800DB68BDE870401847B0F1904F02D10120AE
:101FC800FFF7BABC084B984205D003F580639842E6
:101FD80003D10420F4E70220F2E7044B984201D130
:101FE8008020EDE7704700BF00040048001C00484F
:101FF8000C4B984203D14FF40060FFF7B5BCB0F129
:10200800804F05D0084B984205D14FF40030F4E7D3
:102018000120FFF79DBC054B984202D14FF4802068
:10202800EBE77047002C01400044014000480140A4
:102038002DE9F04387B00E460546144600211422C8
:1020480001A89DF838809DF83C901F4608F0CCFE0A
:1020580000960B2C07D8DFE804F007070A121414BF
:10206800141616161A1CFEE70323019301E0022337
:102078000493032F11D8DFE807F01113211101236E
:10208800F6E70123F1E7012301930393F1E7022324
:10209800EBE7022301930123F7E7FEE7022302930C
:1020A800B8F1100F0CD8DFE808F02D2D0C1113151E
:1020B80017191B1D1F21232527292B000123EEE7B4
:1020C800FEE701230593022301931EE00223F9E7AB
:1020D8000323F7E70423F5E70523F3E70623F1E7EE
:1020E8000723EFE70823EDE70923EBE70A23E9E7EE
:1020F8000B23E7E70C23E5E70D23E3E70E23E1E7EE
:102108000F23DFE7B8F1000FDDD1B9F1000F02D0DE
:102118002846FFF751FF053C042C05D8DFE804F0FA
:10212800030B04030B00AE626946284607F076FDF0
:1021380007B0BDE8F083AE61F6E7000070B586B081
:1021480004460D4616460021142201A808F04CFE4C
:102158002046FFF74DFF042E04D8DFE806F02E32A4
:1021680004363F00FEE71E4B1E4A1B68B3FBF2F322
:102178009BB20022013B01A92046ADF80430CDE90D
:1021880002250492059207F079FF236823F0800363
:102198002360A36823F4A03323F00703A3606368D4
:1021A80023F070036360636823F470036360A368BB
:1021B80023F08003A36006B070BD094B0A4A1B6870
:1021C800D4E7074B094A1B68D0E7054B064A1B684A
:1021D800B3FBF2F303EB83035B00C9E70123C8E712
:1021E8003C00002080A8120140420F0000127A0033
:1021F80010B50446FFF7A2FF236843F001032360EC
:1022080010BD00224FF0FF31FFF7F2BF1A4B10B597
:102218001A4C5B68236006F069FE4FF0904007F0A7
:10222800BFFC174807F0BCFC164807F0B9FC164875
:1022380008F0B2F8154808F0AFF807F04FFE4FF075
:10224800E022002313615361936172B64FF0FF31AE
:102258009A0002F1604202F561420133082BC2F88C
:102268008010C2F88011F3D162B6034B1B6883F368
:10227800088823689847FEE70000FF1F1003002026
:1022880000040048000800480038014000440040AD
:10229800064B0748C01AEFF30883C2431A44013BB0
:1022A800984288BF0022AA2108F09EBD00040000C1
:1022B80000000120044B5A69586910F0020018BF49
:1022C800C2F38000704700BF000400584FF0B042CE
:1022D800D2F8943043F40043C2F894304FF47A7340
:1022E80000BF013B9BB2002BFAD14FF0B043D3F8AB
:1022F800942022F40042C3F89420D3F89420520486
:10230800FBD40C4BD3F8902022F40042C3F8902061
:102318004FF47A7200BF013A92B2002AFAD1D3F888
:10232800902042F40042C3F890204FF400629A6172
:10233800704700BF0004005837B500240125CDE9D7
:1023480000450323052240214FF09040FFF770FE1F
:10235800CDE900450323052280214FF09040FFF787
:1023680067FE03B030BD08B5FFF7A4FF003818BFFB
:10237800012008BD08B5FFF7F6FF08B100BFFAE76E
:1023880008BD4FF0904380229A6240229A617047BC
:102398004FF0904340229A6280229A617047000071
:1023A800024B4FF480225A60704700BF00E100E002
:1023B800064B1A6822F001021A605A6822F40032A9
:1023C8005A601A6842F001021A60704700440040DF
:1023D800064B1A6822F001021A605A6842F4003269
:1023E8005A601A6842F001021A60704700440040BF
:1023F80007B500230122CDE90032022103224FF064
:102408009040FFF715FE03B05DF804FB4FF09043D2
:10241800186980F00200C0F34000704773B50A4D98
:102428000024012623462846CDE90046052210212E
:10243800FFF7FEFDCDE90046234605220821284680
:10244800FFF7F6FD02B070BD0004004805494B696E
:102458001A04DB4302F4801203F0100313438B6168
:10246800704700BF0004004805494B691A04DB4364
:1024780002F4002203F0080313438B61704700BF86
:10248800000400480C4BD3F8FC2022F08072C3F8FB
:10249800FC20D3F8FC2042F08072C3F8FC20A3F59E
:1024A8005D431A6822F001021A601A6842F00102BC
:1024B8001A6000225A60704700ED00E00649074B99
:1024C800074A1B68B3FBF2F310B54C6843434A68EC
:1024D800121B9A42FBD310BD001000E03C00002004
:1024E80040420F001FB50223CDE9013101A80123A5
:1024F8006946039306F064FE00280CBF04200520FB
:1025080005B05DF804FB014608B5012006F012FE8F
:1025180000280CBF0420052008BD08B5FFF7E2FF1E
:10252800031F5842584108BD08B5FFF7ECFF031FC9
:102538005842584108BD00002DE9F047284B294D65
:1025480001280E4614462849284A0FBF79277827BC
:10255800AA461D4606BF88469A46904606F09EFD46
:1025680039462846FFF7D9FF38B3002E08BF4FF485
:10257800FC640734E41005F11007B14606EBC40407
:10258800AAEB050AA1451ED06EB90AEB0703D3E9E9
:102598000023B3F1FF3F08BFB2F1FF3F06D1083770
:1025A80009F10809EEE7D9E90023F2E7B84515D99A
:1025B8003846FFF7B9FF0028F1D1002406F080FD66
:1025C8002046BDE8F0874FF011324FF0FF33284620
:1025D800FFF7AAFF0028F0D00424EFE70324EDE773
:1025E80000C0030800C80308FFCF0308FFC703089B
:1025F80010B506F053FD08487821FFF78EFF20B18B
:1026080006487921FFF789FF20B9002406F058FD14
:10261800204610BD0424F9E700C0030800C80308D9
:1026280030B5084A084D00239CB2A14206D99C182F
:10263800AC4205D09C5CC4540133F5E7042030BD9E
:102648000320FCE710C00308FFC7030838B5044699
:102658000D4672B60A4601460020FFF76DFF62B6C6
:10266800042806D172B601202A462146FFF764FFE6
:1026780062B638BD38B5124B1C68D3F80058B4F1AF
:10268800113F09D1B5F1113F17D0002211460120A1
:10269800BDE83840FFF750BFB5F1113F03D1002224
:1026A80011461046F4E7FFF7A3FF042804D12C4095
:1026B80001340CBF0220012038BD0420FCE700BF14
:1026C80000C00308044B9A689107FCD518739A68F0
:1026D800D207FCD5187B70470000015870B50C462E
:1026E800451E8E18B44206D015F8010FFFF7EAFF11
:1026F80004F8010BF6E770BD084611461A46FFF7C5
:10270800EDBF000070B5064E04464518A54205D039
:102718003078FFF7D7FF04F8010BF7E770BD00BF6B
:102728003400002008461146FFF7ECBF38B50446D0
:102738004518AC4204D014F8010BFFF7C3FFF8E7C3
:1027480038BD08461146FFF7F1BF000010B58CB040
:102758002822002102A808F047FB4FF0B0431C4C88
:102768005A6E42F001025A665B6E03F00103019350
:10277800019BFFF7ABFD082208924FF482720023F9
:1027880003924FF40072CDE90533CDE90933029382
:10279800079207234FF4E06202A920460B930492A4
:1027A80007F032FC636823F010036360636823F06A
:1027B80008036360236843F040032360A3689B0712
:1027C800FCD5237B034BFF221A700CB010BD00BF51
:1027D80000000158340000201B4B10B4DC69A0062F
:1027E80011D51A6891060ED5184819495A6A0388EE
:1027F80009880133C3F30A0389B299421FBF1549F7
:10280800D2B2CA54038010481F232206036215D58A
:1028180003681B0612D5104B104A1988138889B211
:102828009BB299420CD013880133C3F30903138078
:1028380013880B4A9BB2D35CDBB2836210BC70472F
:1028480010BCFFF79DB800BF00380140541A0020A3
:10285800521A002052120020581E0020561E002036
:10286800561A00200C490D4A0B8812880133C3F30D
:10287800090392B29A420DD0094AD054094A0B80F2
:1028880052E8003F43F0800342E800310029F7D1C5
:102898000120704700207047581E0020561E002057
:1028A800561A00200038014038B504464518AC4295
:1028B80004D014F8010BFFF7D5FFF8E738BD084638
:1028C8001146FFF7F1BF0000054B064A1B88128826
:1028D8009B1A98B21B0444BF00F5006080B2704791
:1028E800541A0020521A0020FFF7EEBF0848094A80
:1028F8000188138889B29BB29942F9D013880133B1
:10290800C3F30A0313801388034A9BB2D05C704751
:10291800541A0020521A002052120020FFF7E6BF76
:1029280070B588B00C460646154600212022684638
:1029380008F05AFA002C14BF4FF480530023CDE955
:10294800023569460C23044801960494059307F060
:1029580047FD08B070BD00BF0038014010B5064CF7
:10296800236823F001032360FFF7DAFF236843F0AD
:102978000103236010BD00BF003801400022084653
:102988001146FFF7EBBF000073B5384C236823F0FE
:1029980001032360082501264FF48040FEF7E4FF79
:1029A8004FF40071CDE9005603230A224FF09040FE
:1029B800FFF73EFB03231A46CDE900564FF480612A
:1029C8004FF09040FFF734FB002211464FF461406E
:1029D800FFF7A6FF636823F490436360A36823F0BE
:1029E8002A03A360224BB02283F8242310225A60C2
:1029F8002046FEF7C5FF54E8003F23F0400344E8B3
:102A08000032002AF7D1402323621A4B1A801A4B4E
:102A18001A8054E8003F23F0200344E80032002ADB
:102A2800F7D1164B1A80164B1A80104B5A6822F4AD
:102A380000625A609A6822F008029A605A6822F482
:102A480080425A609A6822F022029A609A6842F498
:102A580080529A601A6842F001021A60DA6991029B
:102A6800FCD5DA695202F9D502B070BD00380140D0
:102A780000E100E0561E0020581E0020521A0020D7
:102A8800541A002008B5FFF77FFFBDE80840FFF79C
:102A9800D5B8FFF7F7BF0000054A064B11681B7849
:102AA8000B441360044A136801331360704700BF76
:102AB8005C1E002040000020540300200148FFF75E
:102AC800A0BB00BF00440140014B586A80B2704768
:102AD80000440140024B00221A60FFF7EFBF00BF1D
:102AE8005403002070B504460D46164606F0D6FA83
:102AF800083D04EBC606B44214D055F8082FD4E9B3
:102B080000016B68994208BF904201D10834F2E78E
:102B18002046FFF709FD0028F8D1044606F0D0FA50
:102B2800204670BD0424F9E77FB5012303804C4B90
:102B38004C4AD3E9005104464B48914208BF8542AC
:102B48004FF0000202D1227004B070BD42A1D1E959
:102B58000001464E6260C3E90001454B4FF0AA32BE
:102B6800D3E90001B1F1FF3F08BFB0F1FF3F03F126
:102B7800080505D0914208BF904201D0014330D1E9
:102B8800D5E90001B1F1FF3F08BFB0F1FF3F24D103
:102B980063606068D0E90065CDE90065B5F1FF3F85
:102BA80008BFB6F1FF3FD0E9021226D1B2F1FF3FCC
:102BB80008BFB1F1FF3F4CD14FF0AA324FF0AA3312
:102BC800CDE900234FF0FF324FF0FF33CDE9022368
:102BD80069460222FFF786FFB6E7914208BF904296
:102BE800D6D01033B342BBD172B6214D7A212846D4
:102BF800FFF793FC62B66560CBE74FF0AA339D42BE
:102C080008BF9E4219D1B2F1FF3F08BFB1F1FF3FA3
:102C180006D14FF0AA324FF0AA33CDE90023D5E709
:102C28009A4208BF994214D100220023CDE900231B
:102C38004FF0AA324FF0AA33C8E7354309D19A4278
:102C480008BF994205D14FF48073238000220023E6
:102C5800E3E700232370F9E712345678FEDCBA90D4
:102C680020000020FEDCBA901234567800D8030801
:102C780000D003081FB503788BB10A4B1B68B3F566
:102C8800FA6F0CD30023002203700023CDE9002340
:102C9800CDE90223406802226946FFF723FF05B009
:102CA8005DF804FB5C1E00200A490B8803B9FEE7A7
:102CB80072B64FF0804309885A6A114464325963E6
:102CC800DA636FF002021A616FF008021A6162B6E5
:102CD800704700BF6400002000B5032289B04FF0A0
:102CE800FF314FF08040FFF783FA20220021684629
:102CF80008F07AF864236A4601214FF08040039374
:102D080007F0F6F9C8236A464FF480714FF0804007
:102D1800039307F0EDF9054BA02283F81B234FF02E
:102D280000621A6009B05DF804FB00BF00E100E032
:102D38004FF08043DA6842F00202DA60DA6842F063
:102D48000802DA607047000010B501EB8101084BFA
:102D580001EB810189001980064B044600221A7094
:102D6800FFF7BAFF2046BDE81040FFF7E1BF00BFFC
:102D7800640000204F0300204FF080431A69910738
:102D88000AD56FF002021A615A6B6432DA63084A94
:102D9800596B12880A445A634FF080431A69120724
:102DA80005D56FF008021A61024B01221A707047AC
:102DB800640000204F03002070B51B4C1B4E90226E
:102DC8000021201D08F010F80623238016236380B5
:102DD8000F23A38005222C233146A01DFEF7C0FB3C
:102DE800134A4FF480330025C4E90D2331462C23C0
:102DF800052204F13E00A587FEF7B2FB0D4B0E49F4
:102E0800E36604F17A00A4F8705084F8725065679C
:102E1800A4F8785008F00CF87F2384F88F30052345
:102E280084F8903070BD00BF7C0200201CB20008FE
:102E3800020001000200070047B0000870B5094E03
:102E480005460C46415C304607F0E5FF034628B1CD
:102E5800831B0133DBB2282B28BF0023F35C2B55DF
:102E680070BD00BF30B2000870B50C46114606466A
:102E780007F0DEFF44B10025052130460135FFF794
:102E8800DDFFEBB29C42F7D870BD000073B5054674
:102E980005F111061B4C1C4A014636016846FFF72E
:102EA800E3FFB01C6946204407F0C2FF264404EB48
:102EB8000512142000FB054001237372A2F81A3191
:102EC8000422A0F84A20C36480F850200023E2843A
:102ED8000E4AA0F8523080F854304FF4807184F8CC
:102EE8003030C4F83A30C4F83E30C4F8423040F2CA
:102EF8000113C4E90A12A4F84630A4F8483002B015
:102F080070BD00BFC000002008B000080302010027
:102F1800F7B50546AB4CAC4A05F111060146370139
:102F28006846FFF7A1FFB81C274469462044FEF70E
:102F38002BFA7B7A052B84BF02237B7204EB0610E5
:102F4800A24B427A198841FA02F2D7070FD402221B
:102F5800427261B14807C1F3800208D441FA02F70E
:102F6800FF07D0B240F1DF8104EB0612507204EB88
:102F780005112A0191F81A01042802D9012081F8C3
:102F88001A01A718588897F81A1140FA01F1C907C9
:102F980011D4022187F81A1168B14707C0F38001DC
:102FA80009D440FA01FC1CF0010FCFB200F0C08137
:102FB800A11881F81A71A11891F81B01032802D9E8
:102FC800002081F81B01A718988897F81B1140FA70
:102FD80001F111F001010FD187F81B1160B110F058
:102FE800010109D140FA01FC1CF0010FCFB200F039
:102FF800A481A11881F81B7104EB0616717A0129C6
:1030080005D904291EBF1219002182F81B111422A8
:1030180002FB054191F84A00042802D9042081F8EE
:103028004A0002FB054292F84B10042902D90021FC
:1030380082F84B10142202FB0542998E92F84B003D
:1030480041FA00F0C00712D4012082F84B0071B198
:103058008F07C1F340020AD441FA02F6F607D0B24C
:1030680040F17081142202FB054282F84B001422C1
:1030780002FB054292F84C10032902D9012182F87B
:103088004C10142000FB0540D98E90F84C2041FAD2
:1030980002F212F0010210D180F84C2069B111F04F
:1030A80001020AD141FA02F6F707D0B240F14F8186
:1030B800142202FB054282F84C00142202FB05424E
:1030C80092F84E10012902D9002182F84E101420DE
:1030D80000FB0540198F90F84E2041FA02F212F0D9
:1030E800010210D180F84E2069B111F001020AD115
:1030F80041FA02F6F607D0B240F12E81142202FB03
:10310800054282F84E00142202FB054292F84F1045
:10311800022902D9002182F84F10142000FB054033
:10312800598F90F84F2041FA02F212F0010210D1A3
:1031380080F84F2069B111F001020AD141FA02F674
:10314800F707D0B240F10D81142202FB054282F844
:103158004F00142202FB054191F84D00022802D9C4
:10316800002081F84D0002FB054292F85010052915
:1031780002D9042182F85010142202FB054191F86B
:103188005200012802D9002081F8520002FB0542B2
:1031980092F85310022902D9002182F85310142002
:1031A80000FB0540998F90F8532041FA02F212F083
:1031B800010218D180F85320A9B111F0010212D1EF
:1031C80006E000BFC000002008B000087C02002014
:1031D80041FA02F6F607D0B240F1C880142202FB89
:1031E800054282F85300142202FB054191F854006D
:1031F800022802D9002081F8540002FB054292F807
:103208004C10012906D192F84F10022904BF002161
:1032180082F84F1094F82620042A02D9042284F850
:10322800262094F82720042A02D9002284F827208F
:10323800B3F86C1094F8272041FA02F2D6070FD49D
:10324800012284F8272059B18807C1F3400207D426
:1032580041FA02F6F707D0B240F18D8084F82700D2
:1032680094F82820022A02D9002284F8282094F809
:103278002920022A02D9012284F82920B3F86E10E5
:1032880094F8293041FA03F313F00102684B0CD18A
:1032980084F8292049B111F0010206D141FA02F659
:1032A800F607D0B26CD583F8290094F82A200C2AA6
:1032B80002D9002284F82A2094F832200C2A02D954
:1032C800002284F8322093F82B20042A02D9002205
:1032D80083F82B2093F82F20012A02D9002283F8A3
:1032E8002F20544AB2F8701093F82F2041FA02F2B6
:1032F80012F001020CD183F82F2049B111F001021C
:1033080006D141FA02F4E707D0B23DD583F82F0081
:1033180000224949104611F9014B14F1780F37DAA8
:1033280001F8010C36E00132102A7FF417AE1EE6D0
:10333800013110297FF435AE3DE6013110297FF4C3
:1033480051AE59E60132102A7FF486AE8FE601327B
:10335800102A7FF4A7AEB0E60132102A7FF4C8AE77
:10336800D1E60132102A7FF4E9AEF2E60132102AE2
:103378007FF42EAF37E70132102A7FF469AF6FE789
:103388000132102A8AD190E70132102AB9D1BFE759
:10339800782CC5DC0132D2B20C2ABCD127490022D4
:1033A800012011F8014B0132022CD2B288BF01F87A
:1033B800010C042AF5D193F82C20052A02D90322FE
:1033C80083F82C2093F82D20022A02D9022283F8B0
:1033D8002D2093F82E20022A02D9012283F82E20CC
:1033E80093F83020022A02D9002283F830201420D2
:1033F80000FB0531FF2281F8512003EB051183F80A
:1034080031204FF6FF744FF0FF32C1F81C21A1F8AC
:103418002041552110FB051559191A629A845A51F1
:103428004A600C7283F833205A631A8703B0F0BDE0
:10343800C00000207C020020FA00002006010020C5
:10344800154B9870042804D8DFE800F004141A20FB
:103458000400FEE7114A9A6400221A710A2203380E
:10346800012894BF002001201A771A791A749873DA
:10347800987670470A4A9A6400221A710F22EEE77A
:10348800084A9A6401221A711922E8E7064A9A64DE
:1034980000221A710722E2E76800002014003200B7
:1034A80020001F003500130009006F002DE9F341CB
:1034B80000F111075B4E5C4C3F0107F10208B04474
:1034C80005464046FDF77CFF042101900DEB010005
:1034D800FEF784FA019B96F82620A3606361534B9C
:1034E800E08313F92230237337442376504B236546
:1034F8007B7A63702F0106EB0515002195F81A01F8
:1035080084F85410FFF79CFF4A4A63781288A28512
:10351800E28B6373637684F82830626284F82A1039
:1035280023B94046FDF76CFF84F82A00374497F822
:103538001B2184F829206AB1E18B02EB021303EB0B
:1035480003230B44E383A3684FF0113101FB0232DC
:10355800A260626194F82830052B04D8DFE803F0F4
:10356800043A3C3E4046FEE7A378032B03D8DFE845
:1035780003F0032D2F03FEE718232F4D84F8203086
:1035880015E90F0085E80F0040F2E24394F82000A7
:10359800A4F84C30FDF79CFA4FF07F51FDF7ECFA98
:1035A800FDF7D6FCB4F848204FF47A73B3FBF2F376
:1035B800A4F8403096F82C30C0B2A4F84E00052B81
:1035C80027D8DFE803F015202326292C1223D4E777
:1035D8000C23D2E71923D0E70623CEE70223CCE752
:1035E800A378012BF2D0022BF2D0FEE70323C4E725
:1035F8004FF416536364002384F85530A4F856300A
:1036080002B0BDE8F0814FF49643F3E74FF4164358
:10361800F0E74FF46143EDE74FF4E133EAE74FF4A5
:103628006133E7E7C0000020680000201CB20008F2
:10363800010100017C0200209800002002484FF49C
:10364800DE72FF2107F0D0BBC000002002484FF413
:10365800DE71FEF7FBBF00BFC000002002484FF438
:10366800DE71FEF7DDBF00BFC000002008B5FFF720
:10367800F5FF034B1878BDE80840FFF749BC00BFC9
:103688006800002070B5FFF7D9FFFEF7F3FF0428A4
:103698000CD0FFF7D3FFFEF7EDFF042803D1FFF7A7
:1036A800DDFF042806D0FFF7C9FF03E0FFF7D6FFC8
:1036B8000428EED143494448102207F0C1FB08B161
:1036C800FFF7BCFF404CA38A40F24F12934267D0E9
:1036D800B3F5A47F36D8062204F1160104F58970E3
:1036E800FDF774FF637F84F81931A37F84F81A31DA
:1036F800012528460135EDB2FFF7C8FB0A2DF8D1A0
:103708000023E37740F24F13A382012522692D4954
:103718002D4842F2DD739A424FF010021CBF23611C
:10372800012507F08DFB00283CD0264926481022A9
:10373800FDF73BFF254926480822FDF736FFFFF72E
:1037480085FF31E0B3F5A77F22D823460022032561
:103758000121022693F84C0001280DD003280ED031
:1037680093F84F0001280DD002280ED001320A2A02
:1037780003F11403EED1C5E783F84C50F0E783F862
:103788004C10EDE783F84F60F0E783F84F10EDE752
:103798000025E8B20135FFF779FB0A2DF9D1AFE72B
:1037A8000025B3E7002DCAD10023E377094C237025
:1037B800FFF702FB2078FFF7ABFB2078BDE87040ED
:1037C800FFF774BE0FB00008C000002020B000084A
:1037D800720200206800002030B5C01A1628A8BF61
:1037E80016206FF00805A8429DF80C40B8BF28467F
:1037F800A042C8BF20B2C0B208701844107030BDD3
:1038080007B5084611461A46162300930023FFF70A
:10381800E3FF03B05DF804FB0129F7B5054600D9BD
:10382800FEE70F4E06EB01131C460F016278F15DAF
:1038380083609B7807F00FF8E678E3790193A37922
:103848000093314628466379227907F019F806EB88
:103858004606B108284603B0BDE8F04007F071B944
:1038680060C7000838B50246044652F8143BDD69C3
:1038780000F11503A847217D20460022BDE8384005
:1038880007F069B870B50161897A88B0044601B15A
:10389800012106F0B2FF01230DF11F0240F6D80105
:1038A800204606F008FF9DF81F3043F01E0340F63F
:1038B800D8018DF81F300DF11F020123204606F0B4
:1038C800C4FE204607F01DF9E179FF2903D0FA224A
:1038D800204607F022F923695B7A013B042B04D8C0
:1038E800DFE803F0043E41413E00FEE7E922E12122
:1038F800204607F075F90121204607F0DFF89621E8
:10390800204607F04AF93821204607F04DF92046AD
:1039180007F051F92369204693F90810FFF7A2FF31
:1039280023699D7A15B319782046FFF775FF0022A1
:103938001146204606F082FF0023009340F203223E
:1039480020464FF6FF7106F0CAFF20464FF6FF717A
:1039580006F0F3FF204608B0BDE8704007F0BEB897
:10396800DB22D721C4E76F226B21C1E70F4B104937
:10397800DE8B104BE3604CF2503300932046192342
:103988000B2207F03DF90123CDE903335B23CDE991
:1039980001531023194620460095042207F062F9C6
:1039A8003146204607F083F9C1E700BF68000020D0
:1039B800A086010040C7000810B5044607F08EF83D
:1039C80020464FF6FF71BDE8104006F0B6BF000074
:1039D80038B50169036891F90810DD69044600F1FA
:1039E800150300F11402A84723699A7A42B11A789C
:1039F800012A00D9FEE7044B03EB0213A36038BD8C
:103A0800024BE360FBE700BF60C7000840C700083F
:103A1800836810B504461BB9C3680BB9FFF7D8FF14
:103A280094F9150010BD000090F8D8305BB190F8FB
:103A3800D930074A180102EB03139B681978135809
:103A480053F821007047837D0E3350F823007047E8
:103A5800BCB1000837B5194B0288DB8B9A42054682
:103A680027D1847814F0D00425D18379812B22D8EA
:103A78004FF6FF730D2201460DF10600ADF8063032
:103A8800FDF794FFB5F80D20BDF806309A420ED127
:103A98004C2205F10D01FDF789FFB5F85920BDF855
:103AA80006309A4218BF0424204603B030BD0324D0
:103AB800FAE70124F8E70224F6E700BF68000020CF
:103AC8000A7ACB7902F0070243EA022303804B7A91
:103AD8000A7A03F03F035B0143EAD20343808B7AFF
:103AE8004A7A9B0043EA9213CA7A02F0010243EA37
:103AF800822383800B7BCA7A03F00F03DB0143EA3E
:103B08005203C3800B7BC3F30112012A11D813F0AF
:103B1800300F0CBF00234FF4806303830B7B7F2B94
:103B28000AD813F0C00F0CBF00234FF480634383FF
:103B3800704740F2FF73F0E740F2FF73F7E70A7A45
:103B4800CB7902F0070243EA022303804B7A0A7A10
:103B580003F03F035B0143EAD20343808B7A4A7A3E
:103B68009B0043EA9213CA7A02F0010243EA8223D5
:103B780083800B7BCA7A03F00F03DB0143EA52030D
:103B8800C3800A7CCB7B02F0070243EA022303814D
:103B98004B7C0A7C03F03F035B0143EAD203438179
:103BA8008B7C4A7C9B0043EA9213CA7C02F0010298
:103BB80043EA822383810B7DCA7C03F00F03DB0178
:103BC80043EA5203C3814B7DDB0003828B7DDB001C
:103BD8004382CB7DDB0083820B7EDB00C3820B7BC1
:103BE800C3F30112012A2BD813F0300F0CBF0023A6
:103BF8004FF4806303830B7B7F2B24D813F0C00F13
:103C08000CBF00234FF4806343830B7DC3F3011281
:103C1800012A1BD813F0300F0CBF00234FF4806328
:103C280083830B7D7F2B14D813F0C00F0CBF0023A8
:103C38004FF48063C3834FF48063038443847047E5
:103C480040F2FF73D6E740F2FF73DDE740F2FF73FF
:103C5800E6E740F2FF73EDE737B5214BDB8B0380D6
:103C68004A78837862F3C30383704A79C37862F32E
:103C78000003C3708A79437962F38613437104465B
:103C880091F902000D46FDF78DFAE37860F34703DA
:103C9800E370EA78237962F3060323712B7903F042
:103CA8000102237903F07F0343EAC21323712B79BE
:103CB800C3F34502637923F03F0313436371592229
:103CC8004FF6FF7321460DF10600ADF80630FDF7FB
:103CD8006DFEBDF80630A4F8593003B030BD00BF02
:103CE800680000202DE9F3419DF820601546522E0A
:103CF80088464FF05B024FF0000104461F4628BF7C
:103D0800522607F071F82D4BDB8B23802A78A37895
:103D180062F30203A3706A78D20002F00802DBB2F1
:103D280042EA081103F007031943A1706A79E3789E
:103D380062F30003E370AA79637962F3861363710F
:103D480095F90200FDF72EFAE37860F34703E37074
:103D5800EA78237962F3060323712B7903F00102D1
:103D6800237903F07F0343EAC21323712B79C3F34A
:103D78004502637923F03F0313436371A37966F324
:103D88004703A371E21D3B463E44B34204D013F8F7
:103D9800011B02F8011BF8E74FF6FF735922214671
:103DA8000DF10600ADF80630FDF700FEBDF806304F
:103DB800A4F8593002B0BDE8F08100BF68000020C7
:103DC80007B5009313460A460121FFF78BFF03B09E
:103DD8005DF804FB30B5334B027893F8261061F395
:103DE8000302027093F8271061F30712027093F828
:103DF8002810427861F30302427093F8291061F3A6
:103E08000712427093F82A10827861F303028270D5
:103E180093F83210827961F30302827193F82B10C0
:103E2800827861F30712827093F82C10C27861F3DC
:103E38000302C27093F82D1061F30712C27093F851
:103E48002E10027961F30302027193F82F1061F3C7
:103E58000712027193F83010427961F3030242713C
:103E680003F13A0100F10B0200F1170411F9015BAB
:103E780002F8015BA242F9D193F84610C27D61F3C2
:103E88000102C27593F8471061F38302C27593F873
:103E9800481061F30512C27593F8493063F387122D
:103EA800C27530BDC000002002782F4BC2F3030258
:103EB80030B583F826200278C2F3031283F827204E
:103EC8004278C2F3030283F828204278C2F303122F
:103ED80083F829208278C2F3030283F82A208279A2
:103EE800C2F3030283F832208278C2F3031283F804
:103EF8002B20C278C2F3030283F82C20C278C2F3C5
:103F0800031283F82D200279C2F3030283F82E20CE
:103F18000279C2F3031283F82F204279C2F3030215
:103F280083F8302003F13A0100F10B0200F1170485
:103F380012F9015B01F8015BA242F9D1C27DC2F31B
:103F4800010283F84620C27DC2F3810283F847202C
:103F5800C27DC2F3011283F84820C27DC2F38112E8
:103F680083F8492030BD00BFC000002070B552263C
:103F780098B0324604460D4603A8002106F034FFE7
:103F8800212342F2DD708DF80C30FDF7FDFA23494C
:103F9800ADF80E0040F24F1314220DF11200ADF8E7
:103FA8001030FDF702FB1E48FFF732FD1D4B8DF860
:103FB800260093F850308DF827300AA8FFF70AFF3B
:103FC8004FF68073ADF846300123ADF848300A2328
:103FD800ADF84A306423ADF84C309E23ADF84E302E
:103FE80047F6FF73ADF85030ADF85230ADF85430A5
:103FF8000D4BB3F86C208DF85620B3F86E20B3F84B
:1040080070308DF857208DF85830009603AB2A464B
:1040180002212046FFF766FE18B070BD26B00008E2
:1040280008100020680000207C02002038B5104DE0
:10403800044600F11B01062205F58970FDF7C6FA52
:1040480094F82130C3F3030385F8193194F821302B
:10405800C3F3031385F81A3194F82230C3F303032A
:1040680085F81B3104F12500BDE83840FFF71CBF77
:10407800C00000200A4A126882600A4A002383802E
:10408800837183810384136803615368064A43611B
:10409800136883615368C3614EF6602303607047F9
:1040A8005C1E002036B000083FB0000810B50A4C6E
:1040B8000220FFF7C5F92046FFF77EFC20466FF087
:1040C8007F01FFF7CFFB236920461978FFF7A4FB90
:1040D8002046FFF771FC10BD0810002008B51E4BE4
:1040E800196890F82030024613BBFEF78FF928B9FB
:1040F80082F8210092F820305BB30AE092F8213070
:1041080001335BB2032B82F82130F3DD012382F8FF
:1041180020309368CB1AB3F57A6F01D90123537114
:10412800137923B9537913B101231371137308BD9C
:10413800FEF76CF918B1042382F82130DAE792F817
:104148002130013B5BB2002B82F82130D2DC82F8AF
:1041580020009160E4E700BF5C1E00200346007B5E
:10416800821E012A4FF0000202D893F8201009B9E4
:104178001A737047104670470A4A38B513880133D6
:104188009BB2502B04460D4601D8138038BD00233E
:1041980005491380FDF702FF29462046FDF7FEFE7C
:1041A800F4E700BF5803002048B000082DE9F84F95
:1041B8001646054688466A496A4CFDF7EFFE3146C1
:1041C8002846FDF7EBFE684B0027B8F1010F1F806A
:1041D8000FD11023A362082746F2A810A761FEF7A3
:1041E8006DF9A762FEF76AF931462846FFF7C4FF62
:1041F800F2E7B8F1020F0FD10823A362102746F2A5
:10420800A810A761FEF75AF9A762FEF757F93146D9
:104218002846FFF7B1FFF2E7B8F1030F0FD11023DB
:10422800A361082746F2A810A761FEF747F9A7621D
:10423800FEF744F931462846FFF79EFFF2E7B8F14A
:10424800040F0FD10823A361102746F2A810A76115
:10425800FEF734F9A762FEF731F931462846FFF731
:104268008BFFF2E7B8F1050F13D14FF008081027BC
:10427800C4F8188046F2A810A761FEF71FF9C4F821
:104288002880A762FEF71AF931462846FFF774FF1F
:10429800EDE7B8F1060F13D14FF008081027C4F85E
:1042A800188046F2A810A762FEF708F9C4F828801B
:1042B800A761FEF703F931462846FFF75DFFEDE7F2
:1042C800A8F10A03042B3ED8A8F1090B5FFA8BFB6F
:1042D8004FF0080A5F453CBF1023A3614FF0040963
:1042E80046F2A810C4F818A0FEF7E8F8C4F828A009
:1042F800FEF7E4F809F1FF3931462846FFF73CFF9D
:1043080019F0FF09ECD11023A3624FF0040946F21B
:10431800A810C4F818A0FEF7D1F8C4F828A0FEF732
:10432800CDF809F1FF3931462846FFF725FF19F086
:10433800FF09ECD10137A8F10803FFB2DBB2BB4299
:1043480038BF0027C6E70823A3611023A3614CF2F6
:104358005030FEF7B3F831462846FFF70DFFF6E771
:1043680048B00008000400485803002037B50C4640
:104378001D4668B907480DF106020DF1070106F060
:1043880058FB9DF8061003482B46224606F0EFF925
:1043980003B030BD0810002070B50D4616461C4607
:1043A8000146A0B9FDF7EDFF0B4833462A4606F053
:1043B800B7F909484FF6FF7106F0BFFA0648A101A0
:1043C80006F0D6FABDE870407D20FEF777B80248BF
:1043D800FFF7F2FA70BD00BF081000202DE9F04188
:1043E800194C05465B270E463A460021204606F042
:1043F800FBFCAB692360EB696360144B14491B78C1
:104408009A1E53425341627A63F3000262726FF05C
:104418002202A27227220023E27204F10E00142263
:1044280023736373FDF7C1F859212046FDF7D6FAC7
:10443800084BA4F859003A46214630461B7FBDE890
:10444800F041FFF7A9BF00BF950E00204A030020E6
:1044580026B000086800002037B50C46A8B91248F5
:1044680003699D7A9DB101F1A2020DF1060106F0E2
:10447800CAFABDF90630002B10DB4FF6FF73ADF812
:104488000630BDF8063084F8A03003B030BD0DF119
:10449800060106F028FC84F8A250EAE77F33F0DA38
:1044A8004FF68173EBE700BF081000200A4608B5F5
:1044B80001460148FFF77AFE2C00002000B591B0B4
:1044C8000446684616461D4606F0B2FC184968467A
:1044D80006F092FC304606F051F80146684606F0B0
:1044E8008BFC1449684606F087FC134B684653F862
:1044F8002510124D06F080FC1149684606F07CFC38
:104508009DF84830684655F8231006F075FC0D49AB
:10451800684606F071FC9DF84C30684655F8231043
:1045280006F06AFC08486A462146FFF73FFE00BFCE
:104538004AB0000851B00008000000201000002018
:1045480056B000085DB000082C000020024608B5EF
:1045580001480021FFF72AFE2C0000200023FF223B
:10456800037043708370C27003717047C17829B9B2
:104578008378017101338370012070470378012B20
:104588001DD0022B05D08BB982780132827003715D
:10459800F2E7827843785340DB0703D40132827014
:1045A8000023F4E7FF2903D100230371002070479B
:1045B80003790133DBB299420371EFD3F6E7FF29A0
:1045C800F2D002790132D2B291420271EED28278EF
:1045D8000132827000220271CEE700000E48C369E2
:1045E8001A0617D503681B0614D50C4B0C4A1988F4
:1045F800138889B29BB299420AD013880133DBB27F
:1046080013801388074A9BB2D35CDBB2836270477E
:10461800FDF7B6B9704700BF0044004050120020B3
:104628004E1200204E1100200C490D4A0B881288AA
:104638000133DBB292B29A420DD00A4AD0540A4AE8
:104648000B8052E8003F43F0800342E80031002924
:10465800F7D1012070470020704700BF501200209A
:104668004E1200204E1100200044004038B5044688
:104678004518AC4204D014F8010BFFF7D5FFF8E752
:1046880038BD08461146FFF7F1BF000070B588B085
:104698000C460646154600212022684606F0A4FB73
:1046A800002C14BF4FF480530023CDE9023569462E
:1046B8000C23044801960494059305F091FE08B074
:1046C80070BD00BF0044004010B5064C236823F0BD
:1046D80001032360FFF7DAFF236843F00103236037
:1046E80010BD00BF0044004008B541B14FF400526E
:1046F80004484FF48061FFF7E7FFFDF759FE0120FA
:1047080008BD00BFA086010008B531B100221146DE
:104718000348FFF7D9FFFDF74BFE012008BD00BF96
:104728009A5B060008B541B14FF4005204484FF4B3
:104738008061FFF7C9FFFDF74BFE012008BD00BFF0
:10474800A086010013B52C4C236823F001032360D5
:104758004FF40030FDF7FCF808230120CDE90030C4
:104768000A22032304214FF09040FDF761FC002248
:1047780011462248FFF78AFF636823F49043636079
:10478800A36823F02A03A3601D4BC02283F82523C6
:1047980020225A602046FDF7F3F854E8003F23F042
:1047A800400344E80032002AF7D140232362154B26
:1047B8001A80154B1A80636823F400636360A3684A
:1047C80023F00803A360636823F480436360A3684D
:1047D80023F02203A360A36843F48053A3602368F3
:1047E80043F001032360044BDA699102FCD5DA69CE
:1047F8005202F9D502B010BD00440040A086010065
:1048080000E100E04E1200205012002030B5224C8A
:1048180085B00E2200210546684606F0E5FA94F8B0
:10482800A0308DF80030204694F8A1308DF8013082
:10483800FCF769FC8DF802002046FCF75BFC94F855
:10484800A4308DF803008DF80430144894F8A5308E
:104858008DF80530FFF7DCF894F8A6308DF80730AE
:1048680094F8A7308DF8083094F8A8308DF80A30FD
:1048780094F8A9308DF80B30094B8DF806009B7819
:104888008DF80C306946012328468DF80D3003F069
:1048980060FE05B030BD00BF4C0F0020081000209E
:1048A800680000200148FEF7FFB900BF4B0F002049
:1048B800F8B5154D0E4607465B2329463046144683
:1048C8002A46FFF753FDD7E9041328686A689A4215
:1048D80008BF884209D0002430460C49FFF7BCFDC8
:1048E800002C0CBF01200320F8BD59212846FDF7F4
:1048F80075F8B5F859308342EDD114B1FFF7D2FFFE
:10490800EAE70124E8E700BF3D1000204C0F002033
:1049180013B5012104460844FDF760F8A178ADF805
:1049280006000DF10600FDF735F8E178FDF732F8DD
:104938002179FDF72FF86179FDF72CF8A179FDF7BA
:1049480029F804F108010322FDF730F8627804F130
:104958000C01FDF72BF894F82311FDF71BF8BDF8AF
:104968000630A4F80C3102B010BD00000038024B2C
:1049780018BF0120187070471403002030B5002AB2
:1049880040F01281042B00F2E781002B00F009812E
:1049980091F800C0834C10F80C2094F81BE022EA30
:1049A8000E0200F80C20E27E5208E27652B90A782C
:1049B80001320A708022E2760A784FF0FF0C00F884
:1049C80002C0E27E91F800E010F80EC02CEA020264
:1049D80000F80E20E27E5208E27652B90A780132D7
:1049E8000A708022E2760A784FF0FF0C00F802C0C5
:1049F800E27E91F800E010F80EC02CEA020200F8FE
:104A08000E20E27E5208E276002A00F0AD82012BE9
:104A180000F0C78091F800C094F81BE010F80C2053
:104A280022EA0E0200F80C20E27E5208E27652B921
:104A38000A7801320A708022E2760A784FF0FF0C79
:104A480000F802C0E27E91F800E010F80EC02CEAEF
:104A5800020200F80E20E27E5208E27652B90A7885
:104A680001320A708022E2760A784FF0FF0C00F8D3
:104A780002C0E27E91F800E010F80EC02CEA0202B3
:104A880000F80E20E27E5208E2764AB90A7801322E
:104A98000A708022E2760A784FF0FF0C00F802C014
:104AA800022B7ED091F800C094F81BE010F80C207F
:104AB80022EA0E0200F80C20E27E5208E27642B9A1
:104AC8000A7801320A708022E2760A78FF25855436
:104AD800E27E91F800E010F80EC02CEA020200F81D
:104AE8000E20E27E5208E27642B90A7801320A7054
:104AF8008022E2760A78FF258554E27E91F800E06C
:104B080010F80EC02CEA020200F80E20E27E5208CD
:104B1800E2763AB90A7801320A708022E2760A7897
:104B2800FF258554032B3CD00A7894F81BC0835C7E
:104B380023EA0C038354E37E5B08E37643B90B78DE
:104B4800802201330B70E2760B78FF22C254E37E99
:104B580091F800C010F80C2022EA030300F80C308A
:104B6800E37E5B08E37643B90B78802201330B7050
:104B7800E2760B78FF22C254E37E91F800C010F869
:104B88000C2022EA030300F80C30E37E5B08E3768E
:104B98003BB90B78802201330B70E2760B78FF2249
:104BA800C25430BD68050020FF2AFAD1032B00F259
:104BB800E981002BF5D091F800E0664C10F80EC0A2
:104BC800E57E2CEA050C00F80EC094F81BC04FEAED
:104BD8005C05E5763DB90D7801350D708025E576E3
:104BE8000D784255E57E91F800E010F80E2022EA93
:104BF800050C00F80EC0E27E5208E27642B90A7847
:104C080001320A708022E2760A78FF258554E27E16
:104C18005208E27642B90A7801320A708022E276B6
:104C28000A78FF258554E27E91F800E010F80EC05E
:104C38002CEA020200F80E20E27E5208E276002AF0
:104C480000F07982012BACD091F800C0E57E10F815
:104C58000C2022EA050200F80C20E27E5208E276D7
:104C680042B90A7801320A708022E2760A78FF2572
:104C78008554E27E91F800E010F80EC02CEA02029A
:104C880000F80E20E27E5208E27642B90A78013234
:104C98000A708022E2760A78FF258554E27E52085F
:104CA800E27642B90A7801320A708022E2760A78FE
:104CB800FF258554E27E91F800E010F80EC02CEA3A
:104CC800020200F80E20E27E5208E2763AB90A782B
:104CD80001320A708022E2760A78FF258554022B79
:104CE8003FF45FAF0A78E57E835C23EA05038354CB
:104CF800E37E5B08E37643B90B78802201330B70BF
:104D0800E2760B78FF22C254E37E0D78425D22EAF8
:104D180003034355E37E5B08E37643B90B788022AF
:104D280001330B70E2760B78FF22C254E37E5B08F6
:104D3800E37643B90B78802201330B70E2760B7867
:104D4800FF22C254E37E0D78425D22EA03034355F5
:104D58001BE700BF6805002091F800C0884C10F8D8
:104D68000C2094F81BE022EA0E0200F80C20E27EE8
:104D7800520803F5C063E2763AB90A7801320A703C
:104D88008022E2760A78FF25855491F800C094F8CD
:104D98001BE010F80C2022EA0E0200F80C20E27E3C
:104DA8005208E2763AB90A7801320A708022E2762D
:104DB8000A78FF258554E27E5208E2763AB90A78E5
:104DC80001320A708022E2760A78FF258554E27E55
:104DD8005208E2763AB90A7801320A708022E276FD
:104DE8000A78FF25855491F800C094F81BE010F864
:104DF8000C2022EA0E0200F80C20E27E5208E2762D
:104E08003AB90A7801320A708022E2760A78FF25D8
:104E180085541D0608D491F800C0E57E10F80C20D2
:104E280022EA050200F80C20E27E5208E2763AB93E
:104E38000A7801320A708022E2760A78FF258554C2
:104E48005A0608D491F800C0E57E10F80C2022EA32
:104E5800050200F80C20E27E5208E2763AB90A7898
:104E680001320A708022E2760A78FF2585549D0671
:104E780008D491F800C0E57E10F80C2022EA05025B
:104E880000F80C20E27E5208E2763AB90A7801323C
:104E98000A708022E2760A78FF258554DA0608D45B
:104EA80091F800C0E57E10F80C2022EA050200F80F
:104EB8000C20E27E5208E2763AB90A7801320A708A
:104EC8008022E2760A78FF2585541D0708D491F8D8
:104ED80000C0E57E10F80C2022EA050200F80C203C
:104EE800E27E5208E2763AB90A7801320A708022E4
:104EF800E2760A78FF2585545A0708D491F800C04D
:104F0800E57E10F80C2022EA050200F80C20E27E6B
:104F18005208E2763AB90A7801320A708022E276BB
:104F28000A78FF2585549D0708D491F800C0E57ECE
:104F380010F80C2022EA050200F80C20E27E520844
:104F4800E2763AB90A7801320A708022E2760A7863
:104F5800FF258554DB073FF518AE0A78E57E835CAC
:104F680023EA0503835410E60A7801320A70802286
:104F7800E2760A784FF0FF0C00F802C047E500BF60
:104F8800680500200D78704C10F805C094F81BE0F7
:104F98002CEA0E0C00F805C094F81BC04FEA5C051B
:104FA80003F5E063E57635B90D7801350D70802598
:104FB800E5760D7842550D7894F81BC0425D22EADB
:104FC8000C024255E27E5208E2763AB90A7801327A
:104FD8000A708022E2760A78FF258554E27E52081C
:104FE800E2763AB90A7801320A708022E2760A78C3
:104FF800FF258554E27E5208E2763AB90A780132F2
:105008000A708022E2760A78FF258554E27E5208EB
:10501800E2763AB90A7801320A708022E2760A7892
:10502800FF2585541A0606D40D7894F81BC0425DF6
:1050380022EA0C024255E27E5208E2763AB90A7830
:1050480001320A708022E2760A78FF2585545D06CF
:1050580006D40D7894F81BC0425D22EA0C02425532
:10506800E27E5208E2763AB90A7801320A70802262
:10507800E2760A78FF2585549A0606D40D7894F8C6
:105088001BC0425D22EA0C024255E27E5208E276DB
:105098003AB90A7801320A708022E2760A78FF2546
:1050A8008554DD0606D40D7894F81BC0425D22EACB
:1050B8000C024255E27E5208E2763AB90A78013289
:1050C8000A708022E2760A78FF2585541A0706D4EA
:1050D8000D7894F81BC0425D22EA0C024255E27E2C
:1050E8005208E2763AB90A7801320A708022E276EA
:1050F8000A78FF2585545D0706D40D7894F81BC0FF
:10510800425D22EA0C024255E27E5208E2763AB942
:105118000A7801320A708022E2760A78FF258554DF
:105128009A073FF50BAF0D7894F81BC0425D22EA51
:105138000C02425502E70A7801320A708022E276B0
:105148000A78FF2585547DE5680500202DE9F0479C
:105158009E4C80254FF0000881F80080E576FF25F9
:1051680005701F46002B00F02F8103F1FF39C2465E
:1051780052FA89F9561E43460DE0454540F0C38072
:105188000AF1010A5FFA8AFA0A78BA4280F0B38013
:105198004E4500F0088116F8015F002BEDD16B1E1B
:1051A800DBB2FD2B00F2AA803F2B40F2E28005F132
:1051B8004103DBB23F2B00F2AD80E37E01355B0893
:1051C800EDB2E376002B00F0E5805B08E37643B9A7
:1051D8000B7801330B708023E3760B78FF22C254DF
:1051E800E37EAA0608D491F800C010F80C2022EA41
:1051F800030300F80C30E37E5B08E37643B90B78D1
:1052080001330B708023E3760B78FF22C254E37ED0
:10521800EA0608D491F800C010F80C2022EA03032B
:1052280000F80C30E37E5B08E37643B90B78013372
:105238000B708023E3760B78FF22C254E37E2A07A3
:1052480008D491F800C010F80C2022EA030300F8F3
:105258000C30E37E5B08E37643B90B7801330B70BF
:105268008023E3760B78FF22C254E37E6A0708D4D2
:1052780091F800C010F80C2022EA030300F80C3063
:10528800E37E5B08E37643B90B7801330B70802328
:10529800E3760B78FF22C254E37EAA0708D491F87C
:1052A80000C010F80C2022EA030300F80C30E37E5B
:1052B8005B08E37643B90B7801330B708023E37600
:1052C8000B78FF22C254E37EEA0705D40D78425DCD
:1052D80022EA03034355E37E5B08E376C3B90A7801
:1052E80001320A708022E2760A78FF2585540A780E
:1052F800BA42FFF44DAF0020BDE8F0874FF0010A35
:10530800A846534640E753464246FFF737FB46E771
:10531800002339E70A7894F81BC0835C23EA0C035E
:105328008354E37E3F355B08EDB2E37643B90B78EF
:1053380001330B708023E3760B78FF22C254E37E9F
:105348005B08E37643B90B7801330B708023E3766F
:105358000B78FF22C254E37E6A063FF536AF91F818
:1053680000C010F80C2022EA030300F80C30E37E9A
:105378002BE7E37E7F355B08EDB2E376002BEED1B9
:105388000B7801330B708023E3760B78FF22C2542D
:10539800E37EE4E70B7801330B708023E3760B7828
:1053A800FF22C254E3E75BB9E37E802B1EBF0132C4
:1053B800D2B20A70974294BF00200120BDE8F0875E
:1053C80053464246FFF7DAFA0A78EDE76805002007
:1053D8002DE9F04F6F220D4677230021817002706E
:1053E80043702B78A3F1FE03B3FA83F35B09837050
:1053F800AA7812F001011CBF43F080038370D5F82E
:10540800202122F07F4222F0FF0285B0044612B12B
:1054180043F008038370AA68C2F31702FF2A1ED953
:10542800B2F5803F18D363F07F03A37041F0020107
:105438004FF0020B4FF00A0C09230827E1700B20EC
:10544800CDF804C01E463A464FF0070E4FF0060945
:105458004FF0050A042117E043F00203A370180671
:1054680000F1D5804FF0090C082307270A204FF0D8
:10547800000BCDF804C01E463A464FF0060E4FF01A
:1054880005094FF0040A032195F8018004F801800A
:1054980004EB0108297904F80A10697904F809105D
:1054A800A97904F80E10A178090709D595F82111F2
:1054B800A15495F82211A15503466746624606464F
:1054C800A968A154A278900707D5BA1C1F46AB68F3
:1054D800C3F30F23A35596B23346BBF1000F05D093
:1054E8005A1C1F46AB7AA35596B23346A278D1060A
:1054F80006D55A1C1F4695F82331A35596B2334654
:10550800444A127803F1010914FA89FA05F10C0BDF
:1055180042B16B785A460DF10F015046FFF716FE5F
:10552800002859D159466A78504605F035FC697803
:105538002278394B6078D243D2B2072F9A5C82EA3C
:105548000002985CA27882EA0002985CE27882EA1B
:105558000002985C227982EA0002985C627982EA09
:105568000002985CA27982EA0002985CE27982EAF9
:1055780000029A5C1BD0207A4240082F9A5C16D011
:10558800607A4240092F9A5C11D0A07A42400A2FD3
:105598009A5C0CD0E07A42400B2F9A5C07D0207BB3
:1055A80042400C2F9A5C1EBF607B42409A5CA25519
:1055B80011FA89F39BB2B5F80C21E2545A1CB5F8DC
:1055C8000C1192B2090AA154AA78981CD20780B289
:1055D8000BD405B0BDE8F08FA3789DF80F1043F009
:1055E8004003A37088F80010A2E7D5F81071D5F829
:1055F8001811D5F81461275022180F33566091609E
:1056080095F81C11117398B205B0BDE8F08F4FF0F2
:10561800000B0FE7140300205CB200082DE9F84FD7
:10562800A94D0C46074601462846164605F0B4FB28
:10563800A64A00234FF4004123709183002E00F006
:10564800B58028784FF04009C00982F81D904FF0C6
:10565800800C9E464FF0FF0892F81DA015F803B085
:1056680040001BEA0A0F4FEA5A0118BF40F0010038
:105678005177002940F09C800133DBB20228137770
:1056880082F81DC000F0F781032800F062828021B3
:10569800012840F0EE809E4240F2888015F803A071
:1056A80011EA0A0F14BF01200020490840F0B28314
:1056B8000133DBB29E42137782F81DC076D9E956D2
:1056C80015F803A000294FEA400080F28C8480215D
:1056D8005FEA510B40F0010040F0A6830133DBB2D2
:1056E8009E42137782F81DC060D94100E85615F82C
:1056F80003A00028C9B201DA41F0010149001AF0FB
:10570800400FC9B218BF4FF0200B00F0108541F0D0
:105718000101BBF1000F40F00C850133DBB29E4262
:10572800137782F81DC041D9E85615F803A049003F
:105738000028C9B201DA41F0010149001AF0400F0E
:10574800C9B218BF4FF0200B00F0FC8441F00101F2
:10575800BBF1000F40F0F8840133DBB29E421377AF
:1057680082F81DC022D9EB564900002BC9B201DAD4
:1057780041F0010182F81D9041312378581C2070B6
:10578800F954137F9E4211D9517FE85C01424FEAD8
:10579800510114BF01200020517721B90133DBB238
:1057A800137782F81DC09E423FF656AFBDE8F88FCA
:1057B800022800F0BD8103287FF46AAFE85C084244
:1057C80014BF012100215FEA9A0A40F0C981013320
:1057D800DBB29E42137782F81DC0E7D915F903A002
:1057E800E85CBAF1000F4FEA410101DA41F001012A
:1057F80010F0400F4FEA410118BF4FF0200A00F0A7
:105808003B8441F00101BAF1000F40F037840133C5
:10581800DBB29E42137782F81DC0C7D915F903A0E1
:10582800E85C4900BAF1000FC9B201DA41F00101A0
:10583800490010F0400FC9B218BF4FF0200A00F01D
:105848006B8441F00101BAF1000F40F06784013325
:10585800DBB29E42137782F81DC0A7D9EB564900E8
:10586800002BC9B201DA41F0010182F81D904139DB
:1058780083E79E429AD915F803A0480850770AEAA8
:10588800010BC0B90133DBB2137782F81DC0BBF13D
:10589800000F13D09E4289D9E95615F803A082F863
:1058A8001D900029B8BF40214DDB2378591C217079
:1058B80007F8038065E7BBF1000F09D12378591C6D
:1058C800217007F803E05CE73C040020680500202D
:1058D80089080AEA0000517799BB0133DBB21377D4
:1058E80082F81DC00028E0D09E427FF65FAFE956DF
:1058F80015F803A082F81D90002980F2A1834020AA
:10590800B342BFF453AF15F803A010EA0A0F14BF4F
:10591800012100215FEA500B40F078830133DBB2AC
:105928009E42137782F81DC07FF640AFE8560028E4
:105938004FEA410101DA41F0010182F81D9040204F
:1059480026E00028B1D0480850770AEA010B002861
:1059580040F0F2810133DBB2137782F81DC0BBF14E
:10596800000F00F052819E427FF620AFE85CC1092B
:1059780040064FEA410140F18A83202041F00101AD
:10598800507728B90133DBB2137782F81DC0802025
:105998009E427FF60BAF15F803A0490010EA0A0FE4
:1059A800C9B218BF41F001015FEA500B40F0D28242
:1059B8000133DBB29E42137782F81DC07FF6F6AE44
:1059C800E85649000028C9B201DA41F0010182F81D
:1059D8001D9040209E427FF6E9AE15F803A04900CD
:1059E80010EA0A0FC9B218BF41F00101400840F09F
:1059F800C5820133DBB29E42137782F81DC07FF661
:105A0800D5AEE85649000028C9B280F2F482802059
:105A1800400841F0010140F0BC820133DBB29E42F4
:105A2800137782F81DC07FF6C1AEE85649000028FA
:105A3800C9B2C0F2F4824FF0400A4900C8B2E95C2A
:105A48001AEA010F00F0C1824FEA5A0140F0010042
:105A5800517719B90133137782F81DC000212378D3
:105A6800013103F1010A84F800A007F80380CBB2E2
:105A78009842F4D885E69E427FF698AE15F803B0B2
:105A88004FEADB111BF0400F4FEA410118BF4FF0FE
:105A9800200A00F0018341F00101BAF1000F40F043
:105AA800FD820133DBB29E42137782F81DC07FF678
:105AB8007DAEE85615F803B049000028C9B201DAEE
:105AC80041F0010149001BF0400FC9B218BF4FF067
