:020000040800F2
:10000000005000208DDF000875DF000877DF000852
:1000100079DF00087BDF00087DDF000800000000BA
:100020000000000000000000000000007FDF00086A
:1000300081DF00080000000083DF000885DF000882
:10004000D5DF0008D5DF0008D5DF0008D5DF0008C0
:10005000D5DF0008D5DF0008D5DF0008D5DF0008B0
:10006000D5DF0008D5DF0008D5DF0008D5DF0008A0
:10007000D5DF0008D5DF0008D5DF0008D5DF000890
:10008000613900086D390008D5DF0008D5DF0008A8
:10009000D5DF0008D5DF0008D5DF0008D5DF000870
:1000A000D5DF000881500008D5DF0008D5DF000843
:1000B000D5DF0008D5DF0008D5DF00084939000882
:1000C00055390008D5DF0008D5DF0008D5DF000866
:1000D000D5DF000879350008B9650008AD90000843
:1000E000F1C50008D5DF0008D5DF000800000000DA
:1000F0000000000000000000000000000000000000
:0C01000000000000000000005FF808F1A3
:10010C0010B5054C237833B9044B13B10448AFF345
:10011C0000800123237010BDB000002000000000FF
:10012C00C025010808B5034B1BB103490348AFF3C5
:10013C00008008BD00000000B4000020C0250108AC
:10014C0010F8012B11F8013B012A28BF9A42F7D075
:10015C00D01A7047034613F8012B002AFBD1181A4A
:10016C000138704780F0004002E000BF81F0004190
:10017C0042001FBF5FEA410392EA030F7FEA226C41
:10018C007FEA236C6AD04FEA1262D2EB1363C1BFD1
:10019C00D218414048404140B8BF5B42192B88BF40
:1001AC00704710F0004F40F4000020F07F4018BF63
:1001BC00404211F0004F41F4000121F07F4118BF83
:1001CC00494292EA030F3FD0A2F1010241FA03FC2B
:1001DC0010EB0C00C3F1200301FA03F100F0004313
:1001EC0002D5494260EB4000B0F5000F13D3B0F1DB
:1001FC00807F06D340084FEA310102F10102FE2A4A
:10020C0051D2B1F1004F40EBC25008BF20F00100B9
:10021C0040EA03007047490040EB0000013A28BF58
:10022C00B0F5000FEDD2B0FA80FCACF1080CB2EBDB
:10023C000C0200FA0CF0AABF00EBC2505242184359
:10024C00BCBFD0401843704792F0000F81F40001FE
:10025C0006BF80F400000132013BB5E74FEA4103D1
:10026C007FEA226C18BF7FEA236C21D092EA030F3D
:10027C0004D092F0000F08BF0846704790EA010FB7
:10028C001CBF0020704712F07F4F04D1400028BFE4
:10029C0040F00040704712F100723CBF00F50000C6
:1002AC00704700F0004343F0FE4040F400007047FC
:1002BC007FEA226216BF08467FEA236301464202A8
:1002CC0006BF5FEA412390EA010F40F480007047BB
:1002DC004FF0000304E000BF10F0004348BF404261
:1002EC005FEA000C08BF704743F0964301464FF09D
:1002FC0000001CE050EA010208BF70474FF00003F9
:10030C000AE000BF50EA010208BF704711F0004339
:10031C0002D5404261EB41015FEA010C02BF844609
:10032C000146002043F0B64308BFA3F18053A3F568
:10033C000003BCFA8CF2083AA3EBC25310DB01FAAF
:10034C0002FC634400FA02FCC2F12002BCF1004F33
:10035C0020FA02F243EB020008BF20F001007047C4
:10036C0002F1200201FA02FCC2F1200250EA4C0018
:10037C0021FA02F243EB020008BF20EADC7070475E
:10038C004FF0FF0C1CEAD0521EBF1CEAD15392EA6C
:10039C000C0F93EA0C0F6FD01A4480EA010C400248
:1003AC0018BF5FEA41211ED04FF0006343EA5010A2
:1003BC0043EA5111A0FB01310CF00040B1F5000FE4
:1003CC003EBF490041EAD3715B0040EA010062F193
:1003DC007F02FD2A1DD8B3F1004F40EBC25008BF7D
:1003EC0020F00100704790F0000F0CF0004C08BF9B
:1003FC0049024CEA502040EA51207F3AC2BFD2F168
:10040C00FF0340EAC250704740F400004FF0000375
:10041C00013A5DDC12F1190FDCBF00F000407047AF
:10042C00C2F10002410021FA02F1C2F1200200FAED
:10043C0002FC5FEA310040F1000053EA4C0308BFB4
:10044C0020EADC70704792F0000F00F0004C02BF05
:10045C00400010F4000F013AF9D040EA0C0093F080
:10046C00000F01F0004C02BF490011F4000F013BDA
:10047C00F9D041EA0C018FE70CEAD15392EA0C0F48
:10048C0018BF93EA0C0F0AD030F0004C18BF31F0B3
:10049C00004CD8D180EA010000F00040704790F089
:1004AC00000F17BF90F0004F084691F0000F91F02D
:1004BC00004F14D092EA0C0F01D142020FD193EAF3
:1004CC000C0F03D14B0218BF084608D180EA01007B
:1004DC0000F0004040F0FE4040F40000704740F057
:1004EC00FE4040F4400070474FF0FF0C1CEAD05225
:1004FC001EBF1CEAD15392EA0C0F93EA0C0F69D081
:10050C00A2EB030280EA010C49024FEA402037D0EB
:10051C004FF0805343EA111143EA10130CF00040E2
:10052C008B4238BF5B0042F17D024FF4000C8B42D2
:10053C0024BF5B1A40EA0C00B3EB510F24BFA3EBB2
:10054C00510340EA5C00B3EB910F24BFA3EB910382
:10055C0040EA9C00B3EBD10F24BFA3EBD10340EADC
:10056C00DC001B0118BF5FEA1C1CE0D1FD2A3FF622
:10057C0050AF8B4240EBC25008BF20F001007047D7
:10058C000CF0004C4CEA50207F32C2BFD2F1FF037A
:10059C0040EAC250704740F400004FF00003013AAB
:1005AC0037E792F0000F00F0004C02BF400010F44F
:1005BC00000F013AF9D040EA0C0093F0000F01F063
:1005CC00004C02BF490011F4000F013BF9D041EA85
:1005DC000C0195E70CEAD15392EA0C0F08D14202B8
:1005EC007FF47DAF93EA0C0F7FF470AF084676E78B
:1005FC0093EA0C0F04D14B023FF44CAF08466EE764
:10060C0030F0004C18BF31F0004CCAD130F0004231
:10061C007FF45CAF31F000437FF43CAF5FE700BF89
:10062C004FF0FF3C06E000BF4FF0010C02E000BFB2
:10063C004FF0010C4DF804CD4FEA40024FEA410354
:10064C007FEA226C18BF7FEA236C11D001B052EA0A
:10065C00530C18BF90EA010F58BFB2EB030088BFD0
:10066C00C81738BF6FEAE17018BF40F0010070473F
:10067C007FEA226C02D15FEA402C05D17FEA236C21
:10068C00E4D15FEA412CE1D05DF8040B704700BF68
:10069C00844608466146FFE70FB5FFF7C9FF0028FF
:1006AC0048BF10F1000F0FBD4DF808EDFFF7F4FF38
:1006BC000CBF012000205DF808FB00BF4DF808EDD1
:1006CC00FFF7EAFF34BF012000205DF808FB00BFF4
:1006DC004DF808EDFFF7E0FF94BF012000205DF816
:1006EC0008FB00BF4DF808EDFFF7D2FF94BF0120C7
:1006FC0000205DF808FB00BF4DF808EDFFF7C8FFC0
:10070C0034BF012000205DF808FB00BF4FEA400217
:10071C004FEA41037FEA226C02D15FEA402C08D1F8
:10072C007FEA236C02D15FEA412C02D14FF000002A
:10073C0070474FF0010070474FEA4002B2F1FE4F94
:10074C000FD34FF09E03B3EB12620DD94FEA002387
:10075C0043F0004310F0004F23FA02F018BF404260
:10076C0070474FF00000704712F1610F01D1420247
:10077C0005D110F0004008BF6FF0004070474FF0FB
:10078C000000704742000ED2B2F1FE4F0BD34FF077
:10079C009E03B3EB126209D44FEA002343F00043EB
:1007AC0023FA02F070474FF00000704712F1610F0E
:1007BC0001D1420202D14FF0FF3070474FF00000E0
:1007CC00704700BF0022427082700122C270022268
:1007DC00B1FA81F10271032249090170427170472B
:1007EC0043788B421FD0012941700AD0022910D0C6
:1007FC00C1B90123C37002238170037103234371B8
:10080C007047037843B1012383700223C370002324
:10081C00F3E70378002BF6D0022383700023C37018
:10082C000123EAE7FEE770470B8882B0ADF8003091
:10083C004B880239ADF80230CB88ADF804300B8907
:10084C00ADF80630831C063013F8012B0DF1080CA3
:10085C000CEB420232F8082C834221F8022FF3D120
:10086C0002B070474FF07F32094B10B5C0E923231B
:10087C004FF47F43A0F89430FF23044680F8963061
:10088C00983000F0DCFC002384F8A43010BD00BFCD
:10089C00FFFF7F0070B5154604461E46114600F05A
:1008AC0064FC294604F1140000F05FFC294604F1B5
:1008BC00280000F05AFC294604F13C0000F055FCDD
:1008CC00294604F1500000F050FC294604F1640064
:1008DC0000F04BFC294604F1780000F046FC4FF484
:1008EC00FA7332464FF4FA6104F1980000F08DFC73
:1008FC002046FFF7B7FF002384F8A5304FF47F4361
:10090C00A4F8A63070BD704700F036BC143000F06F
:10091C0033BC08B5503000F039FC00F1140302462A
:10092C002920B3FBF0F313F0FF0002D1101E18BF07
:10093C00012008BD08B5643000F028FC00F1140358
:10094C0002462920B3FBF0F313F0FF0002D1101E76
:10095C0018BF012008BD90F8903013B990F98C00A5
:10096C00704790F98D00704790F8903013B990F95A
:10097C008E00704790F98F00704710B504460BF04D
:10098C00E3FF38B104F13C0000F0FAFB012838BF5A
:10099C000120C0B210BD783000F0FABB783000F006
:1009AC00FFBB10B5044600F0C1FB04F1140000F0CD
:1009BC00BDFB04F1280000F0B9FB04F13C0000F091
:1009CC00B5FB04F1500000F0BDFB04F1640000F035
:1009DC00B9FB04F17800BDE8104000F0B9BB7F28EA
:1009EC0007D0002807DA10F1800F06D04042C0B2C1
:1009FC00704700207047012070477F20704710B16E
:100A0C00404240B270477F2070477F280FD010F1D2
:100A1C00310F0EDA10F1780F0DDBFE23783040B277
:100A2C00584346232330B0FBF3F0C0B27047FF208D
:100A3C007047FE20704700207047012805DD40F20A
:100A4C00FE73984203DC80B270470120704740F27D
:100A5C00FF70704740F2AE73A0F57870C0EBC02009
:100A6C0090FBF3F000F58060FFF7E7BFFFF7F2BFF4
:100A7C00032812DD0C2812DD0F2812DD122812DDDE
:100A8C00162812DD192812DD1C2812DD1F2812DD94
:100A9C002128CCBFFF200620704700207047012082
:100AAC0070470220704708207047032070470720CA
:100ABC0070470420704705207047022809D0012890
:100ACC0009D050B103280AD004280CBF0120FF2004
:100ADC007047132070471F207047012070476F200C
:100AEC00704702280ED0012807D040B1032808D047
:100AFC0004280CBF0520FF207047032070470520F9
:100B0C0070470B2070477F2808BF0020C0B2704789
:100B1C007F2811D010F1320F10DA884210DD6423D7
:100B2C00401A5843C1F1FF2101F57F01CE3131301C
:100B3C0090FBF1F0C0B27047FF2070476420704703
:100B4C000020704752B110B4054C0A4411F8013B17
:100B5C0058408A42205CF9D110BC7047704700BFE6
:100B6C0014260108A0F16103192B0FD95F280DD0B1
:100B7C002338C3B2162B97BF05480120D840C04379
:100B8C0098BF00F0010080F0010070470120704711
:100B9C0001EC7F00F8B5024600245F27451E461D78
:100BAC0015F8010FFF2804BF0134E4B2FFF7DAFF98
:100BBC0000B92F70AE42F3D1062C04D119B10B68D9
:100BCC0013608B88938000239371F8BD2DE9F84353
:100BDC00012500264FF02808DFF82C90471E441DF5
:100BEC0017F8011F084811F02CFC10B1A0EB0900FC
:100BFC00C0B2A0FB05038619A742A5FB0853EFD191
:100C0C003046BDE8F88300BF1427010810B54179C0
:100C1C00A1F13000C3B2092B07D80523B0FBF3F3C5
:100C2C0003EB8303C01AC0B210BD044C204611F074
:100C3C0008FC0028F1D0001BC0B2EEE71427010815
:100C4C0070B50446FFF786FA002382B2561E98B29E
:100C5C00B04204EB000103DA255C0133302DF6D0F1
:100C6C00121A01322046BDE8704011F0B9BB0000E9
:100C7C002DE9F04F0D4699B0164600211A461F4635
:100C8C00804611F0C7FB00212A2201A8009111F027
:100C9C00C1FBDFF8CC90DFF8CCA0DFF8CCB005EBD3
:100CAC004606AE424AD047F6FF7335F9020B98421E
:100CBC0044D0002812DC59460CA811F0CFFB684632
:100CCC00FFF748FA04460CA8FFF744FA0444A7427D
:100CDC00E7D368460CA911F0A5FBE2E7B0F57A7FE3
:100CEC000BDA0CA980B20FF0E2FD0CA8FFF7A8FFFD
:100CFC0051460CA811F096FBE1E764243230B0FBAE
:100D0C00F4F00CA980B20FF0D2FD0CA8FFF798FFFD
:100D1C000CA8FFF71FFA00F15F036B4413F8302C9B
:100D2C0000F160010DEB010000F8302C2E2203F8CD
:100D3C00302C0023494600F82F3CDAE76846FFF7D1
:100D4C0009FA30B100F160030DEB0300002300F849
:100D5C00613C6946404611F081FB19B0BDE8F08F4B
:100D6C00102601080B26010806260108F0B589B0EB
:100D7C006D4600242F468E1CE1B28A4205D936F806
:100D8C002410013425F8021BF6E73946FFF770FFF3
:100D9C0009B0F0BD42F21073B0FBF3F2642103FB17
:100DAC001200B0FBF1F301FB130000EB023000EB7F
:100DBC00831080B2704742F21071020B00F03F03B7
:100DCC0001FB02336422C0F3851002FB0030704734
:100DDC002DE9F04142F21074B1FBF4F6642704FBE8
:100DEC00161488B01E49054611F038FB6946F0B25E
:100DFC000FF03CFD6846FFF723FFB4FBF7F6DFF876
:100E0C0064806946284611F00DFB4146284611F0D6
:100E1C0009FB07FB16446946F0B20FF027FD684644
:100E2C00FFF70EFF6946284611F0FCFA41462846AA
:100E3C0011F0F8FA6946E0B20FF018FD9DF8013098
:100E4C0069468DF800309DF8023028468DF8013047
:100E5C0000238DF8023011F0E5FA08B0BDE8F081FE
:100E6C00883501080631010870B50D46002104468D
:100E7C00164611F0CFFA00239AB2964204D9EA5CD6
:100E8C0012B1E2540133F7E770BD70B50E4614464B
:100E9C0000210132054611F0BDFA00239AB29442AA
:100EAC0004D9F25C12B1EA540133F7E770BD30B5E6
:100EBC000023044698B290420ED2E55CC85C1DB982
:100ECC00B0FA80F0400930BD0028FCD0854203F117
:100EDC000103EFD00020F6E70120F4E77D234380E7
:100EEC0043F23903C360002309B201808180C380BF
:100EFC000372704702680449044B01FB023323F070
:100F0C0000430360180C7047FD430300C39E26008A
:100F1C00F0B5002597B0016085800446562229461D
:100F2C00684611F077FA0126E27DAA424BD9204699
:100F3C00FFF7E0FFE77900217B1B90FBF3F2EC4617
:100F4C0002FB13000A46C0B2CBB29F420AD91CF86E
:100F5C0001EBBEF1000F03D1824204D00132D2B2B8
:100F6C000131F1E7002300221146277BD0B28742E2
:100F7C0006D92069805C0132984208BF0121F5E74F
:100F8C000029D1D1A2796119033A012A05D925B1D9
:100F9C0091F9172082B9012BC6D90B76A26852F8A9
:100FAC002310583305F10E026B44013544F822101E
:100FBC0003F8586CEDB2B7E7501E8342EDDB0132FB
:100FCC009342EADCB0E70023802104F1B800A3755A
:100FDC0017B0BDE8F04011F01DBA00002DE9F04F3C
:100FEC00154697B0013D0160027104464371EDB2A4
:100FFC0056220021684611F00DFA022D98BF4FF0D1
:10100C0003094FF0000794F807808ABF4FF00109DD
:10101C00B8FBF9F800253E46DFF8FCA0DFF8FCB081
:10102C00E27DB2426DD92046FFF764FFA8EB0603C0
:10103C0090FBF3F2002102FB1300EC460A46C0B20F
:10104C00CBB243450AD21CF801EBBEF1000F03D121
:10105C00824203D00132D2B20131F1E70021434583
:10106C0028BF4346084609FB035C94F80CE05FFA82
:10107C008CFCCAB2964506D92269525C0131624594
:10108C0008BF0120F5E70028CAD16079A1680138B2
:10109C0051F82C20032808D8DFE800F0021E222487
:1010AC001F4810441F4A9042BAD916B10FBB012BEE
:1010BC00B6D9A21982F818C051F82C1006F10E02FC
:1010CC0044F82210012103F158026A440E441F46D1
:1010DC0002F8581CF6B2A3E75A4412488242E3E7DE
:1010EC005244FAE7A2F53D02A2F59D420E48443A5D
:1010FC00F4E77A1E9342DCDB7A1CD2B29342D8DC42
:10110C008EE70023802104F1B800A37517B0BDE869
:10111C00F04F11F07FB900BF287643FF776245FF8F
:10112C00C54E47FF3BB101003CB101006421D0E941
:10113C000123D31AC3604B43418A8260B3FBF1F3A2
:10114C0003747047D0E90123D31AC0E90223704716
:10115C0043682BB16421C2684A43B2FBF3F3DBB2A0
:10116C0003740023C3604360704700234182C0E9CD
:10117C000233436003747047436801334360704724
:10118C00007C704743680B4443607047C0687047ED
:10119C0011B1C3680133C3604368013343607047C6
:1011AC00007C704700234360038170470A2310B50D
:1011BC000446838002F03EFC2368E0809B68204656
:1011CC0098474FF62F03984228BF1846208110BD30
:1011DC00038970B504469BB1858845B1013DADB21C
:1011EC0085806DB903681B68BDE87040184702F034
:1011FC0021FCE388C01A238980B2834201D2258165
:10120C0070BD236820465B68EEE72DE9F04104468B
:10121C0010461D4616468846FFF75AF8074606EB59
:10122C000800FFF755F801463846FFF75DF9656091
:10123C0020602846FFF750F8A060BDE8F08110B59B
:10124C0004464068FFF748F8A06010BDC0F17F006D
:10125C0080B27F281FD8C1F13F0189B23F291AD82B
:10126C004FF0010C00B54FEAD10E0B4B00EBCE103A
:10127C0080B2A3F81EC0184490F8203001F007018A
:10128C000CFA01F1D2074CBF194323EA010180F893
:10129C0020105DF804FB7047D00000207F281CD87C
:1012AC003F291AD84FF0010C00B54FEAD10E0B4B69
:1012BC0000EBCE1080B2A3F81EC0184490F820307A
:1012CC0001F007010CFA01F1D2074CBF194323EAD4
:1012DC00010180F820105DF804FB7047D00000205D
:1012EC007F291FD8C0F13F0080B23F281AD84FF099
:1012FC00010C00B54FEAD00E0B4B01EBCE1189B2AD
:10130C00A3F81EC0194491F8203000F007000CFA25
:10131C0000F0D2074CBF184323EA000081F82000EC
:10132C005DF804FB704700BFD0000020C1F17F01C5
:10133C0089B27F291CD83F281AD84FF0010C00B570
:10134C004FEAD00E0B4B01EBCE1189B2A3F81EC0A5
:10135C00194491F8203000F007000CFA00F0D20785
:10136C004CBF184323EA000081F820005DF804FB11
:10137C00704700BFD000002030B5124C83B0E38B17
:10138C001BB125881DB10023E38303B030BD0E4B88
:10139C00032293E803000090ADF804102846694638
:1013AC0002F0EAFA032228460DEB020102F0E4FAFD
:1013BC004FF48062402004F1200102F0F3FA00287F
:1013CC00E1D0E2E7D0000020D825010808B502F0F2
:1013DC00FBFA023818BF012008BD00BF104BD880A3
:1013EC0003281AD8DFE800F0191102170D4A4FF044
:1013FC00400C80209A60002158804FF480620A488B
:10140C00A3F804C0D98311F005B8084A4FF0800C3A
:10141C0040209A60EFE7064AF8E7064AE7E700BF84
:10142C00D000002059120008F000002039130008E9
:10143C00ED120008A91200084FF0010C044B4FF4F8
:10144C008062002103F12000A3F81EC010F0E2BF5F
:10145C00D0000020024B80B29B6889B2184700BFB5
:10146C00D00000202DE9F04F85B013F1070ABDF92B
:10147C00384048BF03F10E0A1E46002C4FEAEA031F
:10148C000746BDF83C900192029333DD002E31DD0E
:10149C000C4423B2039300231D46DFF860B0009385
:1014AC0000231FFA81FADDE9001202EB010813F0A8
:1014BC00070F9CB208BFDB104FEA45050CBF18F8AC
:1014CC000350EDB2E01915F0800F80B204D04A46FB
:1014DC005146DBF808309847631C1BB29E42E6D19C
:1014EC00009B029A0AF1010113440093039B09B279
:1014FC009942D5D105B0BDE8F08F00BFD0000020D7
:10150C00002A2DE9F8431F4612DB0FD084B2224487
:10151C00DFF850808DB296B2204601343A46294607
:10152C00D8F80830A4B29847B442F5D1BDE8F88396
:10153C004FF0000CDFF82C80564284B21FFA81F970
:10154C001FFA8CF5601B3A464946D8F8083080B231
:10155C00984705F1010C0FFA8CFCB445F0DBBDE8A3
:10156C00F88300BFD0000020002A2DE9F8431F4665
:10157C0012DB0FD08CB22244DFF8508085B296B2C9
:10158C00214601343A462846D8F80830A4B2984788
:10159C00B442F5D1BDE8F8834FF0000CDFF82C8095
:1015AC0056428CB21FFA80F91FFA8CF5611B3A4631
:1015BC004846D8F8083089B2984705F1010C0FFA63
:1015CC008CFCB445F0DBBDE8F88300BFD0000020F4
:1015DC002DE9F04F1F1E83B0B4BF07F1010807F1CE
:1015EC00FF38002ABDF830A000901FFA88F848DBBD
:1015FC0096B206F1FF3083B2019300F09780BDF8EC
:10160C0000904B4DCB464E448CB2B6B258460BF1C3
:10161C00010B52462146AB681FFA8BFB98475E457F
:10162C00F4D1A0441FFA88F8484609F10109524642
:10163C004146AB681FFA89F998474E45F4D1002F03
:10164C004EDB1BD026462744BDF80080384DBFB278
:10165C003146013652464046AB68B6B29847B7425F
:10166C00F6D1019B43441FFA83F8214601345246BC
:10167C004046AB68A4B29847A742F6D103B0BDE888
:10168C00F08F4FF0000B501C83B2294DBDF8009029
:10169C008CB2019356421FFA8BFBA9EB0B000BF19A
:1016AC00010B52462146AB6880B20FFA8BFB984770
:1016BC005E45F0DCA0441FFA88FB4FF000081FFACF
:1016CC0088F8A9EB080008F1010852465946AB68A6
:1016DC0080B20FFA88F898474645F0DC002FB0DA54
:1016EC000023BDF80090124D7F429EB2A11BAB6847
:1016FC005246484689B29847731C1BB2BB42F4DB76
:10170C00019B4B441FFA83F900231FFA83F8A4EBC7
:10171C00080152464846AE6889B2B04708F1010349
:10172C001BB2BB42F1DB03B0BDE8F08F8CB286E795
:10173C00D00000202DE9F04F002B83B00B448B46DA
:10174C009146BDF8306001933ADB99421CDA87B2BE
:10175C0007EB02081FFA88F8B9F1000F17DB6FD0FE
:10176C003C46414D1FFA8BFB20460134324659460C
:10177C00AB68A4B29847A045F6D1019B0BF1010BC5
:10178C000FFA8BFB9B45E7DB03B0BDE8F08F002421
:10179C00354DC9F1000A1FFA8BFBA4B2381B01347A
:1017AC0032465946AB6880B224B298475445F4DBB4
:1017BC00019B0BF1010B0FFA8BFB9B45CCDBE3E799
:1017CC009942E1DD84B2A718B9F1000FBFB219DB61
:1017DC0040D0A046244D1FFA8BFB404608F101086F
:1017EC0032465946AB681FFA88F898474745F4D1FA
:1017FC00019B0BF1FF3B0FFA8BFB5B45C4DAB9F194
:10180C00000FE5DA4FF0000A174DC9F100081FFA76
:10181C008BFB1FFA8AFAA4EB0A000AF1010A324682
:10182C005946AB6880B20FFA8AFA9847C245F0DB8A
:10183C00019B0BF1FF3B0FFA8BFB5B45DFDBA3E757
:10184C001FFA8BFB019B0BF1010B0FFA8BFB9B45DA
:10185C0082DB99E71FFA8BFB019B0BF1FF3B0FFA25
:10186C008BFB5B45CBDB8FE7D00000200122014BCB
:10187C009A837047D00000200022014B9A83704756
:10188C00D0000020014B9861704700BFD0000020B1
:10189C000022014B9A617047D00000200122014BBD
:1018AC009A827047D00000200022014B9A82704728
:1018BC00D0000020014B9881704700BFD000002061
:1018CC00014BD881704700BFD0000020014B98819C
:1018DC00D9817047D00000200A282DE9F84F53D049
:1018EC001F2841D9DFF804A12038BAF90CB0BAF896
:1018FC0002300BF106029A42C0B237DA1FFA8BFBA8
:10190C000BF10608BAF80E600FFA88F3AAF80C303F
:10191C00BAF81C30A6F106091FFA89F900EB400051
:10192C000236002B3AD0324F1FFA88F807EB4000F2
:10193C00B6B2471EBAF9143017F8015F0BB1ED437C
:10194C00EDB24C46214601342A465846DAF80830A6
:10195C00A4B29847A6424FEA5505F3D10BF1010BFF
:10196C001FFA8BFBC345E5D1BDE8F88F0623BAF807
:10197C000E60BAF810204FF0000B16440836B6B2C1
:10198C009846AAF80E60C1E70021184AD389108A3C
:10199C00918103440833D381BDE8F88F1FFA88F78F
:1019AC001FFA86F8124E06EB4006013EBAF91430C7
:1019BC0016F8015F0BB1ED43EDB24C4615F0010F7B
:1019CC004FEA550505D0214601225846DAF8083071
:1019DC0098470134A4B24445F0D10BF1010B1FFA26
:1019EC008BFB5F45E2D1BDE8F88F00BFD000002033
:1019FC00682701082DE9F04FDFF880810A28D8F814
:101A0C00183087B0997A00F082801C7AA0427BD380
:101A1C005A7A824278D348CB041B06EBC40292F963
:101A2C0005A0B8F81200B8F90C5002931379977806
:101A3C00034405EB0A003844B8F802C0BFB204975F
:101A4C00D77892F9062060459BB203926DDCADB25B
:101A5C00EA1892B2A8F80C20B8F91420B8F90EB014
:101A6C00002A74D1B8F81C10012900F08280B2FA57
:101A7C0082F936F834604FEA5919002F44D0049992
:101A8C00002941D0BDF80C301FFA8BFB1F4405EB2D
:101A9C000A025B440025BB440F4692B21FFA83FA3C
:101AAC001FFA8BF303920593049BFC1A039BA4B2BD
:101ABC0003F1FF3B23465A0708BF029B04F10104C4
:101ACC0008BF9D5DA4B206F1010C04EB0B0008BF2E
:101ADC001FFA8CF62B0680B204D54A465146D8F82C
:101AEC00083098476D00BC42ADB2E3D1049A039B19
:101AFC000AF101019B1A9BB20393059B1FFA81FA11
:101B0C0017449A45BFB2CFD107B0BDE8F08F002281
:101B1C00B8F80E30B8F81000A8F80C20034419449B
:101B2C00A8F80E1007B0BDE8F08F1A46B8F80EB042
:101B3C00B8F81000A8F80C2083445944B8F91420C4
:101B4C000FFA81FB0025A8F80EB0002A8AD00233C8
:101B5C001AB201230093039B0AF1FF30591E59441A
:101B6C00284409B200B2BB1CFFF7E4FDB8F91420FD
:101B7C007DE7023300921AB2EDE700BFD0000020DF
:101B8C00034B9B690BB1FFF735BFFFF7A5BE00BF39
:101B9C00D000002038B50446007878B1084D04E038
:101BAC00FFF728FF14F8010F40B1AB69002BF7D1F8
:101BBC00FFF792FE14F8010F0028F6D138BD00BFD4
:101BCC00D0000020F8B5204E0446B569002D32D067
:101BDC00037895F808C095F809E0002B32D001463F
:101BEC000022778A9C450AD89E4508D36868A3EBE7
:101BFC000C0300EBC3031B793A441A4492B211F85C
:101C0C00013F002BEED173889A1A02EBD27252105C
:101C1C00B281207870B13DB1FFF7ECFE14F8010FE2
:101C2C0040B1B569002DF7D1FFF756FE14F8010F3E
:101C3C000028F6D1F8BDFEF78DFA00EB40025200F9
:101C4C0092B2E0E71A46DEE7D000002070B52E4CC9
:101C5C0082B02080C8B100214FF4C0254FF48033EE
:101C6C002A4A04F12000C4F80220294AC4E903518D
:101C7C00A2604FF48062E180A161A182E36110F067
:101C8C00C9FB0023E38302B070BD05463C2001F084
:101C9C006DFE20221F49284601F06EFE4FF4803362
:101CAC004FF4C022E361194B2688C4F80230184B5C
:101CBC00E26029464FF4806204F12000E580A561C2
:101CCC002561A582A36010F0A5FB002ED9D1124B83
:101CDC00032293E803000090ADF8041030466946E7
:101CEC0001F04AFE032230460DEB020101F044FEE6
:101CFC004FF48062402004F1200101F053FE0028D3
:101D0C00BFD002B070BD00BFD000002080004000EA
:101D1C00A9120008A8290108D825010810B5044605
:101D2C00022980EAE070A0EBE47068D15AB9002C6B
:101D3C00ACBF7F233F239842A8BF1846002C01DA82
:101D4C0040F0400010BD012A1AD1632805DC400088
:101D5C00002CF7DA40F48070F4E740F2F543984237
:101D6C000CDCFEF7B5FA5749FEF70AFB0FF094F9B5
:101D7C00FEF708FD400040F00100E9E7FF20E7E72F
:101D8C00022A40F09C80632805DC8000002CD9DA04
:101D9C0040F40070D6E7B0F57A7F0CDAFEF798FACB
:101DAC004849FEF7EDFA0FF077F9FEF7EBFC8000EF
:101DBC0040F00100EAE742F20F7398420CD8FEF7AC
:101DCC0087FA4149FEF7DCFA0FF066F9FEF7DAFC08
:101DDC00800040F00200D9E73C4B98420CD8FEF74B
:101DEC0077FA3B49FEF7CCFA0FF056F9FEF7CAFC2E
:101DFC00800040F00300C9E740F2FF10C6E703295A
:101E0C005DD1012A1BD1B0F57A7F05DA4000002C98
:101E1C0098DA40F4006095E7B0F5205F0CDAFEF735
:101E2C0057FA2849FEF7ACFA0FF036F9FEF7AAFC80
:101E3C00400040F00100EAE740F2FF70E7E7022AB9
:101E4C003DD1B0F57A7F06DA8000002CBFF67AAF70
:101E5C0040F4805076E742F20F7398420CDCFEF7A8
:101E6C0037FA1849FEF78CFA0FF016F9FEF78AFCD0
:101E7C00800040F00100E8E7164B98420CD8FEF7C2
:101E8C0027FA1149FEF77CFA0FF006F9FEF77AFCF7
:101E9C00800040F00200D8E7B0F57A2F0CD2FEF7A4
:101EAC0017FA0B49FEF76CFA0FF0F6F8FEF76AFC1E
:101EBC00800040F00300C8E740F6FF70C5E7002043
:101ECC0040E700BFCDCCCC3D0AD7233C17F0010036
:101EDC006F12833A9F860100002303607047000055
:101EEC00092928BF092138B5064B04461B780D4635
:101EFC008B4202D10023036038BD01F08FFD2571A8
:101F0C002060F9E7F0040020036810B504460BB913
:101F1C00002010BD01F082FD2368C01A40F2EE23B0
:101F2C009842F5D90023054A2360127823799A4206
:101F3C00EED0034A0120D377EBE700BFF00400207A
:101F4C0048050020FF234371002301718371038135
:101F5C008372704738B5037904460D465BB14179FD
:101F6C00A94208D041B101290AD000236571A3719F
:101F7C0055B1012D0FD038BD03689B689847F4E725
:101F8C0003680021DB68F9E7012123689B68204680
:101F9C009847A071EFE723682946DB68F7E72DE93E
:101FAC00F04F077CC37BBF000C4647EA931703F046
:101FBC003F01437C857C03F00102C67C47EA822703
:101FCC0005F00F02D20142EA530206F07F031B0117
:101FDC0043EA1513057D90F815E06D0089B045EACC
:101FEC00D6150EF00306059345EA4623867D00932D
:101FFC0006F01F05AD0145EA9E03C57D90F819E07A
:10200C00ED00019345EA5613057E0EF00706029388
:10201C0045EA0623857E039305F03F06760146EAE2
:10202C00DE03C67E90F81CE0B60046EA95160EF06C
:10203C00010546EA8526457F90F8208005F00F0BB8
:10204C004FEACB1B4BEA5E0B90F81EE090F80EC0EB
:10205C000EF07F0A4FEA0A1A4AEA151AC57F49019F
:10206C006D0045EADE1508F0030E45EA4E2590F8A2
:10207C0021E041EADC010EF01F094FEA891949EA17
:10208C00980990F82280407B0CF0070C40EA0C2059
:10209C004FEAC80848EA5E18049306920791FEF7C7
:1020AC00D9FC079920800846FEF7D4FC608038469E
:1020BC00FEF7D0FC069AA0801046FEF7CBFC059BE1
:1020CC00E0801846FEF7C6FC20810098FEF7C2FCA3
:1020DC0060810198FEF7BEFCA0810298FEF7BAFC65
:1020EC00E0810398FEF7B6FC20820498FEF7B2FC60
:1020FC0060823046FEF7AEFCA0825846FEF7AAFC82
:10210C00E0825046FEF7A6FC20832846FEF7A2FC90
:10211C0060834846FEF79EFCA0834046FEF79AFC7F
:10212C004FF48063E0832384638409B0BDE8F08FAF
:10213C002DE9F04104460F4601F07CFC4FF00108FC
:10214C000546236820461B6898470646F0B123686D
:10215C0020465B689847A37AA3B90F2814D1A4F83A
:10216C000A80E37AE2180133DBB2182B1073E372A6
:10217C000AD939462046FFF712FF0023A3723046D6
:10218C00BDE8F081012BECD02581DAE7A37A012B95
:10219C00F5D140F6C41320892D1A9D42C8BFA672F2
:1021AC00EDE7827922B14379012B01D8FFF7C0BF4B
:1021BC000020704770477047704770470020704789
:1021CC0000207047704700207047002070470000C7
:1021DC00054B82B0DA690243DA61DB691840019081
:1021EC00019B02B0704700BF00100240054B82B04B
:1021FC009A6902439A619B6918400190019B02B055
:10220C00704700BF0010024000F10C0353E8003F80
:10221C0043F0200300F10C0141E80032002AF3D115
:10222C00704700F10C0353E8003F43F0800300F1CA
:10223C000C0141E80032002AF3D1704700F10C0385
:10224C0053E8003F23F0200300F10C0141E8003279
:10225C00002AF3D1704700F10C0353E8003F23F040
:10226C00400300F10C0141E80032002AF3D1704721
:10227C0000F10C0353E8003F23F0800300F10C0144
:10228C0041E80032002AF3D1704770470288044BB2
:10229C005140C9B233F8113083EA122303807047DE
:1022AC00006401089AB110B4B0F800C0084C0A449C
:1022BC0011F8013B83EA0C03DBB234F81330914282
:1022CC0083EA1C2CA0F800C0F2D110BC70477047F8
:1022DC00006401084FF6FF7337B50446ADF80630BD
:1022EC004518AC4206D014F8011B0DF10600FFF79F
:1022FC00CDFFF6E7BDF8060003B030BD044B1888DF
:10230C00044B80B21B889BB2C01A18BF01207047C7
:10231C0038310020363100200023044A1380044A4F
:10232C001380044A1380044A13807047363100200E
:10233C00383100203A3300203C3300200120704714
:10234C0070470023A0F87032A0F86E32704700235B
:10235C00A0F85C32A0F85A32704700002D4B5A6A34
:10236C00037A92B263B18389D31A9BB2B3F5FA7F25
:10237C0084BF00230372837A4F2B84BF0023037224
:10238C00037A8281082B0FD8DFE803F0050E0E0EBE
:10239C000E0E0F172200EE2901D0C82904D10123FB
:1023AC0083720623417503727047837A5A1C034467
:1023BC008272597507234172F5E7827A531CDBB29E
:1023CC00024483725175427A9A42EDD20823EAE7AD
:1023DC00837A5A1C034482725975C37D162B04D11F
:1023EC00012380F865300923DDE743690A4A03F0CD
:1023FC00FF2393424FF0010309D1428BB2F5A26F38
:10240C0005D180F86730037F80F86830EBE780F8FF
:10241C006630E8E70004004000C80032044B18881E
:10242C00044B80B21B889BB2C01A18BF01207047A6
:10243C00403500203E3500207047B0F87032B0F8BF
:10244C006E22D21A93B2120441BFB0F8720201305C
:10245C001B189BB2181E18BF01207047A0F1140066
:10246C00EBE70346B0F87022B0F86E1291421FBF32
:10247C00811891F87402B3F8721201321ABF0A4033
:10248C00A3F8702200207047A0F11400E9E70000C7
:10249C001E2208B5002103480FF0BCFF0022024B9E
:1024AC001A7008BDF00F00209C07002038B54A7840
:1024BC000D46352A044601F10C010AD80FF082FFB3
:1024CC0068780021C0F136022044BDE838400FF096
:1024DC00A1BF403551F8043BA94240F8043BF9D167
:1024EC000B88038038BD38B54A780C461B2A054644
:1024FC0001F10C010AD80FF065FF60780021C0F1E2
:10250C001C022844BDE838400FF084BF283451F831
:10251C00043BA14245F8043BF9D138BD38B54A78A3
:10252C000D46082A044601F10C010AD80FF04AFFA7
:10253C0068780021C0F109022044BDE838400FF052
:10254C0069BFEB6803604B6843600B7A037238BD5C
:10255C0038B54A780C46072A054601F10C010AD811
:10256C000FF030FF60780021C0F108022844BDE86C
:10257C0038400FF04FBFE36803604B68436038BDD1
:10258C002DE9F04113781546037092F80180FD2B6C
:10259C0004460F46826880F8018052D10A26AB7837
:1025AC008370EB78C3702B7903716B794371AB79C2
:1025BC0083716B7A297A1B0403EB0123E9790B44B1
:1025CC0063F3170282604246A91904F10C000FF064
:1025DC00F9FE7A7B904507D208F10C000021A2EBA2
:1025EC00080220440FF016FF63781E44731C9BB244
:1025FC00EA5CAB5D03EB0223A4F80C31A378DB0798
:10260C000ED50236B6B2354404F5887305F10C02CA
:10261C0055F8041B954243F8041BF9D12A781A701B
:10262C00BB7A84F82131FB7A84F822313B7B84F825
:10263C0023317B7B84F824313B7884F82031BDE84E
:10264C00F08100234380AB7806260371EB7843714D
:10265C002B798371697961F317028260B3E770B5E6
:10266C000B78054603704B780C4643700B78FD2BAA
:10267C0038D10A268B788370CB78C3700B790371B1
:10268C004B7943718B7983718B68C3718B68C3F3FE
:10269C000F2303728B7A4372627804F10C01A81930
:1026AC000FF090FE6378B4F80C213344EA54B4F87C
:1026BC000C115A1C92B2090AA954A278981CD20780
:1026CC0080B20ED504F58872054404F58E7452F868
:1026DC00041BA24245F8041BF9D112780F332A705F
:1026EC0098B270BD00238B700B79062683704B79E2
:1026FC00C3708B7903718B684371CDE72DE9F74F6C
:10270C000C4651880546B1F58C7F4FF0000010D374
:10271C001070D91CC9B2012995BF01210023518029
:10272C0053809CBF237011700020287003B0BDE84B
:10273C00F08F16780E2E00F2BB8001A757F826F00A
:10274C001F27000889270008B1270008CD2700089B
:10275C00BD280008BD280008BD280008BD280008B9
:10276C00BD280008BD280008BD280008BD280008A9
:10277C00BD280008BD280008DD270008481C508033
:10278C00635421789BB2FD2906D10C330A21D380E6
:10279C00022391801370C7E706210833D380918000
:1027AC000E23F7E7481C50806354D80742BFD188EA
:1027BC000D31D1800321012B1170B5D90023E9E72C
:1027CC00481C508063540E211170002BF6D1ABE7DE
:1027DC00481C508063545388D1888B4260D30023AB
:1027EC0053801370022369802B702378FD2B65D1E5
:1027FC0063792B72A3796B72637A227A1B0403EBD5
:10280C000223E27913446B60637803F10C026A8053
:10281C00A278D10701D519336B80002340F26B12DB
:10282C001E460C206968DFF8FC806B81B3180133FD
:10283C005B0800FB03F758F80770B94247D25A1EE1
:10284C00B242F3D80C27774358F80730994241D15C
:10285C0023782046FD2B0CBF4FF00A094FF00609D8
:10286C0010F801BF4744CB440BF1FF3189B2FFF79D
:10287C0031FD97F804A0ADF8060051460DF10600A5
:10288C00FFF704FD0BF10103E25C14F80B3003EBD2
:10289C000223BDF806209BB29A4223D005201AE0F1
:1028AC0092889A423FF640AF01232B7000203DE7FF
:1028BC00107050809080D0802870F7E7E3782B72EE
:1028CC0023796B7263796B6063780833A4E71E46D7
:1028DC00B8D9B5E703202870023801288CBF002036
:1028EC00012023E7BB79DA0707D56178FA799142A1
:1028FC0082BF04EB09018A5CAA729B0709D50C23E1
:10290C0003FB068362781B7A9A4282BF4C44E35CD9
:10291C00EB720C2303FB06835B79022085F80CA079
:10292C006B73D8E7F84001086FF02003024803608E
:10293C004368FFF769BC00BF0044004008B5FFF7CF
:10294C00F3FF0022014B1A7208BD00BF581900207A
:10295C0008B5FFF7E9FF0022014B1A7208BD00BF52
:10296C00CC0800206FF02003024803604368FFF797
:10297C004BBC00BF0048004010B50446FEF75CFDA0
:10298C0006210020FEF7A2FF0C48FEF77BFF204635
:10299C00FDF7E0FBC0B208284FF01B0008D8FEF78B
:1029AC008FFF2046FFF70EF9BDE81040FEF770BF11
:1029BC00FEF786FF2046FFF7EDF8F5E73039010802
:1029CC004FF0320C0A4B0B491A680B4BA1FB02124D
:1029DC00920C0CFB02F202F5FA72A3FB02320749CD
:1029EC00920948684B681B1A9A42FBD8704700BF83
:1029FC004000002083DE1B43D34D6210001000E02A
:102A0C0008B5FFF7DDFF1022014B1A6108BD00BFAE
:102A1C00000801401022024B5A61FFF7D1BF00BFE2
:102A2C0000080140028810B58488531C2340448858
:102A3C009C421EBF12189171038010BD70B5104CD2
:102A4C000025234626782EB166788E4202D1A678D0
:102A5C0096420BD001350C2D04F10404F2D1002464
:102A6C0013F824501DB101340C2CF9D170BD012583
:102A7C0003F8245003EB8403D87059709A70F5E76F
:102A8C00A10700202DE9F8430B465A7A9E7ADF7A8B
:102A9C00204B0D791B5C0446DB07097A00D50DB978
:102AAC00FFF7CCFF00234FF0010E98461A49194846
:102ABC009C4201F8018B25D02DB90278920702D5E2
:102ACC0001F801EC1EE04FF0000C144A92F8009053
:102ADC00B9F1000F0FD092F8039099450BD1002E4D
:102AEC00EED092F80190B14505D1002FE8D092F8C4
:102AFC000290B945E4D00CF1010CBCF10C0F02F1C1
:102B0C000402E3D10133DBB2042B00F10100CFD17D
:102B1C00BDE8F883D10700209D070020A107002005
:102B2C00704707B503688DF807100122DB680DF1BB
:102B3C000701984703B05DF804FB70B504460846DE
:102B4C000D46FDF707FB2368294682B2DB68204659
:102B5C00BDE8704018470120FFF748BB0D4B984269
:102B6C0002D10420FFF742BB0B4B984205D003F572
:102B7C008063984203D11020F4E70820F2E7074B5A
:102B8C00984201D12020EDE7054B984200D07047C8
:102B9C004020E7E700080140000C01400014014010
:102BAC00001801400B4B984203D14FF40060FFF723
:102BBC001DBBB0F1804F04D0074B984204D10220CA
:102BCC0000E00120FFF704BB044B984201D1042024
:102BDC00F8E77047002C014000040040000800405A
:102BEC00064B984203D14FF40070FFF7FFBA044B29
:102BFC00984202D14FF48060F7E7704700240140FF
:102C0C00002801402DE9F0410C46154686B00746D8
:102C1C001022002102A81E469DF834800FF0FAFB0A
:102C2C0001940B2D07D8DFE805F00E0E070A1414DB
:102C3C00141616161B1DFEE70823029303E0082347
:102C4C00029301230593032E0ED8DFE806F00E1E27
:102C5C00200E0123F1E70123029304230493F2E7EE
:102C6C000923EAE70923F7E7FEE703230393B8F107
:102C7C00000F02D03846FFF771FF053D042D0BD82D
:102C8C00DFE805F007110A0711000223EEE7012324
:102C9C00ECE7C4F30F247C61384601A90DF050FA1F
:102CAC0006B0BDE8F081C4F30F243C61F4E713B522
:102CBC004FF0010C0024CDE9004CFFF7A3FF02B04C
:102CCC0010BD000070B50446164686B00D461422A1
:102CDC00002101A80FF09EFB2046FFF763FF042E96
:102CEC0004D8DFE806F02A2E04323B00FEE71C4B2A
:102CFC001C4A1B68B3FBF2F39BB20022013B20463B
:102D0C0001A9ADF80430CDE90225049205920DF02D
:102D1C004FFB236823F080032360A36823F48043D4
:102D2C0023F00703A360636823F070036360A36858
:102D3C0023F08003A36006B070BD094B0A4A1B68E0
:102D4C00D8E7074B094A1B68D4E7054B064A1B68B2
:102D5C00B3FBF2F303EB83035B00CDE70123CCE77A
:102D6C004000002080A8120140420F0000127A009F
:102D7C0010B50446FFF7A6FF236843F00103236058
:102D8C0010BD00224FF0FF31FFF7F2BF1A4B10B508
:102D9C005B681A4C23600BF019F919480DF080F997
:102DAC0018480DF07DF918480DF07AF917480DF018
:102DBC00FFFB17480DF0FCFB0DF046FA4FF0E0223C
:102DCC00002313615361936172B64FF0FF319A0087
:102DDC0002F16042013302F56142082BC2F8801007
:102DEC00C2F88011F3D162B6034B1B6883F30888D9
:102DFC0023689847FEE700BF00F0FF1F98070020EC
:102E0C0000080140000C0140001001400038014056
:102E1C000044004030B50024054689B014222146F8
:102E2C0003A8CDE901440FF0F5FA01A928460DF0ED
:102E3C00FFF86946084800940DF0DCF84FF4602365
:102E4C00CDE903340223284603A9CDE906340594C1
:102E5C000DF003F909B030BD00240140F0B4044674
:102E6C0001F44075184604F12C064FF4407393FAA4
:102E7C00A3F3B3FA83F31F27DD4056F8253001F096
:102E8C001F018F4023EA070302F01F0707FA01F125
:102E9C00194346F825104FF000730C3402F00076FD
:102EAC0093FAA3F3B3FA83F3DE404FF0F87154F8BE
:102EBC00263002F0F87291FAA1F1B1FA81F10725EE
:102ECC0022FA01F105FA01F123EA01014FF0F8733E
:102EDC0093FAA3F3B3FA83F3DA4095400D4344F825
:102EEC00265004990023F0BC0122FFF7E0BE0146F6
:102EFC0008B5FFF730FEBDE808400846FFF770BE86
:102F0C00064B0748C01AEFF30883C2431A44013B2F
:102F1C00984288BF0022AA210FF07CBA000400005E
:102F2C000050002010B5124C0323204606221149F4
:102F3C00FFF7BDFE2046032302220F49FFF7B7FE21
:102F4C00032320461A4604F580640C49FFF7AFFEB4
:102F5C0020460323052240F20221FFF7A8FE20465B
:102F6C00BDE810400323052240F20111FFF79FBE7C
:102F7C0000080140800080040800080410001004C0
:102F8C00024B9868C0F30030704700BF0008014046
:102F9C0008B5FFF7F5FF08B100BFFAE708BD000060
:102FAC000122024B5A6102221A617047000C014047
:102FBC000222024B5A6101221A617047000C014037
:102FCC00104A4FF47041136923F4704391FAA1F144
:102FDC0013610D4B5A6822F400625A601A6822F48D
:102FEC0000621A60DA6822F40062DA609A6842F4CD
:102FFC0000629A60D022054B83F828234FF480722C
:10300C005A607047000001400004014000E100E0FC
:10301C004FF40062034B5A611A6842F400621A6062
:10302C00704700BF0004014010B50A4C0023052274
:10303C0020460949FFF73BFE00230522204607499D
:10304C00FFF735FE4FF4004363614FF48043636137
:10305C0010BD00BF001001408000800440004004FF
:10306C000549CB681A04DB4302F0004203F4004329
:10307C0013430B61704700BF001001400549CB683A
:10308C001A04DB4302F0804203F4804313430B61C8
:10309C00704700BF001001400F4BDB6C9BB2A3F2DA
:1030AC00CF62C62A10D9A3F6EB22C62A0ED9A3F6F4
:1030BC001C12C62A0CD9A3F63D22C62A0AD9C82B43
:1030CC0034BF102000207047012070470220704749
:1030DC0004207047082070470024014010B5054CAF
:1030EC000023052220460449FFF7E1FD4FF400536D
:1030FC00636110BD00100140200020044FF4005209
:10310C00024B1628CCBF1A615A617047001001405F
:10311C000C4BD3F8FC2022F08072C3F8FC20D3F8BF
:10312C00FC2042F08072C3F8FC20A3F55D431A68C2
:10313C0022F001021A601A6842F001021A600022A1
:10314C005A60704700ED00E0064B074A1B680749C0
:10315C00B3FBF2F3434310B54C684A68121B9A4216
:10316C00FBD310BD4000002040420F00001000E0D7
:10317C0010B504466420FFF7E7FFA36843F004038F
:10318C00A360A3685B07FCD410BD826842F0010207
:10319C008260FFF7EDBF000013B50F4C2046FFF720
:1031AC00A6FE2046FFF736FE40F201134FF00072E8
:1031BC004FF4007120460093084BFFF74FFE20465A
:1031CC00FFF7E3FF6420FFF7BFFFA36843F4A003FE
:1031DC00A36002B010BD00BF0024014000080140F4
:1031EC002DE9F04180464CF250300D4616461C46F7
:1031FC000BF022F968BBB8F1010F06D0B8F1020F41
:10320C000CBF4FF002084FF004080027124A136954
:10321C0043F0010313613801C0F12002A0F1200337
:10322C0004FA02F226FA00F0104324FA03F31843CE
:10323C0080B225F817004CF250300BF0FDF818B99D
:10324C000137FBB24345E6D3034A136923F001036C
:10325C001361BDE8F08100BF002002407FB501235F
:10326C000022CDE9040301A902A8CDE902230BF049
:10327C001FF900280CBF0420052007B05DF804FBE3
:10328C000A4608B5014600230220FFF7A9FF0028D3
:10329C000CBF0420052008BD08B5FFF7DFFF031F96
:1032AC005842584108BD08B5FFF7EAFF031F5842C2
:1032BC00584108BD2DE9F047254B264D01280FBF7D
:1032CC007D267C26AA461D460F4614462249234AD3
:1032DC0006BF89469A4691460BF092F8314628462D
:1032EC00FFF7DAFF10B3002F08BF4FF478744FF0DC
:1032FC0000080334A40805F11006AAEB050A1FFA0E
:10330C0088F39C4218D93FB95AF806104B1C06D1C9
:10331C0008F101080436F2E757F82810F6E74E4595
:10332C0013D23046FFF7BFFF0028F1D100240BF079
:10333C0079F82046BDE8F0874FF011312846FFF7A9
:10334C00B2FF0028F2D00424F1E70324EFE700BF1A
:10335C0000F0010800F40108FFF70108FFF3010871
:10336C0010B50BF04DF87C210748FFF795FF20B105
:10337C007D210648FFF790FF20B900240BF052F88E
:10338C00204610BD0424F9E700F0010800F4010800
:10339C00002330B5074A084D9CB2A14206D99C18AF
:1033AC00AC4205D09C5CC4540133F5E7042030BD1D
:1033BC000320FCE710F00108FFF3010838B50446C0
:1033CC000D4672B60A4601460020FFF773FF62B63F
:1033DC00042806D172B601202A462146FFF76AFF5F
:1033EC0062B638BD38B5124B1C68D3F80054B4F132
:1033FC00113F09D1B5F1113F17D000220120114620
:10340C00BDE83840FFF756BFB5F1113F03D100229C
:10341C0011461046F4E7FFF7A3FF042804D12C4013
:10342C0001340CBF0220012038BD0420FCE700BF92
:10343C0000F00108034B18739A68D207FCD5187B6F
:10344C00704700BF0030014038B5441E8D18A942AA
:10345C0006D014F8010FFFF7EDFF01F8010BF6E7AA
:10346C0038BD084611461A46FFF7EEBF38B504467C
:10347C00054D0144A14205D02878FFF7DBFF04F885
:10348C00010BF7E738BD00BF340000200846114699
:10349C00FFF7ECBF10B5044601448C4204D014F87D
:1034AC00010BFFF7C7FFF8E710BD08461146FFF701
:1034BC00F1BF0000F0B50625012610278DB0294C70
:1034CC002822002102A80EF0A5FFFFF744FB4FF4C1
:1034DC008050FEF78BFE41F210012046032306229A
:1034EC00FFF7E5FB2046276103230A2242F2200165
:1034FC00CDE90056FFF786FB204603230A2248F24B
:10350C008001CDE90056FFF77DFB032320461A46C8
:10351C0044F24001CDE90056FFF774FB00234FF451
:10352C008272CDE90533CDE90933029303920493FA
:10353C004FF40072072304F52054204602A90B9384
:10354C00089707920CF008FF236843F040032360B0
:10355C00A3689B07FCD5FF22237B034B1A700DB08D
:10356C00F0BD00BF00080140340000201C4B10B41B
:10357C001A68940611D5D96888060ED5194C1A48C4
:10358C005968238800880133C3F30A0380B2984238
:10359C001FBF1648C9B2C1542380110744BF104B3A
:1035AC005B68120616D50E48C3681B0612D5104B65
:1035BC00104A1988138889B29BB299420CD013888F
:1035CC000133C3F30803138013880B4A9BB2D35CFB
:1035DC00DBB2436010BC704710BCFEF749BE00BFA5
:1035EC0000380140383100203631002036290020C7
:1035FC003C3300203A3300203A3100200A490B4A70
:10360C0008B50B8812880133C3F3080392B29A42AF
:10361C0007D0074AD05407480B80FEF702FE012062
:10362C0008BD0020FCE700BF3C3300203A330020EB
:10363C003A3100200038014038B504464518AC42F8
:10364C0004D014F8010BFFF7D9FFF8E738BD084692
:10365C001146FFF7F1BF0000054B064A1B88128884
:10366C009B1A98B21B0444BF00F5006080B27047EF
:10367C003831002036310020FFF7EEBF0848094AE8
:10368C000188138889B29BB29942F9D0138801330F
:10369C00C3F30A0313801388034A9BB2D05C7047B0
:1036AC00383100203631002036290020FFF7E6BFE4
:1036BC00002300B5002989B0CDE9063318BF4FF4BB
:1036CC008053CDE902320C2301900491034801A9E7
:1036DC0005930CF09FFF09B05DF804FB0038014026
:1036EC0010B5064CE36823F40053E360FFF7E0FFEA
:1036FC00E36843F40053E36010BD00BF00380140A1
:10370C00002208461146FFF7EBBF0000F7B508266C
:10371C0001272E4C2E4DE3682E4923F40053E36011
:10372C00FFF719FA4FF48040FEF760FD284603239B
:10373C000A22CDE90067FFF765FA032328461A46EB
:10374C00CDE900672449FFF75DFA00224FF4E13020
:10375C001146FFF7ADFFB022236923F49043236198
:10376C00636923F02A0363611C4B83F82523202211
:10377C005A602046FEF77CFDFEF76DFD6FF04003AE
:10378C0023600024164B1C80164B1C80FEF756FD44
:10379C006FF020030360144B1C80144B1C800369D6
:1037AC0023F400630361436923F008034361036955
:1037BC0023F480430361436923F022034361C3680C
:1037CC0043F40053C36003B0F0BD00BF00380140A8
:1037DC0000080140020002040400040400E100E0BF
:1037EC003A3300203C3300203631002038310020A1
:1037FC0008B5FFF78BFF6FF02003034803604368A5
:10380C00BDE80840FEF700BD00380140FFF7F0BFEF
:10381C007FB500240125064644F24001FFF79BF9D1
:10382C0002230B222648CDE90045FFF7EBF90223D2
:10383C0048F280010B22CDE900452148FFF7E2F95F
:10384C003168204B99420AD103F5DE33DA6942F430
:10385C000012DA61DB6903F400130293029B00236C
:10386C0080221020184D194CC5E90133C5E90323FA
:10387C00C5E90533C4E90103C4E90323C4E90533ED
:10388C00EB61E3610F4B994218D103F5DE335A69B2
:10389C00284642F001025A615B6903F0010303936D
:1038AC00039B0B4B2B600AF035FC0A4B2046B5638F
:1038BC006E6223600AF02EFC7463666204B070BD05
:1038CC00000C014000540040101000205410002047
:1038DC00800002406C00024008B51448144B4FF4B1
:1038EC00804203600023C0E90332124AC0E9053369
:1038FC00C0E90733C0E901230AF076FFA0B9F02232
:10390C000D4B83F81F234FF00041196083F82023DF
:10391C000121596083F810234FF48031196083F82A
:10392C0011234FF400321A6008BD00BF981000201C
:10393C0000540040801A060000E100E001480BF042
:10394C000DBC00BF9810002001480CF043B800BF1C
:10395C009810002001480AF093BC00BF54100020BE
:10396C0001480AF08DBC00BF10100020014B1870EC
:10397C00704700BFEC1000201FB5084B1C784FF0AF
:10398C00FF33CDE90123012302460091044804FAD8
:10399C0003F10AF0D1FF04B010BD00BFEC10002001
:1039AC009810002013B5064B1C780123CDE90012AA
:1039BC00024604FA03F103480BF04EF802B010BDB6
:1039CC00EC10002098100020044B0A2219780448AF
:1039DC004FF0FF3349000BF005B900BFEC1000208D
:1039EC009810002008B5FFF777FF0022014B1A70E2
:1039FC0008BD00BFEC100020054A064B11681B786F
:103A0C000B441360044A136801331360704700BF02
:103A1C005035002044000020DC0D0020014B1868BC
:103A2C00704700BF503500200148FFF7AAB900BF0E
:103A3C0000040040014B586A80B2704700040040FB
:103A4C000022024B1A60FFF7EFBF00BFDC0D002015
:103A5C0070B51B4C90220021201D0EF0DBFC0123C5
:103A6C0023800F234FF6FF75164E052231466380D7
:103A7C00A380A01D2C23FDF779F9134A134B314673
:103A8C00C4E90D2304F13E002C230522A587FDF784
:103A9C006DF90223E36600230D4904F17A0084F8E2
:103AAC0072306367A4F87830A4F870500EF0D6FC2E
:103ABC007F2384F88F30052384F8903070BD00BFCD
:103ACC00040700201039010802000F000300050054
:103ADC00F729010870B5094E05460C46415C304685
:103AEC000EF0AFFC034628B1831B0133DBB2282B4D
:103AFC0028BF0023F35C2B5570BD00BFCC3F0108E1
:103B0C0070B50D461146044616460EF0A7FC2DB3B3
:103B1C00013D082D08D8DFE805F00511131517191C
:103B2C001B1D1F0035236371627973799A4215D17D
:103B3C002046BDE870400521FFF7CCBF6123F2E7BA
:103B4C006623F0E76B23EEE77023ECE77523EAE7D7
:103B5C007A23E8E73123E6E73223E4E770BD00007F
:103B6C0073B5054605F111061B4C01461B4A684608
:103B7C003601FFF7C5FFB01C694620440EF06EFC01
:103B8C000023142004EB0512264400FB054073723D
:103B9C000221A2F81A3103250122A0F84A10C264AE
:103BAC00A0F8523080F8543080F85050C4F83A30B5
:103BBC004FF48070C4F83E30C4F8423040F2011328
:103BCC00E184074984F83020C4E90A01A4F846309E
:103BDC00A4F8483002B070BD48050020C82901087F
:103BEC0003020100F7B5054605F111060146A94A85
:103BFC00A94C68463701FFF783FFB81C694620447F
:103C0C002744FCF7C7FF7B7A04EB0610052B84BF17
:103C1C0000237B72A14B427A198841FA02F212F00E
:103C2C0001020DD1427259B111F0010208D141FAD1
:103C3C0002F7FF07D0B240F1DE8104EB061250729E
:103C4C0004EB051191F81A012A01042802D900206D
:103C5C0081F81A01A718588897F81A1140FA01F13F
:103C6C00C90711D4022187F81A1168B14707C0F3AC
:103C7C00800109D440FA01FC1CF0010FCFB200F016
:103C8C00BF81A11881F81A71A11891F81B010328A2
:103C9C0002D9002081F81B01A718988897F81B11EE
:103CAC0040FA01F111F001010FD187F81B1160B13D
:103CBC0010F0010109D140FA01FC1CF0010FCFB248
:103CCC0000F0A381A11881F81B7104EB0616717A20
:103CDC00012905D904291EBF0021121982F81B11D4
:103CEC00142202FB054191F84A00042802D9022053
:103CFC0081F84A0002FB054292F84B10042902D9C4
:103D0C00002182F84B10142202FB0542998E92F886
:103D1C004B0041FA00F0C00712D4012082F84B008E
:103D2C0071B18F07C1F340020AD441FA02F6F607CB
:103D3C00D0B240F16F81142202FB054282F84B0095
:103D4C00142202FB054292F84C10032902D90121DE
:103D5C0082F84C10142000FB0540D98E90F84C20B2
:103D6C0041FA02F212F0010210D180F84C2069B134
:103D7C0011F001020AD141FA02F6F707D0B240F174
:103D8C004E81142202FB054282F84C00142202FBE5
:103D9C00054292F84E10012902D9002182F84E10EA
:103DAC00142000FB0540198F90F84E2041FA02F2C6
:103DBC0012F0010210D180F84E2069B111F001020D
:103DCC000AD141FA02F6F607D0B240F12D81142245
:103DDC0002FB054282F84E00142202FB054292F8C7
:103DEC004F10022902D9002182F84F10142000FB39
:103DFC000540598F90F84F2041FA02F212F001025F
:103E0C0010D180F84F2069B111F001020AD141FAAA
:103E1C0002F6F707D0B240F10C81142202FB0542E6
:103E2C0082F84F00142202FB054191F84D00022844
:103E3C0002D9002081F84D0002FB054292F8501087
:103E4C00052902D9032182F85010142202FB0541E6
:103E5C0091F85200012802D9002081F8520002FB8F
:103E6C00054292F85310022902D9002182F853100E
:103E7C00142000FB0540998F90F8532041FA02F270
:103E8C0012F0010217D180F85320A1B111F00102F8
:103E9C0011D105E0C82901084805002004070020BD
:103EAC0041FA02F6F607D0B240F1C880142202FBA8
:103EBC00054282F85300142202FB054191F854008C
:103ECC00022802D9002081F8540002FB054292F826
:103EDC004C10012906D192F84F10022904BF002181
:103EEC0082F84F1094F82620042A02D9022284F872
:103EFC00262094F82720042A02D9002284F82720AF
:103F0C00B3F86C1094F8272041FA02F2D6070FD4BC
:103F1C00012284F8272059B18807C1F3400207D445
:103F2C0041FA02F6F707D0B240F18D8084F82700F1
:103F3C0094F82820022A02D9002284F8282094F828
:103F4C002920022A02D9012284F82920B3F86E1004
:103F5C0094F8293041FA03F313F00102674B0CD1AA
:103F6C0084F8292049B111F0010206D141FA02F678
:103F7C00F607D0B26CD583F8290094F82A200C2AC5
:103F8C0002D9002284F82A2094F832200C2A02D973
:103F9C00002284F8322093F82B20042A02D9002224
:103FAC0083F82B2093F82F20012A02D9002283F8C2
:103FBC002F20534AB2F8701093F82F2041FA02F2D6
:103FCC0012F001020CD183F82F2049B111F001023B
:103FDC0006D141FA02F4E707D0B23DD583F82F00A1
:103FEC0000221046474911F9014B14F1780F37DACA
:103FFC0001F8010C36E00132102A7FF418AE1FE6EE
:10400C00013110297FF436AE3EE6013110297FF4E0
:10401C0052AE5AE60132102A7FF487AE90E6013296
:10402C00102A7FF4A8AEB1E60132102A7FF4C9AE93
:10403C00D2E60132102A7FF4EAAEF3E60132102AFE
:10404C007FF42EAF37E70132102A7FF469AF6FE7A8
:10405C000132102A8AD190E70132102AB9D1BFE778
:10406C00782CC5DC0132D2B20C2ABCD10022012042
:10407C00254911F8014B0132022CD2B288BF01F84C
:10408C00010C042AF5D193F82C20052A02D903221D
:10409C0083F82C2093F82D20022A02D9022283F8CF
:1040AC002D2093F82E20022A02D9012283F82E20EB
:1040BC0093F83020022A02D9012283F830201421EF
:1040CC00FF226943581883F8312080F851204FF6AD
:1040DC00FF744FF0FF32553103EB051558181A6277
:1040EC009A84C5F81C21A5F820415A5042600472EC
:1040FC0083F833205A631A8703B0F0BD48050020BB
:10410C0004070020820500208E050020154B9870B6
:10411C00042804D8DFE800F004141A200400FEE799
:10412C00114A9A6400221A710A220338012894BF9A
:10413C00002001201A771A7998731A7498767047B0
:10414C000A4A9A6401221A710F22EEE7084A9A640D
:10415C0002221A711922E8E7064A9A6400221A719F
:10416C000722E2E7F00400201400320020001F00B8
:10417C003500130009006F002DE9F34100F1110720
:10418C00754E3F0107F10208B04405464046FCF766
:10419C001DFD042101900DEB0100704CFEF79AF807
:1041AC00019B0021A3606361142303FB056393F857
:1041BC004A206B4B374413F92230E0832373237668
:1041CC00684B84F8541023657B7A2F01637006EBDF
:1041DC00051393F81A01FFF799FF634A6378128865
:1041EC006373A285E28B637684F82830626284F86C
:1041FC002A1023B94046FCF709FD84F82A003744FD
:10420C0097F81B2184F829206AB1E18B02EB021389
:10421C0003EB03230B444FF01131E383A36801FB41
:10422C000232A260626194F82830052B04D8DFE8D2
:10423C0003F0043D3F414349FEE7A378032B03D829
:10424C00DFE803F003303203FEE71823474F84F80E
:10425C00203017E90F0087E80F0040F2E24394F892
:10426C002000A4F84C30FCF737F84FF07F51FCF7E6
:10427C0087F8FCF787FA4FF47A73B4F84820C0B289
:10428C00B3FBF2F3A4F84030142303FB056393F85B
:10429C005030A4F84E00052B40D8DFE803F015365B
:1042AC00393C3F421223D1E70C23CFE71923CDE74A
:1042BC000623CBE70223C9E7A378012BF2D0022B0C
:1042CC00F2D0FEE70323C1E74FF4165314206364C6
:1042DC00002300FB056584F85530A4F8563095F89A
:1042EC004C30032B03D095F84F20022A02D1012227
:1042FC0084F8552094F85520012B08BF84F85630CB
:10430C0092B194F856307BB1FEE74FF49643DDE75B
:10431C004FF41643DAE74FF46143D7E74FF4E13338
:10432C00D4E74FF46133D1E71421237801FB036305
:10433C0093F84C30022B07D1012384F8573022B16B
:10434C0094F857302BB1FEE71AB994F85630002B7D
:10435C00F6D102B0BDE8F08148050020F004002041
:10436C00103901080101000104070020200500207C
:10437C004FF4DE72FF2101480EF04CB848050020C6
:10438C004FF4DE710148FFF719B800BF4805002053
:10439C004FF4DE710148FEF7FBBF00BF480500205B
:1043AC0008B5FFF7F5FF034B1878BDE80840FFF799
:1043BC0019BC00BFF004002070B5FFF7D9FFFFF760
:1043CC0011F804280CD0FFF7D3FFFFF70BF80428E3
:1043DC0003D1FFF7DDFF042806D0FFF7C9FF03E088
:1043EC00FFF7D6FF0428EED11022574957480EF09C
:1043FC003DF808B1FFF7BCFF40F24F12534CA38AB3
:10440C00934267D0B3F5A47F36D80125062204F178
:10441C00160104F58970FCF738FD637F84F81931B7
:10442C00A37F84F81A3128460135EDB2FFF798FBCB
:10443C000A2DF8D10023E37740F24F130125A38214
:10444C0042F2DD73226940499A4240484FF0100213
:10445C001CBF012523610EF009F800283CD0102266
:10446C0039493A48FCF700FD082239493948FCF72C
:10447C00FBFCFFF785FF31E0B3F5A77F22D823467D
:10448C00002203250121022693F84C0001280DD0AF
:10449C0003280ED093F84F0001280DD002280ED01F
:1044AC0001320A2A03F11403EED1C5E783F84C500C
:1044BC00F0E783F84C10EDE783F84F60F0E783F8F2
:1044CC004F10EDE70025E8B20135FFF749FB0A2D47
:1044DC00F9D1AFE70025B3E7002DCAD1E37F092B53
:1044EC0084BF0023E3771423E17F03FB014393F89C
:1044FC004C2002F0FD02012A17D10022134993F837
:10450C004C0001320A2A81F84C0001F11401F6D159
:10451C00114DE37F2B70FFF79BFA2878FFF762FBB6
:10452C002878BDE87040FFF727BE49B10B4903F16D
:10453C004A025E3352F8040B9A4241F8040BF9D14B
:10454C000023E377E4E700BFCF29010848050020EA
:10455C00E0290108FA060020F00400209205002052
:10456C0010B5C01A9DF80840123080F30500A04227
:10457C00C8BF20B2C0B2123B08701844107010BDF6
:10458C0007B5084611461A46122300931B23FFF762
:10459C00E7FF03B05DF804FB0229F7B5054600D927
:1045AC00FEE70B4E0F0106EB0114A3786278F15D68
:1045BC0084600CF07DFBE37928460193A379227982
:1045CC000093E17863790CF09CFB03B0F0BD00BF65
:1045DC0014660108024638B5044652F8143BDD69EE
:1045EC0000F11503A8472046217D2022BDE8384064
:1045FC000CF0EBBB7FB58D7A0446016175B30121DC
:10460C000CF02CFB012120460CF045FC012120462E
:10461C000CF05BFC2369204693F90810FFF7DAFFD6
:10462C00236920461978FFF7B7FF00222046114670
:10463C000CF031FB002344F20302204600934FF6AA
:10464C00FF710CF07AFB20464FF6FF710CF0A3FBC8
:10465C00204604B0BDE870400CF029BC03210CF0DE
:10466C00FDFA204601210CF016FC204601210CF02D
:10467C002CFC2369204693F90810FFF7ABFF236944
:10468C002A465E680C4B2046E360862110230CF012
:10469C0041FC46F6E823CDE902535B232046CDE9E5
:1046AC0000530422102370210CF043FC2A4631469F
:1046BC0020460CF06AFCB8E70066010810B5044609
:1046CC000CF0F5FB2046BDE810404FF6FF710CF0E6
:1046DC0062BB000038B5044603680169DD6900F16E
:1046EC00140200F1150391F90810A84723699A7A6E
:1046FC0042B11A78022A00D9FEE7044B03EB0213ED
:10470C00A36038BD024BE360FBE700BF14660108F1
:10471C000066010810B5094CA36823B9E36813B906
:10472C002046FFF7D7FF23699B7A23B1A3689868CB
:10473C00A0F57A7010BDE368D868F9E74026002030
:10474C00836810B504461BB9C3680BB9FFF7C2FFE9
:10475C0023699B7A1BB1A368B3F90C0010BDE36805
:10476C00B3F91000FAE7836810B504461BB9C368A7
:10477C000BB9FFF7AFFF94F9150010BD90F8D830C6
:10478C005BB190F8D930074A180102EB03139B6810
:10479C001978135853F821007047837D0E3350F865
:1047AC0023007047AC3801082DE9F3410446164646
:1047BC0088469DF824705B22402F4FF000011D4667
:1047CC0028BF40270DF026FE8E4BDB8B23803278E2
:1047DC00A37862F30203A3707378DB0003F0080381
:1047EC0043EA0811A37803F007031943A170727907
:1047FC00E37862F30003E370B279637962F38613B2
:10480C00637196F90200FCF7EAF8E37860F347036A
:10481C00E370F278237962F306032371337903F0A2
:10482C000102237903F07F0343EAC2132371337926
:10483C00C3F34502637923F03F0313436371A379F8
:10484C0067F34703A3712B78AA78E3716B7802F0B6
:10485C001F0203F0070343EAC20323726B88C3F3FE
:10486C004512637A23F03F03134363722B7903F0F1
:10487C000302637A03F03F0343EA82136372AB884B
:10488C00C3F38703A3726B79C3F38002E37A23F03B
:10489C0001031343E372AB7903F07F02E37A03F075
:1048AC00010343EA4203E372EB88C3F3C312237B95
:1048BC0023F00F03134323732B7AAA7AE3736B7AD7
:1048CC0002F01F0203F0070343EAC20323746B894F
:1048DC00C3F34512637C23F03F03134363742B7BB8
:1048EC0003F00302637C03F03F0343EA8213637417
:1048FC00AB89C3F38703A3746B7BC3F38002E37CA4
:10490C0023F001031343E374AB7B03F07F02E37CDE
:10491C0003F0010343EA4203E374EB89C3F3C312CC
:10492C00237D23F00F03134323752B8ADB08637558
:10493C006B8ADB08A375AB8ADB08E375EB8ADB08B3
:10494C0023762B8BB3F5C06F3AD2B3F5007F94BFAF
:10495C0000230123227B63F3051222736B8BB3F5C7
:10496C00C06F2FD2B3F5007F94BF00230123227BAD
:10497C0063F387122273AB8BB3F5C06F24D2B3F5FC
:10498C00007F94BF00230123227D63F3051222755F
:10499C00EB8BB3F5C06F19D2B3F5007F94BF002336
:1049AC000123227D63F38712089B22751F4404F1B7
:1049BC001902BB420CD013F8011B02F8011BF8E7DB
:1049CC000223C7E70223D2E70223DDE70223E8E74D
:1049DC004FF6FF7321460DF106000D22ADF806309F
:1049EC00FDF760FC2146BDF806304C2221F80D3F46
:1049FC00FDF758FCBDF80630A4F8593002B0BDE8FC
:104A0C00F08100BFF004002013B59DF81040CDE9F3
:104A1C00003413460A460021FFF7C6FE02B010BD53
:104A2C0013B5144B0288DB8B04469A421DD1837854
:104A3C0003F0F003102B01D0202B18D1A379A52B58
:104A4C0015D84FF6FF730DF1060059222146ADF82B
:104A5C000630FDF727FCB4F85900BDF80630984233
:104A6C0014BF0420002002B010BD0120FBE702207F
:104A7C00F9E700BFF004002030B5334B027893F80F
:104A8C00261000F1170461F30302027093F827104B
:104A9C0061F30712027093F82810427861F3030255
:104AAC00427093F8291061F30712427093F82A10A0
:104ABC00827861F30302827093F83210827961F389
:104ACC000302827193F82B10827861F307128270C3
:104ADC0093F82C10C27861F30302C27093F82D1076
:104AEC0061F30712C27093F82E10027961F303027E
:104AFC00027193F82F1061F30712027193F83010C2
:104B0C00427961F30302427103F13A0100F10B02A5
:104B1C0011F9015B02F8015BA242F9D193F846103E
:104B2C00C27D61F30102C27593F8471061F38302F1
:104B3C00C27593F8481061F30512C27593F84930A9
:104B4C0063F38712C27530BD4805002002782F4BE5
:104B5C00C2F3030230B583F82620027803F13A0140
:104B6C00C2F3031283F82720427800F11704C2F332
:104B7C00030283F828204278C2F3031283F8292019
:104B8C008278C2F3030283F82A208279C2F30302EB
:104B9C0083F832208278C2F3031283F82B20C27878
:104BAC00C2F3030283F82C20C278C2F3031283F8F9
:104BBC002D200279C2F3030283F82E200279C2F36E
:104BCC00031283F82F204279C2F3030283F83020BA
:104BDC0000F10B0212F9015BA24201F8015BF9D161
:104BEC00C27DC2F3010283F84620C27DC2F381026A
:104BFC0083F84720C27DC2F3011283F84820C27D9E
:104C0C00C2F3811283F8492030BD00BF4805002053
:104C1C001FB58DF80C300123019303AB00931346A1
:104C2C000A460221FFF7C0FD05B05DF804FB000049
:104C3C000123F0B5204D044685F8723085B0B0F8EC
:104C4C000900FCF7B8F86E466867B4F80B3014220C
:104C5C0004F10D0105F17A00A5F87830FCF715F98F
:104C6C0094F9213004F1230085F88F3094F8223028
:104C7C0004F1510785F89030FFF768FF04F1410308
:104C8C00324618685968083303C2BB421646F7D13E
:104C9C002C23082269460948FBF7EAFF94F85130A7
:104CAC00A5F86C3094F85230A5F86E3094F8533067
:104CBC00A5F8703005B0F0BD0407002042070020B5
:104CCC002DE9F0474FF0400A92B00DF10809064665
:104CDC000F4690460021524648460DF09BFB22237E
:104CEC00194C1A4D21780DF10A0005EB0111062221
:104CFC0001F589718DF80830FCF7B6F8237805A812
:104D0C0005EB031205EB031595F8194192F81B11ED
:104D1C009DF8113092F81A2104F00F0444EA0214A1
:104D2C0061F303038DF811308DF81040FFF7A4FEEA
:104D3C0043463A4602213046CDE9009AFFF734FD4E
:104D4C0012B0BDE8F08700BFF00400204805002039
:104D5C0000230A4A8380126883718260084A838127
:104D6C000384136803615368064A436113688361C3
:104D7C005368C3614EF660230360704750350020C2
:104D8C00E6290108EF29010810B5104C0220FFF7A5
:104D9C00BDF92046FFF792FC20466FF07F01FFF72C
:104DAC0019FC002120460BF042FF4FF47A70FEF7FD
:104DBC00CBF9204601210BF051FF236920461978CD
:104DCC00FFF7EAFB2046FFF779FC10BD40260020D8
:104DDC001B4B1A6890F820301BB980F82130826088
:104DEC0019E090F82130013B5BB2002B80F82130A8
:104DFC000ADC002380F82030F1E7012303711CE06A
:104E0C004379002BF9D170478368D21AB2F57A6FC7
:104E1C0001D9012343710379002BF1D0094B427B5B
:104E2C001B781AB1022B1CBF032202739A1E534229
:104E3C0053414373837913B1032303737047704752
:104E4C0050350020C50800200346007B821E012A35
:104E5C004FF0000202D893F8201009B91A7370476A
:104E6C00104670470A4A38B51388044601339BB282
:104E7C00502B0D4601D8138038BD002305491380F3
:104E8C00FDF75BFE29462046FDF757FEF4E700BF11
:104E9C00E00D0020F12A01082DE9F74F16460546D2
:104EAC00884600277049FDF748FE31462846FDF735
:104EBC0044FE6E4BB8F1010F6D4C1F8011D14FF4B5
:104ECC0000434FF48047636146F2A8102761FEF758
:104EDC003BF96761FEF738F931462846FFF7C2FF08
:104EEC00F2E7B8F1020F11D14FF480434FF40047B1
:104EFC00636146F2A8102761FEF726F96761FEF799
:104F0C0023F931462846FFF7ADFFF2E7B8F1030F5E
:104F1C0011D14FF400434FF48047236146F2A8109F
:104F2C002761FEF711F96761FEF70EF93146284645
:104F3C00FFF798FFF2E7B8F1040F11D14FF480435B
:104F4C004FF40047236146F2A8102761FEF7FCF8E6
:104F5C006761FEF7F9F831462846FFF783FFF2E761
:104F6C00B8F1050F14D14FF480484FF4004746F2C6
:104F7C00A810C4F810802761FEF7E6F8C4F8148076
:104F8C006761FEF7E1F831462846FFF76BFFEEE765
:104F9C00B8F1060F14D14FF480484FF4004746F295
:104FAC00A810C4F810806761FEF7CEF8C4F814801E
:104FBC002761FEF7C9F831462846FFF753FFEEE7A5
:104FCC00A8F10A03042B40D84FF4004B4FF480494E
:104FDC00A8F1090A5FFA8AFA0423574538BFC4F8C6
:104FEC0010B0019346F2A810C4F81090FEF7ACF87C
:104FFC00C4F81490FEF7A8F831462846FFF732FFA4
:10500C00019B013B13F0FF03EBD10423C4F814B054
:10501C00019346F2A810C4F81090FEF795F8C4F866
:10502C001490FEF791F831462846FFF71BFF019BC1
:10503C00013B13F0FF03EBD10137A8F10803FFB2DA
:10504C00DBB2BB4238BF0027C6E74FF48043236175
:10505C004FF4004323614CF25030FEF775F83146A3
:10506C002846FFF7FFFEF6E7F12A0108E00D0020C5
:10507C00001001406FF00102094B0A491A610A88BD
:10508C00013A92B20A800A8892B23AB9DA6822F0EE
:10509C000102DA601A6822F001021A60704700BF40
:1050AC00002C0140120800206FF00102054B1A6120
:1050BC00DA6822F00102DA601A6822F001021A6042
:1050CC00704700BF002C014010B5214C88B0FFF791
:1050DC00EBFF204901230A221F48FDF7E8FD20467B
:1050EC0000224FF47A71FDF7EDFD0023CDE9013379
:1050FC0003936023022200934FF480730492CDE952
:10510C00052301216A46204607930BF089F9134ABF
:10511C00D2F8183C23F00403C2F8183CA2F5005254
:10512C00536823F0E06323F0C00343F0E06343F0E3
:10513C0040035360E022636C43F400436364084B08
:10514C0083F819234FF000721A6008B010BD00BF2D
:10515C00002C014001000104000801400020014026
:10516C0000E100E0074BB3FBF1F1074BD9624908B2
:10517C0059631A6842F001021A601A6A42F001027D
:10518C001A62704740420F00002C01400C480D4B36
:10519C00B0FBF1F051434FF47A72B1FBF2F1D862EB
:1051AC004008586319630121074A11801A680A43A1
:1051BC001A601A6A0A431A62DA680A43DA6070479C
:1051CC0040420F00002C01401208002019B94FF486
:1051DC00FA71FFF7C7BF182905D84FF4FA724FF4CC
:1051EC00FA71FFF7D3BF4A2901D8FA22F7E76329EE
:1051FC0001D83222F3E7FFF757BF0000044B1B68BE
:10520C00DB0704D428224FF4FA71FFF7BFBF7047B5
:10521C00002C014010B5044694F9013008468B422D
:10522C0001D1237823B901232370FDF767FF607048
:10523C0010BD000037B50C461D4668B907480DF186
:10524C0006020DF107010BF016FE2B4622469DF8C7
:10525C00061002480BF0C5FC03B030BD4026002000
:10526C0070B50D4616461C460146B0B9FDF798FEC2
:10527C000C4833462A460BF08DFC4FF6FF7109485B
:10528C000BF089FD22010748012192B20BF0ADFD14
:10529C00BDE870407D20FDF757BF0248FFF70EFABE
:1052AC0070BD00BF402600202DE9F0414FF05B0897
:1052BC0005461E4C0E464246002120460DF0AAF82B
:1052CC002B691B4F23606B6939786360194B1A4D3E
:1052DC001B7805EB01119A1E53425341627A04F17B
:1052EC000A0063F30002627201F589710622FBF772
:1052FC00BBFD3B78592105EB031595F81A21237C4E
:10530C00204662F30713237495F81B21637C62F328
:10531C0003036374FCF7DEFF4246A4F859002146F0
:10532C0030463B7FBDE8F041FFF79ABF7526002061
:10533C00F0040020C50800204805002037B50C46B5
:10534C00A8B9124803699D7A9DB101F18E020DF145
:10535C0006010BF074FDBDF90630002B10DB4FF687
:10536C00FF73ADF80630BDF8063084F88C3003B00E
:10537C0030BD0DF106010BF048FE84F88E50EAE7C3
:10538C007F33F0DA4FF68173EBE700BF4026002045
:10539C0070B50D460646114C5B2322462146284625
:1053AC00FFF748FFD6E90613206862689A4208BFE7
:1053BC00884211D120465921FCF78CFFB4F8594092
:1053CC00231A5C425C4128460549FFF7B7FF002CC5
:1053DC000CBF0120022070BD0024F4E787240020BC
:1053EC00982500200A4608B501460148FFF754FDF0
:1053FC0028000020164600B591B0044668461D46AC
:10540C000DF02CF8184968460DF00CF830460BF0EE
:10541C00EFFA014668460DF005F8144968460DF0A0
:10542C0001F8134B684653F825100CF0FBFF11499B
:10543C0068460CF0F7FF104D9DF84830684655F85B
:10544C0023100CF0EFFF0D4968460CF0EBFF9DF8B4
:10545C004C30684655F823100CF0E4FF6A462146A0
:10546C000748FFF719FD00BFF8290108FF290108BB
:10547C0000000020042A0108180000200B2A010853
:10548C002800002000230370837043700371437164
:10549C00C3707047002203784271022B04D0032B97
:1054AC0009D0012B16D0FEE70123037143718378D9
:1054BC004370C370704783784278991AA3EB020249
:1054CC0018BF012112F0060F18BF0122017118BF7D
:1054DC004271EDE70271704702788170002A0CBFAF
:1054EC00022203220270FFF7D5BF00002822074BCF
:1054FC0002FB00339B681A78542A05D15878A0F126
:10550C007803584258417047002070473C390108D5
:10551C002822074B02FB00339B681A78522A05D1CC
:10552C005878A0F1780358425841704700207047D2
:10553C003C3901082822074B02FB00339B681A7880
:10554C00542A04D15878783818BF012070470120AC
:10555C00704700BF3C390108282343430A4A10B561
:10556C00D1580446FFF7D4FF40B92046FFF7BEFFE1
:10557C00064B1B7820B1142202FB0311084610BD08
:10558C0001EB0311FAE700BF3C390108F0040020DD
:10559C00292838B505460C4631D82822194B02FB70
:1055AC0000331B79042B07D84BB3023B022B05D8D5
:1055BC00DFE803F011171F00FE2B20D12846FFF760
:1055CC00CBFF0378E4B2A34219D004702846BDE89F
:1055DC003840FFF7AFBFFFF7BFFF64B290F9003060
:1055EC00F1E7FFF7B9FF0288A3B29A4207D0048013
:1055FC00ECE7FFF7B1FF23B2B0F90020F5E700208C
:10560C0038BD00BF3C390108292838B504460D4681
:10561C0019D828220D4B02FB00331B79FF2B12D11A
:10562C00FFF79AFF06222946FBF741FC58B92046A2
:10563C00FFF792FF29460622FBF727FC2046BDE820
:10564C003840FFF777BF002038BD00BF3C39010858
:10565C002DE9F043154628224A4307463448012BCE
:10566C0000EB0204246A87B027D1324B82580229FE
:10567C0008BF1C46304B9A4230D03049243B9A42EA
:10568C0008BF0C46FF234FF0000801268DF80030B0
:10569C002046FAF75FFD5FFA88F9484522D914F8DD
:1056AC0009302C2B06D106F118036B44013603F894
:1056BC00188CF6B208F10108EAE7022BE2D1204B74
:1056CC008258022908BF1C461B4B9A4208D0A3F1F2
:1056DC0024018A4204D01B491E3BD0E7174CD1E76A
:1056EC00194CCFE706F118036B44AE4203F8188C43
:1056FC0004D80020387007B0BDE8F08305F118031A
:10570C000DEB0305002315F8181C15F9175C013176
:10571C00C9B25A18D2B2AA4207EB030004DAA25C4F
:10572C000133DBB20270F4E7002303700120E2E7DF
:10573C003C390108122A010893050020782A010837
:10574C004B2A0108D62A0108AC2A01082822054B4D
:10575C0002FB00335B6A0BB1188870474FF6FF7081
:10576C00704700BF3C39010828220B4B70B502FB77
:10577C0000331E6A3046FAF7EDFC0022044611464F
:10578C00D5B24B1CAC42D8B205D9735D01322C2B6F
:10579C0008BF0146F4E770BD3C39010828220F4BC5
:1057AC00014602FB00331B7910B5FE2B13D1FFF71A
:1057BC00CDFF04460846FFF7D7FF002201461046EE
:1057CC00D3B2994208D944FA02F3DB0744BF431C15
:1057DC00D8B20132F4E7FF2010BD00BF3C390108FC
:1057EC002DE9F04F002405460F46A0461D4E93B000
:1057FC004FF0000AD6F808905FFA84FB5FFA8AF142
:10580C0048460191FAF7A6FC019901F14803884238
:10581C006B4411D919F8010001930CF0C1FEC0B210
:10582C00202808BF5F22019B0AF1010A14BF03F86C
:10583C00400C03F8402CE1E7394603F8408C02A8F1
:10584C00FAF77EFC28B9012085F800B013B0BDE84A
:10585C00F08F01342A2C06F12806C9D1002085F8D6
:10586C000080F3E73C39010828232DE9F0411D4E57
:10587C00044603FB016633790D46FE2B174618D000
:10588C00FF2B21D0022B28D10846FFF765FE2146BD
:10589C0090F900000BF04FF835692B783BB11249A9
:1058AC0020460CF0BFFD294620460CF0BBFD012024
:1058BC0015E00846FFF750FE3B4629460278204685
:1058CC00BDE8F041FFF7C4BE0846FFF745FE0622CF
:1058DC0001462046FBF7D9FAE9E700202070BDE825
:1058EC00F08100BF3C3901080E2B0108F8B51646B3
:1058FC0028220024174B074602FB06331A790D4663
:10590C00022A047003D0FE2A13D02046F8BD93F966
:10591C0018208A42F9DC93F91C309942F5DC4FF0DF
:10592C000001304665F30701FFF732FE01243870A1
:10593C00EBE70029E9DB3046FFF716FFA842E4DD70
:10594C003046FFF703FF40FA05F313F00100E6D1F0
:10595C000446DAE73C3901082DE9F84300231746E1
:10596C0028220370114B064602FB07331B790C46A9
:10597C00FF2B03D000252846BDE8F8830846FAF72C
:10598C00E9FB0628F6D104F1FF3804F1050918F8F3
:10599C00010FFBF7E7F805460028EBD0C845F6D118
:1059AC0021463846FFF730FE3070E4E73C390108F9
:1059BC004FF0280CF8B500270F4B04460CFB0233B4
:1059CC001B790E46FE2B1546077004D0FF2B0CD00E
:1059DC00013B032B0DD830460CF0BEFC2A46014689
:1059EC002046BDE8F840FFF781BFBDE8F840FFF75F
:1059FC00B3BF3846F8BD00BF3C390108038810B569
:105A0C00B3F5407F044607D949F64040FDF79CFBAF
:105A1C002388A3F50073238010BD10B5044640689D
:105A2C00FDF77FF823880BB1013323802046FFF765
:105A3C00E5FF10BD70B5044640680E46FDF77DF8D5
:105A4C00258825B13046FAF785FB0544258020468C
:105A5C00FFF7D4FF70BDF8B50446406804F10A079F
:105A6C000D46FDF76AF839466068FDF766F826883A
:105A7C004EB12846FAF76EFB05463846FAF76AFB34
:105A8C000544354425802046FFF7B8FFF8BD0000DB
:105A9C0038B5416000394FF0000518BF01210446AC
:105AAC000172457207490A300CF0D8FC84F88E500C
:105ABC00A573C4F8905084F8945084F89C502580B9
:105ACC0038BD00BFEE2A0108437A8B420DD0012964
