:020000040800F2
:100000000050002045E500082DE500082FE5000818
:1000100031E5000833E5000835E500080000000080
:1000200000000000000000000000000037E50008AC
:1000300039E50008000000003BE500083DE5000848
:100040008DE500088DE500088DE500088DE50008C8
:100050008DE500088DE500088DE500088DE50008B8
:100060008DE500088DE500088DE500088DE50008A8
:100070008DE500088DE500088DE500088DE5000898
:100080001D400008294000088DE500088DE50008A6
:100090008DE500088DE500088DE5000819CC000805
:1000A0008DE500088DE500088DE500088DE5000868
:1000B0008DE50008715700088DE50008054000082F
:1000C000114000088DE500088DE500088DE5000869
:1000D0008DE50008353C00081D6C00083D970008C0
:1000E0008DE500088DE500088DE5000800000000A2
:1000F0000000000000000000000000000000000000
:0C01000000000000000000005FF808F1A3
:1001100010B5054C237833B9044B13B10448AFF341
:1001200000800123237010BDB000002000000000FB
:10013000C82C010808B5034B1BB103490348AFF3B2
:10014000008008BD00000000B4000020C82C010899
:1001500010F8012B11F8013B012A28BF9A42F7D071
:10016000D01A7047034613F8012B002AFBD1181A46
:100170000138704781F0004102E000BF83F0004386
:1001800030B54FEA41044FEA430594EA050F08BF32
:1001900090EA020F1FBF54EA000C55EA020C7FEAF6
:1001A000645C7FEA655C00F0E2804FEA5454D4EB73
:1001B0005555B8BF6D420CDD2C4480EA020281EA3D
:1001C000030382EA000083EA010180EA020281EA75
:1001D0000303362D88BF30BD11F0004F4FEA0131C7
:1001E0004FF4801C4CEA113102D0404261EB4101D6
:1001F00013F0004F4FEA03334CEA133302D052425C
:1002000063EB430394EA050F00F0A780A4F1010417
:10021000D5F1200E0DDB02FA0EFC22FA05F2801851
:1002200041F1000103FA0EF2801843FA05F3594137
:100230000EE0A5F120050EF1200E012A03FA0EFCB6
:1002400028BF4CF0020C43FA05F3C01851EBE371E0
:1002500001F0004507D54FF0000EDCF1000C7EEBFD
:1002600000006EEB0101B1F5801F1BD3B1F5001F3B
:100270000CD349085FEA30004FEA3C0C04F101045A
:100280004FEA445212F5800F80F09A80BCF1004F83
:1002900008BF5FEA500C50F1000041EB045141EA05
:1002A000050130BD5FEA4C0C404141EB0101013CCE
:1002B00028BFB1F5801FE9D291F0000F04BF0146BD
:1002C0000020B1FA81F308BF2033A3F10B03B3F18F
:1002D00020020CDA0C3208DD02F1140CC2F10C021F
:1002E00001FA0CF021FA02F10CE002F11402D8BF7D
:1002F000C2F1200C01FA02F120FA0CFCDCBF41EA49
:100300000C019040E41AA2BF01EB0451294330BD17
:100310006FEA04041F3C1CDA0C340EDC04F11404F4
:10032000C4F1200220FA04F001FA02F340EA0300CB
:1003300021FA04F345EA030130BDC4F10C04C4F111
:10034000200220FA02F001FA04F340EA03002946F1
:1003500030BD21FA04F0294630BD94F0000F83F43B
:10036000801306BF81F480110134013D4EE77FEA1E
:10037000645C18BF7FEA655C29D094EA050F08BF6A
:1003800090EA020F05D054EA000C04BF194610464B
:1003900030BD91EA030F1EBF0021002030BD5FEA8F
:1003A000545C05D14000494128BF41F0004130BDB7
:1003B00014F580043CBF01F5801130BD01F000450B
:1003C00045F0FE4141F470014FF0000030BD7FEA7E
:1003D000645C1ABF194610467FEA655C1CBF0B4679
:1003E000024650EA013406BF52EA033591EA030F90
:1003F00041F4002130BD00BF90F0000F04BF002188
:10040000704730B54FF4806404F132044FF00005BA
:100410004FF0000150E700BF90F0000F04BF002133
:10042000704730B54FF4806404F1320410F0004599
:1004300048BF40424FF000013EE700BF42004FEA94
:10044000E2014FEA31014FEA02701FBF12F07F4311
:1004500093F07F4F81F06051704732F07F4208BFC8
:10046000704793F07F4F04BF41F40021704730B5CF
:100470004FF4607401F0004521F000411CE700BF1B
:1004800050EA010208BF704730B54FF000050AE09E
:1004900050EA010208BF704730B511F0004502D59F
:1004A000404261EB41014FF4806404F132045FEAA1
:1004B000915C3FF4D8AE4FF003025FEADC0C18BF4A
:1004C00003325FEADC0C18BF033202EBDC02C2F13C
:1004D000200300FA03FC20FA02F001FA03FE40EACE
:1004E0000E0021FA02F11444BDE600BF70B54FF0D2
:1004F000FF0C4CF4E06C1CEA11541DBF1CEA1355B0
:1005000094EA0C0F95EA0C0F00F0DEF82C4481EA17
:10051000030621EA4C5123EA4C5350EA013518BF37
:1005200052EA033541F4801143F4801338D0A0FB24
:1005300002CE4FF00005E1FB02E506F00042E0FBD1
:1005400003E54FF00006E1FB03569CF0000F18BFD7
:100550004EF0010EA4F1FF04B6F5007F64F540747F
:1005600004D25FEA4E0E6D4146EB060642EAC62112
:1005700041EA55514FEAC52040EA5E504FEACE2E7F
:10058000B4F1FD0C88BFBCF5E06F1ED8BEF1004F82
:1005900008BF5FEA500E50F1000041EB045170BDFE
:1005A00006F0004646EA010140EA020081EA030142
:1005B000B4EB5C04C2BFD4EB0C0541EA045170BD3E
:1005C00041F480114FF0000E013C00F3AB8014F1B8
:1005D000360FDEBF002001F0004170BDC4F1000401
:1005E000203C35DA0C341BDC04F11404C4F1200582
:1005F00000FA05F320FA04F001FA05F240EA0200DD
:1006000001F0004221F0004110EBD37021FA04F612
:1006100042EB06015EEA430E08BF20EAD37070BDCC
:10062000C4F10C04C4F1200500FA04F320FA05F02B
:1006300001FA04F240EA020001F0004110EBD3702D
:1006400041F100015EEA430E08BF20EAD37070BD9D
:10065000C4F1200500FA05F24EEA020E20FA04F376
:1006600001FA05F243EA020321FA04F001F0004125
:1006700021FA04F220EA020000EBD3705EEA430E96
:1006800008BF20EAD37070BD94F0000F0FD101F0C5
:100690000046400041EB010111F4801F08BF013CFE
:1006A000F7D041EA060195F0000F18BF704703F03C
:1006B0000046520043EB030313F4801F08BF013DC3
:1006C000F7D043EA0603704794EA0C0F0CEA13557F
:1006D00018BF95EA0C0F0CD050EA410618BF52EA39
:1006E0004306D1D181EA030101F000414FF000003F
:1006F00070BD50EA410606BF1046194652EA43064D
:1007000019D094EA0C0F02D150EA013613D195EAC0
:100710000C0F05D152EA03361CBF104619460AD108
:1007200081EA030101F0004141F0FE4141F4700112
:100730004FF0000070BD41F0FE4141F4780170BD02
:1007400070B54FF0FF0C4CF4E06C1CEA11541DBF67
:100750001CEA135594EA0C0F95EA0C0F00F0A7F869
:10076000A4EB050481EA030E52EA03354FEA013196
:1007700000F088804FEA03334FF0805545EA1313A9
:1007800043EA12634FEA022245EA111545EA106571
:100790004FEA00260EF000419D4208BF964244F108
:1007A000FD0404F5407402D25B084FEA3202B61A27
:1007B00065EB03055B084FEA32024FF480104FF4FB
:1007C000002CB6EB020E75EB030E22BFB61A75466F
:1007D00040EA0C005B084FEA3202B6EB020E75EB02
:1007E000030E22BFB61A754640EA5C005B084FEA6A
:1007F0003202B6EB020E75EB030E22BFB61A754637
:1008000040EA9C005B084FEA3202B6EB020E75EB41
:10081000030E22BFB61A754640EADC0055EA060E02
:1008200018D04FEA051545EA16754FEA06164FEA45
:10083000C30343EA52734FEAC2025FEA1C1CC0D1F1
:1008400011F4801F0BD141EA00014FF000004FF07E
:10085000004CB6E711F4801F04BF01430020B4F13F
:10086000FD0C88BFBCF5E06F3FF6AFAEB5EB030CF7
:1008700004BFB6EB020C5FEA500C50F1000041EBF4
:10088000045170BD0EF0004E4EEA113114EB5C04C1
:10089000C2BFD4EB0C0541EA045170BD41F4801194
:1008A0004FF0000E013C90E645EA060E8DE60CEA9C
:1008B000135594EA0C0F08BF95EA0C0F3FF43BAFB9
:1008C00094EA0C0F0AD150EA01347FF434AF95EA70
:1008D0000C0F7FF425AF104619462CE795EA0C0F54
:1008E00006D152EA03353FF4FDAE1046194622E721
:1008F00050EA410618BF52EA43067FF4C5AE50EAFB
:1009000041047FF40DAF52EA43057FF4EBAE12E7EA
:100910004A0011D212F5001211D20DD56FF478737E
:10092000B3EB62520ED44FEAC12343F0004343EAD3
:10093000505323FA02F070474FF00000704750EA1E
:10094000013002D14FF0FF3070474FF00000704788
:1009500080F0004002E000BF81F0004142001FBF74
:100960005FEA410392EA030F7FEA226C7FEA236C7D
:100970006AD04FEA1262D2EB1363C1BFD218414072
:1009800048404140B8BF5B42192B88BF704710F008
:10099000004F40F4000020F07F4018BF404211F0AB
:1009A000004F41F4000121F07F4118BF494292EA13
:1009B000030F3FD0A2F1010241FA03FC10EB0C003F
:1009C000C3F1200301FA03F100F0004302D54942CC
:1009D00060EB4000B0F5000F13D3B0F1807F06D379
:1009E00040084FEA310102F10102FE2A51D2B1F171
:1009F000004F40EBC25008BF20F0010040EA030066
:100A00007047490040EB0000013A28BFB0F5000FE5
:100A1000EDD2B0FA80FCACF1080CB2EB0C0200FA9B
:100A20000CF0AABF00EBC25052421843BCBFD040EA
:100A30001843704792F0000F81F4000106BF80F464
:100A400000000132013BB5E74FEA41037FEA226C27
:100A500018BF7FEA236C21D092EA030F04D092F0F2
:100A6000000F08BF0846704790EA010F1CBF002026
:100A7000704712F07F4F04D1400028BF40F0004083
:100A8000704712F100723CBF00F50000704700F0A3
:100A9000004343F0FE4040F4000070477FEA2262CA
:100AA00016BF08467FEA23630146420206BF5FEA9B
:100AB000412390EA010F40F4800070474FF000039B
:100AC00004E000BF10F0004348BF40425FEA000C62
:100AD00008BF704743F0964301464FF000001CE00A
:100AE00050EA010208BF70474FF000030AE000BF60
:100AF00050EA010208BF704711F0004302D540429E
:100B000061EB41015FEA010C02BF8446014600200F
:100B100043F0B64308BFA3F18053A3F50003BCFA2A
:100B20008CF2083AA3EBC25310DB01FA02FC6344D7
:100B300000FA02FCC2F12002BCF1004F20FA02F2DE
:100B400043EB020008BF20F00100704702F12002D1
:100B500001FA02FCC2F1200250EA4C0021FA02F232
:100B600043EB020008BF20EADC7070474FF0FF0C37
:100B70001CEAD0521EBF1CEAD15392EA0C0F93EA32
:100B80000C0F6FD01A4480EA010C400218BF5FEAD4
:100B900041211ED04FF0006343EA501043EA511147
:100BA000A0FB01310CF00040B1F5000F3EBF490041
:100BB00041EAD3715B0040EA010062F17F02FD2A45
:100BC0001DD8B3F1004F40EBC25008BF20F0010028
:100BD000704790F0000F0CF0004C08BF49024CEA3F
:100BE000502040EA51207F3AC2BFD2F1FF0340EAD1
:100BF000C250704740F400004FF00003013A5DDC42
:100C000012F1190FDCBF00F000407047C2F1000282
:100C1000410021FA02F1C2F1200200FA02FC5FEA6F
:100C2000310040F1000053EA4C0308BF20EADC70B9
:100C3000704792F0000F00F0004C02BF400010F42B
:100C4000000F013AF9D040EA0C0093F0000F01F0D8
:100C5000004C02BF490011F4000F013BF9D041EAFA
:100C60000C018FE70CEAD15392EA0C0F18BF93EAFC
:100C70000C0F0AD030F0004C18BF31F0004CD8D126
:100C800080EA010000F00040704790F0000F17BFAD
:100C900090F0004F084691F0000F91F0004F14D0F3
:100CA00092EA0C0F01D142020FD193EA0C0F03D14B
:100CB0004B0218BF084608D180EA010000F000404E
:100CC00040F0FE4040F40000704740F0FE4040F429
:100CD000400070474FF0FF0C1CEAD0521EBF1CEAC8
:100CE000D15392EA0C0F93EA0C0F69D0A2EB0302E6
:100CF00080EA010C49024FEA402037D04FF0805380
:100D000043EA111143EA10130CF000408B4238BF44
:100D10005B0042F17D024FF4000C8B4224BF5B1A52
:100D200040EA0C00B3EB510F24BFA3EB510340EAA0
:100D30005C00B3EB910F24BFA3EB910340EA9C004E
:100D4000B3EBD10F24BFA3EBD10340EADC001B01BE
:100D500018BF5FEA1C1CE0D1FD2A3FF650AF8B4262
:100D600040EBC25008BF20F0010070470CF0004C6F
:100D70004CEA50207F32C2BFD2F1FF0340EAC2509A
:100D8000704740F400004FF00003013A37E792F05B
:100D9000000F00F0004C02BF400010F4000F013AB9
:100DA000F9D040EA0C0093F0000F01F0004C02BFB4
:100DB000490011F4000F013BF9D041EA0C0195E71D
:100DC0000CEAD15392EA0C0F08D142027FF47DAFB6
:100DD00093EA0C0F7FF470AF084676E793EA0C0FA6
:100DE00004D14B023FF44CAF08466EE730F0004CA4
:100DF00018BF31F0004CCAD130F000427FF45CAF34
:100E000031F000437FF43CAF5FE700BF4FF0FF3CA1
:100E100006E000BF4FF0010C02E000BF4FF0010CF4
:100E20004DF804CD4FEA40024FEA41037FEA226CBD
:100E300018BF7FEA236C11D001B052EA530C18BFDF
:100E400090EA010F58BFB2EB030088BFC81738BF44
:100E50006FEAE17018BF40F0010070477FEA226C32
:100E600002D15FEA402C05D17FEA236CE4D15FEA2E
:100E7000412CE1D05DF8040B704700BF8446084662
:100E80006146FFE70FB5FFF7C9FF002848BF10F123
:100E9000000F0FBD4DF808EDFFF7F4FF0CBF012068
:100EA00000205DF808FB00BF4DF808EDFFF7EAFFF2
:100EB00034BF012000205DF808FB00BF4DF808EDAD
:100EC000FFF7E0FF94BF012000205DF808FB00BFA2
:100ED0004DF808EDFFF7D2FF94BF012000205DF828
:100EE00008FB00BF4DF808EDFFF7C8FF34BF012035
:100EF00000205DF808FB00BF4FEA40024FEA4103C3
:100F00007FEA226C02D15FEA402C08D17FEA236C91
:100F100002D15FEA412C02D14FF0000070474FF040
:100F2000010070474FEA4002B2F1FE4F0FD34FF07D
:100F30009E03B3EB12620DD94FEA002343F0004346
:100F400010F0004F23FA02F018BF404270474FF0F4
:100F50000000704712F1610F01D1420205D110F07B
:100F6000004008BF6FF0004070474FF0000070472E
:100F700042000ED2B2F1FE4F0BD34FF09E03B3EB03
:100F8000126209D44FEA002343F0004323FA02F02F
:100F900070474FF00000704712F1610F01D142021B
:100FA00002D14FF0FF3070474FF00000704700BF94
:100FB0000022427082700122C2700222B1FA81F1D5
:100FC00002710322490901704271704743788B42D4
:100FD0001FD0012941700AD0022910D0C1B90123C4
:100FE000C370022381700371032343717047037838
:100FF00043B1012383700223C3700023F3E7037816
:10100000002BF6D0022383700023C3700123EAE78C
:10101000FEE770470B8882B0ADF800304B8802398C
:10102000ADF80230CB88ADF804300B89ADF806304E
:10103000831C063013F8012B0DF1080C0CEB420257
:1010400032F8082C834221F8022FF3D102B0704706
:101050004FF07F32034BC0E91E23034BC0F88030B2
:10106000704700BFFFFF7F0000FFFF0010B5044680
:101070001146A0F8842000F0FEFBB4F8841004F1BF
:10108000140000F0F8FBB4F8841004F1280000F01C
:10109000F2FBB4F8841004F13C0000F0ECFBB4F86F
:1010A000841004F1500000F0E6FB04F16400B4F891
:1010B000841000F0E0FB2046FFF7CAFF0023A4F8ED
:1010C0008630FF2384F8883010BD704700F0DABB0B
:1010D000143000F0D7BB08B5503000F0DDFB00F154
:1010E000140302462920B3FBF0F313F0FF0002D1F2
:1010F000101E18BF012008BD08B5643000F0CCFBFD
:1011000000F1140302462920B3FBF0F313F0FF00B3
:1011100002D1101E18BF012008BD90F87C3013B911
:1011200090F97800704790F97900704790F87C301A
:1011300013B990F97A00704790F97B00704710B5A9
:1011400004460BF0F3FE38B104F13C0000F09EFBC6
:10115000012838BF0120C0B210BD10B5044600F010
:1011600078FB04F1140000F074FB04F1280000F097
:1011700070FB04F13C0000F06CFB04F1500000F047
:1011800074FB04F16400BDE8104000F06EBB7F28E2
:1011900007D0002807DA10F1800F06D04042C0B215
:1011A000704700207047012070477F20704710B1C2
:1011B000404240B270477F2070477F280FD010F127
:1011C000310F0EDA10F1780F0DDBFE23783040B2CC
:1011D000584346232330B0FBF3F0C0B27047FF20E2
:1011E0007047FE20704700207047012805DD40F25F
:1011F000FE73984203DC80B270470120704740F2D2
:10120000FF70704740F2AE73A0F57870C0EBC0205D
:1012100090FBF3F000F58060FFF7E7BFFFF7F2BF48
:10122000032812DD0C2812DD0F2812DD122812DD32
:10123000162812DD192812DD1C2812DD1F2812DDE8
:101240002128CCBFFF2006207047002070470120D6
:10125000704702207047082070470320704707201E
:1012600070470420704705207047022809D00128E4
:1012700009D050B103280AD004280CBF0120FF2058
:101280007047132070471F207047012070476F2060
:10129000704702280ED0012807D040B1032808D09B
:1012A00004280CBF0520FF2070470320704705204D
:1012B00070470B2070477F2808BF0020C0B27047DE
:1012C00052B110B4054C0A4411F8013B58408A420F
:1012D000205CF9D110BC7047704700BF1C2D01087D
:1012E000A0F16103192B0FD95F280DD02338C3B2A9
:1012F000162B97BF05480120D840C04398BF00F087
:10130000010080F0010070470120704701EC7F0070
:10131000F8B5024600245F27451E461D15F8010F4B
:10132000FF2804BF0134E4B2FFF7DAFF00B92F70E1
:10133000AE42F3D1062C04D119B10B6813608B882F
:10134000938000239371F8BD2DE9F8430125002611
:101350004FF02808DFF82C90471E441D17F8011F96
:10136000084811F0F8FB10B1A0EB0900C0B2A0FBD7
:1013700005038619A742A5FB0853EFD13046BDE807
:10138000F88300BF1C2E010810B54179A1F130008F
:10139000C3B2092B07D80523B0FBF3F303EB830398
:1013A000C01AC0B210BD044C204611F0D4FB002876
:1013B000F1D0001BC0B2EEE71C2E010870B5044648
:1013C000FEF7D0FE002382B2561E98B2B04204EB64
:1013D000000103DA255C0133302DF6D0121A0132F8
:1013E0002046BDE8704011F085BB00002DE9F04FAC
:1013F0000D4699B0164600211A461F46804611F048
:1014000093FB00212A2201A8009111F08DFBDFF847
:10141000CC90DFF8CCA0DFF8CCB005EB4606AE42AE
:101420004AD047F6FF7335F9020B984244D00028A2
:1014300012DC59460CA811F09BFB6846FEF792FEA1
:1014400004460CA8FEF78EFE0444A742E7D3684684
:101450000CA911F071FBE2E7B0F57A7F0BDA0CA969
:1014600080B20FF006FD0CA8FFF7A8FF51460CA8AC
:1014700011F062FBE1E764243230B0FBF4F00CA918
:1014800080B20FF0F6FC0CA8FFF798FF0CA8FEF74F
:1014900069FE00F15F036B4413F8302C00F160012A
:1014A0000DEB010000F8302C2E2203F8302C002325
:1014B000494600F82F3CDAE76846FEF753FE30B1A4
:1014C00000F160030DEB0300002300F8613C694666
:1014D000404611F04DFB19B0BDE8F08F182D010802
:1014E000132D01080E2D0108F0B589B06D460024BA
:1014F0002F468E1CE1B28A4205D936F824100134F9
:1015000025F8021BF6E73946FFF770FF09B0F0BD7A
:1015100042F21073B0FBF3F2642103FB1200B0FB44
:10152000F1F301FB130000EB023000EB831080B2FB
:10153000704742F21071020B00F03F0301FB0233CF
:101540006422C0F3851002FB003070472DE9F041A2
:1015500042F21074B1FBF4F6642704FB161488B051
:101560001E49054611F004FB6946F0B20FF060FC1D
:101570006846FFF723FFB4FBF7F6DFF8648069469F
:10158000284611F0D9FA4146284611F0D5FA07FB52
:1015900016446946F0B20FF04BFC6846FFF70EFFA9
:1015A0006946284611F0C8FA4146284611F0C4FAA7
:1015B0006946E0B20FF03CFC9DF8013069468DF8B9
:1015C00000309DF8023028468DF8013000238DF858
:1015D000023011F0B1FA08B0BDE8F081843C010896
:1015E0000238010870B50D4600210446164611F078
:1015F0009BFA00239AB2964204D9EA5C12B1E254F3
:101600000133F7E770BD70B50E4614460021013274
:10161000054611F089FA00239AB2944204D9F25C8B
:1016200012B1EA540133F7E770BD30B50023044628
:1016300098B290420ED2E55CC85C1DB9B0FA80F059
:10164000400930BD0028FCD0854203F10103EFD0F2
:101650000020F6E70120F4E77D23438043F23903BD
:10166000C360002309B201808180C3800372704788
:1016700002680449044B01FB023323F0004303607A
:10168000180C7047FD430300C39E2600F0B50025EB
:1016900097B001608580044656222946684611F0BD
:1016A00043FA0126E27DAA424BD92046FFF7E0FF2C
:1016B000E77900217B1B90FBF3F2EC4602FB130061
:1016C0000A46C0B2CBB29F420AD91CF801EBBEF168
:1016D000000F03D1824204D00132D2B20131F1E7CE
:1016E000002300221146277BD0B2874206D9206909
:1016F000805C0132984208BF0121F5E70029D1D171
:10170000A2796119033A012A05D925B191F9172067
:1017100082B9012BC6D90B76A26852F82310583330
:1017200005F10E026B44013544F8221003F8586CA1
:10173000EDB2B7E7501E8342EDDB01329342EADCA3
:10174000B0E70023802104F1B800A37517B0BDE80D
:10175000F04011F0E9B92DE9F047154696B0013D8A
:101760000160027104464371EDB2562200216846C1
:1017700011F0DAF9022D98BF4FF003094FF000077E
:1017800094F807808ABF4FF00109B8FBF9F80025EB
:101790003E464FF0010AE27DB24250D92046FFF7A3
:1017A00067FFA8EB060390FBF3F2002102FB130096
:1017B000EC460A46C0B2CBB243450AD21CF801EB54
:1017C000BEF1000F03D1824203D00132D2B2013107
:1017D000F1E70020434528BF4346844609FB0351F7
:1017E00094F80CE0C9B2C2B2964507D92269125CDE
:1017F00001308A4208BF4FF0010CF4E7BCF1000F42
:10180000C9D116B19FB9012BC5D9A2191176A26809
:101810001F4652F8211006F10E0244F8221003F17F
:1018200058026A44013602F858ACF6B2B3E77A1EA1
:101830009342EADB7A1CD2B29342E6DCABE70023A8
:10184000802104F1B800A37516B0BDE8F04711F08F
:101850006BB96421D0E90123D31AC3604B43418A99
:101860008260B3FBF1F303747047D0E90123D31A0C
:10187000C0E90223704700234182C0E9023343607C
:10188000037470474368013343607047007C7047BE
:1018900043680B4443607047C0687047002343604F
:1018A000038170470A2310B50446838002F026FCAA
:1018B0002368E0809B68204698474FF62F039842A4
:1018C00028BF1846208110BD038970B504469BB11E
:1018D000858845B1013DADB285806DB903681B684F
:1018E000BDE87040184702F009FCE388C01A23895C
:1018F00080B2834201D2258170BD236820465B6897
:10190000EEE70000C0F17F0080B27F281FD8C1F150
:101910003F0189B23F291AD84FF0010C00B54FEAB8
:10192000D10E0B4B00EBCE1080B2A3F81EC01844B2
:1019300090F8203001F007010CFA01F1D2074CBFFA
:10194000194323EA010180F820105DF804FB704779
:10195000D00000207F281CD83F291AD84FF0010C56
:1019600000B54FEAD10E0B4B00EBCE1080B2A3F8BE
:101970001EC0184490F8203001F007010CFA01F164
:10198000D2074CBF194323EA010180F820105DF80B
:1019900004FB7047D00000207F291FD8C0F13F0012
:1019A00080B23F281AD84FF0010C00B54FEAD00E94
:1019B0000B4B01EBCE1189B2A3F81EC0194491F86C
:1019C000203000F007000CFA00F0D2074CBF18439B
:1019D00023EA000081F820005DF804FB704700BF97
:1019E000D0000020C1F17F0189B27F291CD83F2897
:1019F0001AD84FF0010C00B54FEAD00E0B4B01EB9B
:101A0000CE1189B2A3F81EC0194491F8203000F01D
:101A100007000CFA00F0D2074CBF184323EA00007D
:101A200081F820005DF804FB704700BFD000002063
:101A300030B5124C83B0E38B1BB125881DB1002358
:101A4000E38303B030BD0E4B032293E80300009004
:101A5000ADF804102846694602F0F2FA032228463F
:101A60000DEB020102F0ECFA4FF48062402004F129
:101A7000200102F0FBFA0028E1D0E2E7D0000020CC
:101A8000E02C010808B502F003FB023818BF012062
:101A900008BD00BF104BD88003281AD8DFE800F03B
:101AA000191102170D4A4FF0400C80209A60002156
:101AB00058804FF480620A48A3F804C0D98311F01B
:101AC00033B8084A4FF0800C40209A60EFE7064A8E
:101AD000F8E7064AE7E700BFD00000200519000834
:101AE000F0000020E51900089919000855190008B0
:101AF0004FF0010C044B4FF48062002103F12000F1
:101B0000A3F81EC011F010B8D0000020024B80B224
:101B10009B6889B2184700BFD00000202DE9F04F24
:101B200085B013F1070ABDF9384048BF03F10E0A2A
:101B30001E46002C4FEAEA030746BDF83C9001928E
:101B4000029333DD002E31DD0C4423B203930023D6
:101B50001D46DFF860B0009300231FFA81FADDE92B
:101B6000001202EB010813F0070F9CB208BFDB1054
:101B70004FEA45050CBF18F80350EDB2E01915F017
:101B8000800F80B204D04A465146DBF808309847AF
:101B9000631C1BB29E42E6D1009B029A0AF101012E
:101BA00013440093039B09B29942D5D105B0BDE817
:101BB000F08F00BFD0000020002A2DE9F8431F4617
:101BC00012DB0FD084B22244DFF850808DB296B27F
:101BD000204601343A462946D8F80830A4B298473E
:101BE000B442F5D1BDE8F8834FF0000CDFF82C804B
:101BF000564284B21FFA81F91FFA8CF5601B3A46EF
:101C00004946D8F8083080B2984705F1010C0FFA20
:101C10008CFCB445F0DBBDE8F88300BFD0000020A9
:101C2000002A2DE9F8431F4612DB0FD08CB2224464
:101C3000DFF8508085B296B2214601343A462846F4
:101C4000D8F80830A4B29847B442F5D1BDE8F8837B
:101C50004FF0000CDFF82C8056428CB21FFA80F94E
:101C60001FFA8CF5611B3A464846D8F8083089B20D
:101C7000984705F1010C0FFA8CFCB445F0DBBDE888
:101C8000F88300BFD00000202DE9F04F1F1E83B065
:101C9000B4BF07F1010807F1FF38002ABDF830A0F2
:101CA00000901FFA88F848DB96B206F1FF3083B245
:101CB000019300F09780BDF800904B4DCB464E4409
:101CC0008CB2B6B258460BF1010B52462146AB68B6
:101CD0001FFA8BFB98475E45F4D1A0441FFA88F8A1
:101CE000484609F1010952464146AB681FFA89F995
:101CF00098474E45F4D1002F4EDB1BD02646274493
:101D0000BDF80080384DBFB23146013652464046DC
:101D1000AB68B6B29847B742F6D1019B43441FFA6D
:101D200083F82146013452464046AB68A4B2984736
:101D3000A742F6D103B0BDE8F08F4FF0000B501C66
:101D400083B2294DBDF800908CB2019356421FFA20
:101D50008BFBA9EB0B000BF1010B52462146AB6844
:101D600080B20FFA8BFB98475E45F0DCA0441FFA67
:101D700088FB4FF000081FFA88F8A9EB080008F16B
:101D8000010852465946AB6880B20FFA88F8984766
:101D90004645F0DC002FB0DA0023BDF80090124D6C
:101DA0007F429EB2A11BAB685246484689B2984713
:101DB000731C1BB2BB42F4DB019B4B441FFA83F93B
:101DC00000231FFA83F8A4EB080152464846AE6888
:101DD00089B2B04708F101031BB2BB42F1DB03B08B
:101DE000BDE8F08F8CB286E7D00000202DE9F04FDF
:101DF000002B83B00B448B469146BDF830600193B5
:101E00003ADB99421CDA87B207EB02081FFA88F81E
:101E1000B9F1000F17DB6FD03C46414D1FFA8BFB29
:101E20002046013432465946AB68A4B29847A045D3
:101E3000F6D1019B0BF1010B0FFA8BFB9B45E7DB06
:101E400003B0BDE8F08F0024354DC9F1000A1FFA38
:101E50008BFBA4B2381B013432465946AB6880B2C2
:101E600024B298475445F4DB019B0BF1010B0FFAA8
:101E70008BFB9B45CCDBE3E79942E1DD84B2A718FD
:101E8000B9F1000FBFB219DB40D0A046244D1FFAB4
:101E90008BFB404608F1010832465946AB681FFAF1
:101EA00088F898474745F4D1019B0BF1FF3B0FFAA7
:101EB0008BFB5B45C4DAB9F1000FE5DA4FF0000A9D
:101EC000174DC9F100081FFA8BFB1FFA8AFAA4EB21
:101ED0000A000AF1010A32465946AB6880B20FFA8D
:101EE0008AFA9847C245F0DB019B0BF1FF3B0FFAE2
:101EF0008BFB5B45DFDBA3E71FFA8BFB019B0BF141
:101F0000010B0FFA8BFB9B4582DB99E71FFA8BFBDA
:101F1000019B0BF1FF3B0FFA8BFB5B45CBDB8FE7A4
:101F2000D00000200122014B9A837047D00000208E
:101F30000022014B9A837047D0000020014B98612A
:101F4000704700BFD00000200022014B9A6170470B
:101F5000D00000200122014B9A827047D00000205F
:101F60000022014B9A827047D0000020014B9881DB
:101F7000704700BFD0000020014BD881704700BFE0
:101F8000D0000020014B9881D9817047D0000020FB
:101F90000A282DE9F84F53D01F2841D9DFF804A1B2
:101FA0002038BAF90CB0BAF802300BF106029A42A6
:101FB000C0B237DA1FFA8BFB0BF10608BAF80E60D5
:101FC0000FFA88F3AAF80C30BAF81C30A6F106090B
:101FD0001FFA89F900EB40000236002B3AD0324F4D
:101FE0001FFA88F807EB4000B6B2471EBAF9143062
:101FF00017F8015F0BB1ED43EDB24C4621460134B9
:102000002A465846DAF80830A4B29847A6424FEA62
:102010005505F3D10BF1010B1FFA8BFBC345E5D13D
:10202000BDE8F88F0623BAF80E60BAF810204FF01A
:10203000000B16440836B6B29846AAF80E60C1E7FF
:102040000021184AD389108A918103440833D3812F
:10205000BDE8F88F1FFA88F71FFA86F8124E06EBD4
:102060004006013EBAF9143016F8015F0BB1ED439A
:10207000EDB24C4615F0010F4FEA550505D021464B
:1020800001225846DAF8083098470134A4B2444592
:10209000F0D10BF1010B1FFA8BFB5F45E2D1BDE8DC
:1020A000F88F00BFD0000020642E01082DE9F04F0A
:1020B000DFF880810A28D8F8183087B0997A00F0C4
:1020C00082801C7AA0427BD35A7A824278D348CB52
:1020D000041B06EBC40292F905A0B8F81200B8F987
:1020E0000C50029313799778034405EB0A003844A7
:1020F000B8F802C0BFB20497D77892F906206045BD
:102100009BB203926DDCADB2EA1892B2A8F80C2033
:10211000B8F91420B8F90EB0002A74D1B8F81C1020
:10212000012900F08280B2FA82F936F834604FEA71
:102130005919002F44D00499002941D0BDF80C3022
:102140001FFA8BFB1F4405EB0A025B440025BB44CE
:102150000F4692B21FFA83FA1FFA8BF3039205938C
:10216000049BFC1A039BA4B203F1FF3B23465A07CE
:1021700008BF029B04F1010408BF9D5DA4B206F1F3
:10218000010C04EB0B0008BF1FFA8CF62B0680B283
:1021900004D54A465146D8F8083098476D00BC42ED
:1021A000ADB2E3D1049A039B0AF101019B1A9BB2E1
:1021B0000393059B1FFA81FA17449A45BFB2CFD10A
:1021C00007B0BDE8F08F0022B8F80E30B8F8100064
:1021D000A8F80C2003441944A8F80E1007B0BDE875
:1021E000F08F1A46B8F80EB0B8F81000A8F80C2016
:1021F00083445944B8F914200FFA81FB0025A8F84C
:102200000EB0002A8AD002331AB201230093039B36
:102210000AF1FF30591E5944284409B200B2BB1CD0
:10222000FFF7E4FDB8F914207DE7023300921AB2FB
:10223000EDE700BFD0000020034B9B690BB1FFF717
:1022400035BFFFF7A5BE00BFD000002038B504465B
:10225000007878B1084D04E0FFF728FF14F8010F6B
:1022600040B1AB69002BF7D1FFF792FE14F8010FD4
:102270000028F6D138BD00BFD0000020F8B5204EB0
:102280000446B569002D32D0037895F808C095F85A
:1022900009E0002B32D001460022778A9C450AD8FB
:1022A0009E4508D36868A3EB0C0300EBC3031B79BE
:1022B0003A441A4492B211F8013F002BEED17388D0
:1022C0009A1A02EBD2725210B281207870B13DB1ED
:1022D000FFF7ECFE14F8010F40B1B569002DF7D1FE
:1022E000FFF756FE14F8010F0028F6D1F8BDFDF7F0
:1022F00039FF00EB4002520092B2E0E71A46DEE7F7
:10230000D000002070B52E4C82B02080C8B10021D2
:102310004FF4C0254FF480332A4A04F12000C4F85A
:102320000220294AC4E90351A2604FF48062E1808F
:10233000A161A182E36110F0F7FB0023E38302B007
:1023400070BD05463C2001F075FE20221F4928463D
:1023500001F076FE4FF480334FF4C022E361194B55
:102360002688C4F80230184BE26029464FF4806298
:1023700004F12000E580A5612561A582A36010F02D
:10238000D3FB002ED9D1124B032293E80300009017
:10239000ADF804103046694601F052FE0322304683
:1023A0000DEB020101F04CFE4FF48062402004F17D
:1023B000200101F05BFE0028BFD002B070BD00BF5D
:1023C000D00000208000400055190008A43001080A
:1023D000E02C010810B50446022980EAE070A0EB69
:1023E000E47068D15AB9002CACBF7F233F239842D8
:1023F000A8BF1846002C01DA40F0400010BD012AA9
:102400001AD1632805DC4000002CF7DA40F4807014
:10241000F4E740F2F54398420CDCFEF74FFB5749D6
:10242000FEF7A4FB0FF0C2F9FEF7A2FD400040F05A
:102430000100E9E7FF20E7E7022A40F09C806328DB
:1024400005DC8000002CD9DA40F40070D6E7B0F546
:102450007A7F0CDAFEF732FB4849FEF787FB0FF074
:10246000A5F9FEF785FD800040F00100EAE742F2A1
:102470000F7398420CD8FEF721FB4149FEF776FB1B
:102480000FF094F9FEF774FD800040F00200D9E7E8
:102490003C4B98420CD8FEF711FB3B49FEF766FB1C
:1024A0000FF084F9FEF764FD800040F00300C9E7F7
:1024B00040F2FF10C6E703295DD1012A1BD1B0F518
:1024C0007A7F05DA4000002C98DA40F4006095E746
:1024D000B0F5205F0CDAFEF7F1FA2849FEF746FB6B
:1024E0000FF064F9FEF744FD400040F00100EAE718
:1024F00040F2FF70E7E7022A3DD1B0F57A7F06DAB5
:102500008000002CBFF67AAF40F4805076E742F2AC
:102510000F7398420CDCFEF7D1FA1849FEF726FB40
:102520000FF044F9FEF724FD800040F00100E8E7D9
:10253000164B98420CD8FEF7C1FA1149FEF716FB6C
:102540000FF034F9FEF714FD800040F00200D8E7E8
:10255000B0F57A2F0CD2FEF7B1FA0B49FEF706FB65
:102560000FF024F9FEF704FD800040F00300C8E7F7
:1025700040F6FF70C5E7002040E700BFCDCCCC3D62
:102580000AD7233C17F001006F12833A9F8601009F
:102590000023036070470000092928BF092138B5CE
:1025A000064B04461B780D468B4202D10023036084
:1025B00038BD01F097FD25712060F9E7F004002097
:1025C000036810B504460BB9002010BD01F08AFD68
:1025D0002368C01A40F2EE239842F5D90023054A39
:1025E0002360127823799A42EED0034A0120D377F0
:1025F000EBE700BFF004002048050020FF234371F3
:1026000000230171837103818372704738B50379A8
:1026100004460D465BB14179A94208D041B1012978
:102620000AD000236571A37155B1012D0FD038BDBB
:1026300003689B689847F4E703680021DB68F9E7C3
:10264000012123689B6820469847A071EFE7236823
:102650002946DB68F7E72DE9F04F077CC37BBF0015
:102660000C4647EA931703F03F01437C857C03F057
:102670000102C67C47EA822705F00F02D20142EA36
:10268000530206F07F031B0143EA1513057D90F802
:1026900015E06D0089B045EAD6150EF003060593E6
:1026A00045EA4623867D009306F01F05AD0145EA05
:1026B0009E03C57D90F819E0ED00019345EA56139D
:1026C000057E0EF00706029345EA0623857E0393F6
:1026D00005F03F06760146EADE03C67E90F81CE070
:1026E000B60046EA95160EF0010546EA8526457FB6
:1026F00090F8208005F00F0B4FEACB1B4BEA5E0BE6
:1027000090F81EE090F80EC00EF07F0A4FEA0A1A09
:102710004AEA151AC57F49016D0045EADE1508F041
:10272000030E45EA4E2590F821E041EADC010EF067
:102730001F094FEA891949EA980990F82280407BDD
:102740000CF0070C40EA0C204FEAC80848EA5E1873
:10275000049306920791FEF755FD079920800846DD
:10276000FEF750FD60803846FEF74CFD069AA080CB
:102770001046FEF747FD059BE0801846FEF742FD38
:1027800020810098FEF73EFD60810198FEF73AFD3A
:10279000A0810298FEF736FDE0810398FEF732FD36
:1027A00020820498FEF72EFD60823046FEF72AFD57
:1027B000A0825846FEF726FDE0825046FEF722FD35
:1027C00020832846FEF71EFD60834846FEF71AFD6B
:1027D000A0834046FEF716FD4FF48063E083238418
:1027E000638409B0BDE8F08F2DE9F04104460F463F
:1027F00001F084FC4FF001080546236820461B6861
:1028000098470646F0B1236820465B689847A37A4C
:10281000A3B90F2814D1A4F80A80E37AE21801338F
:10282000DBB2182B1073E3720AD939462046FFF742
:1028300012FF0023A3723046BDE8F081012BECD0DB
:102840002581DAE7A37A012BF5D140F6C41320895C
:102850002D1A9D42C8BFA672EDE7827922B1437955
:10286000012B01D8FFF7C0BF0020704770477047A9
:102870007047704700207047002070477047002065
:102880007047002070470000054B82B0DA690243B0
:10289000DA61DB6918400190019B02B0704700BF0C
:1028A00000100240054B82B09A6902439A619B690D
:1028B00018400190019B02B0704700BF0010024019
:1028C00000F10C0353E8003F43F0200300F10C013A
:1028D00041E80032002AF3D1704700F10C0353E8BD
:1028E000003F43F0800300F10C0141E80032002A70
:1028F000F3D1704700F10C0353E8003F23F02003AD
:1029000000F10C0141E80032002AF3D1704700F1D8
:102910000C0353E8003F23F0400300F10C0141E8B1
:102920000032002AF3D1704700F10C0353E8003F56
:1029300023F0800300F10C0141E80032002AF3D1BA
:10294000704770470288044B5140C9B233F81130C8
:1029500083EA122303807047906A01089AB110B489
:10296000B0F800C0084C0A4411F8013B83EA0C039C
:10297000DBB234F81330914283EA1C2CA0F800C07B
:10298000F2D110BC70477047906A01084FF6FF7390
:1029900037B50446ADF806304518AC4206D014F8F9
:1029A000011B0DF10600FFF7CDFFF6E7BDF80600AD
:1029B00003B030BD044B1888044B80B21B889BB217
:1029C000C01A18BF012070471831002016310020AE
:1029D0000023044A1380044A1380044A1380044AE3
:1029E0001380704716310020183100201A33002060
:1029F0001C3300200120704770470023A0F870327C
:102A0000A0F86E3270470023A0F85C32A0F85A326A
:102A1000704700002D4B5A6A037A92B263B18389E2
:102A2000D31A9BB2B3F5FA7F84BF00230372837A73
:102A30004F2B84BF00230372037A8281082B0FD8A7
:102A4000DFE803F0050E0E0E0E0E0F172200EE2922
:102A500001D0C82904D10123837206234175037272
:102A60007047837A5A1C0344827259750723417256
:102A7000F5E7827A531CDBB2024483725175427AC5
:102A80009A42EDD20823EAE7837A5A1C0344827201
:102A90005975C37D162B04D1012380F865300923B5
:102AA000DDE743690A4A03F0FF2393424FF0010335
:102AB00009D1428BB2F5A26F05D180F86730037F50
:102AC00080F86830EBE780F86630E8E70004004003
:102AD00000C80032044B1888044B80B21B889BB29C
:102AE000C01A18BF01207047203500201E35002075
:102AF0007047B0F87032B0F86E22D21A93B2120456
:102B000041BFB0F8720201301B189BB2181E18BFEB
:102B100001207047A0F11400EBE70346B0F87022E3
:102B2000B0F86E1291421FBF811891F87402B3F889
:102B3000721201321ABF0A40A3F8702200207047B7
:102B4000A0F11400E9E700001E2208B500210348A7
:102B50000FF0EAFF0022024B1A7008BDF00F0020B0
:102B60009C07002038B54A780D46352A044601F105
:102B70000C010AD80FF0B0FF68780021C0F13602CE
:102B80002044BDE838400FF0CFBF403551F8043B3A
:102B9000A94240F8043BF9D10B88038038BD38B511
:102BA0004A780C461B2A054601F10C010AD80FF0A1
:102BB00093FF60780021C0F11C022844BDE8384032
:102BC0000FF0B2BF283451F8043BA14245F8043B52
:102BD000F9D138BD38B54A780D46082A044601F1C6
:102BE0000C010AD80FF078FF68780021C0F10902C3
:102BF0002044BDE838400FF097BFEB6803604B6896
:102C000043600B7A037238BD38B54A780C46072A00
:102C1000054601F10C010AD80FF05EFF6078002133
:102C2000C0F108022844BDE838400FF07DBFE368DA
:102C300003604B68436038BD2DE9F04113781546B9
:102C4000037092F80180FD2B04460F46826880F8DD
:102C5000018052D10A26AB788370EB78C3702B7950
:102C600003716B794371AB7983716B7A297A1B0499
:102C700003EB0123E9790B4463F3170282604246B8
:102C8000A91904F10C000FF027FF7A7B904507D2B9
:102C900008F10C000021A2EB080220440FF044FFD1
:102CA00063781E44731C9BB2EA5CAB5D03EB0223AA
:102CB000A4F80C31A378DB070ED50236B6B2354442
:102CC00004F5887305F10C0255F8041B954243F88E
:102CD000041BF9D12A781A70BB7A84F82131FB7A67
:102CE00084F822313B7B84F823317B7B84F82431C8
:102CF0003B7884F82031BDE8F08100234380AB7835
:102D000006260371EB7843712B798371697961F33E
:102D100017028260B3E770B50B78054603704B78F5
:102D20000C4643700B78FD2B38D10A268B788370C4
:102D3000CB78C3700B7903714B7943718B798371B5
:102D40008B68C3718B68C3F30F2303728B7A437252
:102D5000627804F10C01A8190FF0BEFE6378B4F894
:102D60000C213344EA54B4F80C115A1C92B2090AEB
:102D7000A954A278981CD20780B20ED504F58872A7
:102D8000054404F58E7452F8041BA24245F8041B56
:102D9000F9D112780F332A7098B270BD00238B706E
:102DA0000B79062683704B79C3708B7903718B681E
:102DB0004371CDE72DE9F74F0C4651880546B1F533
:102DC0008C7F4FF0000010D31070D91CC9B20129BC
:102DD00095BF01210023518053809CBF2370117047
:102DE0000020287003B0BDE8F08F16780E2E00F298
:102DF000BB8001A757F826F0CB2D0008352E000820
:102E00005D2E0008792E0008692F0008692F000840
:102E1000692F0008692F0008692F0008692F000832
:102E2000692F0008692F0008692F0008692F000822
:102E3000892E0008481C5080635421789BB2FD29DC
:102E400006D10C330A21D380022391801370C7E787
:102E500006210833D38091800E23F7E7481C508069
:102E60006354D80742BFD1880D31D1800321012B93
:102E70001170B5D90023E9E7481C508063540E2136
:102E80001170002BF6D1ABE7481C50806354538877
:102E9000D1888B4260D30023538013700223698052
:102EA0002B702378FD2B65D163792B72A3796B721C
:102EB000637A227A1B0403EB0223E27913446B60EA
:102EC000637803F10C026A80A278D10701D5193327
:102ED0006B80002340F26B121E460C206968DFF8FD
:102EE000FC806B81B31801335B0800FB03F758F8D3
:102EF0000770B94247D25A1EB242F3D80C27774323
:102F000058F80730994241D123782046FD2B0CBF59
:102F10004FF00A094FF0060910F801BF4744CB44AF
:102F20000BF1FF3189B2FFF731FD97F804A0ADF83E
:102F3000060051460DF10600FFF704FD0BF10103F9
:102F4000E25C14F80B3003EB0223BDF806209BB2C1
:102F50009A4223D005201AE092889A423FF640AF69
:102F600001232B7000203DE7107050809080D080AE
:102F70002870F7E7E3782B7223796B7263796B60C3
:102F800063780833A4E71E46B8D9B5E70320287054
:102F9000023801288CBF0020012023E7BB79DA0723
:102FA00007D56178FA79914282BF04EB09018A5C06
:102FB000AA729B0709D50C2303FB068362781B7A50
:102FC0009A4282BF4C44E35CEB720C2303FB068302
:102FD0005B79022085F80CA06B73D8E7F4470108F1
:102FE0006FF02003024803604368FFF769BC00BF2D
:102FF0000044004008B5FFF7F3FF0022014B1A72AE
:1030000008BD00BF5819002008B5FFF7E9FF0022EE
:10301000014B1A7208BD00BFCC0800206FF02003DE
:10302000024803604368FFF74BBC00BF0048004004
:1030300010B50446FEF75CFD06210020FEF7A2FF56
:103040000C48FEF77BFF2046FDF78CF8C0B208283D
:103050004FF01B0008D8FEF78FFF2046FFF70EF950
:10306000BDE81040FEF770BFFEF786FF2046FFF771
:10307000EDF8F5E72C4001084FF0320C0A4B0B49F4
:103080001A680B4BA1FB0212920C0CFB02F202F528
:10309000FA72A3FB02320749920948684B681B1A6F
:1030A0009A42FBD8704700BF4000002083DE1B43DC
:1030B000D34D6210001000E008B5FFF7DDFF4FF4BC
:1030C0008052014B1A6108BD000C01404FF4805240
:1030D000014B5A61FFF7D0BF000C0140028810B5C8
:1030E0008488531C234044889C421EBF121891714F
:1030F000038010BD70B5104C0025234626782EB1F4
:1031000066788E4202D1A67896420BD001350C2DFE
:1031100004F10404F2D1002413F824501DB1013449
:103120000C2CF9D170BD012503F8245003EB840366
:10313000D87059709A70F5E7A10700202DE9F8437F
:103140000B465A7A9E7ADF7A204B0D791B5C044637
:10315000DB07097A00D50DB9FFF7CCFF00234FF04C
:10316000010E98461A4919489C4201F8018B25D056
:103170002DB90278920702D501F801EC1EE04FF05C
:10318000000C144A92F80090B9F1000F0FD092F899
:10319000039099450BD1002EEED092F80190B145E5
:1031A00005D1002FE8D092F80290B945E4D00CF197
:1031B000010CBCF10C0F02F10402E3D10133DBB2CC
:1031C000042B00F10100CFD1BDE8F883D107002026
:1031D0009D070020A1070020704707B503688DF800
:1031E00007100122DB680DF10701984703B05DF875
:1031F00004FB70B5044608460D46FCF7B3FF236890
:10320000294682B2DB682046BDE87040184701209D
:10321000FFF748BB0D4B984202D10420FFF742BB99
:103220000B4B984205D003F58063984203D11020E0
:10323000F4E70820F2E7074B984201D12020EDE7A0
:10324000054B984200D070474020E7E70008014056
:10325000000C014000140140001801400B4B984243
:1032600003D14FF40060FFF71DBBB0F1804F04D0D5
:10327000074B984204D1022000E00120FFF704BB75
:10328000044B984201D10420F8E77047002C01401C
:103290000004004000080040064B984203D14FF460
:1032A0000070FFF7FFBA044B984202D14FF48060E0
:1032B000F7E7704700240140002801402DE9F04164
:1032C0000C46154686B007461022002102A81E466D
:1032D0009DF834800FF028FC01940B2D07D8DFE80F
:1032E00005F00E0E070A1414141616161B1DFEE721
:1032F0000823029303E00823029301230593032E7E
:103300000ED8DFE806F00E1E200E0123F1E70123A0
:10331000029304230493F2E70923EAE70923F7E77A
:10332000FEE703230393B8F1000F02D03846FFF7FE
:1033300071FF053D042D0BD8DFE805F007110A07E2
:1033400011000223EEE70123ECE7C4F30F247C61B4
:10335000384601A90DF0D6F906B0BDE8F081C4F3F6
:103360000F243C61F4E713B54FF0010C0024CDE9C4
:10337000004CFFF7A3FF02B010BD000070B504467B
:10338000164686B00D461422002101A80FF0CCFB92
:103390002046FFF763FF042E04D8DFE806F02A2E4C
:1033A00004323B00FEE71C4B1C4A1B68B3FBF2F3E4
:1033B0009BB20022013B204601A9ADF80430CDE9C3
:1033C0000225049205920DF0D5FA236823F08003BC
:1033D0002360A36823F4804323F00703A36063689A
:1033E00023F070036360A36823F08003A36006B03A
:1033F00070BD094B0A4A1B68D8E7074B094A1B688E
:10340000D4E7054B064A1B68B3FBF2F303EB8303D7
:103410005B00CDE70123CCE74000002080A812012B
:1034200040420F0000127A0010B50446FFF7A6FFD5
:10343000236843F00103236010BD00224FF0FF31E9
:10344000FFF7F2BF1A4B10B55B681A4C23600BF004
:103450009FF819480DF006F918480DF003F91848BF
:103460000DF000F917480DF085FB17480DF082FBB1
:103470000DF0CCF94FF0E02200231361536193610A
:1034800072B64FF0FF319A0002F16042013302F54B
:103490006142082BC2F88010C2F88011F3D162B6E5
:1034A000034B1B6883F3088823689847FEE700BF37
:1034B00000F0FF1F9807002000080140000C0140A9
:1034C00000100140003801400044004030B50024A5
:1034D000054689B01422214603A8CDE901440FF026
:1034E00023FB01A928460DF085F869460848009499
:1034F0000DF062F84FF46023CDE90334022328462F
:1035000003A9CDE9063405940DF089F809B030BD62
:1035100000240140F0B4044601F44075184604F15B
:103520002C064FF4407393FAA3F3B3FA83F31F27E7
:10353000DD4056F8253001F01F018F4023EA0703D4
:1035400002F01F0707FA01F1194346F825104FF062
:1035500000730C3402F0007693FAA3F3B3FA83F30A
:10356000DE404FF0F87154F8263002F0F87291FA0C
:10357000A1F1B1FA81F1072522FA01F105FA01F171
:1035800023EA01014FF0F87393FAA3F3B3FA83F33C
:10359000DA4095400D4344F8265004990023F0BCCE
:1035A0000122FFF7E0BE014608B5FFF730FEBDE897
:1035B00008400846FFF770BE064B0748C01AEFF3F5
:1035C0000883C2431A44013B984288BF0022AA21C3
:1035D0000FF0AABA000400000050002010B5124CF1
:1035E00003232046062240F60801FFF7BCFE2046D2
:1035F000032302220D49FFF7B6FE032320461A4695
:103600000B49FFF7B0FE20460323052242F22001BA
:10361000FFF7A9FE2046BDE810400323052241F232
:103620001001FFF7A0BE00BF000C01400100010423
:1036300002000204024B9868C0F34020704700BFAC
:10364000000C014008B5FFF7F5FF08B100BFFAE72D
:1036500008BD00001022024B5A6120221A617047F7
:10366000000C01402022024B5A6110221A6170475F
:10367000000C014012480F23016921F00F0193FA59
:10368000A3F3B3FA83F2012393400B4303610D4B81
:103690005A6822F480725A601A6822F480721A60A2
:1036A000DA6822F48072DA609A6842F480729A6072
:1036B000D022054B83F817234FF400021A6070479D
:1036C000000001400004014000E100E04FF480727E
:1036D000034B5A611A6842F480721A60704700BF47
:1036E0000004014010B50A4C002305222046094978
:1036F000FFF739FE0023052220460749FFF733FE76
:103700004FF4004363614FF48043636110BD00BF19
:103710000010014080008004400040040549CB684F
:103720001A04DB4302F0004203F4004313430B612D
:10373000704700BF001001400549CB681A04DB4305
:1037400002F0804203F4804313430B61704700BFD3
:10375000001001400F4BDB6C9BB2A3F2CF62C62A74
:1037600010D9A3F6EB22C62A0ED9A3F61C12C62A3C
:103770000CD9A3F63D22C62A0AD9C82B34BF102083
:1037800000207047012070470220704704207047D6
:10379000082070470024014010B5054C0023052285
:1037A00020460449FFF7DFFD4FF40053636110BD6D
:1037B00000100140200020044FF40052024B162854
:1037C000CCBF1A615A617047001001400C4BD3F80E
:1037D000FC2022F08072C3F8FC20D3F8FC2042F0D9
:1037E0008072C3F8FC20A3F55D431A6822F0010241
:1037F0001A601A6842F001021A6000225A6070478B
:1038000000ED00E0064B074A1B680749B3FBF2F3E3
:10381000434310B54C684A68121B9A42FBD310BD53
:103820004000002040420F00001000E010B50446A8
:103830006420FFF7E7FFA36843F00403A360A368D5
:103840005B07FCD410BD826842F001028260FFF782
:10385000EDBF000013B50E4C2046FFF7A4FE204636
:10386000FFF734FE40F201134FF40071094A20467D
:103870000093094BFFF74EFE2046FFF7E4FF64205C
:10388000FFF7C0FFA36843F4A003A36002B010BD1C
:103890000024014008008003000C01402DE9F041A4
:1038A00080464CF250300D4616461C460BF0A6F8EA
:1038B00068BBB8F1010F06D0B8F1020F0CBF4FF092
:1038C00002084FF004080027124A136943F001036D
:1038D00013613801C0F12002A0F1200304FA02F2C2
:1038E00026FA00F0104324FA03F3184380B225F8B7
:1038F00017004CF250300BF081F818B90137FBB2C9
:103900004345E6D3034A136923F001031361BDE87D
:10391000F08100BF002002407FB501230022CDE9E5
:10392000040301A902A8CDE902230BF0A3F80028A3
:103930000CBF0420052007B05DF804FB0A4608B55B
:10394000014600230220FFF7A9FF00280CBF042036
:10395000052008BD08B5FFF7DFFF031F5842584197
:1039600008BD08B5FFF7EAFF031F5842584108BDDC
:103970002DE9F047254B264D01280FBF7D267C26DB
:10398000AA461D460F4614462249234A06BF8946C9
:103990009A4691460BF016F831462846FFF7DAFFB3
:1039A00010B3002F08BF4FF478744FF000080334B1
:1039B000A40805F11006AAEB050A1FFA88F39C4239
:1039C00018D93FB95AF806104B1C06D108F1010866
:1039D0000436F2E757F82810F6E74E4513D2304682
:1039E000FFF7BFFF0028F1D100240AF0FDFF2046B9
:1039F000BDE8F0874FF011312846FFF7B2FF0028ED
:103A0000F2D00424F1E70324EFE700BF00F001083F
:103A100000F40108FFF70108FFF3010810B50AF0F0
:103A2000D1FF7C210748FFF795FF20B17D21064893
:103A3000FFF790FF20B900240AF0D6FF204610BD02
:103A40000424F9E700F0010800F40108002330B570
:103A5000074A084D9CB2A14206D99C18AC4205D039
:103A60009C5CC4540133F5E7042030BD0320FCE71F
:103A700010F00108FFF3010838B504460D4672B690
:103A80000A4601460020FFF773FF62B6042806D1FC
:103A900072B601202A462146FFF76AFF62B638BD9A
:103AA00038B5124B1C68D3F80054B4F1113F09D15A
:103AB000B5F1113F17D0002201201146BDE8384072
:103AC000FFF756BFB5F1113F03D100221146104652
:103AD000F4E7FFF7A3FF042804D12C4001340CBF06
:103AE0000220012038BD0420FCE700BF00F00108DF
:103AF000034B18739A68D207FCD5187B704700BF38
:103B00000038004038B5441E8D18A94206D014F87C
:103B1000010FFFF7EDFF01F8010BF6E738BD08468E
:103B200011461A46FFF7EEBF38B50446054D01446D
:103B3000A14205D02878FFF7DBFF04F8010BF7E777
:103B400038BD00BF3400002008461146FFF7ECBF27
:103B500010B5044601448C4204D014F8010BFFF761
:103B6000C7FFF8E710BD08461146FFF7F1BF000098
:103B700070B58CB0294C2822002102A80EF0D4FF89
:103B8000FFF745FB4FF48040FEF77EFE24492046B8
:103B900003230622FFF7E7FB062501264FF4805397
:103BA000204623610A2203231E49CDE90056FFF770
:103BB00085FB204603230A221B49CDE90056FFF767
:103BC0007DFB032320461A461849CDE90056FFF72E
:103BD00075FB0822002308924FF48272CDE9053369
:103BE000CDE909330293039204934FF40072072343
:103BF000A4F55444204602A90B9307920CF08EFEC4
:103C0000236843F040032360A3689B07FCD5FF2291
:103C1000237B074B1A700CB070BD00BF000C014035
:103C200010001004200020048000800440004004A4
:103C3000340000201C4B10B41A68940611D5D968C2
:103C400088060ED5194C1A48596823880088013314
:103C5000C3F30A0380B298421FBF1648C9B2C154C9
:103C60002380110744BF104B5B68120616D50E481F
:103C7000C3681B0612D5104B104A1988138889B2E5
:103C80009BB299420CD013880133C3F3080313800D
:103C900013880B4A9BB2D35CDBB2436010BC704705
:103CA00010BCFEF741BE00BF0038014018310020B3
:103CB00016310020162900201C3300201A33002062
:103CC0001A3100200A490B4A08B50B8812880133C3
:103CD000C3F3080392B29A4207D0074AD054074868
:103CE0000B80FEF7FAFD012008BD0020FCE700BFB5
:103CF0001C3300201A3300201A3100200038014004
:103D000038B504464518AC4204D014F8010BFFF74F
:103D1000D9FFF8E738BD08461146FFF7F1BF0000AC
:103D2000054B064A1B8812889B1A98B21B0444BF95
:103D300000F5006080B27047183100201631002075
:103D4000FFF7EEBF0848094A0188138889B29BB281
:103D50009942F9D013880133C3F30A0313801388FF
:103D6000034A9BB2D05C7047183100201631002006
:103D700016290020FFF7E6BF002300B5002989B00F
:103D8000CDE9063318BF4FF48053CDE902320C233E
:103D900001900491034801A905930CF01DFF09B09F
:103DA0005DF804FB0038014010B5064CE36823F4CD
:103DB0000053E360FFF7E0FFE36843F40053E36080
:103DC00010BD00BF00380140002208461146FFF731
:103DD000EBBF0000F7B5082601272E4C2E4DE368F7
:103DE0002E4923F40053E360FFF711FA4FF48040AB
:103DF000FEF758FD284603230A22CDE90067FFF7A6
:103E00005DFA032328461A46CDE900672449FFF7E7
:103E100055FA00224FF4E1301146FFF7ADFFB02212
:103E2000236923F490432361636923F02A036361C8
:103E30001C4B83F8252320225A602046FEF774FD90
:103E4000FEF765FD6FF0400323600024164B1C80D5
:103E5000164B1C80FEF74EFD6FF020030360144BE1
:103E60001C80144B1C80036923F4006303614369C5
:103E700023F008034361036923F48043036143692A
:103E800023F022034361C36843F40053C36003B0CB
:103E9000F0BD00BF003801400008014002000204EC
:103EA0000400040400E100E01A3300201C33002069
:103EB000163100201831002008B5FFF78BFF6FF096
:103EC0002003034803604368BDE80840FEF7F8BCE0
:103ED00000380140FFF7F0BF7FB5002401250646FA
:103EE00044F24001FFF793F902230B222648CDE963
:103EF0000045FFF7E3F9022348F280010B22CDE9E8
:103F000000452148FFF7DAF93168204B99420AD180
:103F100003F5DE33DA6942F40012DA61DB6903F497
:103F200000130293029B002380221020184D194C8D
:103F3000C5E90133C5E90323C5E90533C4E9010334
:103F4000C4E90323C4E90533EB61E3610F4B9942F4
:103F500018D103F5DE335A69284642F001025A614E
:103F60005B6903F001030393039B0B4B2B600AF087
:103F7000B3FB0A4B2046B5636E6223600AF0ACFBCC
:103F80007463666204B070BD000C014000540040D0
:103F90001010002054100020800002406C000240ED
:103FA00008B51448144B4FF4804203600023C0E965
:103FB0000332124AC0E90533C0E90733C0E90123DF
:103FC0000AF0F4FEA0B9F0220D4B83F81F234FF046
:103FD0000041196083F820230121596083F81023E0
:103FE0004FF48031196083F811234FF400321A60C6
:103FF00008BD00BF9810002000540040801A060041
:1040000000E100E001480BF08BBB00BF98100020DE
:1040100001480BF0C1BF00BF9810002001480AF012
:1040200011BC00BF5410002001480AF00BBC00BFB7
:1040300010100020014B1870704700BFEC100020DA
:104040001FB5084B1C784FF0FF33CDE90123012346
:1040500002460091044804FA03F10AF04FFF04B04D
:1040600010BD00BFEC1000209810002013B5064BC7
:104070001C780123CDE90012024604FA03F103483B
:104080000AF0CCFF02B010BDEC1000209810002008
:10409000044B0A22197804484FF0FF3349000BF013
:1040A00083B800BFEC1000209810002008B5FFF77F
:1040B00077FF0022014B1A7008BD00BFEC100020F2
:1040C000054A064B11681B780B441360044A1368B9
:1040D00001331360704700BF3035002044000020DA
:1040E000DC0D0020014B1868704700BF3035002000
:1040F0000148FFF7A2B900BF00040040014B586A15
:1041000080B27047000400400022024B1A60FFF7A3
:10411000EFBF00BFDC0D002070B51B4C90220021CA
:10412000201D0EF001FD06232380162363800F233C
:104130004FF6FF75154E05223146A380A01D2C2396
:10414000FDF7D2F9124A134B3146C4E90D2304F1AD
:104150003E002C230522A587FDF7C6F90223E3665E
:1041600000230D4904F17A0084F872306367A4F8E3
:104170007830A4F870500EF0FBFC7F2384F88F3069
:10418000052384F8903070BD040700200C4001081E
:1041900002000F0003000500F330010870B5094E5E
:1041A00005460C46415C30460EF0D5FC034628B16E
:1041B000831B0133DBB2282B28BF0023F35C2B5574
:1041C00070BD00BFC846010870B50C4611460646D2
:1041D0000EF0CEFC44B10025052130460135FFF735
:1041E000DDFFEBB29C42F7D870BD000073B5054609
:1041F00005F111061B4C01461B4A68463601FFF7C4
:10420000E3FFB01C694620440EF0B2FC01231420E9
:1042100004EB051226447372A2F81A31032200FB44
:10422000054080F850200022A0F84A30C364A0F86E
:10423000522080F85420E3844FF4807084F83030AA
:1042400040F201130949C4F83A20C4E90A01C4F84C
:104250003E20C4F84220A4F84630A4F8483002B00A
:1042600070BD00BF48050020C430010803020100F2
:10427000F7B5054605F111060146AA4AAA4C68465B
:104280003701FFF7A1FFB81C694627442044FDF71A
:104290003FF87B7A04EB0610052B84BF02237B7268
:1042A000A24B427A198841FA02F2D7070FD40222B0
:1042B000427261B14807C1F3800208D441FA02F7A3
:1042C000FF07D0B240F1DF8104EB0612507204EB1D
:1042D000051191F81A012A01042802D9012081F858
:1042E0001A01A718588897F81A1140FA01F1C9075E
:1042F00011D4022187F81A1168B14707C0F3800171
:1043000009D440FA01FC1CF0010FCFB200F0C081CB
:10431000A11881F81A71A11891F81B01032802D97C
:10432000002081F81B01A718988897F81B1140FA04
:1043300001F111F001010FD187F81B1160B110F0EC
:10434000010109D140FA01FC1CF0010FCFB200F0CD
:10435000A481A11881F81B7104EB0616717A01295A
:1043600005D904291EBF0021121982F81B1114223D
:1043700002FB054191F84A00042802D9012081F886
:104380004A0002FB054292F84B10042902D9002191
:1043900082F84B10142202FB0542998E92F84B00D2
:1043A00041FA00F0C00712D4012082F84B0071B12D
:1043B0008F07C1F340020AD441FA02F6F607D0B2E1
:1043C00040F17081142202FB054282F84B00142256
:1043D00002FB054292F84C10032902D9012182F810
:1043E0004C10142000FB0540D98E90F84C2041FA67
:1043F00002F212F0010210D180F84C2069B111F0E4
:1044000001020AD141FA02F6F707D0B240F14F811A
:10441000142202FB054282F84C00142202FB0542E2
:1044200092F84E10012902D9002182F84E10142072
:1044300000FB0540198F90F84E2041FA02F212F06D
:10444000010210D180F84E2069B111F001020AD1A9
:1044500041FA02F6F607D0B240F12E81142202FB97
:10446000054282F84E00142202FB054292F84F10DA
:10447000022902D9002182F84F10142000FB0540C8
:10448000598F90F84F2041FA02F212F0010210D138
:1044900080F84F2069B111F001020AD141FA02F609
:1044A000F707D0B240F10D81142202FB054282F8D9
:1044B0004F00142202FB054191F84D00022802D959
:1044C000002081F84D0002FB054292F850100529AA
:1044D00002D9032182F85010142202FB054191F801
:1044E0005200012802D9002081F8520002FB054247
:1044F00092F85310022902D9002182F85310142097
:1045000000FB0540998F90F8532041FA02F212F017
:10451000010218D180F85320A9B111F0010212D183
:1045200006E000BFC4300108480500200407002051
:1045300041FA02F6F607D0B240F1C880142202FB1D
:10454000054282F85300142202FB054191F8540001
:10455000022802D9002081F8540002FB054292F89B
:104560004C10012906D192F84F10022904BF0021F6
:1045700082F84F1094F82620042A02D9012284F8E8
:10458000262094F82720042A02D9002284F8272024
:10459000B3F86C1094F8272041FA02F2D6070FD432
:1045A000012284F8272059B18807C1F3400207D4BB
:1045B00041FA02F6F707D0B240F18D8084F8270067
:1045C00094F82820022A02D9002284F8282094F89E
:1045D0002920022A02D9012284F82920B3F86E107A
:1045E00094F8293041FA03F313F00102674B0CD120
:1045F00084F8292049B111F0010206D141FA02F6EE
:10460000F607D0B26CD583F8290094F82A200C2A3A
:1046100002D9002284F82A2094F832200C2A02D9E8
:10462000002284F8322093F82B20042A02D9002299
:1046300083F82B2093F82F20012A02D9002283F837
:104640002F20534AB2F8701093F82F2041FA02F24B
:1046500012F001020CD183F82F2049B111F00102B0
:1046600006D141FA02F4E707D0B23DD583F82F0016
:1046700000221046474911F9014B14F1780F37DA3F
:1046800001F8010C36E00132102A7FF417AE1EE665
:10469000013110297FF435AE3DE6013110297FF458
:1046A00051AE59E60132102A7FF486AE8FE6013210
:1046B000102A7FF4A7AEB0E60132102A7FF4C8AE0C
:1046C000D1E60132102A7FF4E9AEF2E60132102A77
:1046D0007FF42EAF37E70132102A7FF469AF6FE71E
:1046E0000132102A8AD190E70132102AB9D1BFE7EE
:1046F000782CC5DC0132D2B20C2ABCD100220120B8
:10470000254911F8014B0132022CD2B288BF01F8C1
:10471000010C042AF5D193F82C20052A02D9032292
:1047200083F82C2093F82D20022A02D9022283F844
:104730002D2093F82E20022A02D9012283F82E2060
:1047400093F83020022A02D9012283F83020142164
:10475000FF226943581883F8312080F851204FF622
:10476000FF744FF0FF32553103EB051558181A62EC
:104770009A84C5F81C21A5F820415A504260047261
:1047800083F833205A631A8703B0F0BD4805002030
:1047900004070020820500208E050020154B98702C
:1047A000042804D8DFE800F004141A200400FEE70F
:1047B000114A9A6400221A710A220338012894BF10
:1047C000002001201A771A7998731A749876704726
:1047D0000A4A9A6400221A710F22EEE7084A9A6484
:1047E00001221A711922E8E7064A9A6400221A7116
:1047F0000722E2E7F00400201400320020001F002E
:104800003500130009006F002DE9F34100F1110795
:10481000754E3F0107F10208B04405464046FCF7DB
:1048200093FD042101900DEB0100704CFEF7AEF8F2
:10483000019B0021A3606361142303FB056393F8CC
:104840004A206B4B374413F92230E08323732376DD
:10485000684B84F8541023657B7A2F01637006EB54
:10486000051393F81A01FFF799FF634A63781288DA
:104870006373A285E28B637684F82830626284F8E1
:104880002A1023B94046FCF77FFD84F82A003744FC
:1048900097F81B2184F829206AB1E18B02EB0213FF
:1048A00003EB03230B444FF01131E383A36801FBB7
:1048B0000232A260626194F82830052B04D8DFE848
:1048C00003F0043D3F414349FEE7A378032B03D89F
:1048D000DFE803F003303203FEE71823474F84F884
:1048E000203017E90F0087E80F0040F2E24394F808
:1048F0002000A4F84C30FCF7E5F84FF07F51FCF7AE
:1049000035F9FCF735FB4FF47A73B4F84820C0B2A0
:10491000B3FBF2F3A4F84030142303FB056393F8D0
:104920005030A4F84E00052B40D8DFE803F01536D0
:10493000393C3F421223D1E70C23CFE71923CDE7BF
:104940000623CBE70223C9E7A378012BF2D0022B81
:10495000F2D0FEE70323C1E74FF41653142063643B
:10496000002300FB056584F85530A4F8563095F80F
:104970004C30032B03D095F84F20022A02D101229C
:1049800084F8552094F85520012B08BF84F8563040
:1049900092B194F856307BB1FEE74FF49643DDE7D1
:1049A0004FF41643DAE74FF46143D7E74FF4E133AE
:1049B000D4E74FF46133D1E71421237801FB03637B
:1049C00093F84C30022B07D1012384F8573022B1E1
:1049D00094F857302BB1FEE71AB994F85630002BF3
:1049E000F6D102B0BDE8F08148050020F0040020B7
:1049F0000C400108010100010407002020050020EF
:104A00004FF4DE72FF2101480EF08EB848050020F9
:104A10004FF4DE710148FFF72FB800BF48050020B2
:104A20004FF4DE710148FFF711B800BF48050020C0
:104A300008B5FFF7F5FF034B1878BDE80840FFF70E
:104A400017BC00BFF004002070B5FFF7D9FFFFF7D7
:104A500027F804280CD0FFF7D3FFFFF721F804282C
:104A600003D1FFF7DDFF042806D0FFF7C9FF03E0FD
:104A7000FFF7D6FF0428EED11022574957480EF011
:104A80007FF808B1FFF7BCFF40F24F12534CA38AE6
:104A9000934267D0B3F5A47F36D80125062204F1EE
:104AA000160104F58970FCF7AEFD637F84F81931B7
:104AB000A37F84F81A3128460135EDB2FFF796FB43
:104AC0000A2DF8D10023E37740F24F130125A3828A
:104AD00042F2DD73226940499A4240484FF0100289
:104AE0001CBF012523610EF04BF800283CD010229A
:104AF00039493A48FCF776FD082239493948FCF72C
:104B000071FDFFF785FF31E0B3F5A77F22D823467B
:104B1000002203250121022693F84C0001280DD024
:104B200003280ED093F84F0001280DD002280ED094
:104B300001320A2A03F11403EED1C5E783F84C5081
:104B4000F0E783F84C10EDE783F84F60F0E783F867
:104B50004F10EDE70025E8B20135FFF747FB0A2DBE
:104B6000F9D1AFE70025B3E7002DCAD1E37F092BC8
:104B700084BF0023E3771423E17F03FB014393F811
:104B80004C2002F0FD02012A17D10022134993F8AC
:104B90004C0001320A2A81F84C0001F11401F6D1CF
:104BA000114DE37F2B70FFF7B7FA2878FFF760FB12
:104BB0002878BDE87040FFF727BE49B10B4903F1E3
:104BC0004A025E3352F8040B9A4241F8040BF9D1C1
:104BD0000023E377E4E700BFCB300108480500205D
:104BE000DC300108FA060020F004002092050020C5
:104BF000C01A1628A8BF162030B56FF00805A842C5
:104C0000B8BF28469DF80C40A042C8BF20B2C0B231
:104C100008701844107030BD07B5084611461A4692
:104C2000142300931123FFF7E3FF03B05DF804FBA7
:104C30000129F7B5054600D9FEE70F4E0F0106EB37
:104C40000114A378F15D627884600CF020FBE379B5
:104C5000E6780193A3793146284600932279637957
:104C60000CF02AFB284606EB4606B10803B0BDE867
:104C7000F0400CF082BC00BFB06C0108024638B5B1
:104C8000044652F8143BDD6900F11503A84720469D
:104C9000217D0022BDE838400CF079BB70B5016180
:104CA000897A044688B001B101210CF0C2FA0123CF
:104CB00040F6D80120460DF11F020CF018FA9DF8BD
:104CC0001F3040F6D80143F01E0320468DF81F30F8
:104CD0000DF11F0201230CF0D4F920460CF02DFC3D
:104CE000E179FF2903D0FA2220460CF032FC236937
:104CF0005B7A013B042B04D8DFE803F0043E41411A
:104D00003E00FEE7E922E12120460CF085FC01216E
:104D100020460CF0EFFB962120460CF05AFC38217F
:104D200020460CF05DFC20460CF061FC2369204617
:104D300093F90810FFF7A2FF23699D7A15B3204667
:104D40001978FFF775FF0022204611460CF092FA01
:104D5000002340F20322204600934FF6FF710CF02F
:104D6000DAFA20464FF6FF710CF003FB204608B03C
:104D7000BDE870400CF0CEBBDB22D721C4E76F2228
:104D80006B21C1E70F4B2046DE8B0F4B0B22E360FC
:104D90004CF250330D49009319230CF04DFC0123C4
:104DA000CDE903335B23CDE9015310232046194697
:104DB000042200950CF072FC314620460CF093FC66
:104DC000C1E700BFF0040020906C0108A08601003C
:104DD00010B504460CF09EFB2046BDE810404FF68F
:104DE000FF710CF0C6BA000038B5044603680169CB
:104DF000DD6900F1140200F1150391F90810A847CC
:104E000023699A7A42B11A78012A00D9FEE7044B45
:104E100003EB0213A36038BD024BE360FBE700BF66
:104E2000B06C0108906C010810B5094CA36823B957
:104E3000E36813B92046FFF7D7FF23699B7A23B1B4
:104E4000A3689868A0F57A7010BDE3689869F9E7DF
:104E500020260020836810B504461BB9C3680BB92F
:104E6000FFF7C2FF23699B7A1BB1A368B3F90C005B
:104E700010BDE368B3F91C00FAE7836810B5044677
:104E80001BB9C3680BB9FFF7AFFF94F9150010BD4C
:104E900090F8D8305BB190F8D930074A180102EB8E
:104EA00003139B681978135853F821007047837DCA
:104EB0000E3350F823007047A83F01082DE9F34155
:104EC0000446164688469DF824705B22402F4FF01A
:104ED00000011D4628BF40270DF026FE8E4BDB8BC0
:104EE00023803278A37862F30203A3707378DB0027
:104EF00003F0080343EA0811A37803F007031943FA
:104F0000A1707279E37862F30003E370B279637998
:104F100062F38613637196F90200FCF738F9E378BF
:104F200060F34703E370F278237962F30603237199
:104F3000337903F00102237903F07F0343EAC213BC
:104F400023713379C3F34502637923F03F0313439D
:104F50006371A37967F34703A3712B78AA78E37190
:104F60006B7802F01F0203F0070343EAC2032372C7
:104F70006B88C3F34512637A23F03F0313436372D4
:104F80002B7903F00302637A03F03F0343EA8213B1
:104F90006372AB88C3F38703A3726B79C3F3800298
:104FA000E37A23F001031343E372AB7903F07F024A
:104FB000E37A03F0010343EA4203E372EB88C3F3AD
:104FC000C312237B23F00F03134323732B7AAA7A94
:104FD000E3736B7A02F01F0203F0070343EAC20394
:104FE00023746B89C3F34512637C23F03F0313439F
:104FF00063742B7B03F00302637C03F03F0343EAFB
:1050000082136374AB89C3F38703A3746B7BC3F30D
:105010008002E37C23F001031343E374AB7B03F0D2
:105020007F02E37C03F0010343EA4203E374EB896C
:10503000C3F3C312237D23F00F03134323752B8A7D
:10504000DB0863756B8ADB08A375AB8ADB08E37545
:10505000EB8ADB0823762B8BB3F5C06F3AD2B3F51E
:10506000007F94BF00230123227B63F30512227388
:105070006B8BB3F5C06F2FD2B3F5007F94BF0023C5
:105080000123227B63F387122273AB8BB3F5C06FCE
:1050900024D2B3F5007F94BF00230123227D63F364
:1050A00005122275EB8BB3F5C06F19D2B3F5007FF3
:1050B00094BF00230123227D63F38712089B22758E
:1050C0001F4404F11902BB420CD013F8011B02F873
:1050D000011BF8E70223C7E70223D2E70223DDE73B
:1050E0000223E8E74FF6FF7321460DF106000D227B
:1050F000ADF80630FDF732FC2146BDF806304C22F3
:1051000021F80D3FFDF72AFCBDF80630A4F8593010
:1051100002B0BDE8F08100BFF004002013B59DF897
:105120001040CDE9003413460A460021FFF7C6FEC1
:1051300002B010BD13B5144B0288DB8B04469A42B3
:105140001DD1837803F0F003102B01D0202B18D150
:10515000A379A52B15D84FF6FF730DF10600592240
:105160002146ADF80630FDF7F9FBB4F85900BDF85B
:105170000630984214BF0420002002B010BD012068
:10518000FBE70220F9E700BFF004002030B5334B05
:10519000027893F8261000F1170461F303020270FD
:1051A00093F8271061F30712027093F828104278E1
:1051B00061F30302427093F8291061F30712427001
:1051C00093F82A10827861F30302827093F8321008
:1051D000827961F30302827193F82B10827861F374
:1051E0000712827093F82C10C27861F30302C27028
:1051F00093F82D1061F30712C27093F82E10027904
:1052000061F30302027193F82F1061F30712027128
:1052100093F83010427961F30302427103F13A01CD
:1052200000F10B0211F9015B02F8015BA242F9D116
:1052300093F84610C27D61F30102C27593F84710DE
:1052400061F38302C27593F8481061F30512C275C9
:1052500093F8493063F38712C27530BD48050020CA
:1052600002782F4BC2F3030230B583F82620027870
:1052700003F13A01C2F3031283F82720427800F1C8
:105280001704C2F3030283F828204278C2F3031202
:1052900083F829208278C2F3030283F82A208279D6
:1052A000C2F3030283F832208278C2F3031283F838
:1052B0002B20C278C2F3030283F82C20C278C2F3F9
:1052C000031283F82D200279C2F3030283F82E2003
:1052D0000279C2F3031283F82F204279C2F303024A
:1052E00083F8302000F10B0212F9015BA24201F8B1
:1052F000015BF9D1C27DC2F3010283F84620C27D71
:10530000C2F3810283F84720C27DC2F3011283F801
:105310004820C27DC2F3811283F8492030BD00BF0E
:10532000480500201FB58DF80C300123019303AB15
:10533000009313460A460221FFF7C0FD05B05DF851
:1053400004FB00000123F0B5204D044685F87230BF
:1053500085B0B0F80900FCF7ECF86E466867B4F861
:105360000B30142204F10D0105F17A00A5F8783014
:10537000FCF749F994F9213004F1230085F88F30C6
:1053800094F8223004F1510785F89030FFF768FF58
:1053900004F14103324618685968083303C2BB421E
:1053A0001646F7D12C23082269460948FCF71EF857
:1053B00094F85130A5F86C3094F85230A5F86E305E
:1053C00094F85330A5F8703005B0F0BD0407002004
:1053D000420700202DE9F0474FF0400A92B00DF14E
:1053E000080906460F4690460021524648460DF0F1
:1053F0009BFB2223194C1A4D21780DF10A0005EB75
:105400000111062201F589718DF80830FCF7EAF8E0
:10541000237805A805EB031205EB031595F8194150
:1054200092F81B119DF8113092F81A2104F00F0424
:1054300044EA021461F303038DF811308DF8104033
:10544000FFF7A4FE43463A4602213046CDE9009AD2
:10545000FFF734FD12B0BDE8F08700BFF004002074
:105460004805002000230A4A838012688371826005
:10547000084A83810384136803615368064A4361C1
:10548000136883615368C3614EF6602303607047FD
:1054900030350020E2300108EB30010810B50A4C2D
:1054A0000220FFF77BF92046FFF792FC20460A21F5
:1054B000FFF7E4FB236920461978FFF7B9FB204684
:1054C000FFF786FC10BD00BF202600201B4B1A688A
:1054D00090F820301BB980F82130826019E090F8F4
:1054E0002130013B5BB2002B80F821300ADC002325
:1054F00080F82030F1E7012303711CE04379002B91
:10550000F9D170478368D21AB2F57A6F01D90123B5
:1055100043710379002BF1D0094B427B1B781AB100
:10552000022B1CBF032202739A1E53425341437342
:10553000837913B10323037370477047303500201C
:10554000C50800200346007B821E012A4FF000029E
:1055500002D893F8201009B91A73704710467047A3
:105560000A4A38B51388044601339BB2502B0D46C6
:1055700001D8138038BD002305491380FDF739FE9B
:1055800029462046FDF735FEF4E700BFE00D002078
:10559000ED3101082DE9F74F1646054688460027EC
:1055A0007049FDF726FE31462846FDF722FE6E4B78
:1055B000B8F1010F6D4C1F8011D14FF400434FF42F
:1055C0008047636146F2A8102761FEF71BF9676107
:1055D000FEF718F931462846FFF7C2FFF2E7B8F1A7
:1055E000020F11D14FF480434FF40047636146F23C
:1055F000A8102761FEF706F96761FEF703F9314647
:105600002846FFF7ADFFF2E7B8F1030F11D14FF4D1
:1056100000434FF48047236146F2A8102761FEF74C
:10562000F1F86761FEF7EEF831462846FFF798FF7C
:10563000F2E7B8F1040F11D14FF480434FF4004763
:10564000236146F2A8102761FEF7DCF86761FEF7D8
:10565000D9F831462846FFF783FFF2E7B8F1050F86
:1056600014D14FF480484FF4004746F2A810C4F814
:1056700010802761FEF7C6F8C4F814806761FEF752
:10568000C1F831462846FFF76BFFEEE7B8F1060F89
:1056900014D14FF480484FF4004746F2A810C4F8E4
:1056A00010806761FEF7AEF8C4F814802761FEF73A
:1056B000A9F831462846FFF753FFEEE7A8F10A03A1
:1056C000042B40D84FF4004B4FF48049A8F1090A4D
:1056D0005FFA8AFA0423574538BFC4F810B0019323
:1056E00046F2A810C4F81090FEF78CF8C4F8149095
:1056F000FEF788F831462846FFF732FF019B013B51
:1057000013F0FF03EBD10423C4F814B0019346F265
:10571000A810C4F81090FEF775F8C4F81490FEF7BE
:1057200071F831462846FFF71BFF019B013B13F040
:10573000FF03EBD10137A8F10803FFB2DBB2BB4294
:1057400038BF0027C6E74FF4804323614FF400437E
:1057500023614CF25030FEF755F831462846FFF7EA
:10576000FFFEF6E7ED310108E00D002000100140DA
:105770006FF00102094B0A491A610A88013A92B294
:105780000A800A8892B23AB9DA6822F00102DA6035
:105790001A6822F001021A60704700BF000400403E
:1057A000120800206FF00102054B1A61DA6822F03E
:1057B0000102DA601A6822F001021A60704700BF25
:1057C0000004004010B5194C88B0FFF7EBFF40F221
:1057D000022101230A221648FDF7C5FD20460022BA
:1057E0004FF47A71FDF7CAFD0023CDE9013303932D
:1057F0006023022200934FF480730492CDE90523C5
:105800004FF480516A46204607930BF0EBF8094AA3
:10581000536823F480635360E022074B83F81D2311
:105820004FF000521A6008B010BD00BF00040040E5
:10583000000C01401804004000E100E0074BB3FBFE
:10584000F1F1074BD962490819641A6842F0010264
:105850001A601A6A42F480521A62704740420F007E
:10586000000400400D480E4BB0FBF1F051434FF4E3
:105870007A72B1FBF2F10B4AD86289B2400818641F
:1058800011801A6842F001021A601A6A42F48052CA
:105890001A62DA6842F00102DA60704740420F0093
:1058A000000400401208002019B94FF4FA71FFF704
:1058B000C5BF182905D84FF4FA724FF4FA71FFF7F3
:1058C000D1BF4A2901D8FA22F7E7632901D8322249
:1058D000F3E7FFF767BF0000044B1B68DB0704D446
:1058E00028224FF4FA71FFF7BDBF70470004004053
:1058F00010B5044694F9013008468B4201D1237853
:1059000023B901232370FDF757FF607010BD00001D
:1059100037B50C461D4668B907480DF106020DF172
:1059200007010BF0A2FD2B4622469DF80610024807
:105930000BF039FC03B030BD2026002070B50D46B9
:1059400016461C460146A0B9FDF784FE0B483346B7
:105950002A460BF001FC4FF6FF7108480BF009FDD9
:105960000648A1010BF020FDBDE870407D20FDF749
:1059700049BF0248FFF72CFA70BD00BF2026002067
:105980002DE9F0414FF05B0805461E4C0E4642469D
:10599000002120460DF0C8F82B691B4F23606B696E
:1059A00039786360194B1A4D1B7805EB01119A1E6B
:1059B00053425341627A04F10A0063F300026272B7
:1059C00001F589710622FBF70DFE3B78592105EBA5
:1059D000031595F81A21237C204662F307132374DC
:1059E00095F81B21637C62F303036374FCF7CEFF1D
:1059F0004246A4F85900214630463B7FBDE8F041BD
:105A0000FFF79CBF55260020F0040020C5080020A9
:105A10004805002037B50C46A8B9124803699D7A9D
:105A20009DB101F17A020DF106010BF008FDBDF9FF
:105A30000630002B10DB4FF6FF73ADF80630BDF8D3
:105A4000063084F8783003B030BD0DF106010BF05C
:105A500066FE84F87A50EAE77F33F0DA4FF6817316
:105A6000EBE700BF2026002070B50D460646114C1E
:105A70005B23224621462846FFF74AFFD6E9061354
:105A8000206862689A4208BF884211D12046592195
:105A9000FCF77CFFB4F85940231A5C425C4128466D
:105AA0000549FFF7B7FF002C0CBF0120022070BD95
:105AB0000024F4E781240020942500200A4608B53C
:105AC00001460148FFF766FD28000020164600B594
:105AD00091B0044668461D460DF04AF818496846DC
