:020000040800F2
:100000000050002029BF000811BF000813BF0008DE
:1000100015BF000817BF000819BF00080000000046
:100020000000000000000000000000001BBF0008EE
:100030001DBF0008000000001FBF000821BF00080E
:1000400071BF000871BF000871BF000871BF0008D0
:1000500071BF000871BF000871BF000871BF0008C0
:1000600071BF000871BF000871BF000871BF0008B0
:1000700071BF000871BF000871BF000871BF0008A0
:1000800071BF000871BF000871BF000871BF000890
:1000900071BF000871BF000871BF0008F5A9000812
:1000A00071BF000871BF000871BF000871BF000870
:1000B000C941000871BF000871BF000871BF000886
:1000C00071BF000871BF000871BF000871BF000850
:1000D00071BF00082529000885260008015700087F
:1000E00071BF000871BF000871BF00080000000068
:1000F0000000000000000000000000000000000000
:0C01000000000000000000005FF808F1A3
:10010C0010B5054C237833B9044B13B10448AFF345
:10011C0000800123237010BDB000002000000000FF
:10012C0034EC000808B5034B1BB103490348AFF38B
:10013C00008008BD00000000B400002034EC000872
:10014C0010F8012B11F8013B012A28BF9A42F7D075
:10015C00D01A7047034613F8012B002AFBD1181A4A
:10016C000138704780F0004002E000BF81F0004190
:10017C0042001FBF5FEA410392EA030F7FEA226C41
:10018C007FEA236C6AD04FEA1262D2EB1363C1BFD1
:10019C00D218414048404140B8BF5B42192B88BF40
:1001AC00704710F0004F40F4000020F07F4018BF63
:1001BC00404211F0004F41F4000121F07F4118BF83
:1001CC00494292EA030F3FD0A2F1010241FA03FC2B
:1001DC0010EB0C00C3F1200301FA03F100F0004313
:1001EC0002D5494260EB4000B0F5000F13D3B0F1DB
:1001FC00807F06D340084FEA310102F10102FE2A4A
:10020C0051D2B1F1004F40EBC25008BF20F00100B9
:10021C0040EA03007047490040EB0000013A28BF58
:10022C00B0F5000FEDD2B0FA80FCACF1080CB2EBDB
:10023C000C0200FA0CF0AABF00EBC2505242184359
:10024C00BCBFD0401843704792F0000F81F40001FE
:10025C0006BF80F400000132013BB5E74FEA4103D1
:10026C007FEA226C18BF7FEA236C21D092EA030F3D
:10027C0004D092F0000F08BF0846704790EA010FB7
:10028C001CBF0020704712F07F4F04D1400028BFE4
:10029C0040F00040704712F100723CBF00F50000C6
:1002AC00704700F0004343F0FE4040F400007047FC
:1002BC007FEA226216BF08467FEA236301464202A8
:1002CC0006BF5FEA412390EA010F40F480007047BB
:1002DC004FF0000304E000BF10F0004348BF404261
:1002EC005FEA000C08BF704743F0964301464FF09D
:1002FC0000001CE050EA010208BF70474FF00003F9
:10030C000AE000BF50EA010208BF704711F0004339
:10031C0002D5404261EB41015FEA010C02BF844609
:10032C000146002043F0B64308BFA3F18053A3F568
:10033C000003BCFA8CF2083AA3EBC25310DB01FAAF
:10034C0002FC634400FA02FCC2F12002BCF1004F33
:10035C0020FA02F243EB020008BF20F001007047C4
:10036C0002F1200201FA02FCC2F1200250EA4C0018
:10037C0021FA02F243EB020008BF20EADC7070475E
:10038C004FF0FF0C1CEAD0521EBF1CEAD15392EA6C
:10039C000C0F93EA0C0F6FD01A4480EA010C400248
:1003AC0018BF5FEA41211ED04FF0006343EA5010A2
:1003BC0043EA5111A0FB01310CF00040B1F5000FE4
:1003CC003EBF490041EAD3715B0040EA010062F193
:1003DC007F02FD2A1DD8B3F1004F40EBC25008BF7D
:1003EC0020F00100704790F0000F0CF0004C08BF9B
:1003FC0049024CEA502040EA51207F3AC2BFD2F168
:10040C00FF0340EAC250704740F400004FF0000375
:10041C00013A5DDC12F1190FDCBF00F000407047AF
:10042C00C2F10002410021FA02F1C2F1200200FAED
:10043C0002FC5FEA310040F1000053EA4C0308BFB4
:10044C0020EADC70704792F0000F00F0004C02BF05
:10045C00400010F4000F013AF9D040EA0C0093F080
:10046C00000F01F0004C02BF490011F4000F013BDA
:10047C00F9D041EA0C018FE70CEAD15392EA0C0F48
:10048C0018BF93EA0C0F0AD030F0004C18BF31F0B3
:10049C00004CD8D180EA010000F00040704790F089
:1004AC00000F17BF90F0004F084691F0000F91F02D
:1004BC00004F14D092EA0C0F01D142020FD193EAF3
:1004CC000C0F03D14B0218BF084608D180EA01007B
:1004DC0000F0004040F0FE4040F40000704740F057
:1004EC00FE4040F4400070474FF0FF0C1CEAD05225
:1004FC001EBF1CEAD15392EA0C0F93EA0C0F69D081
:10050C00A2EB030280EA010C49024FEA402037D0EB
:10051C004FF0805343EA111143EA10130CF00040E2
:10052C008B4238BF5B0042F17D024FF4000C8B42D2
:10053C0024BF5B1A40EA0C00B3EB510F24BFA3EBB2
:10054C00510340EA5C00B3EB910F24BFA3EB910382
:10055C0040EA9C00B3EBD10F24BFA3EBD10340EADC
:10056C00DC001B0118BF5FEA1C1CE0D1FD2A3FF622
:10057C0050AF8B4240EBC25008BF20F001007047D7
:10058C000CF0004C4CEA50207F32C2BFD2F1FF037A
:10059C0040EAC250704740F400004FF00003013AAB
:1005AC0037E792F0000F00F0004C02BF400010F44F
:1005BC00000F013AF9D040EA0C0093F0000F01F063
:1005CC00004C02BF490011F4000F013BF9D041EA85
:1005DC000C0195E70CEAD15392EA0C0F08D14202B8
:1005EC007FF47DAF93EA0C0F7FF470AF084676E78B
:1005FC0093EA0C0F04D14B023FF44CAF08466EE764
:10060C0030F0004C18BF31F0004CCAD130F0004231
:10061C007FF45CAF31F000437FF43CAF5FE700BF89
:10062C004FF0FF3C06E000BF4FF0010C02E000BFB2
:10063C004FF0010C4DF804CD4FEA40024FEA410354
:10064C007FEA226C18BF7FEA236C11D001B052EA0A
:10065C00530C18BF90EA010F58BFB2EB030088BFD0
:10066C00C81738BF6FEAE17018BF40F0010070473F
:10067C007FEA226C02D15FEA402C05D17FEA236C21
:10068C00E4D15FEA412CE1D05DF8040B704700BF68
:10069C00844608466146FFE70FB5FFF7C9FF0028FF
:1006AC0048BF10F1000F0FBD4DF808EDFFF7F4FF38
:1006BC000CBF012000205DF808FB00BF4DF808EDD1
:1006CC00FFF7EAFF34BF012000205DF808FB00BFF4
:1006DC004DF808EDFFF7E0FF94BF012000205DF816
:1006EC0008FB00BF4DF808EDFFF7D2FF94BF0120C7
:1006FC0000205DF808FB00BF4DF808EDFFF7C8FFC0
:10070C0034BF012000205DF808FB00BF4FEA400217
:10071C004FEA41037FEA226C02D15FEA402C08D1F8
:10072C007FEA236C02D15FEA412C02D14FF000002A
:10073C0070474FF0010070474FEA4002B2F1FE4F94
:10074C000FD34FF09E03B3EB12620DD94FEA002387
:10075C0043F0004310F0004F23FA02F018BF404260
:10076C0070474FF00000704712F1610F01D1420247
:10077C0005D110F0004008BF6FF0004070474FF0FB
:10078C000000704742000ED2B2F1FE4F0BD34FF077
:10079C009E03B3EB126209D44FEA002343F00043EB
:1007AC0023FA02F070474FF00000704712F1610F0E
:1007BC0001D1420202D14FF0FF3070474FF00000E0
:1007CC00704700BF0022427082700122C270022268
:1007DC00B1FA81F10271032249090170427170472B
:1007EC0043788B421FD0012941700AD0022910D0C6
:1007FC00C1B90123C37002238170037103234371B8
:10080C007047037843B1012383700223C370002324
:10081C00F3E70378002BF6D0022383700023C37018
:10082C000123EAE7FEE770470B8882B0ADF8003091
:10083C004B880239ADF80230CB88ADF804300B8907
:10084C00ADF80630831C063013F8012B0DF1080CA3
:10085C000CEB420232F8082C834221F8022FF3D120
:10086C0002B070474FF07F32094B10B5C0E923231B
:10087C004FF47F43A0F89430FF23044680F8963061
:10088C00983000F0DCFC002384F8A43010BD00BFCD
:10089C00FFFF7F0070B5154604461E46114600F05A
:1008AC0064FC294604F1140000F05FFC294604F1B5
:1008BC00280000F05AFC294604F13C0000F055FCDD
:1008CC00294604F1500000F050FC294604F1640064
:1008DC0000F04BFC294604F1780000F046FC4FF484
:1008EC00FA7332464FF4FA6104F1980000F08DFC73
:1008FC002046FFF7B7FF002384F8A5304FF47F4361
:10090C00A4F8A63070BD704700F036BC143000F06F
:10091C0033BC08B5503000F039FC00F1140302462A
:10092C002920B3FBF0F313F0FF0002D1101E18BF07
:10093C00012008BD08B5643000F028FC00F1140358
:10094C0002462920B3FBF0F313F0FF0002D1101E76
:10095C0018BF012008BD90F8903013B990F98C00A5
:10096C00704790F98D00704790F8903013B990F95A
:10097C008E00704790F98F00704710B504460AF04E
:10098C00E5F938B104F13C0000F0FAFB012838BF5E
:10099C000120C0B210BD783000F0FABB783000F006
:1009AC00FFBB10B5044600F0C1FB04F1140000F0CD
:1009BC00BDFB04F1280000F0B9FB04F13C0000F091
:1009CC00B5FB04F1500000F0BDFB04F1640000F035
:1009DC00B9FB04F17800BDE8104000F0B9BB7F28EA
:1009EC0007D0002807DA10F1800F06D04042C0B2C1
:1009FC00704700207047012070477F20704710B16E
:100A0C00404240B270477F2070477F280FD010F1D2
:100A1C00310F0EDA10F1780F0DDBFE23783040B277
:100A2C00584346232330B0FBF3F0C0B27047FF208D
:100A3C007047FE20704700207047012805DD40F20A
:100A4C00FE73984203DC80B270470120704740F27D
:100A5C00FF70704740F2AE73A0F57870C0EBC02009
:100A6C0090FBF3F000F58060FFF7E7BFFFF7F2BFF4
:100A7C00032812DD0C2812DD0F2812DD122812DDDE
:100A8C00162812DD192812DD1C2812DD1F2812DD94
:100A9C002128CCBFFF200620704700207047012082
:100AAC0070470220704708207047032070470720CA
:100ABC0070470420704705207047022809D0012890
:100ACC0009D050B103280AD004280CBF0120FF2004
:100ADC007047132070471F207047012070476F200C
:100AEC00704702280ED0012807D040B1032808D047
:100AFC0004280CBF0520FF207047032070470520F9
:100B0C0070470B2070477F2808BF0020C0B2704789
:100B1C007F2811D010F1320F10DA884210DD6423D7
:100B2C00401A5843C1F1FF2101F57F01CE3131301C
:100B3C0090FBF1F0C0B27047FF2070476420704703
:100B4C000020704752B110B4054C0A4411F8013B17
:100B5C0058408A42205CF9D110BC7047704700BFE6
:100B6C0084EC0008A0F16103192B0FD95F280DD07C
:100B7C002338C3B2162B97BF05480120D840C04379
:100B8C0098BF00F0010080F0010070470120704711
:100B9C0001EC7F00F8B5024600245F27451E461D78
:100BAC0015F8010FFF2804BF0134E4B2FFF7DAFF98
:100BBC0000B92F70AE42F3D1062C04D119B10B68D9
:100BCC0013608B88938000239371F8BD2DE9F84353
:100BDC00012500264FF02808DFF82C90471E441DF5
:100BEC0017F8011F08480DF066FF10B1A0EB0900C3
:100BFC00C0B2A0FB05038619A742A5FB0853EFD191
:100C0C003046BDE8F88300BF84ED000810B541798B
:100C1C00A1F13000C3B2092B07D80523B0FBF3F3C5
:100C2C0003EB8303C01AC0B210BD044C20460DF078
:100C3C0042FF0028F1D0001BC0B2EEE784ED0008A3
:100C4C0070B50446FFF786FA002382B2561E98B29E
:100C5C00B04204EB000103DA255C0133302DF6D0F1
:100C6C00121A01322046BDE870400DF0F3BE0000B0
:100C7C002DE9F04F0D4699B0164600211A461F4635
:100C8C0080460DF001FF00212A2201A800910DF0F1
:100C9C00FBFEDFF8CC90DFF8CCA0DFF8CCB005EB96
:100CAC004606AE424AD047F6FF7335F9020B98421E
:100CBC0044D0002812DC59460CA80DF009FF6846F8
:100CCC00FFF748FA04460CA8FFF744FA0444A7427D
:100CDC00E7D368460CA90DF0DFFEE2E7B0F57A7FAA
:100CEC000BDA0CA980B20CF01CF90CA8FFF7A8FFCA
:100CFC0051460CA80DF0D0FEE1E764243230B0FB75
:100D0C00F4F00CA980B20CF00CF90CA8FFF798FFCA
:100D1C000CA8FFF71FFA00F15F036B4413F8302C9B
:100D2C0000F160010DEB010000F8302C2E2203F8CD
:100D3C00302C0023494600F82F3CDAE76846FFF7D1
:100D4C0009FA30B100F160030DEB0300002300F849
:100D5C00613C694640460DF0BBFE19B0BDE8F08F12
:100D6C007EEC000879EC000874EC0008F0B589B052
:100D7C006D4600242F468E1CE1B28A4205D936F806
:100D8C002410013425F8021BF6E73946FFF770FFF3
:100D9C0009B0F0BD42F21073B0FBF3F2642103FB17
:100DAC001200B0FBF1F301FB130000EB023000EB7F
:100DBC00831080B2704742F21071020B00F03F03B7
:100DCC0001FB02336422C0F3851002FB0030704734
:100DDC002DE9F04142F21074B1FBF4F6642704FBE8
:100DEC00161488B01E4905460DF072FE6946F0B225
:100DFC000CF076F86846FFF723FFB4FBF7F6DFF844
:100E0C006480694628460DF047FE414628460DF0A1
:100E1C0043FE07FB16446946F0B20CF061F86846D5
:100E2C00FFF70EFF694628460DF036FE4146284670
:100E3C000DF032FE6946E0B20CF052F89DF801302C
:100E4C0069468DF800309DF8023028468DF8013047
:100E5C0000238DF802300DF01FFE08B0BDE8F081C4
:100E6C0008F9000882EC000870B50D460021044614
:100E7C0016460DF009FE00239AB2964204D9EA5C9C
:100E8C0012B1E2540133F7E770BD70B50E4614464B
:100E9C000021013205460DF0F7FD00239AB2944271
:100EAC0004D9F25C12B1EA540133F7E770BD30B5E6
:100EBC000023044698B290420ED2E55CC85C1DB982
:100ECC00B0FA80F0400930BD0028FCD0854203F117
:100EDC000103EFD00020F6E70120F4E77D234380E7
:100EEC0043F23903C360002309B201808180C380BF
:100EFC000372704702680449044B01FB023323F070
:100F0C0000430360180C7047FD430300C39E26008A
:100F1C00F0B5002597B0016085800446562229461D
:100F2C0068460DF0B1FD0126E27DAA424BD9204660
:100F3C00FFF7E0FFE77900217B1B90FBF3F2EC4617
:100F4C0002FB13000A46C0B2CBB29F420AD91CF86E
:100F5C0001EBBEF1000F03D1824204D00132D2B2B8
:100F6C000131F1E7002300221146277BD0B28742E2
:100F7C0006D92069805C0132984208BF0121F5E74F
:100F8C000029D1D1A2796119033A012A05D925B1D9
:100F9C0091F9172082B9012BC6D90B76A26852F8A9
:100FAC002310583305F10E026B44013544F822101E
:100FBC0003F8586CEDB2B7E7501E8342EDDB0132FB
:100FCC009342EADCB0E70023802104F1B800A3755A
:100FDC0017B0BDE8F0400DF057BD00002DE9F04F03
:100FEC00154697B0013D0160027104464371EDB2A4
:100FFC005622002168460DF047FD022D98BF4FF098
:10100C0003094FF0000794F807808ABF4FF00109DD
:10101C00B8FBF9F800253E46DFF8FCA0DFF8FCB081
:10102C00E27DB2426DD92046FFF764FFA8EB0603C0
:10103C0090FBF3F2002102FB1300EC460A46C0B20F
:10104C00CBB243450AD21CF801EBBEF1000F03D121
:10105C00824203D00132D2B20131F1E70021434583
:10106C0028BF4346084609FB035C94F80CE05FFA82
:10107C008CFCCAB2964506D92269525C0131624594
:10108C0008BF0120F5E70028CAD16079A1680138B2
:10109C0051F82C20032808D8DFE800F0021E222487
:1010AC001F4810441F4A9042BAD916B10FBB012BEE
:1010BC00B6D9A21982F818C051F82C1006F10E02FC
:1010CC0044F82210012103F158026A440E441F46D1
:1010DC0002F8581CF6B2A3E75A4412488242E3E7DE
:1010EC005244FAE7A2F53D02A2F59D420E48443A5D
:1010FC00F4E77A1E9342DCDB7A1CD2B29342D8DC42
:10110C008EE70023802104F1B800A37517B0BDE869
:10111C00F04F0DF0B9BC00BF287643FF776245FF56
:10112C00C54E47FF3BB101003CB101006421D0E941
:10113C000123D31AC3604B43418A8260B3FBF1F3A2
:10114C0003747047D0E90123D31AC0E90223704716
:10115C0043682BB16421C2684A43B2FBF3F3DBB2A0
:10116C0003740023C3604360704700234182C0E9CD
:10117C000233436003747047436801334360704724
:10118C00007C704743680B4443607047C0687047ED
:10119C0011B1C3680133C3604368013343607047C6
:1011AC00007C704700234360038170470A2310B50D
:1011BC000446838001F0F8FC2368E0809B6820469D
:1011CC0098474FF62F03984228BF1846208110BD30
:1011DC00038970B504469BB1858845B1013DADB21C
:1011EC0085806DB903681B68BDE87040184701F035
:1011FC00DBFCE388C01A238980B2834201D22581AB
:10120C0070BD236820465B68EEE72DE9F04104468B
:10121C0010461D4616468846FFF75AF8074606EB59
:10122C000800FFF755F801463846FFF75DF9656091
:10123C0020602846FFF750F8A060BDE8F08110B59B
:10124C0004464068FFF748F8A06010BD10B504468E
:10125C00022980EAE070A0EBE47068D15AB9002C46
:10126C00ACBF7F233F239842A8BF1846002C01DA5D
:10127C0040F0400010BD012A1AD1632805DC400063
:10128C00002CF7DA40F48070F4E740F2F543984212
:10129C000CDCFFF71DF85749FFF772F80CF036FA23
:1012AC00FFF770FA400040F00100E9E7FF20E7E7A4
:1012BC00022A40F09C80632805DC8000002CD9DADF
:1012CC0040F40070D6E7B0F57A7F0CDAFFF700F83F
:1012DC004849FFF755F80CF019FAFFF753FA80005C
:1012EC0040F00100EAE742F20F7398420CD8FEF787
:1012FC00EFFF4149FFF744F80CF008FAFFF742FA08
:10130C00800040F00200D9E73C4B98420CD8FEF725
:10131C00DFFF3B49FFF734F80CF0F8F9FFF732FA2E
:10132C00800040F00300C9E740F2FF10C6E7032934
:10133C005DD1012A1BD1B0F57A7F05DA4000002C73
:10134C0098DA40F4006095E7B0F5205F0CDAFEF710
:10135C00BFFF2849FFF714F80CF0D8F9FFF712FA81
:10136C00400040F00100EAE740F2FF70E7E7022A94
:10137C003DD1B0F57A7F06DA8000002CBFF67AAF4B
:10138C0040F4805076E742F20F7398420CDCFEF783
:10139C009FFF1849FEF7F4FF0CF0B8F9FFF7F2F9CC
:1013AC00800040F00100E8E7164B98420CD8FEF79D
:1013BC008FFF1149FEF7E4FF0CF0A8F9FFF7E2F9F3
:1013CC00800040F00200D8E7B0F57A2F0CD2FEF77F
:1013DC007FFF0B49FEF7D4FF0CF098F9FFF7D2F919
:1013EC00800040F00300C8E740F6FF70C5E700201E
:1013FC0040E700BFCDCCCC3D0AD7233C17F0010011
:10140C006F12833A9F86010000230360704700002F
:10141C00092928BF092138B5064B04461B780D460F
:10142C008B4202D10023036038BD01F0B1FB257162
:10143C002060F9E7CC000020036810B504460BB916
:10144C00002010BD01F0A4FB2368C01A40F2EE236B
:10145C009842F5D90023054A2360127823799A42E1
:10146C00EED0034A0120D377EBE700BFCC0000207D
:10147C0024010020FF234371002301718371038138
:10148C008372704738B5037904460D465BB14179D8
:10149C00A94208D041B101290AD000236571A3717A
:1014AC0055B1012D0FD038BD03689B689847F4E700
:1014BC0003680021DB68F9E7012123689B6820465B
:1014CC009847A071EFE723682946DB68F7E7704778
:1014DC007047704770470020704700207047704776
:1014EC000020704700207047054B82B0DA69024338
:1014FC00DA61DB6918400190019B02B0704700BFB4
:10150C0000100240054B82B09A6902439A619B69B4
:10151C0018400190019B02B0704700BF00100240C0
:10152C0000F10C0353E8003F43F0200300F10C01E1
:10153C0041E80032002AF3D1704700F10C0353E864
:10154C00003F43F0800300F10C0141E80032002A17
:10155C00F3D1704700F10C0353E8003F23F0200354
:10156C0000F10C0141E80032002AF3D1704700F180
:10157C000C0353E8003F23F0400300F10C0141E859
:10158C000032002AF3D1704700F10C0353E8003FFE
:10159C0023F0800300F10C0141E80032002AF3D162
:1015AC00704770470288044B5140C9B233F8113070
:1015BC0083EA122303807047AC1601089AB110B469
:1015CC00B0F800C0084C0A4411F8013B83EA0C0344
:1015DC00DBB234F81330914283EA1C2CA0F800C023
:1015EC00F2D110BC70477047AC1601084FF6FF7370
:1015FC0037B50446ADF806304518AC4206D014F8A1
:10160C00011B0DF10600FFF7CDFFF6E7BDF8060054
:10161C0003B030BD044B1888044B80B21B889BB2BE
:10162C00C01A18BF01207047102B00200E2B002071
:10163C000023044A1380044A1380044A1380044A8A
:10164C00138070470E2B0020102B0020122D002031
:10165C00142D002000207047044B1888044B80B2D6
:10166C001B889BB2C01A18BF01207047182F00208E
:10167C00162F002070470023A0F87032A0F86E32AD
:10168C0070470023A0F85C32A0F85A327047000073
:10169C002D4B5A6A037A92B263B18389D31A9BB2E7
:1016AC00B3F5FA7F84BF00230372837A4F2B84BF78
:1016BC0000230372037A8281082B0FD8DFE803F032
:1016CC00050E0E0E0E0E0F172200EE2901D0C829A2
:1016DC0004D1012383720623417503727047837A08
:1016EC005A1C03448272597507234172F5E7827ABA
:1016FC00531CDBB2024483725175427A9A42EDD28A
:10170C000823EAE7837A5A1C034482725975C37D15
:10171C00162B04D1012380F865300923DDE74369DA
:10172C000A4A03F0FF2393424FF0010309D1428B85
:10173C00B2F5A26F05D180F86730037F80F868306E
:10174C00EBE780F86630E8E70004004000C80032A0
:10175C000020704700207047002070470020704721
:10176C007047B0F87032B0F86E22D21A93B21204ED
:10177C0041BFB0F8720201301B189BB2181E18BF83
:10178C0001207047A0F11400EBE70346B0F870227B
:10179C00B0F86E1291421FBF811891F87402B3F821
:1017AC00721201321ABF0A40A3F87022002070474F
:1017BC00A0F11400E9E700001E2208B5002103483F
:1017CC000DF062F90022024B1A7008BDA80A002025
:1017DC007803002038B54A780D46352A044601F1C5
:1017EC000C010AD80DF028F968780021C0F13602F6
:1017FC002044BDE838400DF047B9403551F8043B62
:10180C00A94240F8043BF9D10B88038038BD38B5A8
:10181C004A780C461B2A054601F10C010AD80DF03A
:10182C000BF960780021C0F11C022844BDE8384057
:10183C000DF02AB9283451F8043BA14245F8043B79
:10184C00F9D138BD38B54A780D46082A044601F15D
:10185C000C010AD80DF0F0F868780021C0F10902EB
:10186C002044BDE838400DF00FB9EB6803604B68BD
:10187C0043600B7A037238BD38B54A780C46072A98
:10188C00054601F10C010AD80DF0D6F8607800215C
:10189C00C0F108022844BDE838400DF0F5B8E36803
:1018AC0003604B68436038BD2DE9F0411378154651
:1018BC00037092F80180FD2B04460F46826880F875
:1018CC00018052D10A26AB788370EB78C3702B79E8
:1018DC0003716B794371AB7983716B7A297A1B0431
:1018EC0003EB0123E9790B4463F317028260424650
:1018FC00A91904F10C000DF09FF87A7B904507D2E2
:10190C0008F10C000021A2EB080220440DF0BCF8F9
:10191C0063781E44731C9BB2EA5CAB5D03EB022341
:10192C00A4F80C31A378DB070ED50236B6B23544D9
:10193C0004F5887305F10C0255F8041B954243F825
:10194C00041BF9D12A781A70BB7A84F82131FB7AFE
:10195C0084F822313B7B84F823317B7B84F824315F
:10196C003B7884F82031BDE8F08100234380AB78CC
:10197C0006260371EB7843712B798371697961F3D6
:10198C0017028260B3E770B50B78054603704B788D
:10199C000C4643700B78FD2B38D10A268B7883705C
:1019AC00CB78C3700B7903714B7943718B7983714D
:1019BC008B68C3718B68C3F30F2303728B7A4372EA
:1019CC00627804F10C01A8190DF036F86378B4F8BC
:1019DC000C213344EA54B4F80C115A1C92B2090A83
:1019EC00A954A278981CD20780B20ED504F588723F
:1019FC00054404F58E7452F8041BA24245F8041BEE
:101A0C00F9D112780F332A7098B270BD00238B7005
:101A1C000B79062683704B79C3708B7903718B68B5
:101A2C004371CDE72DE9F74F0C4651880546B1F5CA
:101A3C008C7F4FF0000010D31070D91CC9B2012953
:101A4C0095BF01210023518053809CBF23701170DE
:101A5C000020287003B0BDE8F08F16780E2E00F22F
:101A6C00BB8001A757F826F0471A0008B11A0008E6
:101A7C00D91A0008F51A0008E51B0008E51B000838
:101A8C00E51B0008E51B0008E51B0008E51B00082A
:101A9C00E51B0008E51B0008E51B0008E51B00081A
:101AAC00051B0008481C5080635421789BB2FD290B
:101ABC0006D10C330A21D380022391801370C7E71F
:101ACC0006210833D38091800E23F7E7481C508001
:101ADC006354D80742BFD1880D31D1800321012B2B
:101AEC001170B5D90023E9E7481C508063540E21CE
:101AFC001170002BF6D1ABE7481C5080635453880F
:101B0C00D1888B4260D300235380137002236980E9
:101B1C002B702378FD2B65D163792B72A3796B72B3
:101B2C00637A227A1B0403EB0223E27913446B6081
:101B3C00637803F10C026A80A278D10701D51933BE
:101B4C006B80002340F26B121E460C206968DFF894
:101B5C00FC806B81B31801335B0800FB03F758F86A
:101B6C000770B94247D25A1EB242F3D80C277743BA
:101B7C0058F80730994241D123782046FD2B0CBFF1
:101B8C004FF00A094FF0060910F801BF4744CB4447
:101B9C000BF1FF3189B2FFF729FD97F804A0ADF8DE
:101BAC00060051460DF10600FFF7FCFC0BF101039A
:101BBC00E25C14F80B3003EB0223BDF806209BB259
:101BCC009A4223D005201AE092889A423FF640AF01
:101BDC0001232B7000203DE7107050809080D08046
:101BEC002870F7E7E3782B7223796B7263796B605B
:101BFC0063780833A4E71E46B8D9B5E703202870EC
:101C0C00023801288CBF0020012023E7BB79DA07BA
:101C1C0007D56178FA79914282BF04EB09018A5C9D
:101C2C00AA729B0709D50C2303FB068362781B7AE7
:101C3C009A4282BF4C44E35CEB720C2303FB068399
:101C4C005B79022085F80CA06B73D8E75C04010863
:101C5C006FF02003024803604368FFF761BC00BFCC
:101C6C000048004008B5FFF7F3FF0022014B1A7241
:101C7C0008BD00BF3013002008B5FFF7E9FF0022B4
:101C8C00014B1A7208BD00BF9C0400204FF0320CAF
:101C9C000A4B0B491A680B4BA1FB0212920C0CFB62
:101CAC0002F202F5FA72A3FB023207499209486864
:101CBC004B681B1A9A42FBD8704700BF40000020AB
:101CCC0083DE1B43D34D6210001000E008B5FFF714
:101CDC00DDFF1022014B1A6108BD00BF0008014056
:101CEC001022024B5A61FFF7D1BF00BF0008014020
:101CFC00028810B58488531C234044889C421EBF24
:101D0C0012189171038010BD70B5104C002523463C
:101D1C0026782EB166788E4202D1A67896420BD0E8
:101D2C0001350C2D04F10404F2D1002413F82450D5
:101D3C001DB101340C2CF9D170BD012503F82450D0
:101D4C0003EB8403D87059709A70F5E77D0300207B
:101D5C002DE9F8430B465A7A9E7ADF7A204B0D799F
:101D6C001B5C0446DB07097A00D50DB9FFF7CCFFE5
:101D7C0000234FF0010E98461A4919489C4201F86D
:101D8C00018B25D02DB90278920702D501F801EC10
:101D9C001EE04FF0000C144A92F80090B9F1000FBD
:101DAC000FD092F8039099450BD1002EEED092F8FB
:101DBC000190B14505D1002FE8D092F80290B945B9
:101DCC00E4D00CF1010CBCF10C0F02F10402E3D1D4
:101DDC000133DBB2042B00F10100CFD1BDE8F88355
:101DEC00AD030020790300207D030020704707B568
:101DFC0003688DF807100122DB680DF10701984785
:101E0C0003B05DF804FB70B5044608460D46FEF7BA
:101E1C00A1F92368294682B2DB682046BDE87040F0
:101E2C0018470120FFF76EBB0D4B984202D10420DE
:101E3C00FFF768BB0B4B984205D003F580639842C3
:101E4C0003D11020F4E70820F2E7074B984201D1A8
:101E5C002020EDE7054B984200D070474020E7E783
:101E6C0000080140000C0140001401400018014022
:101E7C000B4B984203D14FF40060FFF743BBB0F11A
:101E8C00804F04D0074B984204D1022000E001207F
:101E9C00FFF72ABB044B984201D10420F8E77047A6
:101EAC00002C014000040040000800402DE9F041E6
:101EBC000C46154686B007461022002102A81E4685
:101ECC009DF834800CF0E0FD01940B2D07D8DFE871
:101EDC0005F00E0E070A1414141616161B1DFEE739
:101EEC000823029303E00823029301230593032E96
:101EFC000ED8DFE806F00E1E200E0123F1E70123B9
:101F0C00029304230493F2E70923EAE70923F7E792
:101F1C00FEE703230393B8F1000F02D03846FFF716
:101F2C0083FF053D042D0BD8DFE805F007110A07E8
:101F3C0011000223EEE70123ECE7C4F30F247C61CC
:101F4C00384601A90AF036FC06B0BDE8F081C4F3AE
:101F5C000F243C61F4E713B54FF0010C0024CDE9DC
:101F6C00004CFFF7A3FF02B010BD000070B5044693
:101F7C00164686B00D461422002101A80CF084FDF3
:101F8C002046FFF775FF042E04D8DFE806F02A2E52
:101F9C0004323B00FEE71C4B1C4A1B68B3FBF2F3FC
:101FAC009BB20022013B204601A9ADF80430CDE9DB
:101FBC000225049205920AF035FD236823F0800374
:101FCC002360A36823F4804323F00703A3606368B2
:101FDC0023F070036360A36823F08003A36006B052
:101FEC0070BD094B0A4A1B68D8E7074B094A1B68A6
:101FFC00D4E7054B064A1B68B3FBF2F303EB8303F0
:10200C005B00CDE70123CCE74000002080A8120143
:10201C0040420F0000127A0010B50446FFF7A6FFED
:10202C00236843F00103236010BD00224FF0FF3101
:10203C00FFF7F2BF1A4B10B55B681A4C236009F01E
:10204C0093FF19480AF066FB18480AF063FB18481E
:10205C000AF060FB17480AF0E5FD17480AF0E2FDAC
:10206C000AF02CFC4FF0E0220023136153619361C2
:10207C0072B64FF0FF319A0002F16042013302F563
:10208C006142082BC2F88010C2F88011F3D162B6FD
:10209C00034B1B6883F3088823689847FEE700BF4F
:1020AC0000F0FF1F7403002000080140000C0140E9
:1020BC00001001400038014000440040064B074826
:1020CC00C01AEFF30883C2431A44013B984288BFFD
:1020DC000022AA210CF0D8BC000400000050002003
:1020EC0010B5124C03232046062240F60801FFF7D8
:1020FC0032FF2046032302220D49FFF72CFF032356
:10210C0020461A460B49FFF726FF204603230522DB
:10211C0040F20221FFF71FFF2046BDE810400323C9
:10212C00052240F20111FFF716BF00BF000C014061
:10213C000100010402000204024B9868C0F3402025
:10214C00704700BF000C014008B5FFF7F5FF08B160
:10215C0000BFFAE708BD00000122024B5A610222BF
:10216C001A617047000C01400222024B5A61012295
:10217C001A617047000C014012480F23016921F0CD
:10218C000F0193FAA3F3B3FA83F2012393400B43A9
:10219C0003610D4B5A6822F480725A601A6822F45B
:1021AC0080721A60DA6822F48072DA609A6842F4FB
:1021BC0080729A60D022054B83F817234FF40002EB
:1021CC001A607047000001400004014000E100E08B
:1021DC004FF48072034B5A611A6842F480721A6091
:1021EC00704700BF0004014010B50A4C00230522C3
:1021FC0020460949FFF7AFFE002305222046074978
:10220C00FFF7A9FE4FF4004363614FF48043636111
:10221C0010BD00BF0010014080008004400040044D
:10222C000549CB681A04DB4302F0004203F4004377
:10223C0013430B61704700BF001001400549CB6888
:10224C001A04DB4302F0804203F4804313430B6116
:10225C00704700BF0010014010B5054C002305224B
:10226C0020460449FFF777FE4FF48053636110BD9D
:10227C0000080140100010044FF48052024B162845
:10228C00CCBF1A615A617047000801400C4BD3F85F
:10229C00FC2022F08072C3F8FC20D3F8FC2042F022
:1022AC008072C3F8FC20A3F55D431A6822F001028A
:1022BC001A601A6842F001021A6000225A607047D4
:1022CC0000ED00E0064B074A1B680749B3FBF2F32D
:1022DC00434310B54C684A68121B9A42FBD310BD9D
:1022EC004000002040420F00001000E02DE9F041BA
:1022FC0080464CF250300D4616461C4609F01CFF29
:10230C0068BBB8F1010F06D0B8F1020F0CBF4FF04B
:10231C0002084FF004080027124A136943F0010326
:10232C0013613801C0F12002A0F1200304FA02F27B
:10233C0026FA00F0104324FA03F3184380B225F870
:10234C0017004CF2503009F0F7FE18B90137FBB208
:10235C004345E6D3034A136923F001031361BDE837
:10236C00F08100BF002002407FB501230022CDE99F
:10237C00040301A902A8CDE9022309F019FF0028E2
:10238C000CBF0420052007B05DF804FB0A4608B515
:10239C00014600230220FFF7A9FF00280CBF0420F0
:1023AC00052008BD08B5FFF7DFFF031F5842584151
:1023BC0008BD08B5FFF7EAFF031F5842584108BD96
:1023CC002DE9F047254B264D01280FBF7D267C2695
:1023DC00AA461D460F4614462249234A06BF894683
:1023EC009A46914609F08CFE31462846FFF7DAFFF3
:1023FC0010B3002F08BF4FF478744FF0000803346B
:10240C00A40805F11006AAEB050A1FFA88F39C42F2
:10241C0018D93FB95AF806104B1C06D108F101081F
:10242C000436F2E757F82810F6E74E4513D230463B
:10243C00FFF7BFFF0028F1D1002409F073FE2046FE
:10244C00BDE8F0874FF011312846FFF7B2FF0028A6
:10245C00F2D00424F1E70324EFE700BF00F00108F9
:10246C0000F40108FFF70108FFF3010810B509F0AB
:10247C0047FE7C210748FFF795FF20B17D210648D8
:10248C00FFF790FF20B9002409F04CFE204610BD48
:10249C000424F9E700F0010800F40108002330B52A
:1024AC00074A084D9CB2A14206D99C18AC4205D0F3
:1024BC009C5CC4540133F5E7042030BD0320FCE7D9
:1024CC0010F00108FFF3010838B504460D4672B64A
:1024DC000A4601460020FFF773FF62B6042806D1B6
:1024EC0072B601202A462146FFF76AFF62B638BD54
:1024FC0038B5124B1C68D3F80054B4F1113F09D114
:10250C00B5F1113F17D0002201201146BDE838402B
:10251C00FFF756BFB5F1113F03D10022114610460B
:10252C00F4E7FFF7A3FF042804D12C4001340CBFBF
:10253C000220012038BD0420FCE700BF00F0010898
:10254C00034B18739A68D207FCD5187B704700BFF1
:10255C000030014038B5441E8D18A94206D014F83D
:10256C00010FFFF7EDFF01F8010BF6E738BD084648
:10257C0011461A46FFF7EEBF38B50446054D014427
:10258C00A14205D02878FFF7DBFF04F8010BF7E731
:10259C0038BD00BF3400002008461146FFF7ECBFE1
:1025AC0010B5044601448C4204D014F8010BFFF71B
:1025BC00C7FFF8E710BD08461146FFF7F1BF000052
:1025CC00F0B50625012610278DB0294C28220021B4
:1025DC0002A80CF059FAFFF724FC4FF48050FEF7D8
:1025EC0091FF41F21001204603230622FFF7B3FCB2
:1025FC002046276103230A2242F22001CDE900562E
:10260C00FFF754FC204603230A2248F28001CDE94F
:10261C000056FFF74BFC032320461A4644F24001B8
:10262C00CDE90056FFF742FC00234FF48272CDE94E
:10263C000533CDE909330293039204934FF40072EE
:10264C00072304F52054204602A90B930897079200
:10265C000AF0BCF9236843F040032360A3689B078E
:10266C00FCD5FF22237B034B1A700DB0F0BD00BFCD
:10267C0000080140340000201C4B10B41A6894066A
:10268C0011D5D96888060ED5194C1A485968238873
:10269C0000880133C3F30A0380B298421FBF164867
:1026AC00C9B2C1542380110744BF104B5B6812069A
:1026BC0016D50E48C3681B0612D5104B104A198844
:1026CC00138889B29BB299420CD013880133C3F39F
:1026DC000803138013880B4A9BB2D35CDBB24360B4
:1026EC0010BC704710BCFEF74FBF00BF0044004049
:1026FC00102B00200E2B00200E230020142D002068
:10270C00122D0020122B00200A490B4A08B50B8809
:10271C0012880133C3F3080392B29A4207D0074AD6
:10272C00D05407480B80FEF708FF012008BD00209D
:10273C00FCE700BF142D0020122D0020122B0020CE
:10274C000044004038B504464518AC4204D014F897
:10275C00010BFFF7D9FFF8E738BD08461146FFF724
:10276C00F1BF0000054B064A1B8812889B1A98B2D1
:10277C001B0444BF00F5006080B27047102B002092
:10278C000E2B0020FFF7EEBF0848094A018813887A
:10279C0089B29BB29942F9D013880133C3F30A036F
:1027AC0013801388034A9BB2D05C7047102B002017
:1027BC000E2B00200E230020FFF7E6BF002300B5F0
:1027CC00002989B0CDE9063318BF4FF48053CDE909
:1027DC0002320C2301900491034801A905930AF0DD
:1027EC0053FA09B05DF804FB0044004010B5064CE8
:1027FC00E36823F40053E360FFF7E0FFE36843F47E
:10280C000053E36010BD00BF0044004000220846A6
:10281C001146FFF7EBBF0000F7B5082601272F4C38
:10282C002F4DE36840F2044123F40053E360FFF7BB
:10283C00F8FA4FF40030FEF757FE284603230A221D
:10284C00CDE90067FFF732FB032328461A4640F612
:10285C000801CDE90067FFF729FB00224FF4E130B6
:10286C001146FFF7ABFFB022236923F49043236199
:10287C00636923F02A0363611A4B83F826234022F1
:10288C005A602046FEF780FEFEF771FE6FF04003A3
:10289C0023600024144B1C80144B1C80FEF75AFE42
:1028AC006FF020030360124B1C80124B1C800369D9
:1028BC0023F400630361436923F008034361036954
:1028CC0023F480430361436923F022034361C3680B
:1028DC0043F40053C36003B0F0BD00BF004400409C
:1028EC000008014000E100E0122D0020142D002012
:1028FC000E2B0020102B002008B5FFF78DFF6FF07A
:10290C002003034803604368BDE80840FEF708BE97
:10291C0000440040FFF7F0BF1C4B10B41A6894063B
:10292C0011D5D96888060ED5194C1A4859682388D0
:10293C0000880133C3F3080380B298421FBF1648C6
:10294C00C9B2C1542380110744BF104B5B681206F7
:10295C0016D50E48C3681B0612D5104B104A1988A1
:10296C00138889B29BB299420CD013880133C3F3FC
:10297C000903138013880B4A9BB2D35CDBB2436010
:10298C0010BC704710BCFEF7FFBD00BF0038014003
:10299C00182F0020162F0020162D00201C3300208D
:1029AC001A3300201A2F00200A490B4A08B50B884D
:1029BC0012880133C3F3090392B29A4207D0074A33
:1029CC00D05407480B80FEF7B8FD012008BD00204D
:1029DC00FCE700BF1C3300201A3300201A2F002004
:1029EC000038014038B504464518AC4204D014F800
:1029FC00010BFFF7D9FFF8E738BD08461146FFF782
:102A0C00F1BF00000848094A0188138889B29BB2BB
:102A1C009942F9D013880133C3F308031380138848
:102A2C00034A9BB2D05C7047182F0020162F002051
:102A3C00162D0020FFF7E6BF002300B5002989B052
:102A4C00CDE9063318BF4FF48053CDE902320C2385
:102A5C0001900491034801A905930AF015F909B0F6
:102A6C005DF804FB00380140F7B5082601272E4C11
:102A7C002E4DE3682E4923F40053E360FFF7D1F9A0
:102A8C004FF48040FEF73EFD284603230A22CDE991
:102A9C000067FFF70BFA032328461A46CDE90067B7
:102AAC002449FFF703FA00224FF4E1301146FFF7F7
:102ABC00C3FFB022236923F490432361636923F09D
:102ACC002A0363611C4B83F8252320225A6020467D
:102ADC00FEF75AFDFEF74BFD6FF040032360002418
:102AEC00164B1C80164B1C80FEF734FD6FF0200338
:102AFC000360144B1C80144B1C80036923F400638B
:102B0C000361436923F008034361036923F48043A1
:102B1C000361436923F022034361C36843F4005308
:102B2C00C36003B0F0BD00BF003801400008014095
:102B3C00020002040400040400E100E01A33002047
:102B4C001C330020162F0020182F002008B5FFF78B
:102B5C008BFF6FF02003034803604368BDE8084017
:102B6C00FEF7DEBC00380140FFF7F0BF054A064B0C
:102B7C0011681B780B441360044A1368013313600B
:102B8C00704700BF2C330020440000209408002024
:102B9C00014B1868704700BF2C3300200148FFF729
:102BAC0044BA00BF00040040014B586A80B2704721
:102BBC00000400400022024B1A60FFF7EFBF00BF79
:102BCC009408002070B51B4C90220021201D0BF0A6
:102BDC005BFF012323800F23174E052231466380B0
:102BEC00A380A01D2C23FEF7C1F84FF4A0234FF6B1
:102BFC00FF75124A3146C4E90D2304F13E002C2323
:102C0C000522A587FEF7B2F80223E36600230C49E0
:102C1C0004F17A0084F872306367A4F87830A4F871
:102C2C0070500BF055FF7F2384F88F30052384F808
:102C3C00903070BDE00200208CFC000802000B00FC
:102C4C000BEE000870B5094E05460C46415C30464B
:102C5C000BF031FF034628B1831B0133DBB2282B69
:102C6C0028BF0023F35C2B5570BD00BF3003010857
:102C7C0070B50D461146044616460BF029FF2DB3D0
:102C8C00013D082D08D8DFE805F0051113151719BB
:102C9C001B1D1F0035236371627973799A4215D11C
:102CAC002046BDE870400521FFF7CCBF6123F2E759
:102CBC006623F0E76B23EEE77023ECE77523EAE776
:102CCC007A23E8E73123E6E73223E4E770BD00001E
:102CDC0073B5054605F111061B4C01461B4A6846A7
:102CEC003601FFF7C5FFB01C694620440BF0F0FE1F
:102CFC000023142004EB0512264400FB05407372DC
:102D0C000221A2F81A3103250122A0F84A10C2644C
:102D1C00A0F8523080F8543080F85050C4F83A3053
:102D2C004FF48070C4F83E30C4F8423040F20113C6
:102D3C00E184074984F83020C4E90A01A4F846303C
:102D4C00A4F8483002B070BD24010020DCED00086E
:102D5C0003020100F7B5054605F111060146A94A23
:102D6C00A94C68463701FFF783FFB81C694620441D
:102D7C002744FDF70FFF7B7A04EB0610052B84BF6D
:102D8C0000237B72A14B427A198841FA02F212F0AD
:102D9C0001020DD1427259B111F0010208D141FA70
:102DAC0002F7FF07D0B240F1DE8104EB061250723D
:102DBC0004EB051191F81A012A01042802D900200C
:102DCC0081F81A01A718588897F81A1140FA01F1DE
:102DDC00C90711D4022187F81A1168B14707C0F34B
:102DEC00800109D440FA01FC1CF0010FCFB200F0B5
:102DFC00BF81A11881F81A71A11891F81B01032841
:102E0C0002D9002081F81B01A718988897F81B118C
:102E1C0040FA01F111F001010FD187F81B1160B1DB
:102E2C0010F0010109D140FA01FC1CF0010FCFB2E6
:102E3C0000F0A381A11881F81B7104EB0616717ABE
:102E4C00012905D904291EBF0021121982F81B1172
:102E5C00142202FB054191F84A00042802D90220F1
:102E6C0081F84A0002FB054292F84B10042902D962
:102E7C00002182F84B10142202FB0542998E92F825
:102E8C004B0041FA00F0C00712D4012082F84B002D
:102E9C0071B18F07C1F340020AD441FA02F6F6076A
:102EAC00D0B240F16F81142202FB054282F84B0034
:102EBC00142202FB054292F84C10032902D901217D
:102ECC0082F84C10142000FB0540D98E90F84C2051
:102EDC0041FA02F212F0010210D180F84C2069B1D3
:102EEC0011F001020AD141FA02F6F707D0B240F113
:102EFC004E81142202FB054282F84C00142202FB84
:102F0C00054292F84E10012902D9002182F84E1088
:102F1C00142000FB0540198F90F84E2041FA02F264
:102F2C0012F0010210D180F84E2069B111F00102AB
:102F3C000AD141FA02F6F607D0B240F12D811422E3
:102F4C0002FB054282F84E00142202FB054292F865
:102F5C004F10022902D9002182F84F10142000FBD7
:102F6C000540598F90F84F2041FA02F212F00102FD
:102F7C0010D180F84F2069B111F001020AD141FA49
:102F8C0002F6F707D0B240F10C81142202FB054285
:102F9C0082F84F00142202FB054191F84D000228E3
:102FAC0002D9002081F84D0002FB054292F8501026
:102FBC00052902D9032182F85010142202FB054185
:102FCC0091F85200012802D9002081F8520002FB2E
:102FDC00054292F85310022902D9002182F85310AD
:102FEC00142000FB0540998F90F8532041FA02F20F
:102FFC0012F0010217D180F85320A1B111F0010297
:10300C0011D105E0DCED000824010020E0020020D5
:10301C0041FA02F6F607D0B240F1C880142202FB46
:10302C00054282F85300142202FB054191F854002A
:10303C00022802D9002081F8540002FB054292F8C4
:10304C004C10012906D192F84F10022904BF00211F
:10305C0082F84F1094F82620042A02D9022284F810
:10306C00262094F82720042A02D9002284F827204D
:10307C00B3F86C1094F8272041FA02F2D6070FD45B
:10308C00012284F8272059B18807C1F3400207D4E4
:10309C0041FA02F6F707D0B240F18D8084F8270090
:1030AC0094F82820022A02D9002284F8282094F8C7
:1030BC002920022A02D9012284F82920B3F86E10A3
:1030CC0094F8293041FA03F313F00102674B0CD149
:1030DC0084F8292049B111F0010206D141FA02F617
:1030EC00F607D0B26CD583F8290094F82A200C2A64
:1030FC0002D9002284F82A2094F832200C2A02D912
:10310C00002284F8322093F82B20042A02D90022C2
:10311C0083F82B2093F82F20012A02D9002283F860
:10312C002F20534AB2F8701093F82F2041FA02F274
:10313C0012F001020CD183F82F2049B111F00102D9
:10314C0006D141FA02F4E707D0B23DD583F82F003F
:10315C0000221046474911F9014B14F1780F37DA68
:10316C0001F8010C36E00132102A7FF418AE1FE68C
:10317C00013110297FF436AE3EE6013110297FF47F
:10318C0052AE5AE60132102A7FF487AE90E6013235
:10319C00102A7FF4A8AEB1E60132102A7FF4C9AE32
:1031AC00D2E60132102A7FF4EAAEF3E60132102A9D
:1031BC007FF42EAF37E70132102A7FF469AF6FE747
:1031CC000132102A8AD190E70132102AB9D1BFE717
:1031DC00782CC5DC0132D2B20C2ABCD100220120E1
:1031EC00254911F8014B0132022CD2B288BF01F8EB
:1031FC00010C042AF5D193F82C20052A02D90322BC
:10320C0083F82C2093F82D20022A02D9022283F86D
:10321C002D2093F82E20022A02D9012283F82E2089
:10322C0093F83020022A02D9012283F8302014218D
:10323C00FF226943581883F8312080F851204FF64B
:10324C00FF744FF0FF32553103EB051558181A6215
:10325C009A84C5F81C21A5F820415A50426004728A
:10326C0083F833205A631A8703B0F0BD2401002081
:10327C00E00200205E0100206A010020154B9870CE
:10328C00042804D8DFE800F004141A200400FEE738
:10329C00114A9A6400221A710A220338012894BF39
:1032AC00002001201A771A7998731A74987670474F
:1032BC000A4A9A6401221A710F22EEE7084A9A64AC
:1032CC0002221A711922E8E7064A9A6400221A713E
:1032DC000722E2E7CC0000201400320020001F007F
:1032EC003500130009006F002DE9F34100F11107BF
:1032FC006B4D3F0107F10208A84406464046FDF716
:10330C0065FC042101900DEB0100664CFEF76EF993
:10331C00019B0021A3606361142303FB065393F804
:10332C004A20614B2F4413F92230E0832373237618
:10333C005E4B84F8541023657B7A3701637005EB80
:10334C00061393F81A01FFF799FF594A637812880C
:10335C006373A285E28B637684F82830626284F80A
:10336C002A1023B94046FDF751FC84F82A002F445B
:10337C0097F81B2184F829206AB1E18B02EB021328
:10338C0003EB03230B444FF01131E383A36801FBE0
:10339C000232A260626194F82830052B04D8DFE871
:1033AC0003F0043D3F414349FEE7A378032B03D8C8
:1033BC00DFE803F003303203FEE718233D4F84F8B7
:1033CC00203017E90F0087E80F0040F2E24394F831
:1033DC002000A4F84C30FCF77FFF4FF07F51FCF736
:1033EC00CFFFFDF7CFF94FF47A73B4F84820C0B291
:1033FC00B3FBF2F3A4F84030142303FB065393F809
:10340C005030A4F84E00052B40D8DFE803F01536F9
:10341C00393C3F421223D1E70C23CFE71923CDE7E8
:10342C000623CBE70223C9E7A378012BF2D0022BAA
:10343C00F2D0FEE70323C1E74FF416531420636464
:10344C00002300FB065584F85530A4F8563095F847
:10345C004C30032B03D095F84F20022A02D10122C5
:10346C0084F85520012B08BF84F8563094F8553059
:10347C0093B194F856307BB1FEE74FF49643DDE7F9
:10348C004FF41643DAE74FF46143D7E74FF4E133D7
:10349C00D4E74FF46133D1E702B0BDE8F08100BF4F
:1034AC0024010020CC0000208CFC0008010100014C
:1034BC00E0020020FC0000204FF4DE72FF210148E6
:1034CC000BF0E2BA240100204FF4DE710148FEF744
:1034DC00FBBF00BF240100204FF4DE710148FEF752
:1034EC00DDBF00BF2401002008B5FFF7F5FF034B3B
:1034FC001878BDE80840FFF72DBC00BFCC000020B9
:10350C0070B5FFF7D9FFFEF7F3FF04280CD0FFF7D7
:10351C00D3FFFEF7EDFF042803D1FFF7DDFF0428EE
:10352C0006D0FFF7C9FF03E0FFF7D6FF0428EED162
:10353C001022574957480BF0D3FA08B1FFF7BCFFDC
:10354C0040F24F12534CA38A934267D0B3F5A47F39
:10355C0036D80125062204F1160104F58970FDF711
:10356C0094FC637F84F81931A37F84F81A312846C0
:10357C000135EDB2FFF7ACFB0A2DF8D10023E37750
:10358C0040F24F130125A38242F2DD7322694049B8
:10359C009A4240484FF010021CBF012523610BF0EA
:1035AC009FFA00283CD0102239493A48FDF75CFCC0
:1035BC00082239493948FDF757FCFFF785FF31E000
:1035CC00B3F5A77F22D8234600220325012102262A
:1035DC0093F84C0001280DD003280ED093F84F001F
:1035EC0001280DD002280ED001320A2A03F114034F
:1035FC00EED1C5E783F84C50F0E783F84C10EDE7BB
:10360C0083F84F60F0E783F84F10EDE70025E8B240
:10361C000135FFF75DFB0A2DF9D1AFE70025B3E7C4
:10362C00002DCAD1E37F092B84BF0023E377142339
:10363C00E17F03FB014393F84C2002F0FD02012AC9
:10364C0017D10022134993F84C0001320A2A81F851
:10365C004C0001F11401F6D1114DE37F2B70FFF7F3
:10366C00B1FA2878FFF776FB2878BDE87040FFF7B1
:10367C003BBE49B10B4903F14A025E3352F8040BCD
:10368C009A4241F8040BF9D10023E377E4E700BF39
:10369C00E3ED000824010020F4ED0008D602002020
:1036AC00CC0000206E01002010B5C01A9DF8084017
:1036BC00123080F30500A042C8BF20B2C0B2123B4A
:1036CC0008701844107010BD07B5084611461A460C
:1036DC00122300931B23FFF7E7FF03B05DF804FBF5
:1036EC000229F7B5054600D9FEE70B4E0F0106EB94
:1036FC000114A3786278F15D846009F013FEE3791C
:10370C0028460193A37922790093E178637909F033
:10371C0032FE03B0F0BD00BFC0180108024638B538
:10372C00044652F8143BDD6900F11503A847204606
:10373C00217D2022BDE8384009F081BE7FB58D7A0D
:10374C000446016175B3012109F0C2FD0121204637
:10375C0009F0DBFE0121204609F0F1FE2369204629
:10376C0093F90810FFF7DAFF236920461978FFF761
:10377C00B7FF00222046114609F0C7FD002344F292
:10378C000302204600934FF6FF7109F010FE20460D
:10379C004FF6FF7109F039FE204604B0BDE87040C9
:1037AC0009F0BFBE032109F093FD2046012109F069
:1037BC00ACFE2046012109F0C2FE2369204693F994
:1037CC000810FFF7ABFF23692A465E680C4B2046B6
:1037DC00E3608621102309F0D7FE46F6E823CDE9F5
:1037EC0002535B232046CDE90053042210237021A1
:1037FC0009F0D9FE2A463146204609F000FFB8E709
:10380C00AC18010810B5044609F08BFE2046BDE843
:10381C0010404FF6FF7109F0F8BD000038B50446B2
:10382C0003680169DD6900F1140200F1150391F9D7
:10383C000810A84723699A7A42B11A78022A00D94B
:10384C00FEE7044B03EB0213A36038BD024BE360AD
:10385C00FBE700BFC0180108AC18010810B5094CF3
:10386C00A36823B9E36813B92046FFF7D7FF236990
:10387C009B7A23B1A3689868A0F57A7010BDE368B1
:10388C00D868F9E718200020836810B504461BB9E6
:10389C00C3680BB9FFF7C2FF23699B7A1BB1A368FE
:1038AC00B3F90C0010BDE368B3F91000FAE78368B4
:1038BC0010B504461BB9C3680BB9FFF7AFFF94F9F9
:1038CC00150010BD90F8D8305BB190F8D930074A8C
:1038DC00180102EB03139B681978135853F8210055
:1038EC007047837D0E3350F8230070472CFC000882
:1038FC002DE9F3410446164688469DF824705B2258
:10390C00402F4FF000011D4628BF40270BF0BCF89C
:10391C008E4BDB8B23803278A37862F30203A37087
:10392C007378DB0003F0080343EA0811A37803F073
:10393C0007031943A1707279E37862F30003E37013
:10394C00B279637962F38613637196F90200FDF71D
:10395C0046F8E37860F34703E370F278237962F377
:10396C0006032371337903F00102237903F07F03FB
:10397C0043EAC21323713379C3F34502637923F00D
:10398C003F0313436371A37967F34703A3712B7848
:10399C00AA78E3716B7802F01F0203F0070343EA85
:1039AC00C20323726B88C3F34512637A23F03F037F
:1039BC00134363722B7903F00302637A03F03F0322
:1039CC0043EA82136372AB88C3F38703A3726B79E8
:1039DC00C3F38002E37A23F001031343E372AB7960
:1039EC0003F07F02E37A03F0010343EA4203E3723C
:1039FC00EB88C3F3C312237B23F00F03134323730E
:103A0C002B7AAA7AE3736B7A02F01F0203F0070396
:103A1C0043EAC20323746B89C3F34512637C23F01E
:103A2C003F03134363742B7B03F00302637C03F0AB
:103A3C003F0343EA82136374AB89C3F38703A37414
:103A4C006B7BC3F38002E37C23F001031343E37429
:103A5C00AB7B03F07F02E37C03F0010343EA4203F8
:103A6C00E374EB89C3F3C312237D23F00F031343D9
:103A7C0023752B8ADB0863756B8ADB08A375AB8A0D
:103A8C00DB08E375EB8ADB0823762B8BB3F5C06F71
:103A9C003AD2B3F5007F94BF00230123227B63F35A
:103AAC00051222736B8BB3F5C06F2FD2B3F5007F69
:103ABC0094BF00230123227B63F387122273AB8B09
:103ACC00B3F5C06F24D2B3F5007F94BF002301235C
:103ADC00227D63F305122275EB8BB3F5C06F19D2FF
:103AEC00B3F5007F94BF00230123227D63F387127B
:103AFC00089B22751F4404F11902BB420CD013F829
:103B0C00011B02F8011BF8E70223C7E70223D2E7E7
:103B1C000223DDE70223E8E74FF6FF7321460DF1A0
:103B2C0006000D22ADF80630FDF748FD2146BDF824
:103B3C0006304C2221F80D3FFDF740FDBDF8063054
:103B4C00A4F8593002B0BDE8F08100BFCC000020D1
:103B5C0013B59DF81040CDE9003413460A460021F8
:103B6C00FFF7C6FE02B010BD13B5144B0288DB8BF9
:103B7C0004469A421DD1837803F0F003102B01D038
:103B8C00202B18D1A379A52B15D84FF6FF730DF167
:103B9C00060059222146ADF80630FDF70FFDB4F8AA
:103BAC005900BDF80630984214BF0420002002B022
:103BBC0010BD0120FBE70220F9E700BFCC0000207C
:103BCC0030B5334B027893F8261000F1170461F3EB
:103BDC000302027093F8271061F30712027093F836
:103BEC002810427861F30302427093F8291061F3B4
:103BFC000712427093F82A10827861F303028270E4
:103C0C0093F83210827961F30302827193F82B10CE
:103C1C00827861F30712827093F82C10C27861F3EA
:103C2C000302C27093F82D1061F30712C27093F85F
:103C3C002E10027961F30302027193F82F1061F3D5
:103C4C000712027193F83010427961F3030242714A
:103C5C0003F13A0100F10B0211F9015B02F8015B6F
:103C6C00A242F9D193F84610C27D61F30102C275EC
:103C7C0093F8471061F38302C27593F8481061F30F
:103C8C000512C27593F8493063F38712C27530BDC3
:103C9C002401002002782F4BC2F3030230B583F8C5
:103CAC002620027803F13A01C2F3031283F827208D
:103CBC00427800F11704C2F3030283F828204278FB
:103CCC00C2F3031283F829208278C2F3030283F82B
:103CDC002A208279C2F3030283F832208278C2F35D
:103CEC00031283F82B20C278C2F3030283F82C2032
:103CFC00C278C2F3031283F82D200279C2F30302B7
:103D0C0083F82E200279C2F3031283F82F20427914
:103D1C00C2F3030283F8302000F10B0212F9015BAD
:103D2C00A24201F8015BF9D1C27DC2F3010283F812
:103D3C004620C27DC2F3810283F84720C27DC2F3C4
:103D4C00011283F84820C27DC2F3811283F8492006
:103D5C0030BD00BF240100201FB58DF80C300123AD
:103D6C00019303AB009313460A460221FFF7C0FDF3
:103D7C0005B05DF804FB00000123F0B5204D0446AE
:103D8C0085F8723085B0B0F80900FDF714F86E466E
:103D9C006867B4F80B30142204F10D0105F17A00B8
:103DAC00A5F87830FDF771F894F9213004F123006F
:103DBC0085F88F3094F8223004F1510785F8903053
:103DCC00FFF768FF04F1410332461868596808335D
:103DDC0003C2BB421646F7D12C2308226946094878
:103DEC00FCF746FF94F85130A5F86C3094F852303B
:103DFC00A5F86E3094F85330A5F8703005B0F0BDCE
:103E0C00E00200201E0300202DE9F0474FF0400A8D
:103E1C0092B00DF1080906460F4690460021524615
:103E2C0048460AF031FE2223194C1A4D21780DF127
:103E3C000A0005EB0111062201F589718DF8083095
:103E4C00FDF712F8237805A805EB031205EB031513
:103E5C0095F8194192F81B119DF8113092F81A211E
:103E6C0004F00F0444EA021461F303038DF81130DB
:103E7C008DF81040FFF7A4FE43463A460221304627
:103E8C00CDE9009AFFF734FD12B0BDE8F08700BF12
:103E9C00CC0000202401002000230A4A83801268F1
:103EAC0083718260084A83810384136803615368B9
:103EBC00064A4361136883615368C3614EF66023FD
:103ECC00036070472C330020FAED000803EE000865
:103EDC0010B5104C0220FFF7D1F92046FFF792FCE9
:103EEC0020466FF07F01FFF719FC0021204609F0F6
:103EFC00D8F94FF47A70FEF7E5F92046012109F064
:103F0C00E7F9236920461978FFF7EAFB2046FFF70B
:103F1C0079FC10BD182000201B4B1A6890F820303B
:103F2C001BB980F82130826019E090F82130013BF8
:103F3C005BB2002B80F821300ADC002380F82030A3
:103F4C00F1E7012303711CE04379002BF9D1704791
:103F5C008368D21AB2F57A6F01D9012343710379C0
:103F6C00002BF1D0094B427B1B781AB1022B1CBFE2
:103F7C00032202739A1E534253414373837913B144
:103F8C0003230373704770472C33002095040020E3
:103F9C000346007B821E012A4FF0000202D893F8E0
:103FAC00201009B91A737047104670470A4A38B581
:103FBC001388044601339BB2502B0D4601D8138055
:103FCC0038BD002305491380FDF71DFF2946204607
:103FDC00FDF719FFF4E700BF9808002005EF000873
:103FEC002DE9F74F16460546884600277049FDF720
:103FFC000AFF31462846FDF706FF6E4BB8F1010F5C
:10400C006D4C1F8011D14FF400434FF48047636116
:10401C0046F2A8102761FEF755F96761FEF752F9D1
:10402C0031462846FFF7C2FFF2E7B8F1020F11D173
:10403C004FF480434FF40047636146F2A8102761A8
:10404C00FEF740F96761FEF73DF931462846FFF768
:10405C00ADFFF2E7B8F1030F11D14FF400434FF469
:10406C008047236146F2A8102761FEF72BF96761A0
:10407C00FEF728F931462846FFF798FFF2E7B8F12A
:10408C00040F11D14FF480434FF40047236146F2E3
:10409C00A8102761FEF716F96761FEF713F9314690
:1040AC002846FFF783FFF2E7B8F1050F14D14FF460
:1040BC0080484FF4004746F2A810C4F810802761DE
:1040CC00FEF700F9C4F814806761FEF7FBF831467F
:1040DC002846FFF76BFFEEE7B8F1060F14D14FF44B
:1040EC0080484FF4004746F2A810C4F8108067616E
:1040FC00FEF7E8F8C4F814802761FEF7E3F83146C0
:10410C002846FFF753FFEEE7A8F10A03042B40D82B
:10411C004FF4004B4FF48049A8F1090A5FFA8AFA70
:10412C000423574538BFC4F810B0019346F2A810C9
:10413C00C4F81090FEF7C6F8C4F81490FEF7C2F855
:10414C0031462846FFF732FF019B013B13F0FF037A
:10415C00EBD10423C4F814B0019346F2A810C4F8B0
:10416C001090FEF7AFF8C4F81490FEF7ABF8314698
:10417C002846FFF71BFF019B013B13F0FF03EBD11C
:10418C000137A8F10803FFB2DBB2BB4238BF0027EE
:10419C00C6E74FF4804323614FF4004323614CF294
:1041AC005030FEF78FF831462846FFF7FFFEF6E752
:1041BC0005EF000898080020001001406FF0010284
:1041CC004FF0804308491A610A88013A92B20A807A
:1041DC000A8892B23AB9DA6822F00102DA601A68F7
:1041EC0022F001021A607047E20300204FF0804376
:1041FC006FF001021A61DA6822F00102DA601A68C3
:10420C0022F001021A60704700B589B0FFF7EEFF8B
:10421C0040F2022101230A221648FDF79CFE0022DF
:10422C004FF47A714FF08040FDF7A0FE0023CDE9EA
:10423C00013303936023022200934FF480730492A2
:10424C00CDE9052310216A464FF08040079308F012
:10425C0021FC4FF08042936923F480639361E02248
:10426C00054B83F81C234FF080521A6009B05DF89F
:10427C0004FB00BF0008014000E100E0084BB3FB69
:10428C00F1F14FF08043D962490899631A6842F002
:10429C0001021A601A6A42F010021A62704700BFDB
:1042AC0040420F000E484FF08043B0FBF1F05143F9
:1042BC004FF47A72B1FBF2F10A4AD86289B2400823
:1042CC00986311801A6842F001021A601A6A42F06F
:1042DC0010021A62DA6842F00102DA60704700BF1D
:1042EC0040420F00E203002019B94FF4FA71FFF7B6
:1042FC00C5BF182905D84FF4FA724FF4FA71FFF7BD
:10430C00D1BF4A2901D8FA22F7E7632901D8322212
:10431C00F3E7FFF76BBF4FF080431B68DB0704D458
:10432C0028224FF4FA71FFF7BDBF704710B5044651
:10433C0094F9013008468B4201D1237823B901232B
:10434C002370FDF799FF607010BD000037B50C4667
:10435C001D4668B907480DF106020DF1070109F079
:10436C00C4F82B4622469DF80610024808F073FF4D
:10437C0003B030BD1820002070B50D4616461C4603
:10438C000146B0B9FDF7E8FE0C4833462A4608F062
:10439C003BFF4FF6FF71094809F037F82201074837
:1043AC00012192B209F05BF8BDE870407D20FDF769
:1043BC0089BF0248FFF726FA70BD00BF1820002005
:1043CC002DE9F0414FF05B0805461E4C0E46424667
:1043DC00002120460AF058FB2B691B4F23606B69A8
:1043EC0039786360194B1A4D1B7805EB01119A1E35
:1043FC0053425341627A04F10A0063F30002627281
:10440C0001F589710622FCF72FFD3B78592105EB4C
:10441C00031595F81A21237C204662F307132374A5
:10442C0095F81B21637C62F303036374FDF7DEF8DC
:10443C004246A4F85900214630463B7FBDE8F04186
:10444C00FFF79ABF4D200020CC00002095040020DF
:10445C002401002037B50C46A8B9124803699D7A8F
:10446C009DB101F18E020DF1060109F022F8BDF9A2
:10447C000630002B10DB4FF6FF73ADF80630BDF89D
:10448C00063084F88C3003B030BD0DF1060109F014
:10449C00F6F884F88E50EAE77F33F0DA4FF6817342
:1044AC00EBE700BF1820002070B50D460646114CF6
:1044BC005B23224621462846FFF748FFD6E9061320
:1044CC00206862689A4208BF884211D1204659215F
:1044DC00FDF78CF8B4F85940231A5C425C4128462D
:1044EC000549FFF7B7FF002C0CBF0120022070BD5F
:1044FC000024F4E75F1E0020701F00200A4608B558
:10450C0001460148FFF76CFD28000020164600B557
:10451C0091B0044668461D460AF0DAFA1849684616
:10452C000AF0BAFA304608F09DFD014668460AF0DA
:10453C00B3FA144968460AF0AFFA134B684653F8BD
:10454C0025100AF0A9FA114968460AF0A5FA104D8F
:10455C009DF84830684655F823100AF09DFA0D492D
:10456C0068460AF099FA9DF84C30684655F82310C5
:10457C000AF092FA6A4621460748FFF731FD00BF60
:10458C000CEE000813EE00080000002018EE0008E6
:10459C00180000201FEE00082800002000230370E4
:1045AC008370437003714371C370704700220378AA
:1045BC004271022B04D0032B09D0012B16D0FEE73D
:1045CC0001230371437183784370C3707047837800
:1045DC004278991AA3EB020218BF012112F0060FC0
:1045EC0018BF0122017118BF4271EDE702717047CB
:1045FC0002788170002A0CBF022203220270FFF79E
:10460C00D5BF00002822074B02FB00339B681A78A9
:10461C00542A05D15878A0F1780358425841704774
:10462C0000207047A0FC00082822074B02FB003337
:10463C009B681A78522A05D15878A0F17803584211
:10464C005841704700207047A0FC00082822074BF7
:10465C0002FB00339B681A78542A04D158787838B6
:10466C0018BF012070470120704700BFA0FC000854
:10467C00282343430A4A10B5D1580446FFF7D4FF08
:10468C0040B92046FFF7BEFF064B1B7820B1142221
:10469C0002FB0311084610BD01EB0311FAE700BF42
:1046AC00A0FC0008CC000020292838B505460C4693
:1046BC0031D82822194B02FB00331B79042B07D865
:1046CC004BB3023B022B05D8DFE803F011171F0098
:1046DC00FE2B20D12846FFF7CBFF0378E4B2A34290
:1046EC0019D004702846BDE83840FFF7AFBFFFF77C
:1046FC00BFFF64B290F90030F1E7FFF7B9FF028811
:10470C00A3B29A4207D00480ECE7FFF7B1FF23B2C3
:10471C00B0F90020F5E7002038BD00BFA0FC000870
:10472C00292838B504460D4619D828220D4B02FB12
:10473C0000331B79FF2B12D1FFF79AFF0622294673
:10474C00FCF7B5FB58B92046FFF792FF2946062225
:10475C00FCF79BFB2046BDE83840FFF777BF0020F5
:10476C0038BD00BFA0FC00082DE9F04315462822F7
:10477C004A4307463448012B00EB0204246A87B0F5
:10478C0027D1324B8258022908BF1C46304B9A4223
:10479C0030D03049243B9A4208BF0C46FF234FF0DF
:1047AC00000801268DF800302046FBF7D3FC5FFA99
:1047BC0088F9484522D914F809302C2B06D106F17A
:1047CC0018036B44013603F8188CF6B208F1010893
:1047DC00EAE7022BE2D1204B8258022908BF1C4683
:1047EC001B4B9A4208D0A3F124018A4204D01B49E6
:1047FC001E3BD0E7174CD1E7194CCFE706F1180355
:10480C006B44AE4203F8188C04D80020387007B003
:10481C00BDE8F08305F118030DEB0305002315F833
:10482C00181C15F9175C0131C9B25A18D2B2AA4238
:10483C0007EB030004DAA25C0133DBB20270F4E78D
:10484C00002303700120E2E7A0FC000826EE00081C
:10485C006F0100208CEE00085FEE0008EAEE000805
:10486C00C0EE00082822054B02FB00335B6A0BB13B
:10487C00188870474FF6FF70704700BFA0FC000807
:10488C0028220B4B70B502FB00331E6A3046FBF737
:10489C0061FC002204461146D5B24B1CAC42D8B286
:1048AC0005D9735D01322C2B08BF0146F4E770BDAE
:1048BC00A0FC000828220F4B014602FB00331B7999
:1048CC0010B5FE2B13D1FFF7CDFF04460846FFF7BA
:1048DC00D7FF002201461046D3B2994208D944FAB8
:1048EC0002F3DB0744BF431CD8B20132F4E7FF20CC
:1048FC0010BD00BFA0FC00082DE9F04F00240546B8
:10490C000F46A0461D4E93B04FF0000AD6F8089003
:10491C005FFA84FB5FFA8AF148460191FBF71AFCB7
:10492C00019901F1480388426B4411D919F801002F
:10493C0001930AF06FF9C0B2202808BF5F22019BD7
:10494C000AF1010A14BF03F8400C03F8402CE1E70C
:10495C00394603F8408C02A8FBF7F2FB28B901207A
:10496C0085F800B013B0BDE8F08F01342A2C06F1A5
:10497C002806C9D1002085F80080F3E7A0FC0008C8
:10498C0028232DE9F0411D4E044603FB01663379C3
:10499C000D46FE2B174618D0FF2B21D0022B28D109
:1049AC000846FFF765FE214690F9000008F0FDFA75
:1049BC0035692B783BB1124920460AF06DF829462F
:1049CC0020460AF069F8012015E00846FFF750FE72
:1049DC003B46294602782046BDE8F041FFF7C4BEAD
:1049EC000846FFF745FE062201462046FCF74DFA25
:1049FC00E9E700202070BDE8F08100BFA0FC0008B2
:104A0C0024EF0008F8B5164628220024174B074659
:104A1C0002FB06331A790D46022A047003D0FE2AD3
:104A2C0013D02046F8BD93F918208A42F9DC93F98B
:104A3C001C309942F5DC4FF00001304665F307015C
:104A4C00FFF732FE01243870EBE70029E9DB304632
:104A5C00FFF716FFA842E4DD3046FFF703FF40FAEC
:104A6C0005F313F00100E6D10446DAE7A0FC0008D8
:104A7C002DE9F8430023174628220370114B0646F4
:104A8C0002FB07331B790C46FF2B03D0002528466D
:104A9C00BDE8F8830846FBF75DFB0628F6D104F168
:104AAC00FF3804F1050918F8010FFCF75BF805460F
:104ABC000028EBD0C845F6D121463846FFF730FE2A
:104ACC003070E4E7A0FC00084FF0280CF8B5002784
:104ADC000F4B04460CFB02331B790E46FE2B15467E
:104AEC00077004D0FF2B0CD0013B032B0DD83046A4
:104AFC0009F06CFF2A4601462046BDE8F840FFF756
:104B0C0081BFBDE8F840FFF7B3BF3846F8BD00BF22
:104B1C00A0FC0008038810B5B3F5407F044607D904
:104B2C0049F64040FDF7CEFB2388A3F500732380A4
:104B3C0010BD10B504464068FDF759F923880BB138
:104B4C00013323802046FFF7E5FF10BD70B5044606
:104B5C0040680E46FDF757F9258825B13046FBF71E
:104B6C00F9FA054425802046FFF7D4FF70BDF8B54F
:104B7C000446406804F10A070D46FDF744F939462E
:104B8C006068FDF740F926884EB12846FBF7E2FA3B
:104B9C0005463846FBF7DEFA0544354425802046A9
:104BAC00FFF7B8FFF8BD000038B5416000394FF091
:104BBC00000518BF012104460172457207490A30ED
:104BCC0009F086FF84F88E50A573C4F8905084F8D1
:104BDC00945084F89C50258038BD00BF02EF00082B
:104BEC00437A8B420DD00129417206D0022906D09E
:104BFC0039B904490A3009F06BBF0349FAE7034994
:104C0C00F8E7704702EF000805EF000804EF000812
:104C1C0090F88E30642B08D8C2180133DBB2917334
:104C2C0080F88E30184400238373704708B50E301B
:104C3C00FBF786FAB0FA80F0400908BD2DE9F04385
:104C4C00064691B0084688461546FBF783FA06F1EE
:104C5C000E0904464846FBF77DFAE4B2631CC7B262
:104C6C00BB4203DB002011B0BDE8F0832246414675
:104C7C00484609F035FF0028F4D1224604F10E0312
:104C8C001E44BA4203460CD216F8011B202905D04B
:104C9C00403301306B44C0B203F8401C0132D2B235
:104CAC00EFE7002200F140036B44022803F8402C8C
:104CBC00D8D19DF800303D2BD4D19DF80130303B3C
:104CCC00DAB2092ACED801202B60CCE710B5044605
:104CDC000749FFF73BFF074B204619783031C9B223
:104CEC00FFF727FF20460449FFF741FF10BD00BF27
:104CFC0007EF0008CC0000200BEE00082DE9F04770
:104D0C00837B8046702B0F46164690B072D1C37BC6
:104D1C00202B6FD1007C09F087FE002842D00025A3
:104D2C004FF002092C4608F10E0A5046FBF712FA16
:104D3C00814515D208EB09039B7B3D2B0ED0202B14
:104D4C0007D005F140016A1C0DEB010505F8403C4C
:104D5C00D5B209F101035FFA83F9E6E72C46F0E7D7
:104D6C0005F140030DEB0305002305F8403CE4B9C5
:104D7C006846FBF7EFF9E5B2A84207EB050304F12F
:104D8C00010408D905F140036B4413F8400C09F0F9
:104D9C0041FF7855ECE70022304617491A7009F0AC
:104DAC0097FE012010B0BDE8F087E8461D4618F8C4
:104DBC00010B09F02FFF78550135EBB2A342F6D366
:104DCC0000253D550134E4B26846FBF7C3F9671979
:104DDC00FFB2874206EB050309D207F140020DEB47
:104DEC00020717F8402C0135EDB21A70ECE70022DF
:104DFC001A70D6E70020D5E711EF00082DE9FF4720
:104E0C0028232B4E044603FB016633790D46FE2BFB
:104E1C0021D0FF2B4AD0022B1AD196F918502549D4
:104E2C00FFF794FE2846694608F0BFF8694620460D
:104E3C00FFF79DFE96F91C5020461F49FFF786FE92
:104E4C006946284608F0B1F869462046FFF78FFE00
:104E5C0004B0BDE8F0870846FFF704FD0026804645
:104E6C00DFF85890DFF858A0F7B201233A462946EC
:104E7C006846FFF779FC0028EAD0B3B248FA03F38E
:104E8C00DB0711D549462046FFF760FE07F13001DC
:104E9C002046C9B2FFF74DFE51462046FFF756FE9D
:104EAC0069462046FFF763FE0136DDE70549CDE78D
:104EBC00A0FC000813EF00081BEF000823EF00080C
:104ECC0026EF00082AEF0008F0B5044689B0084622
:104EDC000D46FFF7EFFC2E4906462046FFF736FE3F
:104EEC0028232C4F204603FB0577B968FFF72EFECD
:104EFC0020462949FFF72AFE2EB920462749FFF7FD
:104F0C0036FE09B0F0BD012229466846FFF738FD90
:104F1C0069462046FFF71AFE3B79FE2B07D0FF2B84
:104F2C001ED0204604F10A01FFF710FEE9E72846DF
:104F3C00FFF79EFB05781A492046FFF707FE05F19F
:104F4C0030012046C9B2FFF7F4FD20461549FFF7A2
:104F5C00FDFD012EE5D114492046FFF7F7FDE0E7F2
:104F6C00124B5B78002BDCD16846FBF74FFE042814
:104F7C00D7D8DFE800F0030507090B000C49EBE775
:104F8C000C49E9E70C49E7E70C49E5E70C49E3E78D
:104F9C0023EF0008A0FC000826EF000839EF0008FA
:104FAC0049EF000837EF00084CEF0008CC00002058
:104FBC005BEF000860EF000865EF00086AEF00087F
:104FCC0070EF00080129F8B506460D4601D90329F2
:104FDC0007D1194B1B78022B03D030461749FFF72A
:104FEC00C6FD0024144F012D08D12046FFF70AFB03
:104FFC0050B92046FFF718FBA8B105E0022D08D1E7
:10500C002046FFF7FFFA70B90134E4B22A2CEAD13A
:10501C00F8BD032D0CD12046FFF706FB0028F3D07A
:10502C003B78022BE5D121463046FFF74DFFEBE7ED
:10503C00002DF5D0F7E700BF9504002076EF0008AF
:10504C0038B53D4B04461A6890F89C30012B71D151
:10505C00D0F89030D31AB3F5FA7F6BD3374DC0F834
:10506C0090202846FBF789FC07F0D4FF0146204628
:10507C00FFF76CFD32492046FFF768FD05F114007F
:10508C00FCF77EF807F0C6FF01462046FFF75EFDF1
:10509C002C492046FFF75AFD95F8940007F0BAFF0B
:1050AC0001462046FFF752FD27492046FFF74EFDEB
:1050BC0095F98C0007F0B8FF01462046FFF746FD36
:1050CC0022492046FFF742FD95F9920007F0ACFF0C
:1050DC0001462046FFF73AFD1B492046FFF736FDF7
:1050EC0095F98E0007F0A0FF01462046FFF72EFD34
:1050FC0017492046FFF72AFD05F15000FCF746F84A
:10510C0080B207F09BFF01462046FFF71FFD0E49BA
:10511C002046FFF71BFD05F16400FCF737F880B261
:10512C0007F08CFF01462046FFF710FD2046094989
:10513C00FFF71DFD38BD00BF2C330020701F002071
:10514C0093EF000895EF000898EF000896EF000821
:10515C009BEF00089EEF000830B50446134989B058
:10516C00FFF705FD20461249FFF7F0FC114B1B78A9
:10517C00022B18D1104D95F8723093B1204605F1E1
:10518C007A01FFF7E3FC20460C49FFF7DFFC696F5F
:10519C006846FBF71DFE69462046FFF7E8FC09B0A0
:1051AC0030BD0749F8E70749F6E700BFA0EF000854
:1051BC00BFEF000895040020E002002098EF0008E3
:1051CC00C6EF00087CEF00082DE9F04304460027E9
:1051DC00254EDFF89890DFF8988089B0F37DFDB20A
:1051EC00AB423ED9284607F015FF01462046FFF793
:1051FC00ADFC49462046FFF7A9FC7319187E07F051
:10520C0009FF01462046FFF7A1FC0E35194920463F
:10521C00FFF79CFC56F8250007F01AFF01462046C4
:10522C00FFF794FC14492046FFF790FC56F8250034
:10523C00FBF74EF84146FBF7A3F808F067FAFBF7CB
:10524C00A1FA694607F07BFE6846FBF7F9FC694654
:10525C002046FFF77BFC20460849FFF788FC013706
:10526C00BCE709B0BDE8F0839C080020DBEF000828
:10527C0000005039E2EF0008ECEF0008F2EF0008F4
:10528C0010B504461D49FFF772FC20461C49FFF778
:10529C006EFC20461B49FFF76AFC20461A49FFF7B3
:1052AC0066FC20461949FFF762FC20461849FFF7B7
:1052BC005EFC20461749FFF75AFC20461649FFF7BB
:1052CC0056FC20461549FFF752FC20461449FFF7BF
:1052DC004EFC20461349FFF74AFC20461249FFF7C3
:1052EC0046FC20461149FFF742FC20461049FFF7C7
:1052FC003EFC20460F49FFF73AFC10BDF7EF0008C3
:10530C0017F0000841F0000866F000088EF0000865
:10531C00B2F00008D6F00008FFF0000828F10008F1
:10532C006CF100088EF10008ADF10008DCF100080A
:10533C0009F2000840F200082DE9F043037A044614
:10534C0093B043B3A64B1E6890F88E3083B1D0F85F
:10535C009030F31AB3F5FA6F0AD9A249FFF707FC9C
:10536C002046A149FFF703FC002384F88E30A37379
:10537C0094F89C30B3B1606803681B69984768B1B6
:10538C00606803685B69984700232046974984F856
:10539C009C30FFF7ECFB13B0BDE8F0832080204677
:1053AC00FFF74EFE01238F4FDFF84482DFF8449263
:1053BC002380606803681B6998470028EBD06068FD
:1053CC0003685B6998470A280546C4F890600ED0BC
:1053DC000D280CD02C280AD03B2808D0014620469A
:1053EC00FFF7A7FB29462046FFF712FCE1E73946F9
:1053FC002046FFF7BCFB41462046FFF717FC38B1AF
:10540C002046FFF73DFF002384F88E30A373D0E7CE
:10541C0049462046FFF70AFC0028F1D12046764980
:10542C00FFF704FC0028EBD120467449FFF7FEFB84
:10543C00054618B12046FFF78FFEE4E72046704979
:10544C00FFF7F4FB38B12046FFF740FC2946204615
:10545C00FFF7B8FDD7E720466A49FFF7E7FB20B115
:10546C002046FFF733FC0121F1E720466649FFF7A0
:10547C00DDFB20B12046FFF729FC0221E7E720469F
:10548C006249FFF7D3FB20B12046FFF71FFC032135
:10549C00DDE720460AAA02A9FFF730FC002845D018
:1054AC0002A90DF10200FFF727FA20B9584920464E
:1054BC00FFF75DFBA7E7574B1B78022B06D09DF837
:1054CC000200FFF7B1F808B15349F0E79DF8283016
:1054DC003F2B0DD12046FFF7F9FB20469DF802101B
:1054EC00FFF7F2FC20469DF80210FFF787FC8AE7D5
:1054FC000BB94A49DBE79DF802200AA90DF103001C
:10550C00FFF7E2FA08B94649D1E72046FFF7DEFB80
:10551C0020469DF80210FFF7D7FC9DF80330002BB6
:10552C003FF471AF012384F894306CE720463D4979
:10553C00FFF77CFB88B10223204684F89430FFF7F8
:10554C00C5FB344B1B78022B05D033492046FFF7A3
:10555C000EFB3549ABE73549A9E720463449FFF73F
:10556C0065FB20B10323334984F894309FE7204630
:10557C003149FFF75BFB88B10423204684F8943053
:10558C00FFF7A4FB234B1B78022B05D022492046A6
:10559C00FFF7EDFA29498AE7294988E72046294986
:1055AC0001AAFFF74BFB002856D02046FFF78EFBD5
:1055BC00254A019B12789A4201D1244977E70922A6
:1055CC002046234984F89420C4F89830FFF7BEFA9B
:1055DC00019920463031C9B2FFF7ABFA1D4966E795
:1055EC002C33002082F2000884F200088EF20008AE
:1055FC0088FA0008A8F2000811EF000808F9000862
:10560C00ADF20008B0F20008B5F20008BBF20008D9
:10561C00C1F200089504002076EF0008DDF20008C6
:10562C00F5F2000808F300080FF3000826F3000851
:10563C003AF300083FF3000856F300085DF3000846
:10564C0076F300088CF30008CC00002098F30008D7
:10565C00ADF300080BEE000820461349FFF7E6FAFD
:10566C0040B101231149204684F89C30FFF77FFAA2
:10567C000F491CE720460F49FFF7D8FA18B120460E
:10568C00FFF7A2FDBFE620460B49FFF7CFFA08B1A2
:10569C00052348E794F88E10084A094B00290CBFE3
:1056AC001146194603E700BFD6F30008C3F3000800
:1056BC00DCF30008F9F3000803F4000868F20008B2
:1056CC0074F20008142110B5074B084C1A78084BDB
:1056DC00204601FB023393F85410FFF781FA204661
:1056EC00BDE81040FFF728BECC000020EC030020E2
:1056FC0024010020244B10B51C68A10607D5DA68DC
:10570C00920604D55868214BC0B21B6898472307F2
:10571C0044BF1D4B5B68200616D51B48C368190691
:10572C0012D51B4B1B4A1988138889B29BB299421C
:10573C001AD013880133C3F3080313801388164A55
:10574C009BB2D35CDBB2436062061CD50E48C368C7
:10575C005B0618D5FBF70BFFBDE810406FF040035C
:10576C0003600E4B1B681847FBF70EFF6FF04003EE
:10577C000B4A036052E8003F43F0400342E800311B
:10578C000029F7D1E0E710BD0048004038000020A8
:10579C000C2300200A2300200A2100203C000020BA
:1057AC000C480040002300B5002989B0CDE9063330
:1057BC0018BF4FF48053CDE902320C2301900491B1
:1057CC00034801A9059307F05FFA09B05DF804FBE3
:1057DC0000480040012808B503D1BDE80840FCF79B
:1057EC0037BA0348FBF7B6FE6FF02003036008BD21
:1057FC0000480040F7B5082601272D4C2D4DE368D5
:10580C002D4923F40053E360FCF70BFB4FF480208D
:10581C00FBF76AFE284603230A22CDE90067FCF752
:10582C0045FB032328461A46CDE900672349FCF7BC
:10583C003DFB002222481146FFF7B4FFA02223694A
:10584C0023F490432361636923F02A0363611D4BA6
:10585C0083F8272380225A602046FBF795FEFBF73E
:10586C0086FE6FF0400323600024174B1C80174BFF
:10587C001C80FBF76FFE6FF020030360144B1C8041
:10588C00144B1C80036923F400630361436923F008
:10589C0008034361036923F480430361436923F0E4
:1058AC0022034361C36843F40053C36003B0F0BDEB
:1058BC0000480040000C01400400040408000804E7
:1058CC00801A060000E100E00A2300200C230020CF
:1058DC0006210020082100200649074A0B8812885F
:1058EC000133C3F3080392B29A421EBF034AD05449
:1058FC000B8070470C2300200A2300200A21002073
:10590C0038B5012380F8693090F8BA30044603F0BA
:10591C00FF0083B1002594F8BA20EBB2934206D273
:10592C00234493F86A00FFF7D7FF0135F3E7002310
:10593C00012084F8BA3038BD0148FBF7FEBD00BF2A
:10594C000048004008B5002383810371C3800381A4
:10595C0083720361FFF74EFFBDE80840FCF778B98E
:10596C0010B5044603681B689847237A082B03D9A3
:10597C00092B02D00023237210BD236820465B68DC
:10598C0098470028F6D00020FFF724FF0A23237243
:10599C00BDE81040FFF7D0BF01460148FFF7E0BF5C
:1059AC003013002001460148FFF7DABF9C040020A9
:1059BC0008B5027A0A4B092A1B6801D8036108BD95
:1059CC0002699B1A142BFAD900230372FCF740F9D5
:1059DC000448FBF7CCFD6FF040030360EFE700BF1A
:1059EC002C330020004800400238C0B20F289ABF68
:1059FC00014B185C00207047F6FB000802463B4B3D
:105A0C0010B5586A137A80B233B19389C31A9BB21A
:105A1C00FA2B84BF00231372137A9081052B19D8AB
:105A2C00DFE803F003080E334A564F2912D1012345
:105A3C0013720FE0572901D10223F9E70023F7E78E
:105A4C000023FF29937206D141F204731381537E14
:105A5C00002BF3D110BD9F290FD9012401F01F0099
:105A6C00947282F83200FFF7BFFF507218B982F8B7
:105A7C004B400923DCE70523DAE71829DED8002997
:105A8C00F7D0032351721372E1E7B2F86E02B2F849
:105A9C007242431C2340B2F870429C421EBF8018D5
:105AAC0080F87412A2F86E32937A517A0133DBB219
:105ABC0099429372DDD9CDE7907A431CDBB2104446
:105ACC009372C176517A9942C4D801239376D0E768
