:020000040800F2
:1000000000000120E9C40008D3C40008D5C40008DA
:10001000D7C40008D9C40008DBC4000800000000F1
:10002000000000000000000000000000DDC4000827
:10003000DFC4000800000000E1C40008E3C40008B9
:1000400039C5000839C5000839C5000839C5000898
:1000500039C5000839C5000839C5000839C5000888
:1000600039C5000839C5000839C5000839C5000878
:1000700039C5000839C5000839C5000839C5000868
:1000800039C5000839C5000839C5000839C5000858
:100090000000000039C5000839C5000839C500084E
:1000A00039C5000839C5000839C5000839C5000838
:1000B00039C5000839C5000839C5000839C5000828
:1000C00039C5000839C5000839C5000839C5000818
:1000D000D12F0008F15C000839C5000839C50008B7
:1000E00039C5000839C5000839C5000839C50008F8
:1000F00039C50008000000000000000039C50008F4
:1001000039C5000839C50008C9B0000839C500085C
:1001100039C5000839C5000839C5000839C50008C7
:1001200039C5000839C5000839C5000839C50008B7
:0801300039C5000839C50008BB
:1001380010B5054C237833B9044B13B10448AFF319
:1001480000800123237010BDB800002000000000CB
:100158008CF8000808B5034B1BB103490348AFF3FB
:10016800008008BD00000000BC0000208CF80008DA
:1001780010F8012B11F8013B012A28BF9A42F7D049
:10018800D01A7047034613F8012B002AFBD1181A1E
:100198000138704781F0004102E000BF83F000435E
:1001A80030B54FEA41044FEA430594EA050F08BF0A
:1001B80090EA020F1FBF54EA000C55EA020C7FEACE
:1001C800645C7FEA655C00F0E2804FEA5454D4EB4B
:1001D8005555B8BF6D420CDD2C4480EA020281EA15
:1001E800030382EA000083EA010180EA020281EA4D
:1001F8000303362D88BF30BD11F0004F4FEA01319F
:100208004FF4801C4CEA113102D0404261EB4101AD
:1002180013F0004F4FEA03334CEA133302D0524233
:1002280063EB430394EA050F00F0A780A4F10104EF
:10023800D5F1200E0DDB02FA0EFC22FA05F2801829
:1002480041F1000103FA0EF2801843FA05F359410F
:100258000EE0A5F120050EF1200E012A03FA0EFC8E
:1002680028BF4CF0020C43FA05F3C01851EBE371B8
:1002780001F0004507D54FF0000EDCF1000C7EEBD5
:1002880000006EEB0101B1F5801F1BD3B1F5001F13
:100298000CD349085FEA30004FEA3C0C04F1010432
:1002A8004FEA445212F5800F80F09A80BCF1004F5B
:1002B80008BF5FEA500C50F1000041EB045141EADD
:1002C800050130BD5FEA4C0C404141EB0101013CA6
:1002D80028BFB1F5801FE9D291F0000F04BF014695
:1002E8000020B1FA81F308BF2033A3F10B03B3F167
:1002F80020020CDA0C3208DD02F1140CC2F10C02F7
:1003080001FA0CF021FA02F10CE002F11402D8BF54
:10031800C2F1200C01FA02F120FA0CFCDCBF41EA20
:100328000C019040E41AA2BF01EB0451294330BDEF
:100338006FEA04041F3C1CDA0C340EDC04F11404CC
:10034800C4F1200220FA04F001FA02F340EA0300A3
:1003580021FA04F345EA030130BDC4F10C04C4F1E9
:10036800200220FA02F001FA04F340EA03002946C9
:1003780030BD21FA04F0294630BD94F0000F83F413
:10038800801306BF81F480110134013D4EE77FEAF6
:10039800645C18BF7FEA655C29D094EA050F08BF42
:1003A80090EA020F05D054EA000C04BF1946104623
:1003B80030BD91EA030F1EBF0021002030BD5FEA67
:1003C800545C05D14000494128BF41F0004130BD8F
:1003D80014F580043CBF01F5801130BD01F00045E3
:1003E80045F0FE4141F470014FF0000030BD7FEA56
:1003F800645C1ABF194610467FEA655C1CBF0B4651
:10040800024650EA013406BF52EA033591EA030F67
:1004180041F4002130BD00BF90F0000F04BF00215F
:10042800704730B54FF4806404F132044FF0000592
:100438004FF0000150E700BF90F0000F04BF00210B
:10044800704730B54FF4806404F1320410F0004571
:1004580048BF40424FF000013EE700BF42004FEA6C
:10046800E2014FEA31014FEA02701FBF12F07F43E9
:1004780093F07F4F81F06051704732F07F4208BFA0
:10048800704793F07F4F04BF41F40021704730B5A7
:100498004FF4607401F0004521F000411CE700BFF3
:1004A80050EA010208BF704730B54FF000050AE076
:1004B80050EA010208BF704730B511F0004502D577
:1004C800404261EB41014FF4806404F132045FEA79
:1004D800915C3FF4D8AE4FF003025FEADC0C18BF22
:1004E80003325FEADC0C18BF033202EBDC02C2F114
:1004F800200300FA03FC20FA02F001FA03FE40EAA6
:100508000E0021FA02F11444BDE600BF70B54FF0A9
:10051800FF0C4CF4E06C1CEA11541DBF1CEA135587
:1005280094EA0C0F95EA0C0F00F0DEF82C4481EAEF
:10053800030621EA4C5123EA4C5350EA013518BF0F
:1005480052EA033541F4801143F4801338D0A0FBFC
:1005580002CE4FF00005E1FB02E506F00042E0FBA9
:1005680003E54FF00006E1FB03569CF0000F18BFAF
:100578004EF0010EA4F1FF04B6F5007F64F5407457
:1005880004D25FEA4E0E6D4146EB060642EAC621EA
:1005980041EA55514FEAC52040EA5E504FEACE2E57
:1005A800B4F1FD0C88BFBCF5E06F1ED8BEF1004F5A
:1005B80008BF5FEA500E50F1000041EB045170BDD6
:1005C80006F0004646EA010140EA020081EA03011A
:1005D800B4EB5C04C2BFD4EB0C0541EA045170BD16
:1005E80041F480114FF0000E013C00F3AB8014F190
:1005F800360FDEBF002001F0004170BDC4F10004D9
:10060800203C35DA0C341BDC04F11404C4F1200559
:1006180000FA05F320FA04F001FA05F240EA0200B4
:1006280001F0004221F0004110EBD37021FA04F6EA
:1006380042EB06015EEA430E08BF20EAD37070BDA4
:10064800C4F10C04C4F1200500FA04F320FA05F003
:1006580001FA04F240EA020001F0004110EBD37005
:1006680041F100015EEA430E08BF20EAD37070BD75
:10067800C4F1200500FA05F24EEA020E20FA04F34E
:1006880001FA05F243EA020321FA04F001F00041FD
:1006980021FA04F220EA020000EBD3705EEA430E6E
:1006A80008BF20EAD37070BD94F0000F0FD101F09D
:1006B8000046400041EB010111F4801F08BF013CD6
:1006C800F7D041EA060195F0000F18BF704703F014
:1006D8000046520043EB030313F4801F08BF013D9B
:1006E800F7D043EA0603704794EA0C0F0CEA135557
:1006F80018BF95EA0C0F0CD050EA410618BF52EA11
:100708004306D1D181EA030101F000414FF0000016
:1007180070BD50EA410606BF1046194652EA430624
:1007280019D094EA0C0F02D150EA013613D195EA98
:100738000C0F05D152EA03361CBF104619460AD1E0
:1007480081EA030101F0004141F0FE4141F47001EA
:100758004FF0000070BD41F0FE4141F4780170BDDA
:1007680070B54FF0FF0C4CF4E06C1CEA11541DBF3F
:100778001CEA135594EA0C0F95EA0C0F00F0A7F841
:10078800A4EB050481EA030E52EA03354FEA01316E
:1007980000F088804FEA03334FF0805545EA131381
:1007A80043EA12634FEA022245EA111545EA106549
:1007B8004FEA00260EF000419D4208BF964244F1E0
:1007C800FD0404F5407402D25B084FEA3202B61AFF
:1007D80065EB03055B084FEA32024FF480104FF4D3
:1007E800002CB6EB020E75EB030E22BFB61A754647
:1007F80040EA0C005B084FEA3202B6EB020E75EBDA
:10080800030E22BFB61A754640EA5C005B084FEA41
:100818003202B6EB020E75EB030E22BFB61A75460E
:1008280040EA9C005B084FEA3202B6EB020E75EB19
:10083800030E22BFB61A754640EADC0055EA060EDA
:1008480018D04FEA051545EA16754FEA06164FEA1D
:10085800C30343EA52734FEAC2025FEA1C1CC0D1C9
:1008680011F4801F0BD141EA00014FF000004FF056
:10087800004CB6E711F4801F04BF01430020B4F117
:10088800FD0C88BFBCF5E06F3FF6AFAEB5EB030CCF
:1008980004BFB6EB020C5FEA500C50F1000041EBCC
:1008A800045170BD0EF0004E4EEA113114EB5C0499
:1008B800C2BFD4EB0C0541EA045170BD41F480116C
:1008C8004FF0000E013C90E645EA060E8DE60CEA74
:1008D800135594EA0C0F08BF95EA0C0F3FF43BAF91
:1008E80094EA0C0F0AD150EA01347FF434AF95EA48
:1008F8000C0F7FF425AF104619462CE795EA0C0F2C
:1009080006D152EA03353FF4FDAE1046194622E7F8
:1009180050EA410618BF52EA43067FF4C5AE50EAD2
:1009280041047FF40DAF52EA43057FF4EBAE12E7C2
:100938004A0011D212F5001211D20DD56FF4787356
:10094800B3EB62520ED44FEAC12343F0004343EAAB
:10095800505323FA02F070474FF00000704750EAF6
:10096800013002D14FF0FF3070474FF00000704760
:1009780080F0004002E000BF81F0004142001FBF4C
:100988005FEA410392EA030F7FEA226C7FEA236C55
:100998006AD04FEA1262D2EB1363C1BFD21841404A
:1009A80048404140B8BF5B42192B88BF704710F0E0
:1009B800004F40F4000020F07F4018BF404211F083
:1009C800004F41F4000121F07F4118BF494292EAEB
:1009D800030F3FD0A2F1010241FA03FC10EB0C0017
:1009E800C3F1200301FA03F100F0004302D54942A4
:1009F80060EB4000B0F5000F13D3B0F1807F06D351
:100A080040084FEA310102F10102FE2A51D2B1F148
:100A1800004F40EBC25008BF20F0010040EA03003D
:100A28007047490040EB0000013A28BFB0F5000FBD
:100A3800EDD2B0FA80FCACF1080CB2EB0C0200FA73
:100A48000CF0AABF00EBC25052421843BCBFD040C2
:100A58001843704792F0000F81F4000106BF80F43C
:100A680000000132013BB5E74FEA41037FEA226CFF
:100A780018BF7FEA236C21D092EA030F04D092F0CA
:100A8800000F08BF0846704790EA010F1CBF0020FE
:100A9800704712F07F4F04D1400028BF40F000405B
:100AA800704712F100723CBF00F50000704700F07B
:100AB800004343F0FE4040F4000070477FEA2262A2
:100AC80016BF08467FEA23630146420206BF5FEA73
:100AD800412390EA010F40F4800070474FF0000373
:100AE80004E000BF10F0004348BF40425FEA000C3A
:100AF80008BF704743F0964301464FF000001CE0E2
:100B080050EA010208BF70474FF000030AE000BF37
:100B180050EA010208BF704711F0004302D5404275
:100B280061EB41015FEA010C02BF844601460020E7
:100B380043F0B64308BFA3F18053A3F50003BCFA02
:100B48008CF2083AA3EBC25310DB01FA02FC6344AF
:100B580000FA02FCC2F12002BCF1004F20FA02F2B6
:100B680043EB020008BF20F00100704702F12002A9
:100B780001FA02FCC2F1200250EA4C0021FA02F20A
:100B880043EB020008BF20EADC7070474FF0FF0C0F
:100B98001CEAD0521EBF1CEAD15392EA0C0F93EA0A
:100BA8000C0F6FD01A4480EA010C400218BF5FEAAC
:100BB80041211ED04FF0006343EA501043EA51111F
:100BC800A0FB01310CF00040B1F5000F3EBF490019
:100BD80041EAD3715B0040EA010062F17F02FD2A1D
:100BE8001DD8B3F1004F40EBC25008BF20F0010000
:100BF800704790F0000F0CF0004C08BF49024CEA17
:100C0800502040EA51207F3AC2BFD2F1FF0340EAA8
:100C1800C250704740F400004FF00003013A5DDC19
:100C280012F1190FDCBF00F000407047C2F100025A
:100C3800410021FA02F1C2F1200200FA02FC5FEA47
:100C4800310040F1000053EA4C0308BF20EADC7091
:100C5800704792F0000F00F0004C02BF400010F403
:100C6800000F013AF9D040EA0C0093F0000F01F0B0
:100C7800004C02BF490011F4000F013BF9D041EAD2
:100C88000C018FE70CEAD15392EA0C0F18BF93EAD4
:100C98000C0F0AD030F0004C18BF31F0004CD8D1FE
:100CA80080EA010000F00040704790F0000F17BF85
:100CB80090F0004F084691F0000F91F0004F14D0CB
:100CC80092EA0C0F01D142020FD193EA0C0F03D123
:100CD8004B0218BF084608D180EA010000F0004026
:100CE80040F0FE4040F40000704740F0FE4040F401
:100CF800400070474FF0FF0C1CEAD0521EBF1CEAA0
:100D0800D15392EA0C0F93EA0C0F69D0A2EB0302BD
:100D180080EA010C49024FEA402037D04FF0805357
:100D280043EA111143EA10130CF000408B4238BF1C
:100D38005B0042F17D024FF4000C8B4224BF5B1A2A
:100D480040EA0C00B3EB510F24BFA3EB510340EA78
:100D58005C00B3EB910F24BFA3EB910340EA9C0026
:100D6800B3EBD10F24BFA3EBD10340EADC001B0196
:100D780018BF5FEA1C1CE0D1FD2A3FF650AF8B423A
:100D880040EBC25008BF20F0010070470CF0004C47
:100D98004CEA50207F32C2BFD2F1FF0340EAC25072
:100DA800704740F400004FF00003013A37E792F033
:100DB800000F00F0004C02BF400010F4000F013A91
:100DC800F9D040EA0C0093F0000F01F0004C02BF8C
:100DD800490011F4000F013BF9D041EA0C0195E7F5
:100DE8000CEAD15392EA0C0F08D142027FF47DAF8E
:100DF80093EA0C0F7FF470AF084676E793EA0C0F7E
:100E080004D14B023FF44CAF08466EE730F0004C7B
:100E180018BF31F0004CCAD130F000427FF45CAF0B
:100E280031F000437FF43CAF5FE700BF4FF0FF3C79
:100E380006E000BF4FF0010C02E000BF4FF0010CCC
:100E48004DF804CD4FEA40024FEA41037FEA226C95
:100E580018BF7FEA236C11D001B052EA530C18BFB7
:100E680090EA010F58BFB2EB030088BFC81738BF1C
:100E78006FEAE17018BF40F0010070477FEA226C0A
:100E880002D15FEA402C05D17FEA236CE4D15FEA06
:100E9800412CE1D05DF8040B704700BF844608463A
:100EA8006146FFE70FB5FFF7C9FF002848BF10F1FB
:100EB800000F0FBD4DF808EDFFF7F4FF0CBF012040
:100EC80000205DF808FB00BF4DF808EDFFF7EAFFCA
:100ED80034BF012000205DF808FB00BF4DF808ED85
:100EE800FFF7E0FF94BF012000205DF808FB00BF7A
:100EF8004DF808EDFFF7D2FF94BF012000205DF800
:100F080008FB00BF4DF808EDFFF7C8FF34BF01200C
:100F180000205DF808FB00BF4FEA40024FEA41039A
:100F28007FEA226C02D15FEA402C08D17FEA236C69
:100F380002D15FEA412C02D14FF0000070474FF018
:100F4800010070474FEA4002B2F1FE4F0FD34FF055
:100F58009E03B3EB12620DD94FEA002343F000431E
:100F680010F0004F23FA02F018BF404270474FF0CC
:100F78000000704712F1610F01D1420205D110F053
:100F8800004008BF6FF0004070474FF00000704706
:100F980042000ED2B2F1FE4F0BD34FF09E03B3EBDB
:100FA800126209D44FEA002343F0004323FA02F007
:100FB80070474FF00000704712F1610F01D14202F3
:100FC80002D14FF0FF3070474FF00000704700BF6C
:100FD8000022427082700122C270B1FA81F10222AD
:100FE80049090271032201704271704743788B42AC
:100FF8001FD0012941700AD0022910D0C1B901239C
:10100800C37081700223037103234371704703780F
:1010180043B1012383700223C3700023F3E70378ED
:10102800002BF6D0022383700023C3700123EAE764
:10103800FEE7704782B00B88ADF800304B88ADF8FA
:1010480002308B88ADF80430CB88ADF80630023911
:10105800831C063013F8012B0DF1080C0CEB42022F
:10106800834232F8082C21F8022FF3D102B07047DE
:10107800044B4FF07F32C0E91E23034BC0F8803089
:10108800704700BFFFFF7F0000FFFF0010B5044658
:101098001146A0F8842000F0FFFBB4F8841004F196
:1010A800140000F0F9FBB4F8841004F1280000F0F3
:1010B800F3FBB4F8841004F13C0000F0EDFBB4F845
:1010C800841004F1500000F0E7FB04F16400B4F868
:1010D800841000F0E1FB2046FFF7CAFF0023A4F8C4
:1010E8008630FF2384F8883010BD704700F0DBBBE2
:1010F800143000F0D8BB08B5503000F0DEFB00F12A
:10110800140302462920B3FBF0F313F0FF0002D1C9
:10111800101E18BF012008BD08B5643000F0CDFBD3
:1011280000F1140302462920B3FBF0F313F0FF008B
:1011380002D1101E18BF012008BD90F87C3013B9E9
:1011480090F97800704790F97900704790F87C30F2
:1011580013B990F97A00704790F97B00704710B581
:1011680004460AF031F938B104F13C0000F09FFB65
:10117800012838BF0120C0B210BD10B5044600F0E8
:1011880079FB04F1140000F075FB04F1280000F06D
:1011980071FB04F13C0000F06DFB04F1500000F01D
:1011A80075FB04F16400BDE8104000F06FBB7F28B8
:1011B80007D0002807DA10F1800F06D04042C0B2ED
:1011C800704700207047012070477F20704710B19A
:1011D800404240B270477F2070477F280FD010F1FF
:1011E800310F0EDA10F1780F0DDB7830FE2340B2A4
:1011F800584323304623B0FBF3F0C0B27047FF20BA
:101208007047FE20704700207047012805DD40F236
:10121800FE73984203DC80B270470120704740F2A9
:10122800FF707047A0F57870C0EBC02040F2AE7335
:1012380090FBF3F000F58060FFF7E7BFFFF7F2BF20
:10124800032812DD0C2812DD0F2812DD122812DD0A
:10125800162812DD192812DD1C2812DD1F2812DDC0
:101268002128CCBFFF2006207047002070470120AE
:1012780070470220704708207047032070470720F6
:1012880070470420704705207047022809D00128BC
:1012980009D050B103280AD004280CBF0120FF2030
:1012A8007047132070471F207047012070476F2038
:1012B800704702280ED0012807D040B1032808D073
:1012C80004280CBF0520FF20704703207047052025
:1012D80070470B2070477F2808BF0020C0B27047B6
:1012E80052B110B4054C0A4411F8013B58408A42E7
:1012F800205CF9D110BC7047704700BFE8F80008BF
:10130800A0F16103192B0FD95F280DD02338C3B280
:10131800162B9FBF0548D840C04300F0010088BF86
:10132800012080F0010070470120704701EC7F0028
:10133800F8B50246451E461D00245F2715F8010F23
:10134800FF2804BF0134E4B2FFF7DAFF00B92F70B9
:10135800AE42F3D1062C04D119B10B6813608B8807
:10136800938000239371F8BD2DE9F843DFF834909A
:10137800471E441D012500264FF0280817F8011FB5
:1013880008480EF0C6F910B1A0EB0900C0B2A0FBE6
:1013980005038619A742A5FB0853EFD13046BDE8DF
:1013A800F88300BFE8F9000810B54179A1F13000D1
:1013B800C3B2092B07D80523B0FBF3F303EB830370
:1013C800C01AC0B210BD044C20460EF0A2F9002885
:1013D800F1D0001BC0B2EEE7E8F9000870B504468A
:1013E800FEF7D0FE82B20023561E98B2B04214FA1D
:1013F80083F104DA255C302D03F10103F5D0121ACC
:1014080001322046BDE870400EF052B92DE9F04F88
:101418000D4699B0164600211A461F4680460EF022
:1014280061F900212A2201A800910EF05BF9DFF88A
:10143800CC90DFF8CCA0DFF8CCB005EB4606AE4286
:101448004AD035F9020B47F6FF73984244D000287A
:1014580012DC59460CA80EF069F96846FEF792FEB0
:1014680004460CA8FEF78EFE0444A742E7D30CA955
:1014780068460EF03FF9E2E7B0F57A7F0BDA0CA97F
:1014880080B20CF0D6FA0CA8FFF7A8FF51460CA8BA
:101498000EF030F9E1E70CA932306424B0FBF4F027
:1014A80080B20CF0C6FA0CA8FFF798FF0CA8FEF75C
:1014B80069FE00F15F036B4400F160010DEB010070
:1014C80013F8302C00F8302C2E2203F8302C00238F
:1014D80000F82F3C4946DAE76846FEF753FE30B17C
:1014E80000F160030DEB0300002300F8613C69463E
:1014F80040460EF01BF919B0BDE8F08FE2F800087D
:10150800DDF80008D8F80008F0B589B06D46002469
:101518002F468E1CE1B28A4205D936F8241025F8E8
:10152800021B0134F6E73946FFF770FF09B0F0BD3A
:1015380042F210736421B0FBF3F203FB1200B0FB1C
:10154800F1F301FB130000EB023000EB831080B2D3
:101558007047020B00F03F0342F2107101FB0233A7
:10156800C0F38510642202FB003070472DE9F0417A
:1015780042F2107488B0B1FBF4F604FB16141F494C
:10158800DFF87C8005460EF0D1F86946F0B20CF021
:101598002FFA6846FFF722FF694628460EF0AAF898
:1015A800414628460EF0A6F864276946B4FBF7F6CC
:1015B800F0B20CF01DFA6846FFF710FF694628469E
:1015C8000EF098F807FB1644414628460EF092F8AC
:1015D8006946E0B20CF00CFA9DF801308DF8003045
:1015E8009DF802308DF801306946002328468DF8B1
:1015F80002300EF07FF808B0BDE8F0816005010800
:10160800E6F8000870B50D460021044616460EF0AF
:1016180069F800239AB2964204D9EA5C12B1E254FE
:101628000133F7E770BD70B50E461446002101324C
:1016380005460EF057F800239AB2944204D9F25C9A
:1016480012B1EA540133F7E770BD30B50023044600
:1016580098B290420ED2E55CC85C1DB9B0FA80F031
:10166800400930BD0028FCD0854203F10103EFD0CA
:101678000020F6E70120F4E77D23438043F2390395
:1016880009B2C360002301808180C3800372704760
:1016980002680449044B01FB023323F00043036052
:1016A800180C7047FD430300C39E2600F0B50025C3
:1016B80097B00160858004465622294668460EF098
:1016C80011F80126E27DAA424CD92046FFF7E0FF37
:1016D800E7797B1B002190FBF3F202FB1300C0B2F9
:1016E800EC460A46CBB29F420AD91CF801EBBEF180
:1016F800000F03D1824204D00132D2B20131F1E7A6
:1017080000230022277B1146D0B2874206D92069E0
:10171800805C0132984208BF0121F5E70029D1D148
:10172800A279033A012A04EB050105D925B191F9FB
:10173800172082B9012BC5D90B76A26852F823105D
:10174800583305F10E026B44013544F8221003F8B2
:10175800586CEDB2B6E7501E8342EDDB013293427E
:10176800EADCAFE70023802104F1B800A37517B0C5
:10177800BDE8F0400DF0B6BF2DE9F047154696B02C
:10178800013D0160027104464371EDB25622002109
:1017980068460DF0A7FF0027022D84BF4FF001090E
:1017A80000253E464FF0010A94F807809CBF4FF091
:1017B8000309B8FBF9F8E27DB24251D92046FFF798
:1017C80067FFA8EB0603002190FBF3F202FB13006E
:1017D800C0B2EC460A46CBB243450AD21CF801EB2C
:1017E800BEF1000F03D1824203D00132D2B20131DF
:1017F800F1E7434528BF434603FB0951002094F80D
:101808000CE001F0FF018446C2B2964507D922696F
:10181800125C01308A4208BF4FF0010CF4E7BCF1BA
:10182800000FC8D116B19FB9012BC4D9A2191F4600
:101838001176A26852F8211006F10E02013644F81A
:10184800221003F158026A44F6B202F858ACB2E723
:101858007A1E9342EADB7A1CD2B29342E6DCAAE70C
:101868000023802104F1B800A37516B0BDE8F04745
:101878000DF038BFD0E901236421D31AC360826018
:101888004B43418AB3FBF1F303747047D0E901235A
:10189800D31AC0E9022370470023C0E9023341820A
:1018A8004360037470474368013343607047007CAA
:1018B800704743680B4443607047C0687047002313
:1018C8004360038170470A2310B50446838001F002
:1018D80029FD2368E0809B68204698474FF62F0330
:1018E800984228BF1846208110BD038970B5044668
:1018F8009BB1858845B1013DADB285806DB903685E
:101908001B68BDE87040184701F00CFDE388C01A59
:10191800238980B2834201D2258170BD2368204685
:101928005B68EEE710B50229044680EAE070A0EB98
:10193800E47068D15AB9002CACBF7F233F2398428A
:10194800A8BF1846002C01DA40F0400010BD012A5B
:101958001AD1632805DC4000002CF7DA40F48070C7
:10196800F4E740F2F54398420CDCFFF7B7F8574923
:10197800FFF70CF90CF0FAFCFFF70AFB400040F007
:101988000100E9E7FF20E7E7022A40F09C8063288E
:1019980005DC8000002CD9DA40F40070D6E7B0F5F9
:1019A8007A7F0CDAFFF79AF84849FFF7EFF80CF05E
:1019B800DDFCFFF7EDFA800040F00100EAE742F2B3
:1019C8000F7398420CD8FFF789F84149FFF7DEF802
:1019D8000CF0CCFCFFF7DCFA800040F00200D9E7FD
:1019E8003C4B98420CD8FFF779F83B49FFF7CEF803
:1019F8000CF0BCFCFFF7CCFA800040F00300C9E70C
:101A080040F2FF10C6E703295DD1012A1BD1B0F5CA
:101A18007A7F05DA4000002C98DA40F4006095E7F8
:101A2800B0F5205F0CDAFFF759F82849FFF7AEF850
:101A38000CF09CFCFFF7ACFA400040F00100EAE72C
:101A480040F2FF70E7E7022A3DD1B0F57A7F06DA67
:101A58008000002CBFF67AAF40F4805076E742F25F
:101A68000F7398420CDCFFF739F81849FFF78EF826
:101A78000CF07CFCFFF78CFA800040F00100E8E7EE
:101A8800164B98420CD8FFF729F81149FFF77EF852
:101A98000CF06CFCFFF77CFA800040F00200D8E7FD
:101AA800B0F57A2F0CD2FFF719F80B49FFF76EF84B
:101AB8000CF05CFCFFF76CFA800040F00300C8E70C
:101AC80040F6FF70C5E7002040E700BFCDCCCC3D15
:101AD8000AD7233C17F001006F12833A9F86010052
:101AE800002303607047000038B5084B09291B78AC
:101AF80028BF09218B4204460D4602D1002303600A
:101B080038BD01F003FC25712060F9E7D4000020FE
:101B1800036810B504460BB9002010BD01F0F6FBB0
:101B28002368C01A40F2EE239842F5D90023054AEB
:101B38002360127823799A42EED0034A0120D377A2
:101B4800EBE700BFD40000202C010020FF234371E5
:101B580000230171837103818372704738B503795B
:101B680004460D465BB14179A94208D041B101292B
:101B78000AD00023A371657155B1012D0FD038BD6E
:101B880003689B689847F4E703680021DB68F9E776
:101B980023689B68012120469847A071EFE72368D6
:101BA8002946DB68F7E72DE9F04F077CC37B857C86
:101BB800C67C90F815E090F8208090F80EC0BF0021
:101BC8000C4647EA931703F03F01437C03F00102F8
:101BD80047EA822705F00F02D20142EA530206F0D3
:101BE8007F031B0143EA1513057D89B06D0045EAA3
:101BF800D6150EF00306059345EA4623867D009325
:101C080006F01F05AD0145EA9E03C57D90F819E071
:101C18000193ED0045EA5613057E02930EF0070680
:101C280045EA0623857E039305F03F06760146EADA
:101C3800DE03C67E90F81CE00493B60046EA9516CB
:101C48000EF0010546EA8526457F069205F00F0B42
:101C58004FEACB1B4BEA5E0B90F81EE00EF07F0AB2
:101C68004FEA0A1A4AEA151AC57F6D0045EADE15D9
:101C780008F0030E45EA4E2590F821E00EF01F0902
:101C88004FEA891949EA9809490190F82280407B6E
:101C980041EADC010CF0070C40EA0C204FEAC808C6
:101CA80048EA5E180791FFF7BDFA079920800846B1
:101CB800FFF7B8FA60803846FFF7B4FA069AA080B2
:101CC8001046FFF7AFFA059BE0801846FFF7AAFA1F
:101CD80020810098FFF7A6FA60810198FFF7A2FA21
:101CE800A0810298FFF79EFAE0810398FFF79AFA1D
:101CF80020820498FFF796FA60823046FFF792FA3E
:101D0800A0825846FFF78EFAE0825046FFF78AFA1B
:101D180020832846FFF786FA60834846FFF782FA51
:101D2800A0834046FFF77EFA4FF48063E083238464
:101D3800638409B0BDE8F08F2DE9F04104460F46F1
:101D480001F0F0FA4FF001080546236820461B68A9
:101D580098470646F0B1236820465B689847A37AFF
:101D6800A3B90F2814D1A4F80A80E37AE218013342
:101D7800DBB2182B1073E3720AD939462046FFF7F5
:101D880012FF0023A3723046BDE8F081012BECD08E
:101D98002581DAE7A37A012BF5D1208940F6C4130F
:101DA8002D1A9D42C8BFA672EDE7827922B1437908
:101DB800012B01D8FFF7C0BF00207047704770475C
:101DC8007047704700207047002070477047002018
:101DD8007047002070474FF0B04382B0DA6C02437E
:101DE800DA64DB6C18400190019B02B070474FF039
:101DF800B04382B09A6D02439A659B6D184001907A
:101E0800019B02B070474FF0B04382B01A6E024394
:101E18001A661B6E18400190019B02B0704750E88B
:101E2800003F43F0800340E80032002AF7D17047B2
:101E380050E8003F23F0200340E80032002AF7D1A1
:101E4800704750E8003F23F0400340E80032002A82
:101E5800F7D1704750E8003F23F0800340E8003294
:101E6800002AF7D1704770470288044B5140C9B225
:101E780033F8113083EA122303807047982201084F
:101E88009AB110B4B0F800C0084C0A4411F8013BEC
:101E980083EA0C03DBB2914234F8133083EA1C2C3A
:101EA800A0F800C0F2D110BC704770479822010812
:101EB80037B54FF6FF730446ADF806304518AC4207
:101EC80006D014F8011B0DF10600FFF7CDFFF6E769
:101ED800BDF8060003B030BD064B187840B1064B7C
:101EE8001888064B1B8880B29BB2C01A18BF012005
:101EF800704700BF2C000020F02C0020EE2C0020A2
:101F080001207047704700000649074A0B8812886D
:101F18000133C3F3080392B29A421EBF034AD05456
:101F28000B807047E8220020E6220020E6200020EF
:101F38000023A0F87032A0F86E3270470023A0F892
:101F48005C32A0F85A3270472D4B5A6A037A92B223
:101F580063B18389D31A9BB2B3F5FA7F84BF002398
:101F68000372837A4F2B84BF00230372037A828122
:101F7800082B0FD8DFE803F0050E0E0E0E0E0F1714
:101F88002200EE2901D0C82904D1012383724175AA
:101F9800062303727047837A5A1C03448272597568
:101FA80041720723F5E7827A531C0244DBB283723D
:101FB8005175427A9A42EDD20823EAE7837A5A1C8D
:101FC800034482725975C37D162B04D1012380F80E
:101FD80065300923DDE743690A4A03F0FF2393428A
:101FE8004FF0010309D1428BB2F5A26F05D180F8F9
:101FF8006730037F80F86830EBE780F86630E8E701
:102008000044014000C80032044B1888044B1B8868
:1020180080B29BB2C01A18BF01207047E822002086
:10202800E62200207047B0F87032B0F86E22D21A5B
:1020380093B2120441BFB0F8720201301B189BB270
:10204800181E18BF01207047A0F11400EBE7B0F884
:102058007022B0F86E12914203461FBF81180132F8
:1020680091F87402B3F872121ABF0A40A3F87022EA
:1020780000207047A0F11400E9E7000008B51E220F
:10208800034800210DF02EFB024B00221A7008BDF8
:10209800AC0A00208003002038B54A78352A0D465E
:1020A800044601F10C010AD80DF0F4FA6878002111
:1020B800C0F136022044BDE838400DF013BB40356E
:1020C80051F8043B40F8043BA942F9D10B8803803E
:1020D80038BD38B54A781B2A0C46054601F10C0173
:1020E8000AD80DF0D7FA60780021C0F11C02284404
:1020F800BDE838400DF0F6BA283451F8043B45F8ED
:10210800043BA142F9D138BD38B54A78082A0D46B2
:10211800044601F10C010AD80DF0BCFA68780021D8
:10212800C0F109022044BDE838400DF0DBBAEB6885
:1021380003604B6843600B7A037238BD38B54A7840
:10214800072A0C46054601F10C010AD80DF0A2FA3F
:1021580060780021C0F108022844BDE838400DF03D
:10216800C1BAE36803604B68436038BD2DE9F041AC
:102178001378037092F8018080F80180FD2B1546D2
:10218800044682680F4652D1AB788370EB78C370EF
:102198002B7903716B794371AB7983716B7A297AE7
:1021A8001B0403EB0123E9790B4463F317028260F4
:1021B8000A264246A91904F10C000DF06BFA7A7B45
:1021C800904507D208F10C00A2EB08020021204438
:1021D8000DF088FA63781E44731C9BB2EA5CAB5D11
:1021E80003EB0223A4F80C31A378DB070ED50236E3
:1021F80015FA86F504F5887305F10C0255F8041BE9
:1022080043F8041B9542F9D12A781A70BB7A84F8EE
:102218002131FB7A84F822313B7B84F823317B7BA4
:1022280084F824313B7884F82031BDE8F08100231C
:102238004380AB780371EB7843712B7983716979AB
:1022480061F3170282600626B3E770B50B78037056
:102258004B7843700B78FD2B05460C4638D18B78AC
:102268008370CB78C3700B7903714B7943718B7989
:1022780083718B68C3718B68C3F30F2303728B7AE6
:1022880043720A26627804F10C01A8190DF002FACB
:102298006378B4F80C213344981CEA545A1CB4F8F7
:1022A8000C1192B2090AA954A278D20780B20ED5AD
:1022B80004F58872054404F58E7452F8041B45F839
:1022C800041BA242F9D112782A700F3398B270BD5C
:1022D80000238B700B7983704B79C3708B790371F2
:1022E8008B6843710626CDE72DE9F74F0C465188D8
:1022F800B1F58C7F05464FF0000010D31070D91C43
:10230800C9B2012995BF01210023518053809CBF88
:10231800237011700020287003B0BDE8F08F167884
:102328000E2E00F2BB8001A757F826F007230008FD
:102338007123000899230008B5230008A524000884
:10234800A5240008A5240008A5240008A524000841
:10235800A5240008A5240008A5240008A524000831
:10236800A5240008C5230008481C50806354217820
:10237800FD299BB206D10C330A21D3809180022318
:102388001370C7E708330621D38091800E23F7E73F
:10239800481C50806354D80742BFD1880D31D18082
:1023A8000321012B1170B5D90023E9E7481C50809F
:1023B80063540E211170002BF6D1ABE7481C5080F6
:1023C80063545388D1888B4260D3002353801370A1
:1023D80002232B7069802378FD2B65D163792B72DA
:1023E800A3796B72637A227A1B0403EB0223E279E6
:1023F80013446B60637803F10C026A80A278D107FA
:1024080001D519336B8000236968DFF804816B817B
:1024180040F26B121E460C20B31801335B0800FB18
:1024280003F758F80770B94247D25A1EB242F3D898
:102438000C27774358F80730994241D12378204632
:10244800FD2B10F801BF0CBF4FF00A094FF0060929
:10245800CB440BF1FF3189B24744FFF729FD97F8C8
:1024680004A0ADF8060051460DF10600FFF7FCFC8C
:102478000BF10103E25C14F80B3003EB0223BDF807
:1024880006209BB29A4223D005201AE092889A42ED
:102498003FF640AF01232B7000203DE710705080BD
:1024A8009080D0802870F7E7E3782B7223796B72DD
:1024B80063796B6063780833A4E71E46B8D9B5E73B
:1024C80003202870023801288CBF0020012023E750
:1024D800BB79DA0707D56178FA79914282BF04EBB4
:1024E80009018A5CAA729B0709D50C2303FB0683A2
:1024F80062781B7A9A4282BF4C44E35CEB720C23ED
:1025080003FB068385F80CA05B796B730220D8E780
:10251800B4100108054A536A52E8003F43F020030B
:1025280042E800310029F7D1704700BF0038014068
:102538000A4B0B491A68A1FB02123223920C03FBC7
:1025480002F20849084B486802F5FA72A3FB023206
:1025580092094B681B1A9A42FBD870474400002026
:1025680083DE1B43001000E0D34D6210028810B5D3
:102578008488531C234044889C421EBF12189171C2
:10258800038010BD70B5104C0025234626782EB167
:1025980066788E4202D1A67896420BD001350C2D72
:1025A80004F10404F2D1002413F824501DB10134BD
:1025B8000C2CF9D170BD012503F8245003EB8403DA
:1025C800D87059709A70F5E7850300202DE9F84313
:1025D8000B460D795A7A9E7ADF7A204B097A1B5C72
:1025E800DB07044600D50DB9FFF7CCFF00231C49D3
:1025F8001A4898464FF0010E9C4201F8018B25D0ED
:102608002DB90278920702D501F801EC1EE0154AAF
:102618004FF0000C92F80090B9F1000F0FD092F82B
:10262800039099450BD1002EEED092F80190B14558
:1026380005D1002FE8D092F80290B945E4D00CF10A
:10264800010CBCF10C0F02F10402E3D10133DBB23F
:10265800042B00F10100CFD1BDE8F883B5030020B9
:10266800810300208503002070470000044AD2F847
:10267800903023F40043C2F89030FFF759BF00BFF1
:102688000004005808B5FFF753FF044AD2F8903009
:1026980043F40043C2F8903008BD00BF000400585E
:1026A800064B1B7843B1064A00231380054A138062
:1026B800054A1380054A1380704700BF2C0000208C
:1026C800EE2C0020F02C0020F22E0020F42E00200A
:1026D800054B1B783BB9054A1380054A1380054A08
:1026E8001380054A138070472C000020EE2C002030
:1026F800F02C0020F22E0020F42E0020054A536A08
:1027080052E8003F43F0200342E800310029F7D1A6
:10271800704700BF00440040074B1B784BB9074B7C
:102728001888074B1B8880B29BB2C01A18BF0120BB
:1027380070470020704700BF2C000020F02C0020BC
:10274800EE2C002007B503688DF80710DB6801221E
:102758000DF10701984703B05DF804FB70B5044616
:1027680008460D46FDF70EFD236882B2294620462D
:10277800DB68BDE870401847B0F1904F02D10120E6
:10278800FFF729BB084B984205D003F580639842B0
:1027980003D10420F4E70220F2E7044B984201D168
:1027A8008020EDE7704700BF00040048001C004887
:1027B8000C4B984203D14FF40060FFF724BBB0F1F3
:1027C800804F05D0084B984205D14FF40030F4E70C
:1027D8000120FFF70CBB054B984202D14FF4802033
:1027E800EBE77047002C01400044014000480140DD
:1027F8002DE9F04387B00E46054614460021142201
:1028080001A89DF838809DF83C901F460CF06AFF9F
:1028180000960B2C07D8DFE804F007070A121414F7
:10282800141616161A1CFEE70323019301E002236F
:102838000493032F11D8DFE807F0111321110123A6
:10284800F6E70123F1E7012301930393F1E702235C
:10285800EBE7022301930123F7E7FEE70223029344
:10286800B8F1100F0CD8DFE808F02D2D0C11131556
:1028780017191B1D1F21232527292B000123EEE7EC
:10288800FEE701230593022301931EE00223F9E7E3
:102898000323F7E70423F5E70523F3E70623F1E726
:1028A8000723EFE70823EDE70923EBE70A23E9E726
:1028B8000B23E7E70C23E5E70D23E3E70E23E1E726
:1028C8000F23DFE7B8F1000FDDD1B9F1000F02D017
:1028D8002846FFF751FF053C042C05D8DFE804F033
:1028E800030B04030B00AE62694628460AF0BAFCE3
:1028F80007B0BDE8F083AE61F6E713B54FF0010C01
:102908000024CDE9004CFFF773FF02B010BD0000B2
:1029180007B50E48FFF78CFA036823F0010303603C
:10292800436843F400434360036843F001030360D2
:1029380008210023CDE900130A2203234FF0904019
:10294800FFF756FF03B05DF804FB00BF00440040EA
:1029580070B586B004460D4616460021142201A81B
:102968000CF0C0FE2046FFF723FF042E04D8DFE852
:1029780006F02E3204363F00FEE71E4B1E4A1B6847
:10298800B3FBF2F39BB20022013B01A92046ADF84C
:102998000430CDE90225049205920AF093FE2368DB
:1029A80023F080032360A36823F4A03323F00703F4
:1029B800A360636823F070036360636823F47003A3
:1029C8006360A36823F08003A36006B070BD094B61
:1029D8000A4A1B68D4E7074B094A1B68D0E7054B2E
:1029E800064A1B68B3FBF2F303EB83035B00C9E7FA
:1029F8000123C8E74400002080A8120140420F00CC
:102A080000127A0010B50446FFF7A2FF236843F0CE
:102A18000103236010BD00224FF0FF31FFF7F2BF22
:102A28001A4B10B51A4C5B68236009F083FD4FF010
:102A380090400AF0D9FB17480AF0D6FB16480AF06E
:102A4800D3FB16480AF078FE15480AF075FE0AF01E
:102A580069FD4FF0E022002313615361936172B660
:102A68004FF0FF319A0002F1604202F561420133F2
:102A7800082BC2F88010C2F88011F3D162B6034B5C
:102A88001B6883F3088823689847FEE70000FF1F48
:102A98007C0300200004004800080048003801407A
:102AA80000440040064B0748C01AEFF30883C243AE
:102AB8001A44013B984288BF0022AA210CF012BE9A
:102AC8000004000000000120044B5A69586910F006
:102AD800020018BFC2F38000704700BF000400580E
:102AE8004FF0B042D2F8943043F40043C2F8943027
:102AF8004FF47A7300BF013B9BB2002BFAD14FF021
:102B0800B043D3F8942022F40042C3F89420D3F8B9
:102B180094205204FBD40C4BD3F8902022F40042AA
:102B2800C3F890204FF47A7200BF013A92B2002A9B
:102B3800FAD1D3F8902042F40042C3F890204FF421
:102B480000629A61704700BF0004005810B5032363
:102B5800052240214FF09040FFF7CFFEBDE810401E
:102B68000323052280214FF09040FFF7C6BE08B529
:102B7800FFF7AAFF003818BF012008BD08B5FFF706
:102B8800F6FF08B100BFFAE708BD4FF09043802276
:102B98009A6240229A6170474FF0904340229A62AD
:102BA80080229A6170470000024B4FF480225A60DD
:102BB800704700BF00E100E00023032202214FF02C
:102BC8009040FFF79ABE4FF09043186980F00200DA
:102BD800C0F340007047000010B5074C00232046A2
:102BE80005221021FFF789FE20460023BDE810408A
:102BF80005220821FFF781BE0004004805494B69FA
:102C08001A04DB4302F4801203F0100313438B61B0
:102C1800704700BF0004004805494B691A04DB43AC
:102C280002F4002203F0080313438B61704700BFCE
:102C38000004004808B50322002302214FF0904009
:102C4800FFF75BFE102200234FF0904108698007D0
:102C580058BF013302F1FF3258BFDBB212F0FF0256
:102C6800F4D1082B024A8CBF00230123137008BD3E
:102C78002C0000200C4BD3F8FC2022F08072C3F803
:102C8800FC20D3F8FC2042F08072C3F8FC20A3F5A6
:102C98005D431A6822F001021A601A6842F00102C4
:102CA8001A6000225A60704700ED00E00649074BA1
:102CB800074A1B68B3FBF2F310B54C6843434A68F4
:102CC800121B9A42FBD310BD001000E04400002004
:102CD80040420F001FB50223CDE9013101A80123AD
:102CE8006946039309F090FD00280CBF04200520D5
:102CF80005B05DF804FB014608B5012009F03EFD6A
:102D080000280CBF0420052008BD08B5FFF7E2FF26
:102D1800031F5842584108BD08B5FFF7ECFF031FD1
:102D28005842584108BD00002DE9F047284B294D6D
:102D380001280E4614462849284A0FBF7D277C27BC
:102D4800AA461D4606BF88469A46904609F0CAFC20
:102D580039462846FFF7D9FF38B3002E08BF4FF48D
:102D6800FC640734E41005F11007B14606EBC4040F
:102D7800AAEB050AA1451ED06EB90AEB0703D3E9F1
:102D88000023B3F1FF3F08BFB2F1FF3F06D1083778
:102D980009F10809EEE7D9E90023F2E7B84515D9A2
:102DA8003846FFF7B9FF0028F1D1002409F0ACFC40
:102DB8002046BDE8F0874FF011324FF0FF33284628
:102DC800FFF7AAFF0028F0D00424EFE70324EDE77B
:102DD80000E0030800E80308FFEF0308FFE7030823
:102DE80010B509F07FFC08487C21FFF78EFF20B161
:102DF80006487D21FFF789FF20B9002409F084FCEB
:102E0800204610BD0424F9E700E0030800E80308A1
:102E180030B5084A084D00239CB2A14206D99C1837
:102E2800AC4205D09C5CC4540133F5E7042030BDA6
:102E38000320FCE710E00308FFE7030838B5044661
:102E48000D4672B60A4601460020FFF76DFF62B6CE
:102E5800042806D172B601202A462146FFF764FFEE
:102E680062B638BD38B5124B1C68D3F80058B4F1B7
:102E7800113F09D1B5F1113F17D0002211460120A9
:102E8800BDE83840FFF750BFB5F1113F03D100222C
:102E980011461046F4E7FFF7A3FF042804D12C409D
:102EA80001340CBF0220012038BD0420FCE700BF1C
:102EB80000E00308044B9A689107FCD518739A68D8
:102EC800D207FCD5187B70470000015870B50C4636
:102ED800451E8E18B44206D015F8010FFFF7EAFF19
:102EE80004F8010BF6E770BD084611461A46FFF7CD
:102EF800EDBF000070B5064E04464518A54205D042
:102F08003078FFF7D7FF04F8010BF7E770BD00BF73
:102F18003800002008461146FFF7ECBF38B50446D4
:102F28004518AC4204D014F8010BFFF7C3FFF8E7CB
:102F380038BD08461146FFF7F1BF000010B58CB048
:102F48002822002102A80CF0CDFB4FF0B0431C4C06
:102F58005A6E42F001025A665B6E03F00103019358
:102F6800019BFFF7BDFD082208924FF482720023EF
:102F780003924FF40072CDE90533CDE9093302938A
:102F8800079207234FF4E06202A920460B930492AC
:102F98000AF05EFB636823F010036360636823F044
:102FA80008036360236843F040032360A3689B071A
:102FB800FCD5237B034BFF221A700CB010BD00BF59
:102FC80000000158380000201B4B10B4DC69A00633
:102FD80011D51A6891060ED5184819495A6A0388F6
:102FE80009880133C3F30A0389B299421FBF1549FF
:102FF800D2B2CA54038010481F232206036215D593
:1030080003681B0612D5104B104A1988138889B219
:103018009BB299420CD013880133C3F30803138081
:1030280013880B4A9BB2D35CDBB2836210BC704737
:1030380010BCFEF70FBF00BF00380140F02C002085
:10304800EE2C0020EE240020F42E0020F22E00208A
:10305800F22C00200A490B4A08B50B881288013364
:10306800C3F3080392B29A4207D0074AD0540748DC
:103078000B80FEF7D4FE012008BD0020FCE700BF4E
:10308800F42E0020F22E0020F22C002000380140FF
:1030980038B504464518AC4204D014F8010BFFF7C4
:1030A800D9FFF8E738BD0000034B1B7808461146E6
:1030B8000BB9FFF7EDBF70472C000020034B1B78BE
:1030C800084611460BB1FFF7E3BF70472C000020FC
:1030D800054B064A1B8812889B1A98B21B0444BFEA
:1030E80000F5006080B27047F02C0020EE2C002024
:1030F800024B187808B1FFF7EBBF70472C0000208F
:103108000848094A0188138889B29BB29942F9D0C4
:1031180013880133C3F30A0313801388034A9BB24D
:10312800D05C7047F02C0020EE2C0020EE2400200C
:10313800024B187808B1FFF7E3BF70472C00002056
:10314800034B1B780BB9FFF7DBBF0020704700BFAC
:103158002C00002070B588B00C46064615460021A4
:10316800202268460CF0BEFA002C14BF4FF480539E
:103178000023CDE9023569460C23044801960494DE
:1031880005930AF0FDFA08B070BD00BF0038014091
:1031980010B5064C236823F001032360FFF7DAFF1C
:1031A800236843F00103236010BD00BF00380140CD
:1031B800044B1B7808461BB100221146FFF7E8BFF5
:1031C800704700BF2C00002000221146FFF7E0BF27
:1031D80073B5324C236823F00103236008250126C8
:1031E8004FF48040FEF70FFE4FF40071CDE9005612
:1031F80003230A224FF09040FFF7FAFA03231A46F6
:10320800CDE900564FF480614FF09040FFF7F0FA97
:10321800002211464FF4E130FFF79CFF636823F466
:1032280090436360A36823F02A03A3601C4BB02279
:1032380083F8242310225A602046FEF70BFEFEF77F
:1032480000FE40232362174B00211980164B19807A
:10325800FEF7EEFD154B1980154B1980636823F4B2
:1032680000636360A36823F00803A360636823F422
:1032780080436360A36823F02203A360A36843F438
:103288008053A360236833432360E3699A02FCD523
:10329800E3695B02F9D502B070BD00BF0038014098
:1032A80000E100E0F22E0020F42E0020EE2C002099
:1032B800F02C002008B5FFF78BFFBDE80840FFF7AA
:1032C80029B9000008B5FFF7F5FFFFF7B3FC054B78
:1032D8001B782BB9BDE808404FF4E130FFF774BF05
:1032E80008BD00BF2C000020054A064B11681B785A
:1032F8000B441360044A136801331360704700BF1E
:10330800042F00204800002098080020014B18686E
:10331800704700BF042F00200148FFF77CBB00BFA7
:1033280000440140014B586A80B270470044014094
:10333800024B00221A60FFF7EFBF00BF9808002079
:1033480070B51A4C1A4E90220021201D0CF0CAF9B3
:1033580006232380162363800F23A38005222C23B2
:103368003146A01DFEF7D0F8124A134B0025C4E9D8
:103378000D2331462C23052204F13E00A587FEF7D4
:10338800C3F802230D49E36604F17A00A4F87050EB
:1033980084F872506567A4F878500CF0C7F97F2359
:1033A80084F88F30052384F8903070BDE80200203F
:1033B800E408010802000F000300050063FA000892
:1033C80070B5094E05460C46415C30460CF0A1F933
:1033D800034628B1831B0133DBB2282B28BF002307
:1033E800F35C2B5570BD00BF880F010870B50C4603
:1033F800114606460CF09AF944B1002505213046DD
:103408000135FFF7DDFFEBB29C42F7D870BD000035
:1034180073B5054605F111061B4C1C4A01463601D9
:103428006846FFF7E3FFB01C694620440CF07EF9BC
:10343800264404EB0513142000FB05400122727298
:103448000221A3F81A210323A0F84A1080F850306B
:10345800E18400230E49C264A0F8523080F8543049
:10346800C4F83A304FF48070C4F83E30C4F84230A3
:1034780040F20113C4E90A0184F83020A4F8463068
:10348800A4F8483002B070BD2C01002034FA0008BE
:1034980003020100F7B50546AB4CAC4A05F111062D
:1034A800014637016846FFF7A1FFB81C2744694663
:1034B8002044FDF73DFF7B7A052B84BF02237B72F6
:1034C80004EB0610A24B427A198841FA02F2D70798
:1034D8000FD40222427261B14807C1F3800208D4B6
:1034E80041FA02F7FF07D0B240F1DF8104EB061280
:1034F800507204EB05112A0191F81A01042802D927
:10350800012081F81A01A718588897F81A1140FA6B
:1035180001F1C90711D4022187F81A1168B14707C8
:10352800C0F3800109D440FA01FC1CF0010FCFB2AE
:1035380000F0C081A11881F81A71A11891F81B0137
:10354800032802D9002081F81B01A718988897F84A
:103558001B1140FA01F111F001010FD187F81B117D
:1035680060B110F0010109D140FA01FC1CF0010F13
:10357800CFB200F0A481A11881F81B7104EB0616E4
:10358800717A012905D904291EBF1219002182F870
:103598001B11142202FB054191F84A00042802D9A4
:1035A800022081F84A0002FB054292F84B100429D8
:1035B80002D9002182F84B10142202FB0542998E91
:1035C80092F84B0041FA00F0C00712D4012082F8AB
:1035D8004B0071B18F07C1F340020AD441FA02F6D9
:1035E800F607D0B240F17081142202FB054282F83E
:1035F8004B00142202FB054292F84C10032902D911
:10360800012182F84C10142000FB0540D98E90F857
:103618004C2041FA02F212F0010210D180F84C203D
:1036280069B111F001020AD141FA02F6F707D0B2E6
:1036380040F14F81142202FB054282F84C0014220B
:1036480002FB054292F84E10012902D9002182F8A6
:103658004E10142000FB0540198F90F84E2041FAB7
:1036680002F212F0010210D180F84E2069B111F077
:1036780001020AD141FA02F6F607D0B240F12E81D2
:10368800142202FB054282F84E00142202FB054276
:1036980092F84F10022902D9002182F84F10142005
:1036A80000FB0540598F90F84F2041FA02F212F0C2
:1036B800010210D180F84F2069B111F001020AD13E
:1036C80041FA02F6F707D0B240F10D81142202FB4D
:1036D800054282F84F00142202FB054191F84D0083
:1036E800022802D9002081F84D0002FB054292F819
:1036F8005010052902D9032182F85010142202FB28
:10370800054191F85200012802D9002081F85200A1
:1037180002FB054292F85310022902D9002182F8CF
:103728005310142000FB0540998F90F8532041FA5C
:1037380002F212F0010218D180F85320A9B111F059
:10374800010212D106E000BF2C01002034FA000863
:10375800E802002041FA02F6F607D0B240F1C8802C
:10376800142202FB054282F85300142202FB054191
:1037780091F85400022802D9002081F8540002FB75
:10378800054292F84C10012906D192F84F100229EF
:1037980004BF002182F84F1094F82620042A02D989
:1037A800022284F8262094F82720042A02D900222D
:1037B80084F82720B3F86C1094F8272041FA02F215
:1037C800D6070FD4012284F8272059B18807C1F3FE
:1037D800400207D441FA02F6F707D0B240F18D80D3
:1037E80084F8270094F82820022A02D9002284F8B5
:1037F800282094F82920022A02D9012284F82920B5
:10380800B3F86E1094F8293041FA03F313F001026B
:10381800684B0CD184F8292049B111F0010206D176
:1038280041FA02F6F607D0B26CD583F8290094F86D
:103838002A200C2A02D9002284F82A2094F832205F
:103848000C2A02D9002284F8322093F82B20042A6B
:1038580002D9002283F82B2093F82F20012A02D9BD
:10386800002283F82F20544AB2F8701093F82F20C2
:1038780041FA02F212F001020CD183F82F2049B16B
:1038880011F0010206D141FA02F4E707D0B23DD5A2
:1038980083F82F0000224949104611F9014B14F111
:1038A800780F37DA01F8010C36E00132102A7FF47C
:1038B80017AE1EE6013110297FF435AE3DE6013121
:1038C80010297FF451AE59E60132102A7FF486AEF2
:1038D8008FE60132102A7FF4A7AEB0E60132102A33
:1038E8007FF4C8AED1E60132102A7FF4E9AEF2E6E1
:1038F8000132102A7FF42EAF37E70132102A7FF405
:1039080069AF6FE70132102A8AD190E70132102A95
:10391800B9D1BFE7782CC5DC0132D2B20C2ABCD1B0
:1039280027490022012011F8014B0132022CD2B2A2
:1039380088BF01F8010C042AF5D193F82C20052A38
:1039480002D9032283F82C2093F82D20022A02D9C9
:10395800022283F82D2093F82E20022A02D9012270
:1039680083F82E2093F83020022A02D9012283F806
:103978003020142000FB0531FF2281F8512003EB91
:10398800051183F831204FF6FF744FF0FF32C1F86C
:103998001C21A1F82041552110FB051559191A625F
:1039A8009A845A514A600C7283F833205A631A87F2
:1039B80003B0F0BD2C010020E802002066010020C1
:1039C80072010020154B9870042804D8DFE800F035
:1039D80004141A200400FEE7114A9A6400221A719E
:1039E8000A220338012894BF002001201A771A7987
:1039F8001A749873987670470A4A9A6400221A7162
:103A08000F22EEE7084A9A6401221A711922E8E7A0
:103A1800064A9A6400221A710722E2E7D4000020BD
:103A28001400320020001F003500130009006F0049
:103A38002DE9F34100F11107754E764C3F0107F16E
:103A48000208B04405464046FDF78EFC042101906B
:103A58000DEB0100FEF72CFA019BA36063611423B0
:103A680003FB0563374493F84A206B4BE08313F953
:103A7800223023732376694B23657B7A637006EBC8
:103A88000513002193F81A0184F85410FFF79AFFE0
:103A9800634A63781288A285E28B63732F01637689
:103AA80084F82830626284F82A1023B94046FDF76A
:103AB8007BFC84F82A00374497F81B2184F82920D6
:103AC8006AB1E18B02EB021303EB03230B44E3839C
:103AD800A3684FF0113101FB0232A260626194F8D1
:103AE8002830052B04D8DFE803F0043D3F41434963
:103AF800FEE7A378032B03D8DFE803F00330320393
:103B0800FEE71823474F84F8203017E90F0087E8AD
:103B18000F0040F2E24394F82000A4F84C30FCF780
:103B2800E1FF4FF07F51FDF731F8FDF731FAB4F8B6
:103B380048204FF47A73B3FBF2F3A4F8403014230F
:103B480003FB0563C0B293F85030A4F84E00052B70
:103B580040D8DFE803F01536393C3F421223D1E75D
:103B68000C23CFE71923CDE70623CBE70223C9E7C8
:103B7800A378012BF2D0022BF2D0FEE70323C1E792
:103B88004FF41653142000FB05656364002384F882
:103B98005530A4F8563095F84C30032B03D095F8DF
:103BA8004F20022A02D1012284F8552094F855208A
:103BB800012B08BF84F8563092B194F856307BB187
:103BC800FEE74FF49643DDE74FF41643DAE74FF488
:103BD8006143D7E74FF4E133D4E74FF46133D1E7DA
:103BE8002378142101FB036393F84C30022B07D18F
:103BF800012384F8573022B194F857302BB1FEE7EF
:103C08001AB994F85630002BF6D102B0BDE8F0810D
:103C18002C010020D4000020E40801080101000163
:103C2800E80200200401002002484FF4DE72FF2160
:103C38000BF058BD2C01002002484FF4DE71FFF74D
:103C4800FDB800BF2C01002002484FF4DE71FFF7D9
:103C5800DFB800BF2C01002008B5FFF7F5FF034BC4
:103C68001878BDE80840FFF715BC00BFD400002055
:103C780070B5FFF7D9FFFFF7F5F804280CD0FFF768
:103C8800D3FFFFF7EFF8042803D1FFF7DDFF04287F
:103C980006D0FFF7C9FF03E0FFF7D6FF0428EED1EF
:103CA8005749584810220BF049FD08B1FFF7BCFFEF
:103CB800544CA38A40F24F12934267D0B3F5A47FC5
:103CC80036D8062204F1160104F58970FDF7ABFC1D
:103CD800637F84F81931A37F84F81A3101252846B7
:103CE8000135EDB2FFF794FB0A2DF8D10023E377F5
:103CF80040F24F13A382012522694149414842F20B
:103D0800DD739A424FF010021CBF236101250BF0AE
:103D180015FD00283CD03A493A481022FDF772FCBC
:103D280039493A480822FDF76DFCFFF785FF31E075
:103D3800B3F5A77F22D823460022032501210226B6
:103D480093F84C0001280DD003280ED093F84F00AB
:103D580001280DD002280ED001320A2A03F11403DB
:103D6800EED1C5E783F84C50F0E783F84C10EDE747
:103D780083F84F60F0E783F84F10EDE70025E8B2CD
:103D88000135FFF745FB0A2DF9D1AFE70025B3E769
:103D9800002DCAD1E37F092B84BF0023E377E17F9D
:103DA800142303FB014393F84C2002F0FD02012A7F
:103DB80017D114490022013293F84C0081F84C00C5
:103DC8000A2A01F11401F6D1114DE37F2B70FFF798
:103DD800B7FA2878FFF75EFB2878BDE87040FFF750
:103DE80027BE49B10B4903F14A025E3352F8040B6E
:103DF80041F8040B9A42F9D10023E377E4E700BFC6
:103E08003BFA00082C0100204CFA0008DE020020D2
:103E1800D40000207601002030B5C01A1628A8BFAB
:103E280016206FF00805A8429DF80C40B8BF284638
:103E3800A042C8BF20B2C0B208701844107030BD8C
:103E480007B5084611461A46162300930023FFF7C4
:103E5800E3FF03B05DF804FB0129F7B5054600D977
:103E6800FEE70F4E06EB01131C460F016278F15D69
:103E780083609B7809F0EBFFE678E3790193A379F7
:103E88000093314628466379227909F0F5FF06EB5D
:103E98004606B108284603B0BDE8F0400AF04DB91F
:103EA800B824010838B50246044652F8143BDD69C7
:103EB80000F11503A847217D20460022BDE83840BF
:103EC8000AF045B870B50161897A88B0044601B135
:103ED800012109F08EFF01230DF11F0240F6D801E0
:103EE800204609F0E4FE9DF81F3043F01E0340F61B
:103EF800D8018DF81F300DF11F020123204609F06B
:103F0800A0FE20460AF0F9F8E179FF2903D0FA2249
:103F180020460AF0FEF823695B7A013B042B04D89B
:103F2800DFE803F0043E41413E00FEE7E922E121DB
:103F380020460AF051F9012120460AF0BBF89621E3
:103F480020460AF026F9382120460AF029F92046A9
:103F58000AF02DF92369204693F90810FFF7A2FF0C
:103F680023699D7A15B319782046FFF775FF00225B
:103F78001146204609F05EFF0023009340F2032219
:103F880020464FF6FF7109F0A6FF20464FF6FF7155
:103F980009F0CFFF204608B0BDE870400AF09AB893
:103FA800DB22D721C4E76F226B21C1E70F4B1049F1
:103FB800DE8B104BE3604CF25033009320461923FC
:103FC8000B220AF019F90123CDE903335B23CDE96C
:103FD8000153102319462046009504220AF03EF9A1
:103FE800314620460AF05FF9C1E700BFD40000203F
:103FF800A08601009824010810B504460AF06AF862
:1040080020464FF6FF71BDE8104009F092BF00004E
:1040180038B50169036891F90810DD69044600F1B3
:10402800150300F11402A84723699A7A42B11A7855
:10403800012A00D9FEE7044B03EB0213A36038BD45
:10404800024BE360FBE700BFB8240108982401088D
:1040580010B5094CA36823B9E36813B92046FFF7E4
:10406800D7FF23699B7A23B1A3689868A0F57A7073
:1040780010BDE3689869F9E7F81F0020836810B558
:1040880004461BB9C3680BB9FFF7C2FF23699B7AC3
:104098001BB1A368B3F90C0010BDE368B3F91C00A9
:1040A800FAE7836810B504461BB9C3680BB9FFF774
:1040B800AFFF94F9150010BD90F8D8305BB190F8B7
:1040C800D930074A180102EB03139B681978135873
:1040D80053F821007047837D0E3350F82300704752
:1040E800840801082DE9F3419DF824701646402FF5
:1040F80088464FF05B024FF0000104461D4628BF7A
:1041080040270BF0EFFA8E4BDB8B23803278A378B5
:1041180062F30203A3707378DB0003F0080343EA39
:104128000811A37803F007031943A1707279E378A3
:1041380062F30003E370B279637962F38613637103
:1041480096F90200FDF733F8E37860F34703E3706C
:10415800F278237962F306032371337903F00102BD
:10416800237903F07F0343EAC21323713379C3F33E
:104178004502637923F03F0313436371A37967F31F
:104188004703A3712B78AA78E3716B7802F01F02BA
:1041980003F0070343EAC20323726B88C3F3451293
:1041A800637A23F03F03134363722B7903F003020E
:1041B800637A03F03F0343EA82136372AB88C3F365
:1041C8008703A3726B79C3F38002E37A23F00103B8
:1041D8001343E372AB7903F07F02E37A03F0010340
:1041E80043EA4203E372EB88C3F3C312237B23F051
:1041F8000F03134323732B7AAA7AE3736B7A02F0C3
:104208001F0203F0070343EAC20323746B89C3F355
:104218004512637C23F03F03134363742B7B03F045
:104228000302637C03F03F0343EA82136374AB89A0
:10423800C3F38703A3746B7BC3F38002E37C23F08F
:1042480001031343E374AB7B03F07F02E37C03F0C9
:10425800010343EA4203E374EB89C3F3C312237DEA
:1042680023F00F03134323752B8ADB0863756B8ACE
:10427800DB08A375AB8ADB08E375EB8ADB082376DA
:104288002B8BB3F5C06F3AD2B3F5007F94BF0023F0
:104298000123227B63F3051222736B8BB3F5C06F86
:1042A8002FD2B3F5007F94BF00230123227B63F351
:1042B80087122273AB8BB3F5C06F24D2B3F5007F9E
:1042C80094BF00230123227D63F305122275EB8B33
:1042D800B3F5C06F19D2B3F5007F94BF0023012353
:1042E800227D63F38712089B22751F4404F119028B
:1042F800BB420CD013F8011B02F8011BF8E702239C
:10430800C7E70223D2E70223DDE70223E8E74FF6F7
:10431800FF7321460DF106000D22ADF80630FDF7BA
:10432800AFFD2146BDF8063021F80D3F4C22FDF7C0
:10433800A7FDBDF80630A4F8593002B0BDE8F081F9
:10434800D400002013B59DF81040CDE90034134681
:104358000A460021FFF7C6FE02B010BD13B5144B84
:104368000288DB8B9A4204461DD1837803F0F00360
:10437800102B01D0202B18D1A379A52B15D84FF6D7
:10438800FF730DF1060059222146ADF80630FDF7FE
:1043980077FDB4F85900BDF80630984214BF0420E0
:1043A800002002B010BD0120FBE70220F9E700BFA2
:1043B800D400002030B5334B027893F8261061F30F
:1043C8000302027093F8271061F30712027093F842
:1043D8002810427861F30302427093F8291061F3C0
:1043E8000712427093F82A10827861F303028270F0
:1043F80093F83210827961F30302827193F82B10DB
:10440800827861F30712827093F82C10C27861F3F6
:104418000302C27093F82D1061F30712C27093F86B
:104428002E10027961F30302027193F82F1061F3E1
:104438000712027193F83010427961F30302427156
:1044480003F13A0100F10B0200F1170411F9015BC5
:1044580002F8015BA242F9D193F84610C27D61F3DC
:104468000102C27593F8471061F38302C27593F88D
:10447800481061F30512C27593F8493063F3871247
:10448800C27530BD2C01002002782F4BC2F3030205
:1044980030B583F826200278C2F3031283F8272068
:1044A8004278C2F3030283F828204278C2F3031249
:1044B80083F829208278C2F3030283F82A208279BC
:1044C800C2F3030283F832208278C2F3031283F81E
:1044D8002B20C278C2F3030283F82C20C278C2F3DF
:1044E800031283F82D200279C2F3030283F82E20E9
:1044F8000279C2F3031283F82F204279C2F3030230
:1045080083F8302003F13A0100F10B0200F117049F
:1045180012F9015B01F8015BA242F9D1C27DC2F335
:10452800010283F84620C27DC2F3810283F8472046
:10453800C27DC2F3011283F84820C27DC2F3811202
:1045480083F8492030BD00BF2C0100201FB58DF82D
:104558000C300123019303AB009313460A46022152
:10456800FFF7C0FD05B05DF804FB0000F0B5214D74
:10457800012385F87230044685B0B0F80900FCF7CD
:10458800E8FF6867B4F80B30A5F87830142204F116
:104598000D0105F17A00FDF746F894F9213085F808
:1045A8008F3094F8223085F8903004F12300FFF71B
:1045B8006BFF6E4604F1410304F15107186859680E
:1045C800324603C20833BB421646F7D10A482C23A9
:1045D80008226946FCF71AFF94F85130A5F86C30A8
:1045E80094F85230A5F86E3094F85330A5F870302E
:1045F80005B0F0BDE8020020260300202DE9F047B1
:1046080092B0204C204D0DF108094FF0400A0646A3
:104618000F4690460021524648460BF063F8217831
:1046280005EB011122230DF10A00062201F589711B
:104638008DF80830FCF7E6FF237805EB031205EB4D
:10464800031592F81B1195F8194192F81A219DF853
:10465800113004F00F0444EA021461F3030305A8BF
:104668008DF811308DF81040FFF7A4FECDE9009ABF
:1046780043463A4602213046FFF734FD12B0BDE802
:10468800F08700BFD40000202C0100200A4A1268DD
:1046980082600A4A002383808371838103841368BC
:1046A80003615368064A4361136883615368C361B1
:1046B8004EF6602303607047042F002052FA00086A
:1046C8005BFA000810B50A4C0220FFF77BF9204678
:1046D800FFF792FC20466FF07F01FFF7E3FB2369A9
:1046E80020461978FFF7B8FB2046FFF785FC10BD78
:1046F800F81F002008B5274B196890F820300246AB
:1047080073BBFEF760FA30B982F8210092F82030C6
:10471800002B36D00AE092F8213001335BB2032B2C
:1047280082F82130F2DD012382F820309368CB1A19
:10473800B3F57A6F01D90123537113791BB3164B63
:10474800517B1B7819B1022B1CBF03211173991ED1
:104758004B424B41537393790BB10323137308BD39
:10476800FEF731FA18B1042382F82130CEE792F827
:104778002130013B5BB2002B82F82130C6DC82F885
:1047880020009160D9E75379002BE8D001231371F9
:10479800E4E700BF042F0020990400200346007BB3
:1047A800821E012A4FF0000202D893F8201009B99E
:1047B8001A737047104670470A4A38B51388013390
:1047C8009BB2502B04460D4601D8138038BD0023F8
:1047D80005491380FDF7C2FF29462046FDF7BEFFB5
:1047E800F4E700BF9C0800205DFB00082DE9F84FA6
:1047F8001646054688466A496A4CFDF7AFFF3146BA
:104808002846FDF7ABFF684B0027B8F1010F1F8062
:104818000FD11023A362082746F2A810A761FEF75C
:1048280045FAA762FEF742FA31462846FFF7C4FF69
:10483800F2E7B8F1020F0FD10823A362102746F25E
:10484800A810A761FEF732FAA762FEF72FFA3146E1
:104858002846FFF7B1FFF2E7B8F1030F0FD1102395
:10486800A361082746F2A810A761FEF71FFAA762FE
:10487800FEF71CFA31462846FFF79EFFF2E7B8F12B
:10488800040F0FD10823A361102746F2A810A761CF
:10489800FEF70CFAA762FEF709FA31462846FFF739
:1048A8008BFFF2E7B8F1050F13D14FF00808102776
:1048B800C4F8188046F2A810A761FEF7F7F9C4F803
:1048C8002880A762FEF7F2F931462846FFF774FF01
:1048D800EDE7B8F1060F13D14FF008081027C4F818
:1048E800188046F2A810A762FEF7E0F9C4F82880FD
:1048F800A761FEF7DBF931462846FFF75DFFEDE7D4
:10490800A8F10A03042B3ED8A8F1090B5FFA8BFB28
:104918004FF0080A5F453CBF1023A3614FF004091C
:1049280046F2A810C4F818A0FEF7C0F9C4F828A0E9
:10493800FEF7BCF909F1FF3931462846FFF73CFF7D
:1049480019F0FF09ECD11023A3624FF0040946F2D5
:10495800A810C4F818A0FEF7A9F9C4F828A0FEF713
:10496800A5F909F1FF3931462846FFF725FF19F067
:10497800FF09ECD10137A8F10803FFB2DBB2BB4253
:1049880038BF0027C6E70823A3611023A3614CF2B0
:104998005030FEF78BF931462846FFF70DFFF6E752
:1049A8005DFB0008000400489C08002037B50C4651
:1049B8001D4668B907480DF106020DF1070109F017
:1049C80034FB9DF8061003482B46224609F0CBF924
:1049D80003B030BDF81F002070B50D4616461C46C2
:1049E8000146A0B9FEF7D1F80B4833462A4609F02C
:1049F80093F909484FF6FF7109F09BFA0648A1019F
:104A080009F0B2FABDE870407D20FEF74FB90248C0
:104A1800FFF7F2FA70BD00BFF81F00202DE9F04142
:104A28001F4C204F05464FF05B080E4642460021BA
:104A380020460AF057FE2B6923606B6963601A4BA6
:104A480039781B78194D9A1E53425341627A05EB07
:104A5800011163F30002627204F10A00062201F5F3
:104A68008971FCF7CFFD3B7805EB0315237C95F89E
:104A78001A2162F30713237495F81B21637C5921CB
:104A880062F3030320466374FDF712FA3B7FA4F830
:104A98005900424621463046BDE8F041FFF79CBF29
:104AA8002D200020D4000020990400202C01002093
:104AB80037B50C46A8B9124803699D7A9DB101F132
:104AC8007A020DF1060109F09AFABDF90630002BB9
:104AD80010DB4FF6FF73ADF80630BDF8063084F8EA
:104AE800783003B030BD0DF1060109F0F8FB84F809
:104AF8007A50EAE77F33F0DA4FF68173EBE700BFCD
:104B0800F81F002070B5124C0D4606465B2322465E
:104B180021462846FFF74AFFD6E90613206862684F
:104B28009A4208BF884211D120465921FDF7C0F9A1
:104B3800B4F85940231A5C425C4128460549FFF7FE
:104B4800B7FF002C0CBF0120022070BD0024F4E741
:104B5800591E00206C1F00200A4608B5014601486E
:104B6800FFF744FE2800002000B591B004466846CF
:104B780016461D460AF0DAFD184968460AF0BAFDDD
:104B8800304608F0F7FF014668460AF0B3FD1449BD
:104B980068460AF0AFFD134B684653F82510124DCE
:104BA8000AF0A8FD114968460AF0A4FD9DF84830AE
:104BB800684655F823100AF09DFD0D4968460AF02D
:104BC80099FD9DF84C30684655F823100AF092FD7F
:104BD80008486A462146FFF709FE00BF64FA000844
:104BE8006BFA0008000000201800002070FA000886
:104BF80077FA000828000020074B282202FB003320
:104C08009B681A78542A05D15878A0F1780358423D
:104C18005841704700207047F8080108074B2822C0
:104C280002FB00339B681A78522A05D15878A0F104
:104C3800780358425841704700207047F808010827
:104C4800074B282202FB00339B681A78542A04D1A8
:104C58005878783818BF012070470120704700BF86
:104C6800F808010828230B4A434310B5D1580446D5
:104C7800FFF7D4FF48B92046FFF7BEFF064B1B7865
:104C880028B103EB830301EB8301084610BD01EB58
:104C98000311FAE7F8080108D4000020292838B5DC
:104CA80005460C4631D81A4B282202FB00331B79E3
:104CB800042B07D84BB3023B022B05D8DFE803F0DF
:104CC80011171F00FE2B20D12846FFF7CBFF0378D2
:104CD800E4B2A34219D004702846BDE83840FFF773
:104CE800AFBFFFF7BFFF64B290F90030F1E7FFF7FD
:104CF800B9FF0288A3B29A4207D00480ECE7FFF715
:104D0800B1FF23B2B0F90020F5E7002038BD00BF9D
:104D1800F8080108292838B504460D4619D80E4B5D
:104D2800282202FB00331B79FF2B12D1FFF79AFFD1
:104D380006222946FCF789FC58B92046FFF792FF5E
:104D480029460622FCF76FFC2046BDE83840FFF7ED
:104D580077BF002038BD00BFF80801082DE9F043EF
:104D680007461546354828224A438418012B246AE9
:104D780087B027D1324B8258022908BF1C46314BD5
:104D88009A4230D03049243B9A4208BF0C46FF2350
:104D98008DF800304FF0000801262046FBF7F2F9A5
:104DA8005FFA88F9484522D914F809302C2B06D126
:104DB80006F118036B44013603F8188CF6B208F1B3
:104DC8000108EAE7022BE2D1204B8258022908BFEA
:104DD8001C461C4B9A4208D0A3F124018A4204D0F5
:104DE8001B491E3BD0E7184CD1E71A4CCFE706F118
:104DF80018036B44AE4203F8188C04D800203870AE
:104E080007B0BDE8F08305F118030DEB0305002397
:104E180015F8181C15F9175C0131C9B25A18D2B225
:104E2800AA4207EB030004DAA25C02700133DBB28A
:104E3800F4E7002303700120E2E700BFF808010847
:104E48007EFA000877010020E4FA0008B7FA0008A3
:104E580042FB000818FB0008054B282202FB003320
:104E68005B6A0BB1188870474FF6FF70704700BF38
:104E7800F80801080B4B282202FB003370B51E6AA4
:104E88003046FBF77FF9002204461146D5B24B1C89
:104E9800AC42D8B205D9735D01322C2B08BF01464C
:104EA800F4E770BDF80801080F4B282202FB003315
:104EB80010B51B79FE2B014613D1FFF7CDFF044631
:104EC8000846FFF7D7FF002201461046D3B29942A1
:104ED80008D944FA02F3DB0744BF431CD8B20132B5
:104EE800F4E7FF2010BD00BFF80801082DE9F04FD6
:104EF80000241F4E93B005460F46A046D6F80890EA
:104F08005FFA84FB4FF0000A5FFA8AF14846019184
:104F1800FBF738F9019901F1480388426B4410D92D
:104F280019F8010001930AF0A3FCC0B22028019BE4
:104F38000ABF5F2203F8400C03F8402C0AF1010A6B
:104F4800E2E703F8408C394602A8FBF711F928B9C3
:104F580085F800B0012013B0BDE8F08F01342A2C89
:104F680006F12806CAD185F800800020F3E700BFC3
:104F7800F80801082DE9F0411D4E282303FB0166BE
:104F880004463379FE2B0D46174618D0FF2B21D047
:104F9800022B28D10846FFF765FE214690F900004C
:104FA80008F08BFD35692B783BB1124920460AF091
:104FB800A1FB294620460AF09DFB012015E0084682
:104FC800FFF750FE3B46027829462046BDE8F041EF
:104FD800FFF7C4BE0846FFF745FE062201462046F5
:104FE800FCF721FBE9E700202070BDE8F08100BF55
:104FF800F80801087CFB0008F8B5194B164628226A
:1050080002FB063300241A790470022A07460D466B
:1050180003D0FE2A13D02046F8BD93F918208A42FF
:10502800F9DC93F91C309942F5DC4FF0000165F387
:1050380007013046FFF732FE01243870EBE70029FC
:10504800E9DB3046FFF716FFA842E4DD3046FFF7FC
:1050580003FF40FA05F313F00100E6D10446DAE74E
:10506800F80801082DE9F84300230370124B17468E
:10507800282202FB073306461B79FF2B0C4603D078
:1050880000252846BDE8F8830846FBF77BF8062884
:10509800F6D104F1FF3804F1050918F8010FFCF7FF
:1050A8002FF905460028EBD0C845F6D121463846E9
:1050B800FFF730FE3070E4E7F8080108F8B5114B47
:1050C8004FF0280C0CFB023300271B790770FE2BCE
:1050D80004460E46154604D0FF2B0CD0013B032B8B
:1050E8000DD830460AF0A0FA2A4601462046BDE807
:1050F800F840FFF781BFBDE8F840FFF7B3BF384677
:10510800F8BD00BFF80801080388B3F5407F10B563
:10511800044607D949F64040FDF7C8FD2388A3F5A2
:105128000073238010BD10B504464068FDF70AFBE4
:1051380023880BB1013323802046FFF7E5FF10BD1C
:1051480070B5044640680E46FDF708FB258825B172
:105158003046FBF717F8054425802046FFF7D4FFB3
:1051680070BDF8B5044604F10A0740680D46FDF71E
:10517800F5FA60683946FDF7F1FA26884EB12846F7
:10518800FBF700F805463846FAF7FCFF05443544B6
:1051980025802046FFF7B8FFF8BD000038B541600C
:1051A800003904464FF0000518BF0121017245720D
:1051B80007490A300AF0BAFA84F88E50A573C4F881
:1051C800905084F8945084F89C50258038BD00BFD6
:1051D8005AFB0008437A8B420DD00129417206D050
:1051E800022906D039B904490A300AF09FBA03499E
:1051F800FAE70349F8E770475AFB00085DFB000827
:105208005CFB000890F88E30642B08D8C218013374
:10521800DBB2917380F88E30184400238373704793
:1052280008B50E30FAF7A4FFB0FA80F0400908BDBF
:105238002DE9F043064691B0084688461546FAF728
:10524800A1FF06F10E0904464846FAF79BFFE4B2AF
:10525800631CC7B2BB4203DB002011B0BDE8F0837A
:105268002246414648460AF069FA0028F4D104F17A
:105278000E0322461E44BA4203460CD216F8011BFE
:10528800202905D040336B440130C0B203F8401CDC
:105298000132D2B2EFE700F140036B44002202284A
:1052A80003F8402CD8D19DF800303D2BD4D19DF87F
:1052B8000130303BDAB2092ACED82B600120CCE786
:1052C80010B508490446FFF73BFF074B1978303102
:1052D8002046C9B2FFF727FF04492046FFF741FFE0
:1052E80010BD00BF5FFB0008D400002063FA00086F
:1052F8002DE9F047837B702B90B080460F46164609
:1053080072D1C37B202B6FD1007C0AF0BBF9002837
:1053180042D000254FF002092C4608F10E0A5046EB
:10532800FAF730FF814515D208EB09039B7B3D2B2B
:105338000ED0202B07D005F140016A1C0DEB0105AA
:1053480005F8403CD5B209F101035FFA83F9E6E7B5
:105358002C46F0E705F140030DEB0305002305F8A3
:10536800403CE4B96846FAF70DFFE5B2A84207EBFE
:10537800050304F1010408D905F140036B4413F84F
:10538800400C0AF075FA7855ECE7002217491A70B4
:1053980030460AF0CBF9012010B0BDE8F087E846A6
:1053A8001D4618F8010B0AF063FA78550135EBB27F
:1053B800A342F6D300253D550134E4B26846FAF716
:1053C800E1FE6719FFB2874206EB050309D207F130
:1053D80040020DEB0207013517F8402C1A70EDB2A8
:1053E800ECE700221A70D6E70020D5E769FB000831
:1053F8002DE9FF472B4E282303FB0166044633792A
:10540800FE2B0D4621D0FF2B4AD0022B1AD196F93C
:1054180018502549FFF794FE2846694608F04DFBC9
:1054280069462046FFF79DFE96F91C501F49204605
:10543800FFF786FE6946284608F03FFB6946204686
:10544800FFF78FFE04B0BDE8F0870846FFF704FDBC
:10545800DFF85C90DFF85CA080460026F7B20123F5
:105468003A4629466846FFF779FC0028EAD0B3B2E5
:1054780048FA03F3DB0711D549462046FFF760FEDB
:1054880007F13001C9B22046FFF74DFE51462046CC
:10549800FFF756FE69462046FFF763FE0136DDE753
:1054A8000549CDE7F80801086BFB000873FB000805
:1054B8007BFB00087EFB000882FB0008F0B5044671
:1054C80089B008460D46FFF7EFFC2E4F2E490646D9
:1054D8002046FFF735FE282303FB05772046B968E9
:1054E800FFF72EFE29492046FFF72AFE2EB9284944
:1054F8002046FFF736FE09B0F0BD0122294668466E
:10550800FFF738FD69462046FFF71AFE3B79FE2B68
:1055180007D0FF2B1ED004F10A012046FFF710FE2A
:10552800E9E72846FFF79EFB05781A492046FFF76A
:1055380007FE05F13001C9B22046FFF7F4FD164910
:105548002046FFF7FDFD012EE5D114492046FFF75F
:10555800F7FDE0E7124B5B78002BDCD16846FBF7E0
:1055680023FF0428D7D8DFE800F0030507090B005C
:105578000C49EBE70C49E9E70C49E7E70C49E5E793
:105588000C49E3E7F80801087BFB00087EFB0008EC
:1055980091FB0008A1FB00088FFB0008A4FB000892
:1055A800D4000020B3FB0008B8FB0008BDFB0008CE
:1055B800C2FB0008C8FB00080129F8B506460D46DD
:1055C80001D9032907D1194B1B78022B03D018499D
:1055D8003046FFF7C6FD154F0024012D08D120469F
:1055E800FFF70AFB50B92046FFF718FBA8B105E002
:1055F800022D08D12046FFF7FFFA70B90134E4B252
:105608002A2CEAD1F8BD032D0CD12046FFF706FB62
:105618000028F3D03B78022BE5D121463046FFF72E
:105628004DFFEBE7002DF5D0F7E700BF9904002008
:10563800CEFB000838B53D4B1A6890F89C30012B1A
:10564800044671D1D0F89030D31AB3F5FA7F6BD3F2
:10565800374DC0F890202846FBF781FD08F062FA24
:1056680001462046FFF76CFD32492046FFF768FDEA
:1056780005F11400FCF71BF908F054FA014620461E
:10568800FFF75EFD2C492046FFF75AFD95F880008C
:1056980008F048FA01462046FFF752FD2749204600
:1056A800FFF74EFD95F9780008F046FA01462046C6
:1056B800FFF746FD22492046FFF742FD95F97E0097
:1056C80008F03AFA01462046FFF73AFD1B49204602
:1056D800FFF736FD95F97A0008F02EFA01462046C4
:1056E800FFF72EFD17492046FFF72AFD05F1500068
:1056F800FCF7E3F880B208F029FA01462046FFF7E4
:105708001FFD0E492046FFF71BFD05F16400FCF75D
:10571800D4F880B208F01AFA01462046FFF710FDC7
:1057280009492046FFF71DFD38BD00BF042F0020A2
:105738006C1F0020EBFB0008EDFB0008F0FB0008E5
:10574800EEFB0008F3FB0008F6FB000830B514492F
:1057580089B00446FFF705FD12492046FFF7F0FC23
:10576800114B1B78022B18D1104D95F8723093B15C
:1057780005F17A012046FFF7E3FC0D492046FFF7C3
:10578800DFFC696F6846FBF7F1FE69462046FFF7C4
:10579800E8FC09B030BD0749F8E70749F6E700BF5C
:1057A800F8FB000817FC000899040020E802002014
:1057B800F0FB00081EFC0008D4FB00082DE9F043AC
:1057C800264EDFF89C90DFF89C8089B004460027BD
:1057D800F37DFDB2AB423ED9284608F0A3F9014655
:1057E8002046FFF7ADFC49462046FFF7A9FC731990
:1057F8000E35187E08F096F901462046FFF7A0FC02
:1058080019492046FFF79CFC56F8250008F0A8F92E
:1058180001462046FFF794FC14492046FFF790FC08
:1058280056F82500FBF75AF94146FBF7AFF908F09F
:105838009DFDFBF7ADFB694608F009F96846FBF7E3
:10584800CDFD69462046FFF77BFC09492046FFF756
:1058580088FC0137BCE709B0BDE8F083A008002048
:1058680033FC000800007A3A3AFC000844FC0008BF
:105878004AFC000810B51E490446FFF772FC204692
:105888001C49FFF76EFC20461B49FFF76AFC2046BF
:105898001A49FFF766FC20461949FFF762FC2046C3
:1058A8001849FFF75EFC20461749FFF75AFC2046C7
:1058B8001649FFF756FC20461549FFF752FC2046CB
:1058C8001449FFF74EFC20461349FFF74AFC2046CF
:1058D8001249FFF746FC20461149FFF742FC2046D3
:1058E8001049FFF73EFC10492046FFF73AFC10BD6F
:1058F8004FFC00086FFC000899FC0008BEFC00087B
:10590800E6FC00080AFD00082EFD000857FD000807
:1059180080FD0008C4FD0008E6FD000805FE00083B
:1059280034FE000861FE000898FE00082DE9F043E7
:10593800037A93B0044643B3A64B1E6890F88E30A2
:1059480083B1D0F89030F31AB3F5FA6F0AD9A249A7
:10595800FFF707FCA1492046FFF703FC002384F862
:105968008E30A37394F89C30B3B1606803681B69E8
:10597800984768B1606803685B699847002398494D
:1059880084F89C302046FFF7ECFB13B0BDE8F083A9
:1059980020802046FFF74EFE01238F4FDFF8448218
:1059A800DFF844922380606803681B6998470028E1
:1059B800EBD0606803685B6998470A280546C4F815
:1059C80090600ED00D280CD02C280AD03B2808D087
:1059D80001462046FFF7A7FB29462046FFF712FCA1
:1059E800E1E739462046FFF7BCFB41462046FFF772
:1059F80017FC38B12046FFF73DFF002384F88E30AE
:105A0800A373D0E749462046FFF70AFC0028F1D1E6
:105A180076492046FFF704FC0028EBD1744920465C
:105A2800FFF7FEFB054618B12046FFF78FFEE4E7B7
:105A380070492046FFF7F4FB38B12046FFF740FCD9
:105A480029462046FFF7B8FDD7E76B492046FFF700
:105A5800E7FB20B12046FFF733FC0121F1E7674956
:105A68002046FFF7DDFB20B12046FFF729FC022185
:105A7800E7E763492046FFF7D3FB20B12046FFF74D
:105A88001FFC0321DDE70AAA02A92046FFF730FC24
:105A9800002845D002A90DF10200FFF727FA20B926
:105AA80058492046FFF75DFBA7E7574B1B78022BA9
:105AB80006D09DF80200FFF7B1F808B15349F0E7A6
:105AC8009DF828303F2B0DD12046FFF7F9FB9DF8B4
